{
  "_format": "hh-sol-artifact-1",
  "contractName": "GeoDataRegistry",
  "sourceName": "contracts/GeoDataRegistry.sol",
  "abi": [
    {
      "inputs": [],
      "stateMutability": "nonpayable",
      "type": "constructor"
    },
    {
      "anonymous": false,
      "inputs": [
        {
          "indexed": true,
          "internalType": "uint256",
          "name": "submissionId",
          "type": "uint256"
        },
        {
          "indexed": true,
          "internalType": "address",
          "name": "submitter",
          "type": "address"
        },
        {
          "indexed": false,
          "internalType": "string",
          "name": "projectId",
          "type": "string"
        },
        {
          "indexed": false,
          "internalType": "int256",
          "name": "latitude",
          "type": "int256"
        },
        {
          "indexed": false,
          "internalType": "int256",
          "name": "longitude",
          "type": "int256"
        },
        {
          "indexed": false,
          "internalType": "uint256",
          "name": "imageCount",
          "type": "uint256"
        }
      ],
      "name": "DataSubmitted",
      "type": "event"
    },
    {
      "anonymous": false,
      "inputs": [
        {
          "indexed": true,
          "internalType": "uint256",
          "name": "submissionId",
          "type": "uint256"
        },
        {
          "indexed": true,
          "internalType": "address",
          "name": "verifier",
          "type": "address"
        },
        {
          "indexed": false,
          "internalType": "bool",
          "name": "approved",
          "type": "bool"
        },
        {
          "indexed": false,
          "internalType": "uint256",
          "name": "carbonCreditsAwarded",
          "type": "uint256"
        }
      ],
      "name": "DataVerified",
      "type": "event"
    },
    {
      "anonymous": false,
      "inputs": [
        {
          "indexed": true,
          "internalType": "uint256",
          "name": "submissionId",
          "type": "uint256"
        },
        {
          "indexed": false,
          "internalType": "int256",
          "name": "newLatitude",
          "type": "int256"
        },
        {
          "indexed": false,
          "internalType": "int256",
          "name": "newLongitude",
          "type": "int256"
        }
      ],
      "name": "LocationDataUpdated",
      "type": "event"
    },
    {
      "anonymous": false,
      "inputs": [
        {
          "indexed": true,
          "internalType": "bytes32",
          "name": "role",
          "type": "bytes32"
        },
        {
          "indexed": true,
          "internalType": "bytes32",
          "name": "previousAdminRole",
          "type": "bytes32"
        },
        {
          "indexed": true,
          "internalType": "bytes32",
          "name": "newAdminRole",
          "type": "bytes32"
        }
      ],
      "name": "RoleAdminChanged",
      "type": "event"
    },
    {
      "anonymous": false,
      "inputs": [
        {
          "indexed": true,
          "internalType": "bytes32",
          "name": "role",
          "type": "bytes32"
        },
        {
          "indexed": true,
          "internalType": "address",
          "name": "account",
          "type": "address"
        },
        {
          "indexed": true,
          "internalType": "address",
          "name": "sender",
          "type": "address"
        }
      ],
      "name": "RoleGranted",
      "type": "event"
    },
    {
      "anonymous": false,
      "inputs": [
        {
          "indexed": true,
          "internalType": "bytes32",
          "name": "role",
          "type": "bytes32"
        },
        {
          "indexed": true,
          "internalType": "address",
          "name": "account",
          "type": "address"
        },
        {
          "indexed": true,
          "internalType": "address",
          "name": "sender",
          "type": "address"
        }
      ],
      "name": "RoleRevoked",
      "type": "event"
    },
    {
      "inputs": [],
      "name": "DATA_SUBMITTER_ROLE",
      "outputs": [
        {
          "internalType": "bytes32",
          "name": "",
          "type": "bytes32"
        }
      ],
      "stateMutability": "view",
      "type": "function"
    },
    {
      "inputs": [],
      "name": "DEFAULT_ADMIN_ROLE",
      "outputs": [
        {
          "internalType": "bytes32",
          "name": "",
          "type": "bytes32"
        }
      ],
      "stateMutability": "view",
      "type": "function"
    },
    {
      "inputs": [],
      "name": "VERIFIER_ROLE",
      "outputs": [
        {
          "internalType": "bytes32",
          "name": "",
          "type": "bytes32"
        }
      ],
      "stateMutability": "view",
      "type": "function"
    },
    {
      "inputs": [
        {
          "internalType": "bytes32",
          "name": "role",
          "type": "bytes32"
        }
      ],
      "name": "getRoleAdmin",
      "outputs": [
        {
          "internalType": "bytes32",
          "name": "",
          "type": "bytes32"
        }
      ],
      "stateMutability": "view",
      "type": "function"
    },
    {
      "inputs": [],
      "name": "getStatistics",
      "outputs": [
        {
          "internalType": "uint256",
          "name": "totalSubmissions",
          "type": "uint256"
        },
        {
          "internalType": "uint256",
          "name": "verifiedSubmissions",
          "type": "uint256"
        },
        {
          "internalType": "uint256",
          "name": "totalCarbonCredits",
          "type": "uint256"
        },
        {
          "internalType": "uint256",
          "name": "uniqueSubmitters",
          "type": "uint256"
        }
      ],
      "stateMutability": "view",
      "type": "function"
    },
    {
      "inputs": [
        {
          "internalType": "uint256",
          "name": "submissionId",
          "type": "uint256"
        }
      ],
      "name": "getSubmission",
      "outputs": [
        {
          "internalType": "uint256",
          "name": "id",
          "type": "uint256"
        },
        {
          "internalType": "address",
          "name": "submitter",
          "type": "address"
        },
        {
          "internalType": "string",
          "name": "projectId",
          "type": "string"
        },
        {
          "internalType": "string",
          "name": "projectType",
          "type": "string"
        },
        {
          "components": [
            {
              "internalType": "int256",
              "name": "latitude",
              "type": "int256"
            },
            {
              "internalType": "int256",
              "name": "longitude",
              "type": "int256"
            },
            {
              "internalType": "int256",
              "name": "altitude",
              "type": "int256"
            },
            {
              "internalType": "uint256",
              "name": "accuracy",
              "type": "uint256"
            },
            {
              "internalType": "uint256",
              "name": "timestamp",
              "type": "uint256"
            }
          ],
          "internalType": "struct GeoDataRegistry.GPSCoordinates",
          "name": "location",
          "type": "tuple"
        },
        {
          "internalType": "string",
          "name": "description",
          "type": "string"
        },
        {
          "internalType": "uint256",
          "name": "submissionTime",
          "type": "uint256"
        },
        {
          "internalType": "bool",
          "name": "isVerified",
          "type": "bool"
        },
        {
          "internalType": "uint256",
          "name": "carbonCreditsAwarded",
          "type": "uint256"
        }
      ],
      "stateMutability": "view",
      "type": "function"
    },
    {
      "inputs": [
        {
          "internalType": "uint256",
          "name": "submissionId",
          "type": "uint256"
        }
      ],
      "name": "getSubmissionImages",
      "outputs": [
        {
          "components": [
            {
              "internalType": "string",
              "name": "ipfsHash",
              "type": "string"
            },
            {
              "internalType": "string",
              "name": "filename",
              "type": "string"
            },
            {
              "internalType": "uint256",
              "name": "fileSize",
              "type": "uint256"
            },
            {
              "internalType": "uint256",
              "name": "captureTime",
              "type": "uint256"
            },
            {
              "internalType": "string",
              "name": "imageType",
              "type": "string"
            },
            {
              "internalType": "uint256",
              "name": "width",
              "type": "uint256"
            },
            {
              "internalType": "uint256",
              "name": "height",
              "type": "uint256"
            }
          ],
          "internalType": "struct GeoDataRegistry.ImageMetadata[]",
          "name": "",
          "type": "tuple[]"
        }
      ],
      "stateMutability": "view",
      "type": "function"
    },
    {
      "inputs": [
        {
          "internalType": "string",
          "name": "projectId",
          "type": "string"
        }
      ],
      "name": "getSubmissionsByProject",
      "outputs": [
        {
          "internalType": "uint256[]",
          "name": "",
          "type": "uint256[]"
        }
      ],
      "stateMutability": "view",
      "type": "function"
    },
    {
      "inputs": [
        {
          "internalType": "address",
          "name": "user",
          "type": "address"
        }
      ],
      "name": "getSubmissionsByUser",
      "outputs": [
        {
          "internalType": "uint256[]",
          "name": "",
          "type": "uint256[]"
        }
      ],
      "stateMutability": "view",
      "type": "function"
    },
    {
      "inputs": [
        {
          "internalType": "int256",
          "name": "minLatitude",
          "type": "int256"
        },
        {
          "internalType": "int256",
          "name": "maxLatitude",
          "type": "int256"
        },
        {
          "internalType": "int256",
          "name": "minLongitude",
          "type": "int256"
        },
        {
          "internalType": "int256",
          "name": "maxLongitude",
          "type": "int256"
        }
      ],
      "name": "getSubmissionsInArea",
      "outputs": [
        {
          "internalType": "uint256[]",
          "name": "",
          "type": "uint256[]"
        }
      ],
      "stateMutability": "view",
      "type": "function"
    },
    {
      "inputs": [],
      "name": "getTotalSubmissions",
      "outputs": [
        {
          "internalType": "uint256",
          "name": "",
          "type": "uint256"
        }
      ],
      "stateMutability": "view",
      "type": "function"
    },
    {
      "inputs": [
        {
          "internalType": "bytes32",
          "name": "role",
          "type": "bytes32"
        },
        {
          "internalType": "address",
          "name": "account",
          "type": "address"
        }
      ],
      "name": "grantRole",
      "outputs": [],
      "stateMutability": "nonpayable",
      "type": "function"
    },
    {
      "inputs": [
        {
          "internalType": "address",
          "name": "user",
          "type": "address"
        }
      ],
      "name": "grantSubmitterRole",
      "outputs": [],
      "stateMutability": "nonpayable",
      "type": "function"
    },
    {
      "inputs": [
        {
          "internalType": "address",
          "name": "user",
          "type": "address"
        }
      ],
      "name": "grantVerifierRole",
      "outputs": [],
      "stateMutability": "nonpayable",
      "type": "function"
    },
    {
      "inputs": [
        {
          "internalType": "bytes32",
          "name": "role",
          "type": "bytes32"
        },
        {
          "internalType": "address",
          "name": "account",
          "type": "address"
        }
      ],
      "name": "hasRole",
      "outputs": [
        {
          "internalType": "bool",
          "name": "",
          "type": "bool"
        }
      ],
      "stateMutability": "view",
      "type": "function"
    },
    {
      "inputs": [
        {
          "internalType": "bytes32",
          "name": "role",
          "type": "bytes32"
        },
        {
          "internalType": "address",
          "name": "account",
          "type": "address"
        }
      ],
      "name": "renounceRole",
      "outputs": [],
      "stateMutability": "nonpayable",
      "type": "function"
    },
    {
      "inputs": [
        {
          "internalType": "bytes32",
          "name": "role",
          "type": "bytes32"
        },
        {
          "internalType": "address",
          "name": "account",
          "type": "address"
        }
      ],
      "name": "revokeRole",
      "outputs": [],
      "stateMutability": "nonpayable",
      "type": "function"
    },
    {
      "inputs": [
        {
          "internalType": "uint256",
          "name": "",
          "type": "uint256"
        }
      ],
      "name": "submissions",
      "outputs": [
        {
          "internalType": "uint256",
          "name": "id",
          "type": "uint256"
        },
        {
          "internalType": "address",
          "name": "submitter",
          "type": "address"
        },
        {
          "internalType": "string",
          "name": "projectId",
          "type": "string"
        },
        {
          "internalType": "string",
          "name": "projectType",
          "type": "string"
        },
        {
          "components": [
            {
              "internalType": "int256",
              "name": "latitude",
              "type": "int256"
            },
            {
              "internalType": "int256",
              "name": "longitude",
              "type": "int256"
            },
            {
              "internalType": "int256",
              "name": "altitude",
              "type": "int256"
            },
            {
              "internalType": "uint256",
              "name": "accuracy",
              "type": "uint256"
            },
            {
              "internalType": "uint256",
              "name": "timestamp",
              "type": "uint256"
            }
          ],
          "internalType": "struct GeoDataRegistry.GPSCoordinates",
          "name": "location",
          "type": "tuple"
        },
        {
          "internalType": "string",
          "name": "description",
          "type": "string"
        },
        {
          "internalType": "uint256",
          "name": "submissionTime",
          "type": "uint256"
        },
        {
          "internalType": "bool",
          "name": "isVerified",
          "type": "bool"
        },
        {
          "internalType": "address",
          "name": "verifiedBy",
          "type": "address"
        },
        {
          "internalType": "uint256",
          "name": "verificationTime",
          "type": "uint256"
        },
        {
          "internalType": "string",
          "name": "verificationNotes",
          "type": "string"
        },
        {
          "internalType": "uint256",
          "name": "carbonCreditsAwarded",
          "type": "uint256"
        }
      ],
      "stateMutability": "view",
      "type": "function"
    },
    {
      "inputs": [
        {
          "internalType": "bytes32",
          "name": "",
          "type": "bytes32"
        }
      ],
      "name": "submissionsByLocation",
      "outputs": [
        {
          "internalType": "uint256",
          "name": "",
          "type": "uint256"
        }
      ],
      "stateMutability": "view",
      "type": "function"
    },
    {
      "inputs": [
        {
          "internalType": "string",
          "name": "",
          "type": "string"
        },
        {
          "internalType": "uint256",
          "name": "",
          "type": "uint256"
        }
      ],
      "name": "submissionsByProject",
      "outputs": [
        {
          "internalType": "uint256",
          "name": "",
          "type": "uint256"
        }
      ],
      "stateMutability": "view",
      "type": "function"
    },
    {
      "inputs": [
        {
          "internalType": "address",
          "name": "",
          "type": "address"
        },
        {
          "internalType": "uint256",
          "name": "",
          "type": "uint256"
        }
      ],
      "name": "submissionsByUser",
      "outputs": [
        {
          "internalType": "uint256",
          "name": "",
          "type": "uint256"
        }
      ],
      "stateMutability": "view",
      "type": "function"
    },
    {
      "inputs": [
        {
          "internalType": "string",
          "name": "projectId",
          "type": "string"
        },
        {
          "internalType": "string",
          "name": "projectType",
          "type": "string"
        },
        {
          "internalType": "int256",
          "name": "latitude",
          "type": "int256"
        },
        {
          "internalType": "int256",
          "name": "longitude",
          "type": "int256"
        },
        {
          "internalType": "int256",
          "name": "altitude",
          "type": "int256"
        },
        {
          "internalType": "uint256",
          "name": "accuracy",
          "type": "uint256"
        },
        {
          "internalType": "string",
          "name": "description",
          "type": "string"
        },
        {
          "internalType": "string[]",
          "name": "imageHashes",
          "type": "string[]"
        },
        {
          "internalType": "uint256[]",
          "name": "imageSizes",
          "type": "uint256[]"
        },
        {
          "internalType": "string[]",
          "name": "imageFilenames",
          "type": "string[]"
        }
      ],
      "name": "submitGeoData",
      "outputs": [
        {
          "internalType": "uint256",
          "name": "",
          "type": "uint256"
        }
      ],
      "stateMutability": "nonpayable",
      "type": "function"
    },
    {
      "inputs": [
        {
          "internalType": "bytes4",
          "name": "interfaceId",
          "type": "bytes4"
        }
      ],
      "name": "supportsInterface",
      "outputs": [
        {
          "internalType": "bool",
          "name": "",
          "type": "bool"
        }
      ],
      "stateMutability": "view",
      "type": "function"
    },
    {
      "inputs": [
        {
          "internalType": "uint256",
          "name": "submissionId",
          "type": "uint256"
        },
        {
          "internalType": "int256",
          "name": "newLatitude",
          "type": "int256"
        },
        {
          "internalType": "int256",
          "name": "newLongitude",
          "type": "int256"
        }
      ],
      "name": "updateLocation",
      "outputs": [],
      "stateMutability": "nonpayable",
      "type": "function"
    },
    {
      "inputs": [
        {
          "internalType": "uint256",
          "name": "submissionId",
          "type": "uint256"
        },
        {
          "internalType": "bool",
          "name": "approved",
          "type": "bool"
        },
        {
          "internalType": "uint256",
          "name": "carbonCredits",
          "type": "uint256"
        },
        {
          "internalType": "string",
          "name": "verificationNotes",
          "type": "string"
        }
      ],
      "name": "verifySubmission",
      "outputs": [],
      "stateMutability": "nonpayable",
      "type": "function"
    }
  ],
  "bytecode": "0x60806040818152346200016757600180556000808052602091818352808220338352835260ff8183205416156200012f575b7f0ce23c3e399818cfee81a7ab0880f714e53d7672b08df0fa62f2843416e1ea09808352828452818320338452845260ff828420541615620000f5575b507ff52ef53ec1ccd82becd71536891a4878949c44f3e710519cb7b39d90c38fed2692838352828152818320338452815260ff828420541615620000ba575b61293685816200016d8239f35b83835282815281832090338452528120600160ff19825416179055339160008051602062002aa3833981519152339280a438808080620000ad565b8083528284528183203384528452818320600160ff198254161790553390339060008051602062002aa38339815191528580a4386200006e565b8180528183528082203383528352808220600160ff1982541617905533338360008051602062002aa38339815191528180a462000031565b600080fdfe608080604052600436101561001357600080fd5b60003560e01c90816301ffc9a714611eb3575080630337c06114611e2e5780631b2b49a614611df3578063248a9ca314611dc45780632f2ff15d14611d5f57806336568abe14611ccd578063372d6b2714611c2f578063396cf21914610d6f5780633e8686cc14610c305780634d077cd514610b6c57806354554d4614610b4e578063625205e514610ae357806364a879f614610a10578063663854a8146109e4578063850e6269146108d0578063916903f51461067c57806391d148541461062f578063a217fddf14610613578063ad73349e146104cc578063b901152314610454578063cc7c32ea146103fc578063d547741f146103bb578063d60e78aa14610310578063e7705db6146102d55763f4dd0a181461013257600080fd5b346102d0576020806003193601126102d05760043590600291610158835482111561288a565b60005260039182825260096040600020019081549061017682611ffa565b946101846040519687611f83565b82865284860191829460005285600020916000935b85851061025957604080518981528a51818b01819052600092600582901b83018101918b918d9085015b8287106101d05785850386f35b909192938280600192603f1989820301855287519061023561020e6101fe845160e0855260e08501906120b4565b85850151848203878601526120b4565b604084015160408401526060808501519084015260808085015190848303908501526120b4565b9160a0808201519083015260c08091015191015296019201960195929190926101c3565b60078860019260409b9a9b5161026e81611f4d565b61027788612166565b8152610284858901612166565b838201528688015460408201528588015460608201526102a660048901612166565b6080820152600588015460a0820152600688015460c0820152815201940194019392979697610199565b600080fd5b346102d05760003660031901126102d05760206040517f0ce23c3e399818cfee81a7ab0880f714e53d7672b08df0fa62f2843416e1ea098152f35b346102d0576020806003193601126102d0576004356001600160401b0381116102d05781610345610358923690600401611fa4565b8160405193828580945193849201612091565b8101600581520301902090604051908181845491828152019360005281600020916000905b8282106103a4576103a08561039481890382611f83565b604051918291826120f1565b0390f35b83548652948501946001938401939091019061037d565b346102d05760403660031901126102d0576103fa6004356103da611f1c565b908060005260006020526103f560016040600020015461255a565b612664565b005b346102d05760403660031901126102d057610415611f06565b6001600160a01b03166000908152600460205260409020805460243591908210156102d057602091610446916120d9565b90546040519160031b1c8152f35b346102d0576020806003193601126102d0576001600160a01b03610476611f06565b1660005260048152604060002090604051908181845491828152019360005281600020916000905b8282106104b5576103a08561039481890382611f83565b83548652948501946001938401939091019061049e565b346102d05760203660031901126102d0576004356000908152600360205260409020805460018201546001600160a01b039081169261050d60028201612166565b9161051a60038301612166565b6105266004840161220c565b91610533600a8501612166565b92600b85015493600c86015491600d87015494600e880161055390612166565b97600f0154986040519b8c9b8c5260208c01526102008060408d01528b0161057a916120b4565b8a810360608c015261058b916120b4565b9060808a016105c19160808091805184526020810151602085015260408101516040850152606081015160608501520151910152565b8881036101208a01526105d3916120b4565b9361014088015260ff8116151561016088015260081c166101808601526101a08501528381036101c0850152610608916120b4565b906101e08301520390f35b346102d05760003660031901126102d057602060405160008152f35b346102d05760403660031901126102d057610648611f1c565b600435600052600060205260406000209060018060a01b0316600052602052602060ff604060002054166040519015158152f35b346102d05760803660031901126102d0576024358015156004358183036102d057604435606435936001600160401b03948581116102d0576106c2903690600401611fa4565b946106cb612415565b6106d960025485111561288a565b836000526020916003835260ff600c60406000200154166108985760008581526003845260409020600c810180546001600160a81b0319163360081b610100600160a81b031617600190811790915542600d83015588519193600e8501929190821161088257610749835461212c565b601f8111610839575b508599601f83116001146107d357829188999a9b839260009a999a946107c8575b50501b916000199060031b1c19161790555b6107bd575b50506040519384528301527f1ee067cac16c3207f1d71495c3e49e98c43c4041ab771c976a8fbac0ac0945fb60403393a3005b600f0155818561078a565b015192508c80610773565b601f9291921982169a84600052876000209160005b8d81106108245750838a9b9c9d9a999a1061080b575b505050811b019055610785565b015160001960f88460031b161c191690558a80806107fe565b818301518455928501929189019189016107e8565b8360005286600020601f840160051c810191888510610878575b601f0160051c019082905b82811061086c575050610752565b6000815501829061085e565b9091508190610853565b634e487b7160e01b600052604160045260246000fd5b60405162461bcd60e51b815260048101849052601060248201526f105b1c9958591e481d995c9a599a595960821b6044820152606490fd5b346102d05760803660031901126102d05760025460443590602435906004356064356108fb836128ce565b9460009460015b85811115610952578787610915816128ce565b9160005b82811061092e57604051806103a086826120f1565b8061093c61094d9284612841565b516109478287612841565b52612832565b610919565b806000526020600381528461096d600460406000200161220c565b91825192858985121594856109d9575b5050836109ca575b836109bc575b5050506109a1575b61099c90612832565b610902565b956109b4818861094761099c948c612841565b969050610993565b015113159050848a8061098b565b92508581840151121592610985565b13159350858d61097d565b346102d05760203660031901126102d05760043560005260066020526020604060002054604051908152f35b346102d05760203660031901126102d057610a29611f06565b610a31612248565b6001600160a01b031660008181527f806e2a7d00c072d747779081bbe49e052b9bab0bb13b720d89dd394d70bf16a660205260409020547ff52ef53ec1ccd82becd71536891a4878949c44f3e710519cb7b39d90c38fed26919060ff1615610a9557005b8160005260006020526040600020816000526020526040600020600160ff1982541617905533917f2f8788117e7eff1d82e926ec794901d17c78024a50270940304540a733656f0d600080a4005b346102d05760403660031901126102d0576004356001600160401b0381116102d057610b13903690600401611fa4565b610b2f6020602435928160405193828580945193849201612091565b8101600581520301902080548210156102d057602091610446916120d9565b346102d05760003660031901126102d0576020600254604051908152f35b346102d05760603660031901126102d0576004357f1bfc43ab2fbfd9bf699bc08492eb03fee280e1218c69d3104ba4b96ff172b96d6040602435604435610bb1612415565b610bbf60025486111561288a565b63055d4a7f1982121580610c22575b610bd7906127b3565b630aba94ff1981121580610c14575b610bef906127f2565b84600052600360205280600584600020846004820155015582519182526020820152a2005b50630aba9500811315610be6565b5063055d4a80821315610bce565b346102d05760203660031901126102d05760043560006080604051610c5481611f32565b8281528260208201528260408201528260608201520152610c7960025482111561288a565b60005260036020526040600020805460018060a01b0360018301541691600b8101549060ff600c82015416610d56600f83015492610cb960028201612166565b610d48610d15610ccb60038501612166565b610d07610ce6600a610cdf6004890161220c565b9701612166565b946040519c8d9c8d5260208d015260408c6101a091829101528c01906120b4565b908a820360608c01526120b4565b92608089019060808091805184526020810151602085015260408101516040850152606081015160608501520151910152565b8682036101208801526120b4565b9261014085015215156101608401526101808301520390f35b346102d0576101403660031901126102d0576004356001600160401b0381116102d057610da0903690600401611fa4565b6024356001600160401b0381116102d057610dbf903690600401611fa4565b60c4356001600160401b0381116102d057610dde903690600401611fa4565b9060e4356001600160401b0381116102d057610dfe903690600401612011565b61010435906001600160401b0382116102d057366023830112156102d057816004013591610e2b83611ffa565b92610e396040519485611f83565b8084526024602085019160051b830101913683116102d057602401905b828210611c1f57505050610124356001600160401b0381116102d057610e80903690600401612011565b3360009081527f806e2a7d00c072d747779081bbe49e052b9bab0bb13b720d89dd394d70bf16a660205260409020549095907ff52ef53ec1ccd82becd71536891a4878949c44f3e710519cb7b39d90c38fed269060ff1615611a8a5750600260015414611a45576002600155805115611a00578151156119bb5781518351036119765781518651036119315763055d4a7f19604435121580611921575b610f26906127b3565b630aba94ff19606435121580611911575b610f40906127f2565b6001600254019485600255604051610f5781611f32565b60443581526064356020820152608435604082015260a435606082015242608082015286600052600360205260406000209587875560018701336bffffffffffffffffffffffff60a01b82541617905583516001600160401b03811161088257610fc4600289015461212c565b601f81116118ca575b50806020601f821160011461185d57600091611852575b508160011b916000199060031b1c19161760028801555b8051906001600160401b03821161088257611019600389015461212c565b601f811161180b575b50602090601f83116001146117985760809392916000918361178d575b50508160011b916000199060031b1c19161760038801555b80516004880155602081015160058801556040810151600688015560608101516007880155015160088601558051906001600160401b0382116108825781906110a3600a88015461212c565b601f811161173a575b50602090601f83116001146116c8576000926116bd575b50508160011b916000199060031b1c191617600a8501555b42600b850155600c8401805460ff1916905560005b82518110156115cf576111038184612841565b5161110e8289612841565b516111198387612841565b51906040519261112884611f4d565b8352602083015260408201524260608201526040518060408101106001600160401b03604083011117610882576040810160405260048152634a50454760e01b60208201526080820152600060a0820152600060c0820152600986015490600160401b82101561088257600182018060098901558210156115b9576009870160005260206000209080518051906001600160401b0382116108825781906111d46007870286015461212c565b601f8111611564575b50602090601f83116001146114ee576000926114e3575b50508160011b916000199060031b1c191617600784028301555b60208101518051906001600160401b0382116108825781906112386001600788028701015461212c565b601f811161148b575b50602090601f831160011461140f57600092611404575b50508160011b916000199060031b1c191617600160078502840101555b60408101516002600785028401015560608101516003600785028401015560808101518051906001600160401b038211610882576112bb6004600787028601015461212c565b601f81116113b8575b50602090601f831160011461133257600693836113229897969460079460c094600092611327575b50508160011b916000199060031b1c1916176004848802860101555b60a081015160058488028601015501519302010155612832565b6110f0565b0151905038806112ec565b9060046007870286010160005260206000209160005b601f19851681106113a057509360018460079460c0946006986113229c9b9a98601f19811610611387575b505050811b01600484880286010155611308565b015160001960f88460031b161c19169055388080611373565b91926020600181928685015181550194019201611348565b6004600787028601016000526020600020601f840160051c8101602085106113fd575b601f830160051c820181106113f15750506112c4565b600081556001016113db565b50806113db565b015190508c80611258565b92506001600787028601016000526020600020906000935b601f1984168510611470576001945083601f19811610611457575b505050811b0160016007850284010155611275565b015160001960f88460031b161c191690558c8080611442565b81810151835560209485019460019093019290910190611427565b9091506001600787028601016000526020600020601f840160051c8101602085106114dc575b90849392915b601f830160051c820181106114cd575050611241565b600081558594506001016114b7565b50806114b1565b015190508c806111f4565b92506007860285016000526020600020906000935b601f1984168510611549576001945083601f19811610611530575b505050811b016007840283015561120e565b015160001960f88460031b161c191690558c808061151e565b81810151835560209485019460019093019290910190611503565b9091506007860285016000526020600020601f840160051c8101602085106115b2575b90849392915b601f830160051c820181106115a35750506111dd565b6000815585945060010161158d565b5080611587565b634e487b7160e01b600052603260045260246000fd5b5084823360005260046020526115e9826040600020612855565b6116118260405160208187516116028183858c01612091565b81016005815203019020612855565b6040519060208201906044358252606435604084015260408352606083018381106001600160401b03821117610882576020956116917f2e4f38da55461b9a668617b5f5b98207993771446b025980c82d588652ccb58c9387958460405287519020600052600689528560406000205551916080845260e08701906120b4565b90604435608087015260643560a087015260c08601523394605f1991030190a360018055604051908152f35b0151905088806110c3565b9250600a87016000526020600020906000935b601f198416851061171f576001945083601f19811610611706575b505050811b01600a8501556110db565b015160001960f88460031b161c191690558880806116f6565b818101518355602094850194600190930192909101906116db565b909150600a87016000526020600020601f840160051c810160208510611786575b90849392915b601f830160051c820181106117775750506110ac565b60008155859450600101611761565b508061175b565b015190508b8061103f565b906003890160005260206000209160005b601f19851681106117f3575091839160019360809695601f198116106117da575b505050811b016003880155611057565b015160001960f88460031b161c191690558b80806117ca565b919260206001819286850151815501940192016117a9565b600389016000526020600020601f840160051c81016020851061184b575b601f830160051c8201811061183f575050611022565b60008155600101611829565b5080611829565b90508501518b610fe4565b91506002890160005260206000206000925b601f19831684106118b2576001935082601f19811610611899575b5050811b016002880155610ffb565b87015160001960f88460031b161c191690558b8061188a565b8781015182556020938401936001909201910161186f565b600289016000526020600020601f830160051c81016020841061190a575b601f830160051c820181106118fe575050610fcd565b600081556001016118e8565b50806118e8565b50630aba95006064351315610f37565b5063055d4a806044351315610f1d565b60405162461bcd60e51b815260206004820152601f60248201527f46696c656e616d6520617272617973206c656e677468206d69736d61746368006044820152606490fd5b60405162461bcd60e51b815260206004820152601c60248201527f496d61676520617272617973206c656e677468206d69736d61746368000000006044820152606490fd5b60405162461bcd60e51b815260206004820152601b60248201527f4174206c65617374206f6e6520696d61676520726571756972656400000000006044820152606490fd5b60405162461bcd60e51b815260206004820152601a60248201527f50726f6a6563742049442063616e6e6f7420626520656d7074790000000000006044820152606490fd5b60405162461bcd60e51b815260206004820152601f60248201527f5265656e7472616e637947756172643a207265656e7472616e742063616c6c006044820152606490fd5b611a93336126e9565b60405191611aa083611f68565b60428352602083019060603683378351156115b9576030825383516001908110156115b957607860218601536041905b808211611bc5575050611b81576048611b4e92611b5d92611b7d9560405195869376020b1b1b2b9b9a1b7b73a3937b61d1030b1b1b7bab73a1604d1b6020860152611b25815180926020603789019101612091565b8401917001034b99036b4b9b9b4b733903937b6329607d1b603784015251809386840190612091565b01036028810184520182611f83565b60405162461bcd60e51b81526020600482015291829160248301906120b4565b0390fd5b606460405162461bcd60e51b815260206004820152602060248201527f537472696e67733a20686578206c656e67746820696e73756666696369656e746044820152fd5b9091600f811660108110156115b9576f181899199a1a9b1b9c1cb0b131b232b360811b901a611bf484886126d8565b5360041c918015611c09576000190190611ad0565b634e487b7160e01b600052601160045260246000fd5b8135815260209182019101610e56565b346102d05760003660031901126102d0576002546000908160015b82811115611c705750916080926040519283526020830152604082015260006060820152f35b80600052600360209080825260ff600c6040600020015416611c9d575b5050611c9890612832565b611c4a565b9092611cab90959295612832565b928560005252600f604060002001548101809111611c095792611c9885611c8d565b346102d05760403660031901126102d057611ce6611f1c565b336001600160a01b03821603611d02576103fa90600435612664565b60405162461bcd60e51b815260206004820152602f60248201527f416363657373436f6e74726f6c3a2063616e206f6e6c792072656e6f756e636560448201526e103937b632b9903337b91039b2b63360891b6064820152608490fd5b346102d05760403660031901126102d057600435611d7b611f1c565b816000526000602052611d9560016040600020015461255a565b81600052600060205260406000209060018060a01b0316908160005260205260ff6040600020541615610a9557005b346102d05760203660031901126102d05760043560005260006020526020600160406000200154604051908152f35b346102d05760003660031901126102d05760206040517ff52ef53ec1ccd82becd71536891a4878949c44f3e710519cb7b39d90c38fed268152f35b346102d05760203660031901126102d057611e47611f06565b611e4f612248565b6001600160a01b031660008181527f1da0b5176dfe03406af5a6eed66ca01dda9b45ac4da671c3fa379cb93717ef8160205260409020547f0ce23c3e399818cfee81a7ab0880f714e53d7672b08df0fa62f2843416e1ea09919060ff1615610a9557005b346102d05760203660031901126102d0576004359063ffffffff60e01b82168092036102d057602091637965db0b60e01b8114908115611ef5575b5015158152f35b6301ffc9a760e01b14905083611eee565b600435906001600160a01b03821682036102d057565b602435906001600160a01b03821682036102d057565b60a081019081106001600160401b0382111761088257604052565b60e081019081106001600160401b0382111761088257604052565b608081019081106001600160401b0382111761088257604052565b90601f801991011681019081106001600160401b0382111761088257604052565b81601f820112156102d0578035906001600160401b0382116108825760405192611fd8601f8401601f191660200185611f83565b828452602083830101116102d057816000926020809301838601378301015290565b6001600160401b0381116108825760051b60200190565b9080601f830112156102d05781359061202982611ffa565b926120376040519485611f83565b828452602092838086019160051b830101928084116102d057848301915b8483106120655750505050505090565b82356001600160401b0381116102d057869161208684848094890101611fa4565b815201920191612055565b60005b8381106120a45750506000910152565b8181015183820152602001612094565b906020916120cd81518092818552858086019101612091565b601f01601f1916010190565b80548210156115b95760005260206000200190600090565b6020908160408183019282815285518094520193019160005b828110612118575050505090565b83518552938101939281019260010161210a565b90600182811c9216801561215c575b602083101461214657565b634e487b7160e01b600052602260045260246000fd5b91607f169161213b565b906040519182600082549261217a8461212c565b9081845260019485811690816000146121e957506001146121a6575b50506121a492500383611f83565b565b9093915060005260209081600020936000915b8183106121d15750506121a493508201013880612196565b855488840185015294850194879450918301916121b9565b9150506121a494506020925060ff191682840152151560051b8201013880612196565b9060405161221981611f32565b608060048294805484526001810154602085015260028101546040850152600381015460608501520154910152565b3360009081527fad3228b676f7d3cd4284a5443f17f1962b36e491b30a40b2405849e597ba5fb5602090815260408083205490929060ff161561228a57505050565b612293336126e9565b90808451906122a182611f68565b6042825284820192606036853782511561240157603084538251906001918210156124015790607860218501536041915b81831161239357505050612351576048611b7d93869361233593612326985198899376020b1b1b2b9b9a1b7b73a3937b61d1030b1b1b7bab73a1604d1b8a860152611b25815180928c603789019101612091565b01036028810187520185611f83565b5192839262461bcd60e51b8452600484015260248301906120b4565b60648486519062461bcd60e51b825280600483015260248201527f537472696e67733a20686578206c656e67746820696e73756666696369656e746044820152fd5b909192600f811660108110156123ed576f181899199a1a9b1b9c1cb0b131b232b360811b901a6123c385876126d8565b5360041c9280156123d9576000190191906122d2565b634e487b7160e01b82526011600452602482fd5b634e487b7160e01b83526032600452602483fd5b634e487b7160e01b81526032600452602490fd5b3360009081527f1da0b5176dfe03406af5a6eed66ca01dda9b45ac4da671c3fa379cb93717ef81602090815260408083205490927f0ce23c3e399818cfee81a7ab0880f714e53d7672b08df0fa62f2843416e1ea099160ff16156124795750505050565b612482336126e9565b9184519061248f82611f68565b6042825284820192606036853782511561240157603084538251906001918210156124015790607860218501536041915b81831161251457505050612351576048611b7d93869361233593612326985198899376020b1b1b2b9b9a1b7b73a3937b61d1030b1b1b7bab73a1604d1b8a860152611b25815180928c603789019101612091565b909192600f811660108110156123ed576f181899199a1a9b1b9c1cb0b131b232b360811b901a61254485876126d8565b5360041c9280156123d9576000190191906124c0565b600090808252602090828252604092838120338252835260ff8482205416156125835750505050565b61258c336126e9565b9184519061259982611f68565b6042825284820192606036853782511561240157603084538251906001918210156124015790607860218501536041915b81831161261e57505050612351576048611b7d93869361233593612326985198899376020b1b1b2b9b9a1b7b73a3937b61d1030b1b1b7bab73a1604d1b8a860152611b25815180928c603789019101612091565b909192600f811660108110156123ed576f181899199a1a9b1b9c1cb0b131b232b360811b901a61264e85876126d8565b5360041c9280156123d9576000190191906125ca565b9060009180835282602052604083209160018060a01b03169182845260205260ff60408420541661269457505050565b80835282602052604083208284526020526040832060ff1981541690557ff6391f5c32d9c69d2a47ea670b442974b53935d1edc7fd64eb21e047a839171b339380a4565b9081518110156115b9570160200190565b60405190606082018281106001600160401b0382111761088257604052602a82526020820160403682378251156115b9576030905381516001908110156115b957607860218401536029905b808211612745575050611b815790565b9091600f8116601081101561279e576f181899199a1a9b1b9c1cb0b131b232b360811b901a61277484866126d8565b5360041c918015612789576000190190612735565b60246000634e487b7160e01b81526011600452fd5b60246000634e487b7160e01b81526032600452fd5b156127ba57565b60405162461bcd60e51b815260206004820152601060248201526f496e76616c6964206c6174697475646560801b6044820152606490fd5b156127f957565b60405162461bcd60e51b8152602060048201526011602482015270496e76616c6964206c6f6e67697475646560781b6044820152606490fd5b6000198114611c095760010190565b80518210156115b95760209160051b010190565b8054600160401b81101561088257612872916001820181556120d9565b819291549060031b91821b91600019901b1916179055565b1561289157565b60405162461bcd60e51b8152602060048201526015602482015274125b9d985b1a59081cdd589b5a5cdcda5bdb881251605a1b6044820152606490fd5b906128d882611ffa565b6128e56040519182611f83565b82815280926128f6601f1991611ffa565b019060203691013756fea264697066735822122012382db04df9c35cdd39c68b6cf1b562ae6016863a76aa095ab3ba1368ac5bd064736f6c634300081300332f8788117e7eff1d82e926ec794901d17c78024a50270940304540a733656f0d",
  "linkReferences": {},
  "deployedLinkReferences": {}
}