{
  "_format": "hh-sol-artifact-1",
  "contractName": "VerificationOracle",
  "sourceName": "contracts/VerificationOracle.sol",
  "abi": [
    {
      "inputs": [
        {
          "internalType": "address",
          "name": "_projectRegistry",
          "type": "address"
        },
        {
          "internalType": "address",
          "name": "_carbonCreditToken",
          "type": "address"
        }
      ],
      "stateMutability": "nonpayable",
      "type": "constructor"
    },
    {
      "anonymous": false,
      "inputs": [
        {
          "indexed": true,
          "internalType": "uint256",
          "name": "projectId",
          "type": "uint256"
        },
        {
          "indexed": false,
          "internalType": "uint256",
          "name": "amount",
          "type": "uint256"
        },
        {
          "indexed": false,
          "internalType": "address",
          "name": "recipient",
          "type": "address"
        }
      ],
      "name": "CarbonCreditsIssued",
      "type": "event"
    },
    {
      "anonymous": false,
      "inputs": [
        {
          "indexed": true,
          "internalType": "address",
          "name": "previousOwner",
          "type": "address"
        },
        {
          "indexed": true,
          "internalType": "address",
          "name": "newOwner",
          "type": "address"
        }
      ],
      "name": "OwnershipTransferred",
      "type": "event"
    },
    {
      "anonymous": false,
      "inputs": [
        {
          "indexed": true,
          "internalType": "uint256",
          "name": "projectId",
          "type": "uint256"
        },
        {
          "indexed": false,
          "internalType": "uint256",
          "name": "finalCarbonCredits",
          "type": "uint256"
        },
        {
          "indexed": false,
          "internalType": "uint256",
          "name": "timestamp",
          "type": "uint256"
        }
      ],
      "name": "ProjectVerificationCompleted",
      "type": "event"
    },
    {
      "anonymous": false,
      "inputs": [
        {
          "indexed": true,
          "internalType": "uint256",
          "name": "verificationId",
          "type": "uint256"
        },
        {
          "indexed": true,
          "internalType": "uint256",
          "name": "projectId",
          "type": "uint256"
        },
        {
          "indexed": false,
          "internalType": "enum VerificationOracle.DataSource",
          "name": "source",
          "type": "uint8"
        },
        {
          "indexed": false,
          "internalType": "address",
          "name": "submitter",
          "type": "address"
        },
        {
          "indexed": false,
          "internalType": "string",
          "name": "ipfsHash",
          "type": "string"
        }
      ],
      "name": "VerificationDataSubmitted",
      "type": "event"
    },
    {
      "anonymous": false,
      "inputs": [
        {
          "indexed": true,
          "internalType": "uint256",
          "name": "verificationId",
          "type": "uint256"
        },
        {
          "indexed": false,
          "internalType": "enum VerificationOracle.VerificationStatus",
          "name": "oldStatus",
          "type": "uint8"
        },
        {
          "indexed": false,
          "internalType": "enum VerificationOracle.VerificationStatus",
          "name": "newStatus",
          "type": "uint8"
        },
        {
          "indexed": false,
          "internalType": "address",
          "name": "updatedBy",
          "type": "address"
        }
      ],
      "name": "VerificationStatusUpdated",
      "type": "event"
    },
    {
      "inputs": [],
      "name": "VERIFICATION_THRESHOLD",
      "outputs": [
        {
          "internalType": "uint256",
          "name": "",
          "type": "uint256"
        }
      ],
      "stateMutability": "view",
      "type": "function"
    },
    {
      "inputs": [
        {
          "internalType": "address",
          "name": "_verifier",
          "type": "address"
        }
      ],
      "name": "addVerifier",
      "outputs": [],
      "stateMutability": "nonpayable",
      "type": "function"
    },
    {
      "inputs": [
        {
          "internalType": "address",
          "name": "",
          "type": "address"
        }
      ],
      "name": "authorizedVerifiers",
      "outputs": [
        {
          "internalType": "bool",
          "name": "",
          "type": "bool"
        }
      ],
      "stateMutability": "view",
      "type": "function"
    },
    {
      "inputs": [],
      "name": "carbonCreditToken",
      "outputs": [
        {
          "internalType": "contract CarbonCreditToken",
          "name": "",
          "type": "address"
        }
      ],
      "stateMutability": "view",
      "type": "function"
    },
    {
      "inputs": [
        {
          "internalType": "uint256",
          "name": "_projectId",
          "type": "uint256"
        }
      ],
      "name": "checkVerificationRequirements",
      "outputs": [
        {
          "internalType": "bool",
          "name": "",
          "type": "bool"
        }
      ],
      "stateMutability": "view",
      "type": "function"
    },
    {
      "inputs": [
        {
          "internalType": "uint256",
          "name": "_projectId",
          "type": "uint256"
        }
      ],
      "name": "getProjectVerification",
      "outputs": [
        {
          "components": [
            {
              "internalType": "uint256",
              "name": "projectId",
              "type": "uint256"
            },
            {
              "internalType": "uint256[]",
              "name": "verificationIds",
              "type": "uint256[]"
            },
            {
              "internalType": "uint256",
              "name": "communityDataCount",
              "type": "uint256"
            },
            {
              "internalType": "uint256",
              "name": "satelliteDataCount",
              "type": "uint256"
            },
            {
              "internalType": "uint256",
              "name": "droneDataCount",
              "type": "uint256"
            },
            {
              "internalType": "uint256",
              "name": "thirdPartyDataCount",
              "type": "uint256"
            },
            {
              "internalType": "uint256",
              "name": "verifiedDataCount",
              "type": "uint256"
            },
            {
              "internalType": "bool",
              "name": "isCompletelyVerified",
              "type": "bool"
            },
            {
              "internalType": "uint256",
              "name": "finalCarbonCredits",
              "type": "uint256"
            },
            {
              "internalType": "uint256",
              "name": "lastUpdateTimestamp",
              "type": "uint256"
            }
          ],
          "internalType": "struct VerificationOracle.ProjectVerification",
          "name": "",
          "type": "tuple"
        }
      ],
      "stateMutability": "view",
      "type": "function"
    },
    {
      "inputs": [
        {
          "internalType": "uint256",
          "name": "_projectId",
          "type": "uint256"
        }
      ],
      "name": "getProjectVerificationIds",
      "outputs": [
        {
          "internalType": "uint256[]",
          "name": "",
          "type": "uint256[]"
        }
      ],
      "stateMutability": "view",
      "type": "function"
    },
    {
      "inputs": [],
      "name": "getTotalVerifications",
      "outputs": [
        {
          "internalType": "uint256",
          "name": "",
          "type": "uint256"
        }
      ],
      "stateMutability": "view",
      "type": "function"
    },
    {
      "inputs": [
        {
          "internalType": "uint256",
          "name": "_verificationId",
          "type": "uint256"
        }
      ],
      "name": "getVerificationData",
      "outputs": [
        {
          "components": [
            {
              "internalType": "uint256",
              "name": "projectId",
              "type": "uint256"
            },
            {
              "internalType": "enum VerificationOracle.DataSource",
              "name": "source",
              "type": "uint8"
            },
            {
              "internalType": "string",
              "name": "ipfsHash",
              "type": "string"
            },
            {
              "internalType": "string",
              "name": "description",
              "type": "string"
            },
            {
              "internalType": "address",
              "name": "submitter",
              "type": "address"
            },
            {
              "internalType": "uint256",
              "name": "timestamp",
              "type": "uint256"
            },
            {
              "internalType": "enum VerificationOracle.VerificationStatus",
              "name": "status",
              "type": "uint8"
            },
            {
              "internalType": "string",
              "name": "notes",
              "type": "string"
            },
            {
              "internalType": "uint256",
              "name": "carbonCreditsEstimate",
              "type": "uint256"
            }
          ],
          "internalType": "struct VerificationOracle.VerificationData",
          "name": "",
          "type": "tuple"
        }
      ],
      "stateMutability": "view",
      "type": "function"
    },
    {
      "inputs": [
        {
          "internalType": "address",
          "name": "_verifier",
          "type": "address"
        }
      ],
      "name": "isAuthorizedVerifier",
      "outputs": [
        {
          "internalType": "bool",
          "name": "",
          "type": "bool"
        }
      ],
      "stateMutability": "view",
      "type": "function"
    },
    {
      "inputs": [
        {
          "internalType": "enum VerificationOracle.DataSource",
          "name": "",
          "type": "uint8"
        }
      ],
      "name": "minimumDataRequirements",
      "outputs": [
        {
          "internalType": "uint256",
          "name": "",
          "type": "uint256"
        }
      ],
      "stateMutability": "view",
      "type": "function"
    },
    {
      "inputs": [],
      "name": "owner",
      "outputs": [
        {
          "internalType": "address",
          "name": "",
          "type": "address"
        }
      ],
      "stateMutability": "view",
      "type": "function"
    },
    {
      "inputs": [],
      "name": "projectRegistry",
      "outputs": [
        {
          "internalType": "contract ProjectRegistry",
          "name": "",
          "type": "address"
        }
      ],
      "stateMutability": "view",
      "type": "function"
    },
    {
      "inputs": [
        {
          "internalType": "uint256",
          "name": "",
          "type": "uint256"
        }
      ],
      "name": "projectVerifications",
      "outputs": [
        {
          "internalType": "uint256",
          "name": "projectId",
          "type": "uint256"
        },
        {
          "internalType": "uint256",
          "name": "communityDataCount",
          "type": "uint256"
        },
        {
          "internalType": "uint256",
          "name": "satelliteDataCount",
          "type": "uint256"
        },
        {
          "internalType": "uint256",
          "name": "droneDataCount",
          "type": "uint256"
        },
        {
          "internalType": "uint256",
          "name": "thirdPartyDataCount",
          "type": "uint256"
        },
        {
          "internalType": "uint256",
          "name": "verifiedDataCount",
          "type": "uint256"
        },
        {
          "internalType": "bool",
          "name": "isCompletelyVerified",
          "type": "bool"
        },
        {
          "internalType": "uint256",
          "name": "finalCarbonCredits",
          "type": "uint256"
        },
        {
          "internalType": "uint256",
          "name": "lastUpdateTimestamp",
          "type": "uint256"
        }
      ],
      "stateMutability": "view",
      "type": "function"
    },
    {
      "inputs": [
        {
          "internalType": "address",
          "name": "_verifier",
          "type": "address"
        }
      ],
      "name": "removeVerifier",
      "outputs": [],
      "stateMutability": "nonpayable",
      "type": "function"
    },
    {
      "inputs": [],
      "name": "renounceOwnership",
      "outputs": [],
      "stateMutability": "nonpayable",
      "type": "function"
    },
    {
      "inputs": [
        {
          "internalType": "uint256",
          "name": "_projectId",
          "type": "uint256"
        },
        {
          "internalType": "enum VerificationOracle.DataSource",
          "name": "_source",
          "type": "uint8"
        },
        {
          "internalType": "string",
          "name": "_ipfsHash",
          "type": "string"
        },
        {
          "internalType": "string",
          "name": "_description",
          "type": "string"
        },
        {
          "internalType": "uint256",
          "name": "_carbonCreditsEstimate",
          "type": "uint256"
        }
      ],
      "name": "submitVerificationData",
      "outputs": [
        {
          "internalType": "uint256",
          "name": "",
          "type": "uint256"
        }
      ],
      "stateMutability": "nonpayable",
      "type": "function"
    },
    {
      "inputs": [
        {
          "internalType": "address",
          "name": "newOwner",
          "type": "address"
        }
      ],
      "name": "transferOwnership",
      "outputs": [],
      "stateMutability": "nonpayable",
      "type": "function"
    },
    {
      "inputs": [
        {
          "internalType": "enum VerificationOracle.DataSource",
          "name": "_source",
          "type": "uint8"
        },
        {
          "internalType": "uint256",
          "name": "_minimum",
          "type": "uint256"
        }
      ],
      "name": "updateMinimumDataRequirements",
      "outputs": [],
      "stateMutability": "nonpayable",
      "type": "function"
    },
    {
      "inputs": [
        {
          "internalType": "uint256",
          "name": "_verificationId",
          "type": "uint256"
        },
        {
          "internalType": "enum VerificationOracle.VerificationStatus",
          "name": "_newStatus",
          "type": "uint8"
        },
        {
          "internalType": "string",
          "name": "_notes",
          "type": "string"
        }
      ],
      "name": "updateVerificationStatus",
      "outputs": [],
      "stateMutability": "nonpayable",
      "type": "function"
    },
    {
      "inputs": [
        {
          "internalType": "enum VerificationOracle.DataSource",
          "name": "_source",
          "type": "uint8"
        },
        {
          "internalType": "uint256",
          "name": "_weight",
          "type": "uint256"
        }
      ],
      "name": "updateVerificationWeights",
      "outputs": [],
      "stateMutability": "nonpayable",
      "type": "function"
    },
    {
      "inputs": [
        {
          "internalType": "uint256",
          "name": "",
          "type": "uint256"
        }
      ],
      "name": "verificationData",
      "outputs": [
        {
          "internalType": "uint256",
          "name": "projectId",
          "type": "uint256"
        },
        {
          "internalType": "enum VerificationOracle.DataSource",
          "name": "source",
          "type": "uint8"
        },
        {
          "internalType": "string",
          "name": "ipfsHash",
          "type": "string"
        },
        {
          "internalType": "string",
          "name": "description",
          "type": "string"
        },
        {
          "internalType": "address",
          "name": "submitter",
          "type": "address"
        },
        {
          "internalType": "uint256",
          "name": "timestamp",
          "type": "uint256"
        },
        {
          "internalType": "enum VerificationOracle.VerificationStatus",
          "name": "status",
          "type": "uint8"
        },
        {
          "internalType": "string",
          "name": "notes",
          "type": "string"
        },
        {
          "internalType": "uint256",
          "name": "carbonCreditsEstimate",
          "type": "uint256"
        }
      ],
      "stateMutability": "view",
      "type": "function"
    },
    {
      "inputs": [
        {
          "internalType": "enum VerificationOracle.DataSource",
          "name": "",
          "type": "uint8"
        }
      ],
      "name": "verificationWeights",
      "outputs": [
        {
          "internalType": "uint256",
          "name": "",
          "type": "uint256"
        }
      ],
      "stateMutability": "view",
      "type": "function"
    }
  ],
  "bytecode": "0x608034620001cc5762001ff490601f38839003908101601f19168201906001600160401b03821183831017620001d15780839160409586948552833981010312620001cc576200004f81620001e7565b6200005e6020809301620001e7565b60008054336001600160a01b031980831682178455875193969490926001600160a01b03929083167f8be0079c531659141344cd1fd0a4f28419497f9722a3daafe3b4186f6b6457e08980a381600196878055169384156200018c5750169182156200013c5792869492826103e89795600894600254161760025560035416176003558380526007815260038585205582845260028585205560028452828585205560038452828585205583805252610bb8838320558152610dac82822055600281526109c48282205560038152205551611df79081620001fd8239f35b865162461bcd60e51b815260048101859052602360248201527f496e76616c696420636172626f6e2063726564697420746f6b656e206164647260448201526265737360e81b6064820152608490fd5b6064908662461bcd60e51b825280600483015260248201527f496e76616c69642070726f6a65637420726567697374727920616464726573736044820152fd5b600080fd5b634e487b7160e01b600052604160045260246000fd5b51906001600160a01b0382168203620001cc5756fe608080604052600436101561001357600080fd5b60e0600035811c9182630343b1e7146111eb57508163172800a5146111b857816318e14fba14611137578163281fa8f3146110535781633f53b43f1461103657816344c21fb314610ff85781634cc1ec4c14610f6f5781635a33d8dc14610f4657816366dea35814610f1d5781636a034ec514610e7a5781636cacbf30146107fc578163715018a614610e215781637c47ac4414610cc3575080638b71b8d014610c855780638da5cb5b14610c5c5780639000b3d614610bc8578063918a1bf51461083f5780639a891716146107fc578063a1e08143146107b5578063ca2dfd0a1461076f578063cd538b1a1461020c578063f2df9017146101ee5763f2fde38b1461011e57600080fd5b346101e95760203660031901126101e9576004356001600160a01b03818116918290036101e95761014d6115e5565b811561019557600054826bffffffffffffffffffffffff60a01b821617600055167f8be0079c531659141344cd1fd0a4f28419497f9722a3daafe3b4186f6b6457e0600080a3005b60405162461bcd60e51b815260206004820152602660248201527f4f776e61626c653a206e6577206f776e657220697320746865207a65726f206160448201526564647265737360d01b6064820152608490fd5b600080fd5b346101e95760003660031901126101e9576020600954604051908152f35b346101e95760a03660031901126101e957600460243510156101e95760443567ffffffffffffffff81116101e95761024890369060040161159e565b60643567ffffffffffffffff81116101e95761026890369060040161159e565b9060043515610735578051156106f057608435156106945761028b60095461163d565b8060095580600052600460205260406000206004358155600181016102b160243561138b565b60ff1981541660ff60243516179055825167ffffffffffffffff81116104f7576102de6002830154611412565b601f811161064d575b50806020601f82116001146105e0576000916105d5575b508160011b916000199060031b1c19161760028201555b835167ffffffffffffffff81116104f7576103336003830154611412565b601f811161058e575b50602094601f821160011461052257948192939495600092610517575b50508160011b916000199060031b1c19161760038201555b60048101336bffffffffffffffffffffffff60a01b8254161790554260058201556006810160ff1981541690556008608435910155600435600052600560205260406000209182541561050d575b6001830192835493680100000000000000008510156104f757846103ea91600160209701815561164c565b81549060031b9085821b91600019901b191617905561040a60243561138b565b602435610486576002810161041f815461163d565b90555b600942910155817f9e7e67e89185bed758a6a4bbb68d7139ab0c172f63ff96116aa46440c65d340f60405161045860243561138b565b60243581523386820152606060408201528061047b6004359560608301906113ce565b0390a3604051908152f35b61049160243561138b565b6024356001036104b157600381016104a9815461163d565b90555b610422565b6104bc60243561138b565b6024356002036104d457600481016104a9815461163d565b6104df60243561138b565b6003602435036104ac57600581016104a9815461163d565b634e487b7160e01b600052604160045260246000fd5b60043583556103bf565b015190508580610359565b601f198216956003840160005260206000209160005b8881106105765750836001959697981061055d575b505050811b016003820155610371565b015160001960f88460031b161c1916905585808061054d565b91926020600181928685015181550194019201610538565b600383016000526020600020601f830160051c8101602084106105ce575b601f830160051c820181106105c257505061033c565b600081556001016105ac565b50806105ac565b9050840151866102fe565b91506002830160005260206000206000925b601f1983168410610635576001935082601f1981161061061c575b5050811b016002820155610315565b86015160001960f88460031b161c19169055868061060d565b868101518255602093840193600190920191016105f2565b600283016000526020600020601f830160051c81016020841061068d575b601f830160051c820181106106815750506102e7565b6000815560010161066b565b508061066b565b60405162461bcd60e51b815260206004820152602e60248201527f436172626f6e206372656469747320657374696d617465206d7573742062652060448201526d067726561746572207468616e20360941b6064820152608490fd5b60405162461bcd60e51b815260206004820152601960248201527f4950465320686173682063616e6e6f7420626520656d707479000000000000006044820152606490fd5b60405162461bcd60e51b8152602060048201526012602482015271125b9d985b1a59081c1c9bda9958dd08125160721b6044820152606490fd5b346101e95760203660031901126101e9576004356001600160a01b038116908190036101e95761079d6115e5565b6000908152600660205260409020805460ff19169055005b346101e95760203660031901126101e95760043560005260056020526107f86107e46001604060002001611d72565b60405191829160208352602083019061154e565b0390f35b346101e95760203660031901126101e9576004356001600160a01b038116908190036101e9576000526006602052602060ff604060002054166040519015158152f35b346101e95760603660031901126101e95760043560243560048110156101e95767ffffffffffffffff916044358381116101e95761088190369060040161159e565b913360005260206006815260ff604060002054168015610bb4575b15610b705782151580610b64575b15610b20578260005260048152604060002093600685019586549660ff8816976108d38661138b565b60ff191660ff861617905581516007870192909182116104f75781906108f98454611412565b601f8111610acf575b508490601f8311600114610a6a57600092610a5f575b50508160011b916000199060031b1c19161790555b83546000526005815260406000206109448661138b565b60018614801580610a4c575b156109c15750947f7be320c0db528632d8632ea4fe18b691f6c76e16439688e631e75c0c13eb62ef926060928760066109bf990161098e815461163d565b90555b600942910155604051926109a48161138b565b83526109af8261138b565b820152336040820152a2546116a7565b005b6109ca8761138b565b80610a38575b610a04575b947f7be320c0db528632d8632ea4fe18b691f6c76e16439688e631e75c0c13eb62ef926060926109bf97610991565b9460068601928354928315610a2257600019909301909355946109d5565b634e487b7160e01b600052601160045260246000fd5b50610a428361138b565b60018314156109d0565b50610a568461138b565b60018414610950565b015190508880610918565b60008581528681209350601f198516905b87828210610ab9575050908460019594939210610aa0575b505050811b01905561092d565b015160001960f88460031b161c19169055888080610a93565b6001859682939686015181550195019301610a7b565b9091508360005284600020601f840160051c810191868510610b16575b90601f859493920160051c01905b818110610b075750610902565b60008155849350600101610afa565b9091508190610aec565b6064906040519062461bcd60e51b82526004820152601760248201527f496e76616c696420766572696669636174696f6e2049440000000000000000006044820152fd5b506009548311156108aa565b6064906040519062461bcd60e51b82526004820152601760248201527f4e6f7420617574686f72697a65642076657269666965720000000000000000006044820152fd5b506000546001600160a01b0316331461089c565b346101e95760203660031901126101e9576004356001600160a01b038116908190036101e957610bf66115e5565b8015610c17576000908152600660205260409020805460ff19166001179055005b60405162461bcd60e51b815260206004820152601860248201527f496e76616c6964207665726966696572206164647265737300000000000000006044820152606490fd5b346101e95760003660031901126101e9576000546040516001600160a01b039091168152602090f35b346101e95760203660031901126101e95760043560048110156101e957610cab8161138b565b60005260076020526020604060002054604051908152f35b346101e957602090816003193601126101e95760405190610ce382611469565b60008252606083830152600060408301526000606083015260006080830152600060a0830152600060c0830152600081830152610100906000828401526000610120809401526004356000526005845260406000209160405193610d4685611469565b8354855284610d5760018601611d72565b928782019384526002860154956040830196875260038101549560608401968752600482015460808501908152600583015460a0860190815260068401549160c08701928352600960ff6007870154169585890196151587528760088201549901988952015498888d01998a526040518e819f9e829f83525191015251998c6060610df06101409d8e604085015261016084019061154e565b9d519101525160808d01525160a08c01525160c08b0152519089015251151590870152519085015251908301520390f35b346101e95760003660031901126101e957610e3a6115e5565b600080546001600160a01b0319811682556001600160a01b03167f8be0079c531659141344cd1fd0a4f28419497f9722a3daafe3b4186f6b6457e08280a3005b346101e95760203660031901126101e9576004356000526005602052602060406000206002810154600080526007835260406000205411159081610f03575b81610ee9575b81610ed0575b506040519015158152f35b6005915001546003600052604060002054111582610ec5565b905060048101546002600052604060002054111590610ebf565b905060038101546001600052604060002054111590610eb9565b346101e95760003660031901126101e9576003546040516001600160a01b039091168152602090f35b346101e95760003660031901126101e9576002546040516001600160a01b039091168152602090f35b346101e95760203660031901126101e95761012090600435600052600560205260406000209081549160028101549160038201546004830154600584015460068501549160ff600787015416936009600888015497015497604051998a5260208a015260408901526060880152608087015260a0860152151560c0850152830152610100820152f35b346101e95760203660031901126101e95760043560048110156101e95761101e8161138b565b60005260086020526020604060002054604051908152f35b346101e95760003660031901126101e9576020604051611b588152f35b346101e95760203660031901126101e9576004356000526004602052604060002080549061112c60ff6001830154169361108f600284016114a8565b9261109c600382016114a8565b9160018060a01b0360048301541692600583015461110760ff600686015416926110f960086110cd600789016114a8565b970154996040519c8d9c8d526110e28161138b565b60208d015261012060408d018190528c01906113ce565b908a820360608c01526113ce565b94608089015260a088015261111b8161138b565b60c0870152858303908601526113ce565b906101008301520390f35b346101e957611145366113f3565b9061114e6115e5565b6127108211611173576111608161138b565b6000526008602052604060002055600080f35b60405162461bcd60e51b815260206004820152601960248201527f5765696768742063616e6e6f74206578636565642031303025000000000000006044820152606490fd5b346101e9576111c6366113f3565b906111cf6115e5565b6111d88161138b565b6000526007602052604060002055600080f35b90346101e957602091826003193601126101e9576112088161144c565b600081528281016000905260608060408301528080830152608082016000905260a082016000905260c082016000905280838301526101008092016000905260043560005260048452604060002092604051936112648561144c565b80548552600181015460ff16938686019461127e8161138b565b855261128c600283016114a8565b60408701908152916112a0600382016114a8565b93858801948552600160a01b6001900393846004840154169460808a0195865260058401549060a08b01918252600685015460ff169260c08c01936112e48161138b565b84526112f2600787016114a8565b95858d01968752600801549a878d019b8c526040518e819f9e829f8352519101525161131d8161138b565b60408d015251610120809a8d01526101408c01611339916113ce565b9751601f198c8a03810160808e015298611352916113ce565b96511660a08b01525160c08a0152519061136b8261138b565b88015251928683030190860152611381916113ce565b9151908301520390f35b6004111561139557565b634e487b7160e01b600052602160045260246000fd5b60005b8381106113be5750506000910152565b81810151838201526020016113ae565b906020916113e7815180928185528580860191016113ab565b601f01601f1916010190565b60409060031901126101e95760043560048110156101e9579060243590565b90600182811c92168015611442575b602083101461142c57565b634e487b7160e01b600052602260045260246000fd5b91607f1691611421565b610120810190811067ffffffffffffffff8211176104f757604052565b610140810190811067ffffffffffffffff8211176104f757604052565b90601f8019910116810190811067ffffffffffffffff8211176104f757604052565b90604051918260008254926114bc84611412565b90818452600194858116908160001461152b57506001146114e8575b50506114e692500383611486565b565b9093915060005260209081600020936000915b8183106115135750506114e6935082010138806114d8565b855488840185015294850194879450918301916114fb565b9150506114e694506020925060ff191682840152151560051b82010138806114d8565b90815180825260208080930193019160005b82811061156e575050505090565b835185529381019392810192600101611560565b67ffffffffffffffff81116104f757601f01601f191660200190565b81601f820112156101e9578035906115b582611582565b926115c36040519485611486565b828452602083830101116101e957816000926020809301838601378301015290565b6000546001600160a01b031633036115f957565b606460405162461bcd60e51b815260206004820152602060248201527f4f776e61626c653a2063616c6c6572206973206e6f7420746865206f776e65726044820152fd5b6000198114610a225760010190565b80548210156116645760005260206000200190600090565b634e487b7160e01b600052603260045260246000fd5b91908201809211610a2257565b8115611691570490565b634e487b7160e01b600052601260045260246000fd5b9060009180835260206005815260409081852060028101548680526007835283872054111580611c95575b80611c80575b80611c6b575b15611c63576001818101805488918291869183868a825b858410611bdd575050505050505061271090818102918183041490151715611bc957611b589161172491611687565b101580611bba575b61173a575b50505050509050565b60078201805460ff191682179055848752600583528387208101805488928392835b838110611b0a575060089695949392505081159050611aff5761177e91611687565b9283915b0155837fdcc8b478113051dfbcf065995f26b420abdc0f0228a339a6d66e0dca4cdc1c498480518581524285820152a26002546001600160a01b039087908216803b15611afb578190604487518094819363d3dc322f60e01b83528b60048401528960248401525af18015611ac257611acc575b506024878260025416865192838092631e1e7e5960e31b82528a60048301525afa908115611ac2578891611926575b50878360c0846003541693019261012485855116895194859384926305e0448b60e21b84528d60048501528b602485015242604485015260c06064850152601860c48501527f426c756520436172626f6e204d5256205374616e64617264000000000000000060e485015261010060848501528261010485015260a48401525af1801561191c576118ee575b507fd50dc6f94afd64c65475c1b8bae4dad09dceb9655b0a0d0331a022da575959a8959697505116908351928352820152a2803880808080611731565b8390813d8311611915575b6119038183611486565b8101031261191157876118b1565b8780fd5b503d6118f9565b86513d8b823e3d90fd5b90503d8089833e6119378183611486565b81018382820312611abe57815167ffffffffffffffff92838211611aba570190610200928383830312611aba578751938401848110828211176104f75788528251845285830151818111611ab25782611991918501611caa565b8685015287830151818111611ab257826119ac918501611caa565b8885015260608301516003811015611ab25760608501526080830151818111611ab257826119db918501611caa565b608085015260a083015160a08501526119f660c08401611cef565b60c085015260e0830151818111611ab25782611a13918501611d03565b60e085015261010080840151828111611ab65783611a32918601611d03565b9085015261012080840151906005821015611ab657850152610140808401519085015261016080840151908501526101809182840151918211611ab257611a7a918401611caa565b908301526101a080820151908301526101c080820151908301526101e080910151908115158203611aae5782015238611825565b8980fd5b8b80fd5b8c80fd5b8a80fd5b8880fd5b85513d8a823e3d90fd5b67ffffffffffffffff8198929811611ae757845295386117f6565b634e487b7160e01b82526041600452602482fd5b5080fd5b505086928391611782565b611b14818361164c565b90549060031b1c8c526004808952898d20908d60ff8681600686015416611b3a8161138b565b14611b52575b50505050611b4d9061163d565b61175c565b868495999a939401541690611b668261138b565b526008808b528b8f20549301548084029290801590840485141715611ba7575091611b97611b9d92611b4d9461167a565b9761167a565b9490388d81611b40565b634e487b7160e01b8f526011905260248efd5b5060ff6007830154161561172c565b634e487b7160e01b89526011600452602489fd5b611c258392600692611bf487899a9b9d989961164c565b90549060031b1c815260048c5260088282209c8d60ff978891015416611c198161138b565b8352522054809561167a565b98015416611c328161138b565b14611c4e575b50611c429061163d565b90879291868a8e6116f5565b611c5c90611c42929561167a565b9390611c38565b505050509050565b506005810154600387528387205411156116de565b506004810154600287528387205411156116d8565b506003810154600187528387205411156116d2565b81601f820112156101e9578051611cc081611582565b92611cce6040519485611486565b818452602082840101116101e957611cec91602080850191016113ab565b90565b51906001600160a01b03821682036101e957565b9080601f830112156101e95781519067ffffffffffffffff82116104f7578160051b60405193602093611d3885840187611486565b855283808601928201019283116101e9578301905b828210611d5b575050505090565b838091611d6784611cef565b815201910190611d4d565b9060405191828154918282526020928383019160005283600020936000905b828210611da7575050506114e692500383611486565b855484526001958601958895509381019390910190611d9156fea2646970667358221220ab7e14b6469d09cc3186a2bb78712ee7ee6bd35d116b2abf0e8b862c5a68afa564736f6c63430008130033",
  "linkReferences": {},
  "deployedLinkReferences": {}
}