{
  "_format": "hh-sol-artifact-1",
  "contractName": "UniqueCarbonCreditNFT",
  "sourceName": "contracts/UniqueCarbonCreditNFT.sol",
  "abi": [
    {
      "inputs": [
        {
          "internalType": "string",
          "name": "_uri",
          "type": "string"
        }
      ],
      "stateMutability": "nonpayable",
      "type": "constructor"
    },
    {
      "anonymous": false,
      "inputs": [
        {
          "indexed": true,
          "internalType": "address",
          "name": "account",
          "type": "address"
        },
        {
          "indexed": true,
          "internalType": "address",
          "name": "operator",
          "type": "address"
        },
        {
          "indexed": false,
          "internalType": "bool",
          "name": "approved",
          "type": "bool"
        }
      ],
      "name": "ApprovalForAll",
      "type": "event"
    },
    {
      "anonymous": false,
      "inputs": [
        {
          "indexed": true,
          "internalType": "address",
          "name": "previousOwner",
          "type": "address"
        },
        {
          "indexed": true,
          "internalType": "address",
          "name": "newOwner",
          "type": "address"
        }
      ],
      "name": "OwnershipTransferred",
      "type": "event"
    },
    {
      "anonymous": false,
      "inputs": [
        {
          "indexed": true,
          "internalType": "address",
          "name": "operator",
          "type": "address"
        },
        {
          "indexed": true,
          "internalType": "address",
          "name": "from",
          "type": "address"
        },
        {
          "indexed": true,
          "internalType": "address",
          "name": "to",
          "type": "address"
        },
        {
          "indexed": false,
          "internalType": "uint256[]",
          "name": "ids",
          "type": "uint256[]"
        },
        {
          "indexed": false,
          "internalType": "uint256[]",
          "name": "values",
          "type": "uint256[]"
        }
      ],
      "name": "TransferBatch",
      "type": "event"
    },
    {
      "anonymous": false,
      "inputs": [
        {
          "indexed": true,
          "internalType": "address",
          "name": "operator",
          "type": "address"
        },
        {
          "indexed": true,
          "internalType": "address",
          "name": "from",
          "type": "address"
        },
        {
          "indexed": true,
          "internalType": "address",
          "name": "to",
          "type": "address"
        },
        {
          "indexed": false,
          "internalType": "uint256",
          "name": "id",
          "type": "uint256"
        },
        {
          "indexed": false,
          "internalType": "uint256",
          "name": "value",
          "type": "uint256"
        }
      ],
      "name": "TransferSingle",
      "type": "event"
    },
    {
      "anonymous": false,
      "inputs": [
        {
          "indexed": false,
          "internalType": "string",
          "name": "value",
          "type": "string"
        },
        {
          "indexed": true,
          "internalType": "uint256",
          "name": "id",
          "type": "uint256"
        }
      ],
      "name": "URI",
      "type": "event"
    },
    {
      "anonymous": false,
      "inputs": [
        {
          "indexed": true,
          "internalType": "uint256",
          "name": "tokenId",
          "type": "uint256"
        },
        {
          "indexed": true,
          "internalType": "uint256",
          "name": "projectId",
          "type": "uint256"
        },
        {
          "indexed": false,
          "internalType": "uint256",
          "name": "creditAmount",
          "type": "uint256"
        },
        {
          "indexed": true,
          "internalType": "address",
          "name": "recipient",
          "type": "address"
        },
        {
          "indexed": false,
          "internalType": "string",
          "name": "certificateName",
          "type": "string"
        }
      ],
      "name": "UniqueCreditMinted",
      "type": "event"
    },
    {
      "anonymous": false,
      "inputs": [
        {
          "indexed": true,
          "internalType": "uint256",
          "name": "tokenId",
          "type": "uint256"
        },
        {
          "indexed": true,
          "internalType": "address",
          "name": "retiredBy",
          "type": "address"
        },
        {
          "indexed": false,
          "internalType": "uint256",
          "name": "timestamp",
          "type": "uint256"
        }
      ],
      "name": "UniqueCreditRetired",
      "type": "event"
    },
    {
      "inputs": [
        {
          "internalType": "address",
          "name": "account",
          "type": "address"
        },
        {
          "internalType": "uint256",
          "name": "id",
          "type": "uint256"
        }
      ],
      "name": "balanceOf",
      "outputs": [
        {
          "internalType": "uint256",
          "name": "",
          "type": "uint256"
        }
      ],
      "stateMutability": "view",
      "type": "function"
    },
    {
      "inputs": [
        {
          "internalType": "address[]",
          "name": "accounts",
          "type": "address[]"
        },
        {
          "internalType": "uint256[]",
          "name": "ids",
          "type": "uint256[]"
        }
      ],
      "name": "balanceOfBatch",
      "outputs": [
        {
          "internalType": "uint256[]",
          "name": "",
          "type": "uint256[]"
        }
      ],
      "stateMutability": "view",
      "type": "function"
    },
    {
      "inputs": [
        {
          "internalType": "address",
          "name": "_owner",
          "type": "address"
        }
      ],
      "name": "getOwnerTokens",
      "outputs": [
        {
          "internalType": "uint256[]",
          "name": "",
          "type": "uint256[]"
        }
      ],
      "stateMutability": "view",
      "type": "function"
    },
    {
      "inputs": [
        {
          "internalType": "uint256",
          "name": "_projectId",
          "type": "uint256"
        }
      ],
      "name": "getProjectTokens",
      "outputs": [
        {
          "internalType": "uint256[]",
          "name": "",
          "type": "uint256[]"
        }
      ],
      "stateMutability": "view",
      "type": "function"
    },
    {
      "inputs": [],
      "name": "getTotalSupply",
      "outputs": [
        {
          "internalType": "uint256",
          "name": "",
          "type": "uint256"
        }
      ],
      "stateMutability": "view",
      "type": "function"
    },
    {
      "inputs": [
        {
          "internalType": "uint256",
          "name": "_tokenId",
          "type": "uint256"
        }
      ],
      "name": "getUniqueCredit",
      "outputs": [
        {
          "components": [
            {
              "internalType": "uint256",
              "name": "projectId",
              "type": "uint256"
            },
            {
              "internalType": "uint256",
              "name": "creditAmount",
              "type": "uint256"
            },
            {
              "internalType": "string",
              "name": "ipfsMetadata",
              "type": "string"
            },
            {
              "internalType": "string",
              "name": "certificateName",
              "type": "string"
            },
            {
              "internalType": "bool",
              "name": "isRetired",
              "type": "bool"
            },
            {
              "internalType": "uint256",
              "name": "mintedAt",
              "type": "uint256"
            },
            {
              "internalType": "address",
              "name": "originalMinter",
              "type": "address"
            }
          ],
          "internalType": "struct UniqueCarbonCreditNFT.UniqueCredit",
          "name": "",
          "type": "tuple"
        }
      ],
      "stateMutability": "view",
      "type": "function"
    },
    {
      "inputs": [
        {
          "internalType": "address",
          "name": "account",
          "type": "address"
        },
        {
          "internalType": "address",
          "name": "operator",
          "type": "address"
        }
      ],
      "name": "isApprovedForAll",
      "outputs": [
        {
          "internalType": "bool",
          "name": "",
          "type": "bool"
        }
      ],
      "stateMutability": "view",
      "type": "function"
    },
    {
      "inputs": [
        {
          "internalType": "uint256",
          "name": "_tokenId",
          "type": "uint256"
        }
      ],
      "name": "isRetired",
      "outputs": [
        {
          "internalType": "bool",
          "name": "",
          "type": "bool"
        }
      ],
      "stateMutability": "view",
      "type": "function"
    },
    {
      "inputs": [
        {
          "internalType": "address",
          "name": "_to",
          "type": "address"
        },
        {
          "internalType": "uint256",
          "name": "_projectId",
          "type": "uint256"
        },
        {
          "internalType": "uint256",
          "name": "_creditAmount",
          "type": "uint256"
        },
        {
          "internalType": "string",
          "name": "_ipfsMetadata",
          "type": "string"
        },
        {
          "internalType": "string",
          "name": "_certificateName",
          "type": "string"
        }
      ],
      "name": "mintProjectCredit",
      "outputs": [
        {
          "internalType": "uint256",
          "name": "",
          "type": "uint256"
        }
      ],
      "stateMutability": "nonpayable",
      "type": "function"
    },
    {
      "inputs": [
        {
          "internalType": "address",
          "name": "_to",
          "type": "address"
        },
        {
          "internalType": "uint256",
          "name": "_tokenId",
          "type": "uint256"
        },
        {
          "internalType": "uint256",
          "name": "_creditAmount",
          "type": "uint256"
        },
        {
          "internalType": "string",
          "name": "_ipfsMetadata",
          "type": "string"
        },
        {
          "internalType": "string",
          "name": "_certificateName",
          "type": "string"
        }
      ],
      "name": "mintUniqueCredit",
      "outputs": [],
      "stateMutability": "nonpayable",
      "type": "function"
    },
    {
      "inputs": [],
      "name": "owner",
      "outputs": [
        {
          "internalType": "address",
          "name": "",
          "type": "address"
        }
      ],
      "stateMutability": "view",
      "type": "function"
    },
    {
      "inputs": [
        {
          "internalType": "address",
          "name": "",
          "type": "address"
        },
        {
          "internalType": "uint256",
          "name": "",
          "type": "uint256"
        }
      ],
      "name": "ownerTokens",
      "outputs": [
        {
          "internalType": "uint256",
          "name": "",
          "type": "uint256"
        }
      ],
      "stateMutability": "view",
      "type": "function"
    },
    {
      "inputs": [
        {
          "internalType": "uint256",
          "name": "",
          "type": "uint256"
        },
        {
          "internalType": "uint256",
          "name": "",
          "type": "uint256"
        }
      ],
      "name": "projectTokens",
      "outputs": [
        {
          "internalType": "uint256",
          "name": "",
          "type": "uint256"
        }
      ],
      "stateMutability": "view",
      "type": "function"
    },
    {
      "inputs": [],
      "name": "renounceOwnership",
      "outputs": [],
      "stateMutability": "nonpayable",
      "type": "function"
    },
    {
      "inputs": [
        {
          "internalType": "uint256",
          "name": "_tokenId",
          "type": "uint256"
        }
      ],
      "name": "retireUniqueCredit",
      "outputs": [],
      "stateMutability": "nonpayable",
      "type": "function"
    },
    {
      "inputs": [
        {
          "internalType": "address",
          "name": "from",
          "type": "address"
        },
        {
          "internalType": "address",
          "name": "to",
          "type": "address"
        },
        {
          "internalType": "uint256[]",
          "name": "ids",
          "type": "uint256[]"
        },
        {
          "internalType": "uint256[]",
          "name": "amounts",
          "type": "uint256[]"
        },
        {
          "internalType": "bytes",
          "name": "data",
          "type": "bytes"
        }
      ],
      "name": "safeBatchTransferFrom",
      "outputs": [],
      "stateMutability": "nonpayable",
      "type": "function"
    },
    {
      "inputs": [
        {
          "internalType": "address",
          "name": "from",
          "type": "address"
        },
        {
          "internalType": "address",
          "name": "to",
          "type": "address"
        },
        {
          "internalType": "uint256",
          "name": "id",
          "type": "uint256"
        },
        {
          "internalType": "uint256",
          "name": "amount",
          "type": "uint256"
        },
        {
          "internalType": "bytes",
          "name": "data",
          "type": "bytes"
        }
      ],
      "name": "safeTransferFrom",
      "outputs": [],
      "stateMutability": "nonpayable",
      "type": "function"
    },
    {
      "inputs": [
        {
          "internalType": "address",
          "name": "operator",
          "type": "address"
        },
        {
          "internalType": "bool",
          "name": "approved",
          "type": "bool"
        }
      ],
      "name": "setApprovalForAll",
      "outputs": [],
      "stateMutability": "nonpayable",
      "type": "function"
    },
    {
      "inputs": [
        {
          "internalType": "string",
          "name": "_newURI",
          "type": "string"
        }
      ],
      "name": "setURI",
      "outputs": [],
      "stateMutability": "nonpayable",
      "type": "function"
    },
    {
      "inputs": [
        {
          "internalType": "bytes4",
          "name": "interfaceId",
          "type": "bytes4"
        }
      ],
      "name": "supportsInterface",
      "outputs": [
        {
          "internalType": "bool",
          "name": "",
          "type": "bool"
        }
      ],
      "stateMutability": "view",
      "type": "function"
    },
    {
      "inputs": [
        {
          "internalType": "address",
          "name": "newOwner",
          "type": "address"
        }
      ],
      "name": "transferOwnership",
      "outputs": [],
      "stateMutability": "nonpayable",
      "type": "function"
    },
    {
      "inputs": [
        {
          "internalType": "uint256",
          "name": "",
          "type": "uint256"
        }
      ],
      "name": "uniqueCredits",
      "outputs": [
        {
          "internalType": "uint256",
          "name": "projectId",
          "type": "uint256"
        },
        {
          "internalType": "uint256",
          "name": "creditAmount",
          "type": "uint256"
        },
        {
          "internalType": "string",
          "name": "ipfsMetadata",
          "type": "string"
        },
        {
          "internalType": "string",
          "name": "certificateName",
          "type": "string"
        },
        {
          "internalType": "bool",
          "name": "isRetired",
          "type": "bool"
        },
        {
          "internalType": "uint256",
          "name": "mintedAt",
          "type": "uint256"
        },
        {
          "internalType": "address",
          "name": "originalMinter",
          "type": "address"
        }
      ],
      "stateMutability": "view",
      "type": "function"
    },
    {
      "inputs": [
        {
          "internalType": "uint256",
          "name": "_tokenId",
          "type": "uint256"
        },
        {
          "internalType": "string",
          "name": "_newIpfsMetadata",
          "type": "string"
        }
      ],
      "name": "updateTokenMetadata",
      "outputs": [],
      "stateMutability": "nonpayable",
      "type": "function"
    },
    {
      "inputs": [
        {
          "internalType": "uint256",
          "name": "",
          "type": "uint256"
        }
      ],
      "name": "uri",
      "outputs": [
        {
          "internalType": "string",
          "name": "",
          "type": "string"
        }
      ],
      "stateMutability": "view",
      "type": "function"
    }
  ],
  "bytecode": "0x6080604052346200025e5762002ed4803803806200001d8162000263565b92833981019060209081818403126200025e5780516001600160401b03918282116200025e570191601f908482850112156200025e5783518381116200023357601f1994620000728285018716840162000263565b968288528383830101116200025e57829060005b838110620002495750506000918701015284519283116200023357600254936001948581811c9116801562000228575b838210146200021257838111620001c6575b50819284116001146200015d57505081929360009262000151575b5050600019600383901b1c191690821b176002555b60038054336001600160a01b0319821681179092556040519291906001600160a01b03167f8be0079c531659141344cd1fd0a4f28419497f9722a3daafe3b4186f6b6457e0600080a3600455612c4a90816200028a8239f35b015190503880620000e3565b839291921694600260005282600020926000905b878210620001ae5750508385961062000194575b505050811b01600255620000f8565b015160001960f88460031b161c1916905538808062000185565b80878596829496860151815501950193019062000171565b6002600052826000208480870160051c82019285881062000208575b0160051c019086905b828110620001fb575050620000c8565b60008155018690620001eb565b92508192620001e2565b634e487b7160e01b600052602260045260246000fd5b90607f1690620000b6565b634e487b7160e01b600052604160045260246000fd5b81810183015189820184015284920162000086565b600080fd5b6040519190601f01601f191682016001600160401b03811183821017620002335760405256fe6080604052600436101561001257600080fd5b60003560e01c8062fdd58e1461215457806301ffc9a7146120e657806302fe530514611f6d5780630e89341c14611e8b57806328b6003114611e415780632cb2f52e14611c895780632eb2c2d61461184757806338d0f88a1461149f578063431a46b51461109d5780634e1273f414610eff5780636a880d1114610eb8578063715018a614610e5b5780638d01ce2b14610df25780638d1bc80c14610cb05780638da5cb5b14610c875780639067774c14610be0578063a22cb46514610afc578063c4e41b2214610ade578063cf6ebee714610aaa578063d63d4af014610a1b578063e133994414610643578063e985e9c5146105ed578063f242432a146101f15763f2fde38b1461012357600080fd5b346101ec5760203660031901126101ec5761013c612183565b6101446124cf565b6001600160a01b0390811690811561019857600354826bffffffffffffffffffffffff60a01b821617600355167f8be0079c531659141344cd1fd0a4f28419497f9722a3daafe3b4186f6b6457e0600080a3005b60405162461bcd60e51b815260206004820152602660248201527f4f776e61626c653a206e6577206f776e657220697320746865207a65726f206160448201526564647265737360d01b6064820152608490fd5b600080fd5b346101ec5760a03660031901126101ec5761020a612183565b610212612199565b906064356044356084356001600160401b0381116101ec57610238903690600401612221565b6001600160a01b039384169333851480156105c4575b610257906125dc565b85168015156102658161263f565b61026e8461284f565b906102788661284f565b5086151590816105bc575b50806105b2575b610453575b5082600052602095600087526040600020866000528752846040600020546102b982821015612699565b85600052600089526040600020886000528952036040600020558360005260008752604060002082600052875260406000206102f68682546126f8565b90558186604051868152878a8201527fc3d58168c5ae7397731d063d5bbf3d657854427343f4c083240f7aacaa2d0f6260403392a43b61033257005b61037693600087946040519687958694859363f23a6e6160e01b9b8c865233600487015260248601526044850152606484015260a0608484015260a4830190612277565b03925af160009181610424575b506103fa57505060019061039561276e565b6308c379a0146103c5575b506103a8575b005b60405162461bcd60e51b8152806103c1600482016127fa565b0390fd5b6103cd61278c565b90816103d957506103a0565b6103c160405192839262461bcd60e51b845260048401526024830190612277565b6001600160e01b0319161490506103a65760405162461bcd60e51b8152806103c160048201612725565b610445919250843d861161044c575b61043d8183612200565b810190612705565b9084610383565b503d610433565b90959493926000945b82518610156105a55761046f86846125c8565b519381600052600793602098858a5260406000209760005b89548082101561058c578961049c838d6122b7565b919054600392831b1c146104ba5750506104b5906125ac565b610487565b90969c9160009c969c9b959b9a949a99939919978881019081116105765761050e926104e96104f592896122b7565b9054911b1c91876122b7565b90919082549060031b91821b91600019901b1916179055565b8354938415610560576105559661055095019061053f61052e83836122b7565b8154906000199060031b1b19169055565b555b8c600052526040600020612964565b6125ac565b94929593919361045c565b634e487b7160e01b600052603160045260246000fd5b634e487b7160e01b600052601160045260246000fd5b505095610550929850610555949a999399979197610541565b959691509293508661028f565b508186141561028a565b905088610283565b5084600052600160205260406000203360005260205261025760ff60406000205416905061024e565b346101ec5760403660031901126101ec57610606612183565b61060e612199565b9060018060a01b03809116600052600160205260406000209116600052602052602060ff604060002054166040519015158152f35b346101ec576106513661235a565b91929061065c6124cf565b6106706001600160a01b0386161515612874565b81156109e1576106818415156128c0565b61068d83511515612918565b6106986008546125ac565b93846008558460005260056020526040600020918383558160018401558051906001600160401b0382116108fb5781906106d560028601546123ef565b601f811161098e575b50602090601f831160011461091c57600092610911575b50508160011b916000199060031b1c19161760028301555b8351916001600160401b0383116108fb5761072b60038201546123ef565b601f81116108b4575b509585916020978894601f8111600114610833579081600692600080516020612bf58339815191529697600091610828575b508160011b916000199060031b1c19161760038201555b60048101805460ff191690554260058201550180546001600160a01b0319166001600160a01b038416179055600085815260068952604090206107c1908590612964565b60018060a01b038216600052600788526107df846040600020612964565b6107f96040516107ee816121ca565b60008152858461298c565b61081d604051928392835260408a84015260018060a01b0316966040830190612277565b0390a4604051908152f35b90508901518c610766565b60038201600052896000209560005b601f198316811061089a575081600080516020612bf5833981519152969760019260069594601f19811610610881575b5050811b01600382015561077d565b8b015160001960f88460031b161c191690558c80610872565b8982015188556001909701968a9650908b01908b01610842565b600382016000526020600020601f850160051c8101602086106108f4575b601f830160051c820181106108e8575050610734565b600081556001016108d2565b50806108d2565b634e487b7160e01b600052604160045260246000fd5b0151905088806106f5565b9250600285016000526020600020906000935b601f1984168510610973576001945083601f1981161061095a575b505050811b01600283015561070d565b015160001960f88460031b161c1916905588808061094a565b8181015183556020948501946001909301929091019061092f565b909150600285016000526020600020601f840160051c8101602085106109da575b90849392915b601f830160051c820181106109cb5750506106de565b600081558594506001016109b5565b50806109af565b60405162461bcd60e51b8152602060048201526012602482015271125b9d985b1a59081c1c9bda9958dd08125160721b6044820152606490fd5b346101ec576020806003193601126101ec576001600160a01b03610a3d612183565b1660005260078152604060002090604051808383829554938481520190600052836000209260005b85828210610a9457505050610a7c92500383612200565b610a906040519282849384528301906123bb565b0390f35b8554845260019586019588955093019201610a65565b346101ec5760203660031901126101ec576004356000526005602052602060ff600460406000200154166040519015158152f35b346101ec5760003660031901126101ec576020600854604051908152f35b346101ec5760403660031901126101ec57610b15612183565b602435908115158092036101ec576001600160a01b031690338214610b8957336000526001602052604060002082600052602052604060002060ff1981541660ff83161790556040519081527f17307eab39ab6107e8899845ad3d59bd9653f200f220920489ca2b5937696c3160203392a3005b60405162461bcd60e51b815260206004820152602960248201527f455243313135353a2073657474696e6720617070726f76616c20737461747573604482015268103337b91039b2b63360b91b6064820152608490fd5b346101ec5760203660031901126101ec57600435600052600560205260406000208054600182015491610c1560028201612429565b610c2160038301612429565b91610c7160ff60048301541693610c63600584015493600660018060a01b0391015416946040519889988952602089015260e0604089015260e0880190612277565b908682036060880152612277565b921515608085015260a084015260c08301520390f35b346101ec5760003660031901126101ec576003546040516001600160a01b039091168152602090f35b346101ec576020806003193601126101ec57600435600060c0604051610cd5816121af565b8281528285820152606060408201526060808201528260808201528260a082015201528060005260058252610d136005604060002001541515612bb1565b60005260058152604060002060405190610d2c826121af565b8054825260066001820154848401908152610d4960028401612429565b9260408501938452610dd8610d6060038301612429565b60608701908152610dc560ff6004850154169660808901971515885260058501549460a08a0195865260018060a01b039788910154169560c08a019687526040519a8b9a818c5251908b01525160408a01525160e060608a0152610100890190612277565b9051878203601f19016080890152612277565b9351151560a08601525160c0850152511660e08301520390f35b346101ec576020806003193601126101ec5760043560005260068152604060002090604051808383829554938481520190600052836000209260005b85828210610e4557505050610a7c92500383612200565b8554845260019586019588955093019201610e2e565b346101ec5760003660031901126101ec57610e746124cf565b600380546001600160a01b031981169091556000906001600160a01b03167f8be0079c531659141344cd1fd0a4f28419497f9722a3daafe3b4186f6b6457e08280a3005b346101ec5760403660031901126101ec576024356004356000526006602052604060002080548210156101ec57602091610ef1916122b7565b90546040519160031b1c8152f35b346101ec5760403660031901126101ec576004356001600160401b038082116101ec57366023830112156101ec57816004013590610f3c826122e5565b92610f4a6040519485612200565b82845260209260248486019160051b830101913683116101ec57602401905b82821061107e575050506024359081116101ec57610f8b9036906004016122fc565b825181510361102757825192610fa0846122e5565b93610fae6040519586612200565b808552610fbd601f19916122e5565b01368486013760005b81518110156110105761100b90610ffb6001600160a01b03610fe883866125c8565b5116610ff483876125c8565b5190612527565b61100582886125c8565b526125ac565b610fc6565b505050610a906040519282849384528301906123bb565b60405162461bcd60e51b815260048101839052602960248201527f455243313135353a206163636f756e747320616e6420696473206c656e677468604482015268040dad2e6dac2e8c6d60bb1b6064820152608490fd5b81356001600160a01b03811681036101ec578152908401908401610f69565b346101ec576020806003193601126101ec576004359060026004541461145b5760026004556110cc8233612527565b1561141757816000526005815260ff600460406000200154166113da5781600052600581526004604060002001916001928360ff19825416179055331580159061138957839061111b8361284f565b908261113a60405161112c816121e5565b8281528736818301376125bb565b526000604051611149816121ca565b528080611380575b81611378575b50611261575b5050806000526000825260406000203360005282526040600020548381106112105781600052600083526040600020336000528352600019016040600020556000604051828152848482015233907fc3d58168c5ae7397731d063d5bbf3d657854427343f4c083240f7aacaa2d0f6260403392a460006040516111df816121ca565b527f9e8fd3bf99337e76cabf205043ce98f1b2495ee3bd9096913833dbf26dde6880604051924284523393a3600455005b60405162461bcd60e51b8152600481018490526024808201527f455243313135353a206275726e20616d6f756e7420657863656564732062616c604482015263616e636560e01b6064820152608490fd5b906000905b611273575b84915061115d565b81518110156113735790816112898693836125c8565b513360005260078087526040600020856000905b6112c4575b50506112bd9291610550916000805288526040600020612964565b9091611266565b81929394959691548082101561136657856112df83866122b7565b919054600392831b1c146113045750506112f8906125ac565b8196959493929161129d565b9190959250600097969493971995868101908111610576576113399261132d6104f5928b6122b7565b9054911b1c91896122b7565b85549182156105605789966112bd9561055094019061135b61052e83836122b7565b5591819394506112a2565b50819695949392506112a2565b61126b565b905086611157565b60009150611151565b60405162461bcd60e51b815260048101849052602360248201527f455243313135353a206275726e2066726f6d20746865207a65726f206164647260448201526265737360e81b6064820152608490fd5b6064906040519062461bcd60e51b82526004820152601660248201527510dc99591a5d08185b1c9958591e481c995d1a5c995960521b6044820152fd5b6064906040519062461bcd60e51b82526004820152601960248201527f4e6f7420746865206f776e6572206f662074686973204e4654000000000000006044820152fd5b6064906040519062461bcd60e51b82526004820152601f60248201527f5265656e7472616e637947756172643a207265656e7472616e742063616c6c006044820152fd5b346101ec576114ad3661235a565b9391906114b86124cf565b6114cc6001600160a01b0384161515612874565b6114d78215156128c0565b6114e385511515612918565b83600052600560205260056040600020015461180257836000526005602052604060002090600082558260018301558051906001600160401b0382116108fb57819061153260028501546123ef565b601f81116117af575b50602090601f831160011461173d57600092611732575b50508160011b916000199060031b1c19161760028201555b84516001600160401b0381116108fb5761158760038301546123ef565b601f81116116eb575b506020601f821160011461166857600095949282600080516020612bf58339815191529593600693899161165d575b508160011b9189199060031b1c19161760038201555b60048101805460ff191690554260058201550180546001600160a01b0319166001600160a01b038416908117909155855260076020526040852061161a908590612964565b611633604051611629816121ca565b868152858461298c565b61165860405192839283526040602084015260018060a01b0316966040830190612277565b0390a4005b90508901518a6115bf565b6003830160005260206000209060005b601f19841681106116d35750926001836006936000999896600080516020612bf58339815191529896601f198116106116bb575b5050811b0160038201556115d5565b8b01518a1960f88460031b161c191690558a806116ac565b9091602060018192858c015181550193019101611678565b600383016000526020600020601f830160051c81016020841061172b575b601f830160051c8201811061171f575050611590565b60008155600101611709565b5080611709565b015190508780611552565b9250600284016000526020600020906000935b601f1984168510611794576001945083601f1981161061177b575b505050811b01600282015561156a565b015160001960f88460031b161c1916905587808061176b565b81810151835560209485019460019093019290910190611750565b909150600284016000526020600020601f840160051c8101602085106117fb575b90849392915b601f830160051c820181106117ec57505061153b565b600081558594506001016117d6565b50806117d0565b60405162461bcd60e51b815260206004820152601760248201527f546f6b656e20494420616c7265616479206578697374730000000000000000006044820152606490fd5b346101ec5760031960a0368201126101ec57611861612183565b9061186a612199565b906001600160401b03906044358281116101ec5761188c9036906004016122fc565b6064358381116101ec576118a49036906004016122fc565b926084359081116101ec576118bd903690600401612221565b6001600160a01b03958616959092903387148015611c60575b6118df906125dc565b8251855103611c0a578516928315156118f78161263f565b8715159081611c02575b5080611bf8575b611b12575b60005b83518110156119a657806119276119a192866125c8565b5161193282896125c8565b5190806000526020906000825260406000208c60005282528260406000205461195d82821015612699565b82600052600084528d60406000209060005284520360406000205560005260008152604060002090886000525261199a60406000209182546126f8565b90556125ac565b611910565b509094939291938287604051604081527f4a39dc06d4c0dbc64b70af90fd698a233a518aa5d07e595d983b8c0526c8f7fb6119e4604083018a6123bb565b918083036020820152806119f933948b6123bb565b0390a43b611a0357005b6000602094611a64611a5597611a4594604051998a988997889663bc197c8160e01b9e8f89523360048a0152602489015260a0604489015260a48801906123bb565b90848783030160648801526123bb565b91848303016084850152612277565b03925af160009181611af2575b50611aca5750506001611a8261276e565b6308c379a014611a93575b6103a857005b611a9b61278c565b80611aa65750611a8d565b60405162461bcd60e51b8152602060048201529081906103c1906024830190612277565b6001600160e01b031916146103a65760405162461bcd60e51b8152806103c160048201612725565b611b0b91925060203d811161044c5761043d8183612200565b9083611a71565b9190600096949396945b8251861015611bed57611b2f86846125c8565b519381600052600793602098858a5260406000209760005b895480821015611bd45789611b5c838d6122b7565b919054600392831b1c14611b7a575050611b75906125ac565b611b47565b90969c9160009c969c9b959b9a949a999399199788810190811161057657611ba9926104e96104f592896122b7565b835493841561056057611bc99661055095019061053f61052e83836122b7565b949295939193611b1c565b505095610550929850611bc9949a999399979197610541565b96939450909161190d565b5083871415611908565b905088611901565b60405162461bcd60e51b815260206004820152602860248201527f455243313135353a2069647320616e6420616d6f756e7473206c656e677468206044820152670dad2e6dac2e8c6d60c31b6064820152608490fd5b508660005260016020526040600020336000526020526118df60ff6040600020541690506118d6565b346101ec5760403660031901126101ec576001600160401b036004356024358281116101ec57611cbd903690600401612221565b91611cc66124cf565b8160005260209160058352611ce46005604060002001541515612bb1565b835115611dfc576000526005825260026040600020019183519182116108fb57611d0e83546123ef565b601f8111611db6575b5080601f8311600114611d535750819293600092611d48575b5050600019600383901b1c191660019190911b179055005b015190508380611d30565b90601f198316948460005282600020926000905b878210611d9e575050836001959610611d85575b505050811b019055005b015160001960f88460031b161c19169055838080611d7b565b80600185968294968601518155019501930190611d67565b8360005281600020601f840160051c810191838510611df2575b601f0160051c01905b818110611de65750611d17565b60008155600101611dd9565b9091508190611dd0565b60405162461bcd60e51b815260048101849052601d60248201527f49504653206d657461646174612063616e6e6f7420626520656d7074790000006044820152606490fd5b346101ec5760403660031901126101ec57611e5a612183565b6001600160a01b03166000908152600760205260409020805460243591908210156101ec57602091610ef1916122b7565b346101ec576020806003193601126101ec576040519060008260025491611eb1836123ef565b92838352600190858282169182600014611f4d575050600114611ef0575b50611edc92500383612200565b610a90604051928284938452830190612277565b84915060026000527f405787fa12a823e0f2b7631cc41b3ba8828b3321ca811111fa75cd3aa3bb5ace906000915b858310611f35575050611edc935082010185611ecf565b80548389018501528794508693909201918101611f1e565b60ff191685820152611edc95151560051b8501019250879150611ecf9050565b346101ec576020806003193601126101ec576001600160401b036004358181116101ec57611f9f903690600401612221565b91611fa86124cf565b82519182116108fb57611fbc6002546123ef565b601f8111612082575b5080601f831160011461200157508192600092611ff6575b5050600019600383901b1c191660019190911b17600255005b015190508280611fdd565b90601f1983169360026000527f405787fa12a823e0f2b7631cc41b3ba8828b3321ca811111fa75cd3aa3bb5ace926000905b86821061206a5750508360019510612051575b505050811b01600255005b015160001960f88460031b161c19169055828080612046565b80600185968294968601518155019501930190612033565b60026000527f405787fa12a823e0f2b7631cc41b3ba8828b3321ca811111fa75cd3aa3bb5ace601f840160051c8101918385106120dc575b601f0160051c01905b8181106120d05750611fc5565b600081556001016120c3565b90915081906120ba565b346101ec5760203660031901126101ec5760043563ffffffff60e01b81168091036101ec57602090636cdb3d1360e11b8114908115612143575b8115612132575b506040519015158152f35b6301ffc9a760e01b14905082612127565b6303a24d0760e21b81149150612120565b346101ec5760403660031901126101ec57602061217b612172612183565b60243590612527565b604051908152f35b600435906001600160a01b03821682036101ec57565b602435906001600160a01b03821682036101ec57565b60e081019081106001600160401b038211176108fb57604052565b602081019081106001600160401b038211176108fb57604052565b604081019081106001600160401b038211176108fb57604052565b90601f801991011681019081106001600160401b038211176108fb57604052565b81601f820112156101ec578035906001600160401b0382116108fb5760405192612255601f8401601f191660200185612200565b828452602083830101116101ec57816000926020809301838601378301015290565b919082519283825260005b8481106122a3575050826000602080949584010152601f8019910116010190565b602081830181015184830182015201612282565b80548210156122cf5760005260206000200190600090565b634e487b7160e01b600052603260045260246000fd5b6001600160401b0381116108fb5760051b60200190565b81601f820112156101ec57803591612313836122e5565b926123216040519485612200565b808452602092838086019260051b8201019283116101ec578301905b82821061234b575050505090565b8135815290830190830161233d565b60a06003198201126101ec576004356001600160a01b03811681036101ec579160243591604435916001600160401b036064358181116101ec57836123a191600401612221565b926084359182116101ec576123b891600401612221565b90565b90815180825260208080930193019160005b8281106123db575050505090565b8351855293810193928101926001016123cd565b90600182811c9216801561241f575b602083101461240957565b634e487b7160e01b600052602260045260246000fd5b91607f16916123fe565b906040519182600082549261243d846123ef565b9081845260019485811690816000146124ac5750600114612469575b505061246792500383612200565b565b9093915060005260209081600020936000915b81831061249457505061246793508201013880612459565b8554888401850152948501948794509183019161247c565b91505061246794506020925060ff191682840152151560051b8201013880612459565b6003546001600160a01b031633036124e357565b606460405162461bcd60e51b815260206004820152602060248201527f4f776e61626c653a2063616c6c6572206973206e6f7420746865206f776e65726044820152fd5b6001600160a01b031690811561255457600052600060205260406000209060005260205260406000205490565b60405162461bcd60e51b815260206004820152602a60248201527f455243313135353a2061646472657373207a65726f206973206e6f742061207660448201526930b634b21037bbb732b960b11b6064820152608490fd5b60001981146105765760010190565b8051156122cf5760200190565b80518210156122cf5760209160051b010190565b156125e357565b60405162461bcd60e51b815260206004820152602e60248201527f455243313135353a2063616c6c6572206973206e6f7420746f6b656e206f776e60448201526d195c881bdc88185c1c1c9bdd995960921b6064820152608490fd5b1561264657565b60405162461bcd60e51b815260206004820152602560248201527f455243313135353a207472616e7366657220746f20746865207a65726f206164604482015264647265737360d81b6064820152608490fd5b156126a057565b60405162461bcd60e51b815260206004820152602a60248201527f455243313135353a20696e73756666696369656e742062616c616e636520666f60448201526939103a3930b739b332b960b11b6064820152608490fd5b9190820180921161057657565b908160209103126101ec57516001600160e01b0319811681036101ec5790565b60809060208152602860208201527f455243313135353a204552433131353552656365697665722072656a656374656040820152676420746f6b656e7360c01b60608201520190565b60009060033d1161277b57565b905060046000803e60005160e01c90565b600060443d106123b857604051600319913d83016004833e81516001600160401b03918282113d6024840111176127e9578184019485519384116127f1573d850101602084870101116127e957506123b892910160200190612200565b949350505050565b50949350505050565b60809060208152603460208201527f455243313135353a207472616e7366657220746f206e6f6e2d455243313135356040820152732932b1b2b4bb32b91034b6b83632b6b2b73a32b960611b60608201520190565b6040519061285c826121e5565b6001825260203681840137612870826125bb565b5290565b1561287b57565b60405162461bcd60e51b815260206004820152601960248201527f496e76616c696420726563697069656e742061646472657373000000000000006044820152606490fd5b156128c757565b60405162461bcd60e51b8152602060048201526024808201527f43726564697420616d6f756e74206d75737420626520677265617465722074686044820152630616e20360e41b6064820152608490fd5b1561291f57565b60405162461bcd60e51b815260206004820152601960248201527f4365727469666963617465206e616d65207265717569726564000000000000006044820152606490fd5b90815491680100000000000000008310156108fb57826104f5916001612467950181556122b7565b9091906001600160a01b0381168015612b62576129a88461284f565b506040938451936129b8856121e5565b600192838652836129d06020978836818301376125bb565b526000948386528587528786208287528752878620805490868201809211612b4e575581868951868152878a8201527fc3d58168c5ae7397731d063d5bbf3d657854427343f4c083240f7aacaa2d0f628b3392a43b612a33575b50505050505050565b612a7686918693895194858094819363f23a6e6160e01b998a845233600485015284602485015260448401528a606484015260a0608484015260a4830190612277565b03925af1849181612b2f575b50612afe57505091612a9261276e565b6308c379a014612ac8575b5050612ab157505b38808080808080612a2a565b5162461bcd60e51b8152806103c1600482016127fa565b612ad061278c565b9182612adc5750612a9d565b846103c191505192839262461bcd60e51b845260048401526024830190612277565b6001600160e01b031916039250612b189150505750612aa5565b5162461bcd60e51b8152806103c160048201612725565b612b47919250863d881161044c5761043d8183612200565b9038612a82565b634e487b7160e01b88526011600452602488fd5b60405162461bcd60e51b815260206004820152602160248201527f455243313135353a206d696e7420746f20746865207a65726f206164647265736044820152607360f81b6064820152608490fd5b15612bb857565b60405162461bcd60e51b8152602060048201526014602482015273151bdad95b88191bd95cc81b9bdd08195e1a5cdd60621b6044820152606490fdfe4c52b98bc3f9b49fa76ea2707aa8bd14d0e7e56b18699e15401aada4a142a5cba26469706673582212209666d2c26aaef121b4cb8235ae1f8e20903320470bb1ce318a87a080be1b9faf64736f6c63430008130033",
  "linkReferences": {},
  "deployedLinkReferences": {}
}