{
  "_format": "hh-sol-artifact-1",
  "contractName": "ProjectRegistry",
  "sourceName": "contracts/ProjectRegistry.sol",
  "abi": [
    {
      "inputs": [],
      "stateMutability": "nonpayable",
      "type": "constructor"
    },
    {
      "anonymous": false,
      "inputs": [
        {
          "indexed": true,
          "internalType": "uint256",
          "name": "projectId",
          "type": "uint256"
        },
        {
          "indexed": false,
          "internalType": "string",
          "name": "ipfsHash",
          "type": "string"
        },
        {
          "indexed": false,
          "internalType": "uint256",
          "name": "timestamp",
          "type": "uint256"
        }
      ],
      "name": "MetadataUpdated",
      "type": "event"
    },
    {
      "anonymous": false,
      "inputs": [
        {
          "indexed": true,
          "internalType": "address",
          "name": "previousOwner",
          "type": "address"
        },
        {
          "indexed": true,
          "internalType": "address",
          "name": "newOwner",
          "type": "address"
        }
      ],
      "name": "OwnershipTransferred",
      "type": "event"
    },
    {
      "anonymous": false,
      "inputs": [
        {
          "indexed": true,
          "internalType": "uint256",
          "name": "projectId",
          "type": "uint256"
        },
        {
          "indexed": true,
          "internalType": "address",
          "name": "approver",
          "type": "address"
        },
        {
          "indexed": false,
          "internalType": "uint256",
          "name": "approvedAt",
          "type": "uint256"
        }
      ],
      "name": "ProjectApproved",
      "type": "event"
    },
    {
      "anonymous": false,
      "inputs": [
        {
          "indexed": true,
          "internalType": "uint256",
          "name": "projectId",
          "type": "uint256"
        },
        {
          "indexed": true,
          "internalType": "address",
          "name": "owner",
          "type": "address"
        },
        {
          "indexed": false,
          "internalType": "string",
          "name": "name",
          "type": "string"
        },
        {
          "indexed": false,
          "internalType": "enum ProjectRegistry.EcosystemType",
          "name": "ecosystemType",
          "type": "uint8"
        },
        {
          "indexed": false,
          "internalType": "string",
          "name": "location",
          "type": "string"
        }
      ],
      "name": "ProjectRegistered",
      "type": "event"
    },
    {
      "anonymous": false,
      "inputs": [
        {
          "indexed": true,
          "internalType": "uint256",
          "name": "projectId",
          "type": "uint256"
        },
        {
          "indexed": false,
          "internalType": "enum ProjectRegistry.ProjectStatus",
          "name": "oldStatus",
          "type": "uint8"
        },
        {
          "indexed": false,
          "internalType": "enum ProjectRegistry.ProjectStatus",
          "name": "newStatus",
          "type": "uint8"
        }
      ],
      "name": "ProjectStatusUpdated",
      "type": "event"
    },
    {
      "anonymous": false,
      "inputs": [
        {
          "indexed": true,
          "internalType": "address",
          "name": "verifier",
          "type": "address"
        }
      ],
      "name": "VerifierAdded",
      "type": "event"
    },
    {
      "anonymous": false,
      "inputs": [
        {
          "indexed": true,
          "internalType": "address",
          "name": "verifier",
          "type": "address"
        }
      ],
      "name": "VerifierRemoved",
      "type": "event"
    },
    {
      "inputs": [
        {
          "internalType": "address",
          "name": "_verifier",
          "type": "address"
        }
      ],
      "name": "addVerifier",
      "outputs": [],
      "stateMutability": "nonpayable",
      "type": "function"
    },
    {
      "inputs": [
        {
          "internalType": "uint256",
          "name": "_projectId",
          "type": "uint256"
        }
      ],
      "name": "approveProject",
      "outputs": [],
      "stateMutability": "nonpayable",
      "type": "function"
    },
    {
      "inputs": [
        {
          "internalType": "address",
          "name": "",
          "type": "address"
        }
      ],
      "name": "authorizedVerifiers",
      "outputs": [
        {
          "internalType": "bool",
          "name": "",
          "type": "bool"
        }
      ],
      "stateMutability": "view",
      "type": "function"
    },
    {
      "inputs": [
        {
          "internalType": "uint256",
          "name": "_projectId",
          "type": "uint256"
        }
      ],
      "name": "getProject",
      "outputs": [
        {
          "components": [
            {
              "internalType": "uint256",
              "name": "id",
              "type": "uint256"
            },
            {
              "internalType": "string",
              "name": "name",
              "type": "string"
            },
            {
              "internalType": "string",
              "name": "description",
              "type": "string"
            },
            {
              "internalType": "enum ProjectRegistry.EcosystemType",
              "name": "ecosystemType",
              "type": "uint8"
            },
            {
              "internalType": "string",
              "name": "location",
              "type": "string"
            },
            {
              "internalType": "uint256",
              "name": "areaInHectares",
              "type": "uint256"
            },
            {
              "internalType": "address",
              "name": "projectOwner",
              "type": "address"
            },
            {
              "internalType": "address[]",
              "name": "communityWallets",
              "type": "address[]"
            },
            {
              "internalType": "address[]",
              "name": "verifiers",
              "type": "address[]"
            },
            {
              "internalType": "enum ProjectRegistry.ProjectStatus",
              "name": "status",
              "type": "uint8"
            },
            {
              "internalType": "uint256",
              "name": "createdAt",
              "type": "uint256"
            },
            {
              "internalType": "uint256",
              "name": "approvedAt",
              "type": "uint256"
            },
            {
              "internalType": "string",
              "name": "ipfsHashMetadata",
              "type": "string"
            },
            {
              "internalType": "uint256",
              "name": "estimatedCarbonCredits",
              "type": "uint256"
            },
            {
              "internalType": "uint256",
              "name": "totalCarbonCredits",
              "type": "uint256"
            },
            {
              "internalType": "bool",
              "name": "isActive",
              "type": "bool"
            }
          ],
          "internalType": "struct ProjectRegistry.Project",
          "name": "",
          "type": "tuple"
        }
      ],
      "stateMutability": "view",
      "type": "function"
    },
    {
      "inputs": [
        {
          "internalType": "uint256",
          "name": "_projectId",
          "type": "uint256"
        }
      ],
      "name": "getProjectMetadata",
      "outputs": [
        {
          "components": [
            {
              "internalType": "string[]",
              "name": "ipfsPhotos",
              "type": "string[]"
            },
            {
              "internalType": "string[]",
              "name": "ipfsDroneData",
              "type": "string[]"
            },
            {
              "internalType": "string[]",
              "name": "ipfsSatelliteData",
              "type": "string[]"
            },
            {
              "internalType": "uint256",
              "name": "lastUpdated",
              "type": "uint256"
            },
            {
              "internalType": "string",
              "name": "additionalNotes",
              "type": "string"
            }
          ],
          "internalType": "struct ProjectRegistry.ProjectMetadata",
          "name": "",
          "type": "tuple"
        }
      ],
      "stateMutability": "view",
      "type": "function"
    },
    {
      "inputs": [
        {
          "internalType": "address",
          "name": "_owner",
          "type": "address"
        }
      ],
      "name": "getProjectsByOwner",
      "outputs": [
        {
          "internalType": "uint256[]",
          "name": "",
          "type": "uint256[]"
        }
      ],
      "stateMutability": "view",
      "type": "function"
    },
    {
      "inputs": [],
      "name": "getTotalProjects",
      "outputs": [
        {
          "internalType": "uint256",
          "name": "",
          "type": "uint256"
        }
      ],
      "stateMutability": "view",
      "type": "function"
    },
    {
      "inputs": [
        {
          "internalType": "address",
          "name": "_verifier",
          "type": "address"
        }
      ],
      "name": "isAuthorizedVerifier",
      "outputs": [
        {
          "internalType": "bool",
          "name": "",
          "type": "bool"
        }
      ],
      "stateMutability": "view",
      "type": "function"
    },
    {
      "inputs": [],
      "name": "owner",
      "outputs": [
        {
          "internalType": "address",
          "name": "",
          "type": "address"
        }
      ],
      "stateMutability": "view",
      "type": "function"
    },
    {
      "inputs": [
        {
          "internalType": "address",
          "name": "",
          "type": "address"
        },
        {
          "internalType": "uint256",
          "name": "",
          "type": "uint256"
        }
      ],
      "name": "ownerProjects",
      "outputs": [
        {
          "internalType": "uint256",
          "name": "",
          "type": "uint256"
        }
      ],
      "stateMutability": "view",
      "type": "function"
    },
    {
      "inputs": [
        {
          "internalType": "uint256",
          "name": "",
          "type": "uint256"
        }
      ],
      "name": "projectMetadata",
      "outputs": [
        {
          "internalType": "uint256",
          "name": "lastUpdated",
          "type": "uint256"
        },
        {
          "internalType": "string",
          "name": "additionalNotes",
          "type": "string"
        }
      ],
      "stateMutability": "view",
      "type": "function"
    },
    {
      "inputs": [
        {
          "internalType": "uint256",
          "name": "",
          "type": "uint256"
        }
      ],
      "name": "projects",
      "outputs": [
        {
          "internalType": "uint256",
          "name": "id",
          "type": "uint256"
        },
        {
          "internalType": "string",
          "name": "name",
          "type": "string"
        },
        {
          "internalType": "string",
          "name": "description",
          "type": "string"
        },
        {
          "internalType": "enum ProjectRegistry.EcosystemType",
          "name": "ecosystemType",
          "type": "uint8"
        },
        {
          "internalType": "string",
          "name": "location",
          "type": "string"
        },
        {
          "internalType": "uint256",
          "name": "areaInHectares",
          "type": "uint256"
        },
        {
          "internalType": "address",
          "name": "projectOwner",
          "type": "address"
        },
        {
          "internalType": "enum ProjectRegistry.ProjectStatus",
          "name": "status",
          "type": "uint8"
        },
        {
          "internalType": "uint256",
          "name": "createdAt",
          "type": "uint256"
        },
        {
          "internalType": "uint256",
          "name": "approvedAt",
          "type": "uint256"
        },
        {
          "internalType": "string",
          "name": "ipfsHashMetadata",
          "type": "string"
        },
        {
          "internalType": "uint256",
          "name": "estimatedCarbonCredits",
          "type": "uint256"
        },
        {
          "internalType": "uint256",
          "name": "totalCarbonCredits",
          "type": "uint256"
        },
        {
          "internalType": "bool",
          "name": "isActive",
          "type": "bool"
        }
      ],
      "stateMutability": "view",
      "type": "function"
    },
    {
      "inputs": [
        {
          "internalType": "string",
          "name": "_name",
          "type": "string"
        },
        {
          "internalType": "string",
          "name": "_description",
          "type": "string"
        },
        {
          "internalType": "enum ProjectRegistry.EcosystemType",
          "name": "_ecosystemType",
          "type": "uint8"
        },
        {
          "internalType": "string",
          "name": "_location",
          "type": "string"
        },
        {
          "internalType": "uint256",
          "name": "_areaInHectares",
          "type": "uint256"
        },
        {
          "internalType": "address[]",
          "name": "_communityWallets",
          "type": "address[]"
        },
        {
          "internalType": "string",
          "name": "_ipfsHashMetadata",
          "type": "string"
        },
        {
          "internalType": "uint256",
          "name": "_estimatedCarbonCredits",
          "type": "uint256"
        }
      ],
      "name": "registerProject",
      "outputs": [
        {
          "internalType": "uint256",
          "name": "",
          "type": "uint256"
        }
      ],
      "stateMutability": "nonpayable",
      "type": "function"
    },
    {
      "inputs": [
        {
          "internalType": "address",
          "name": "_verifier",
          "type": "address"
        }
      ],
      "name": "removeVerifier",
      "outputs": [],
      "stateMutability": "nonpayable",
      "type": "function"
    },
    {
      "inputs": [],
      "name": "renounceOwnership",
      "outputs": [],
      "stateMutability": "nonpayable",
      "type": "function"
    },
    {
      "inputs": [
        {
          "internalType": "address",
          "name": "newOwner",
          "type": "address"
        }
      ],
      "name": "transferOwnership",
      "outputs": [],
      "stateMutability": "nonpayable",
      "type": "function"
    },
    {
      "inputs": [
        {
          "internalType": "uint256",
          "name": "_projectId",
          "type": "uint256"
        },
        {
          "internalType": "string[]",
          "name": "_ipfsPhotos",
          "type": "string[]"
        },
        {
          "internalType": "string[]",
          "name": "_ipfsDroneData",
          "type": "string[]"
        },
        {
          "internalType": "string[]",
          "name": "_ipfsSatelliteData",
          "type": "string[]"
        },
        {
          "internalType": "string",
          "name": "_additionalNotes",
          "type": "string"
        }
      ],
      "name": "updateProjectMetadata",
      "outputs": [],
      "stateMutability": "nonpayable",
      "type": "function"
    },
    {
      "inputs": [
        {
          "internalType": "uint256",
          "name": "_projectId",
          "type": "uint256"
        },
        {
          "internalType": "enum ProjectRegistry.ProjectStatus",
          "name": "_newStatus",
          "type": "uint8"
        }
      ],
      "name": "updateProjectStatus",
      "outputs": [],
      "stateMutability": "nonpayable",
      "type": "function"
    },
    {
      "inputs": [
        {
          "internalType": "uint256",
          "name": "_projectId",
          "type": "uint256"
        },
        {
          "internalType": "uint256",
          "name": "_credits",
          "type": "uint256"
        }
      ],
      "name": "updateTotalCarbonCredits",
      "outputs": [],
      "stateMutability": "nonpayable",
      "type": "function"
    }
  ],
  "bytecode": "0x6080806040523461005f5760008054336001600160a01b0319821681178355916001600160a01b03909116907f8be0079c531659141344cd1fd0a4f28419497f9722a3daafe3b4186f6b6457e09080a36001805561239990816100658239f35b600080fdfe6080604052600436101561001257600080fd5b60003560e01c8063107046bd14611d2257806331c951b714611cd35780636cacbf301461129f578063715018a614611c7a57806377dde52614611c225780637edb3344146113da578063812739a2146113bc5780638da5cb5b146113935780639000b3d6146112de5780639a8917161461129f5780639d9cc2fe146111eb578063ca2dfd0a14611185578063d11d498b146110b2578063d3dc322f14611031578063eb7ae97014610732578063ef750ab314610602578063f0f3f2c81461031d578063f2fde38b146102545763fc69d836146100ed57600080fd5b3461024f5760208060031936011261024f5760043590336000526006815260ff60406000205416801561023b575b61012490612225565b8115158061022f575b61013690612271565b8160005260038152604060002090600982019182549260ff841693600585101561021957846101d457927f15a4a29eccf92a0bbf94f24a6840487aa0226f7fb02d3402f1f86b3360bdfc6a94926001928360409660ff1916179055600b429101558351428152867f74f80ffca0e020be3e7805e2a2810b062862641047e86356fe10043d9b43b89d833393a36101ce84518094611fdf565b820152a2005b60405162461bcd60e51b815260048101859052601d60248201527f50726f6a656374206e6f7420696e2070656e64696e67207374617475730000006044820152606490fd5b634e487b7160e01b600052602160045260246000fd5b5060025482111561012d565b506000546001600160a01b0316331461011b565b600080fd5b3461024f57602036600319011261024f5761026d611fec565b6102756121b6565b6001600160a01b039081169081156102c957600054826bffffffffffffffffffffffff60a01b821617600055167f8be0079c531659141344cd1fd0a4f28419497f9722a3daafe3b4186f6b6457e0600080a3005b60405162461bcd60e51b815260206004820152602660248201527f4f776e61626c653a206e6577206f776e657220697320746865207a65726f206160448201526564647265737360d01b6064820152608490fd5b3461024f57602036600319011261024f5760043560006101e060405161034281611eaf565b8281526060602082015260606040820152826060820152606060808201528260a08201528260c0820152606060e082015260606101008201528261012082015282610140820152826101608201526060610180820152826101a0820152826101c08201520152801515806105f6575b6103ba90612271565b60005260036020526040600020604051906103d482611eaf565b805482526103e460018201611eec565b60208301526103f560028201611eec565b604083015260ff600382015416600381101561021957606083015261041c60048201611eec565b6080830152600581015460a083015260068101546001600160a01b031660c083015261044a600782016122b6565b60e083015261045b600882016122b6565b61010083015260ff60098201541660058110156102195760ff91600f91610120850152600a810154610140850152600b8101546101608501526104a0600c8201611eec565b610180850152600d8101546101a0850152600e8101546101c085015201541615156101e0820152604051809160208252805160208301526101e06105d161058d61057561054261051a610504602088015161020060408b01526102208a0190611f92565b6040880151898203601f190160608b0152611f92565b61052c606088015160808a0190611fd2565b6080870151888203601f190160a08a0152611f92565b60a086015160c088015260018060a01b0360c08701511660e088015260e0860151601f1988830301610100890152612179565b610100850151868203601f1901610120880152612179565b6105a1610120850151610140870190611fdf565b610140840151610160860152610160840151610180860152610180840151601f19868303016101a0870152611f92565b916101a08101516101c08501526101c081015182850152015115156102008301520390f35b506002548111156103b1565b3461024f5760208060031936011261024f5760a090610722608060043560405161062b81611e94565b60609281848093528287820152826040820152600083820152015280151580610726575b61065890612271565b600052600483526040600020906040519361067285611e94565b61067b8361230e565b855261070b61068c6001850161230e565b9282870193845261069f6002860161230e565b90604088019182526106fa6106e46106c4600460038a015499858d019a8b5201611eec565b9560808b019687526040519b8c9b828d5251918c015260c08b019061211d565b955195601f1996878b83030160408c015261211d565b91519085898403019089015261211d565b9251608086015251908483030160a0850152611f92565b0390f35b5060025481111561064f565b3461024f5760a036600319011261024f576024356001600160401b03811161024f5761076290369060040161209d565b6044356001600160401b03811161024f5761078190369060040161209d565b6064356001600160401b03811161024f576107a090369060040161209d565b916084356001600160401b03811161024f576107c0903690600401612030565b92600435151580611023575b6107d590612271565b600435600052600360205260406000209260018060a01b03806006860154163314908115611009575b8115610ffb575b5015610fac576004356000526004602052604060002092805190600160401b8211610ae9578454828655808310610f36575b50600085815260208082209392015b828210610e235750505050805190600160401b8211610ae9576001840154826001860155808310610daa575b5060200190600184016000526020600020916000905b828210610c965750505050805190600160401b8211610ae9576002830154826002850155808310610c1d575b5060200190600283016000526020600020916000905b828210610aff5742600386015586518660048701896001600160401b038411610ae9576108f78254611e5a565b601f8111610aac575b50602090601f8511600114610a4257600c949160009183610a37575b50508160011b916000199060031b1c19161790555b016040516040815260009180549061094882611e5a565b918260408501526001811690816000146109f45750600114610996575b4260208401526004357faef83f88d7b64742932e336e35ec4ebdbf35e2824c4cc154007911e95b72367e84860385a2005b9091925060005260206000206000905b8282106109dd575082016060019190507faef83f88d7b64742932e336e35ec4ebdbf35e2824c4cc154007911e95b72367e83610965565b6001816020925460608588010152019101906109a6565b90507faef83f88d7b64742932e336e35ec4ebdbf35e2824c4cc154007911e95b72367e939450606092915060ff191682850152151560051b830101919083610965565b01519050858061091c565b90601f198516918360005260206000209260005b818110610a945750916001939187600c989410610a7b575b505050811b019055610931565b015160001960f88460031b161c19169055858080610a6e565b92936020600181928786015181550195019301610a56565b610ad990836000526020600020601f870160051c81019160208810610adf575b601f0160051c019061220e565b84610900565b9091508190610acc565b634e487b7160e01b600052604160045260246000fd5b80518051906001600160401b038211610ae957610b1c8654611e5a565b90601f91828111610be3575b506020918311600114610b73579282600194936020938695600092610b68575b5050600019600383901b1c191690841b1787555b019401910190926108ca565b015190508c80610b48565b908660005260206000209160005b601f1985168110610bcb575083602093600196938796938794601f19811610610bb2575b505050811b018755610b5c565b015160001960f88460031b161c191690558c8080610ba5565b91926020600181928685015181550194019201610b81565b610c0e90886000526020600020600585808801821c83019360208910610c14575b01901c019061220e565b8a610b28565b93508293610c04565b600284016000526020600020908382015b8183018110610c3e5750506108b4565b80610c4b60019254611e5a565b80610c58575b5001610c2e565b601f908181118414610c71575050600081555b89610c51565b610c8d60009284845260208420920160051c820185830161220e565b81835555610c6b565b80518051906001600160401b038211610ae957610cb38654611e5a565b90601f91828111610d7a575b506020918311600114610d0a579282600194936020938695600092610cff575b5050600019600383901b1c191690841b1787555b01940191019092610888565b015190508d80610cdf565b908660005260206000209160005b601f1985168110610d62575083602093600196938796938794601f19811610610d49575b505050811b018755610cf3565b015160001960f88460031b161c191690558d8080610d3c565b91926020600181928685015181550194019201610d18565b610da490886000526020600020600585808801821c83019360208910610c145701901c019061220e565b8b610cbf565b600185016000526020600020908382015b8183018110610dcb575050610872565b80610dd860019254611e5a565b80610de5575b5001610dbb565b601f908181118414610dfe575050600081555b8a610dde565b610e1a60009284845260208420920160051c820185830161220e565b81835555610df8565b80518051906001600160401b038211610ae957610e408654611e5a565b90601f91828111610f06575b506020918311600114610e97579282600194936020938695600092610e8c575b5050600019600383901b1c191690841b1787555b01940191019092610846565b015190508e80610e6c565b908660005260206000209160005b601f1985168110610eee57509260209260019592869583601f19811610610ed5575b505050831b83018755610e80565b015160001960f88460031b161c191690558d8080610ec7565b91926020600181928685015181550194019201610ea5565b610f3090886000526020600020600585808801821c83019360208910610c145701901c019061220e565b8c610e4c565b856000526020600020908382015b8183018110610f54575050610837565b80610f6160019254611e5a565b80610f6e575b5001610f44565b601f908181118414610f87575050600081555b8b610f67565b610fa360009284845260208420920160051c820185830161220e565b81835555610f81565b60405162461bcd60e51b815260206004820152602160248201527f4e6f7420617574686f72697a656420746f20757064617465206d6574616461746044820152606160f81b6064820152608490fd5b905060005416331486610805565b905033600052600660205260ff60406000205416906107fe565b5060025460043511156107cc565b3461024f57604036600319011261024f5760043533600052600660205260ff60406000205416801561109e575b61106790612225565b80151580611092575b61107990612271565b6000526003602052602435600e60406000200155600080f35b50600254811115611070565b506000546001600160a01b0316331461105e565b3461024f57604036600319011261024f57600435602435600581101561024f57604060ff6111627f15a4a29eccf92a0bbf94f24a6840487aa0226f7fb02d3402f1f86b3360bdfc6a93336000526006602052828460002054168015611171575b61111b90612225565b85151580611165575b61112d90612271565b8560005260036020526111586009856000200180549085841686198316179055855194859116611fdf565b6020830190611fdf565ba2005b50600254861115611124565b506000546001600160a01b03163314611112565b3461024f57602036600319011261024f5761119e611fec565b6111a66121b6565b6001600160a01b03166000818152600660205260408120805460ff191690557f44a3cd4eb5cc5748f6169df057b1cb2ae4c383e87cd94663c430e095d4cba4249080a2005b3461024f5760208060031936011261024f576001600160a01b0361120d611fec565b1660005260058152604060002060405190818382549182815201908192600052846000209060005b8682821061128b57868661124b82880383611ecb565b604051928392818401908285525180915260408401929160005b82811061127457505050500390f35b835185528695509381019392810192600101611265565b835485529093019260019283019201611235565b3461024f57602036600319011261024f576001600160a01b036112c0611fec565b166000526006602052602060ff604060002054166040519015158152f35b3461024f57602036600319011261024f576112f7611fec565b6112ff6121b6565b6001600160a01b0316801561134e578060005260066020526040600020600160ff198254161790557f6d05492139c5ea989514a5d2150c028041e5c087e2a39967f67dc7d2655adb81600080a2005b60405162461bcd60e51b815260206004820152601860248201527f496e76616c6964207665726966696572206164647265737300000000000000006044820152606490fd5b3461024f57600036600319011261024f576000546040516001600160a01b039091168152602090f35b3461024f57600036600319011261024f576020600254604051908152f35b3461024f5761010036600319011261024f576004356001600160401b03811161024f5761140b903690600401612030565b6024356001600160401b03811161024f5761142a903690600401612030565b6003604435101561024f576064356001600160401b03811161024f57611454903690600401612030565b9160a435916001600160401b03831161024f573660238401121561024f57826004013561148081612086565b9361148e6040519586611ecb565b81855260208501906024829360051b8201019036821161024f57602401915b818310611c005750505060c4356001600160401b03811161024f576114d6903690600401612030565b90835115611bbb57855115611b765760843515611b315760e43515611adb57600254946000198614611ac5576001860160025560018601600052600360205260406000209360018701855585516001600160401b038111610ae95761153e6001870154611e5a565b601f8111611a90575b50806020601f8211600114611a2357600091611a18575b508160011b916000199060031b1c19161760018601555b8051906001600160401b038211610ae95781906115956002880154611e5a565b601f81116119e3575b50602090601f831160011461197157600092611966575b50508160011b916000199060031b1c19161760028501555b6003840160ff1981541660ff6044351617905586516001600160401b038111610ae9576115fd6004860154611e5a565b601f8111611931575b50806020601f82116001146118c3576000916118b8575b508160011b916000199060031b1c19161760048501555b60843560058501556006840180546001600160a01b0319163317905551906001600160401b038211610ae957600160401b8211610ae9576007840190815483835580841061189a575b5090600052602060002060005b83811061187d575050505060098201805460ff1916905542600a8301558051906001600160401b038211610ae9576116c5600c840154611e5a565b601f8111611848575b50602090601f83116001146117d557600f939291600091836117ca575b50508160011b916000199060031b1c191617600c8201555b60e435600d82015501600160ff19825416179055336000526005602052604060002092835493600160401b851015610ae95784611747916001602097018155612002565b81549060031b9060018601821b91600019901b19161790557fa9c0b046ac48112f3c516861c1150bdb93e771c775448030c909b2bedee585e861179560405193606085526060850190611f92565b926117a4868201604435611fd2565b8084036040820152806117bc33956001880195611f92565b0390a3600160405191018152f35b0151905087806116eb565b90600c840160005260206000209160005b601f19851681106118305750918391600193600f9695601f19811610611817575b505050811b01600c820155611703565b015160001960f88460031b161c19169055878080611807565b919260206001819286850151815501940192016117e6565b61187790600c85016000526020600020601f850160051c81019160208610610adf57601f0160051c019061220e565b866116ce565b82516001600160a01b03168183015560209092019160010161168a565b6118b29083600052846020600020918201910161220e565b8861167d565b90508801518961161d565b91506004860160005260206000206000925b8a601f198416851061191a57506001935082601f19811610611901575b5050811b016004850155611634565b8a015160001960f88460031b161c1916905589806118f2565b8101518255602093840193600190920191016118d5565b61196090600487016000526020600020601f840160051c81019160208510610adf57601f0160051c019061220e565b88611606565b0151905089806115b5565b9250600287016000526020600020906000935b601f19841685106119c8576001945083601f198116106119af575b505050811b0160028501556115cd565b015160001960f88460031b161c1916905589808061199f565b81810151835560209485019460019093019290910190611984565b611a1290600289016000526020600020601f850160051c81019160208610610adf57601f0160051c019061220e565b8a61159e565b90508701518a61155e565b91506001870160005260206000206000925b601f1983168410611a78576001935082601f19811610611a5f575b5050811b016001860155611575565b89015160001960f88460031b161c191690558a80611a50565b89810151825560209384019360019092019101611a35565b611abf90600188016000526020600020601f840160051c81019160208510610adf57601f0160051c019061220e565b89611547565b634e487b7160e01b600052601160045260246000fd5b60405162461bcd60e51b815260206004820152602860248201527f457374696d617465642063726564697473206d75737420626520677265617465604482015267072207468616e20360c41b6064820152608490fd5b60405162461bcd60e51b815260206004820152601b60248201527f41726561206d7573742062652067726561746572207468616e203000000000006044820152606490fd5b60405162461bcd60e51b815260206004820152601860248201527f4c6f636174696f6e2063616e6e6f7420626520656d70747900000000000000006044820152606490fd5b60405162461bcd60e51b815260206004820152601c60248201527f50726f6a656374206e616d652063616e6e6f7420626520656d707479000000006044820152606490fd5b82356001600160a01b038116900361024f5782358152602092830192016114ad565b3461024f57604036600319011261024f57611c3b611fec565b6001600160a01b031660009081526005602052604090208054602435919082101561024f57602091611c6c91612002565b90546040519160031b1c8152f35b3461024f57600036600319011261024f57611c936121b6565b600080546001600160a01b0319811682556001600160a01b03167f8be0079c531659141344cd1fd0a4f28419497f9722a3daafe3b4186f6b6457e08280a3005b3461024f57602036600319011261024f5760043560005260046020526040600020611d05600460038301549201611eec565b906107226040519283928352604060208401526040830190611f92565b3461024f57602036600319011261024f5760043560005260036020526040600020805460018201611d5290611eec565b91611d5f60028201611eec565b600382015460ff1691611d7460048201611eec565b600582015460068301546009840154600a850154600b86015492909160ff16906001600160a01b0316611da9600c8801611eec565b95600d88015499600e89015498600f015460ff16996040519d8e9d8e528d6101c09081602082015201611ddb91611f92565b8d810360408f0152611dec91611f92565b9060608d01611dfa91611fd2565b8b810360808d0152611e0b91611f92565b9460a08b015260c08a015260e08901611e2391611fdf565b610100880152610120870152858103610140870152611e4191611f92565b9261016085015261018084015215156101a08301520390f35b90600182811c92168015611e8a575b6020831014611e7457565b634e487b7160e01b600052602260045260246000fd5b91607f1691611e69565b60a081019081106001600160401b03821117610ae957604052565b61020081019081106001600160401b03821117610ae957604052565b90601f801991011681019081106001600160401b03821117610ae957604052565b9060405191826000825492611f0084611e5a565b908184526001948581169081600014611f6f5750600114611f2c575b5050611f2a92500383611ecb565b565b9093915060005260209081600020936000915b818310611f57575050611f2a93508201013880611f1c565b85548884018501529485019487945091830191611f3f565b915050611f2a94506020925060ff191682840152151560051b8201013880611f1c565b919082519283825260005b848110611fbe575050826000602080949584010152601f8019910116010190565b602081830181015184830182015201611f9d565b9060038210156102195752565b9060058210156102195752565b600435906001600160a01b038216820361024f57565b805482101561201a5760005260206000200190600090565b634e487b7160e01b600052603260045260246000fd5b81601f8201121561024f578035906001600160401b038211610ae95760405192612064601f8401601f191660200185611ecb565b8284526020838301011161024f57816000926020809301838601378301015290565b6001600160401b038111610ae95760051b60200190565b9080601f8301121561024f578135906120b582612086565b926120c36040519485611ecb565b828452602092838086019160051b8301019280841161024f57848301915b8483106120f15750505050505090565b82356001600160401b03811161024f57869161211284848094890101612030565b8152019201916120e1565b908082519081815260208091019281808460051b8301019501936000915b84831061214b5750505050505090565b9091929394958480612169600193601f198682030187528a51611f92565b980193019301919493929061213b565b90815180825260208080930193019160005b828110612199575050505090565b83516001600160a01b03168552938101939281019260010161218b565b6000546001600160a01b031633036121ca57565b606460405162461bcd60e51b815260206004820152602060248201527f4f776e61626c653a2063616c6c6572206973206e6f7420746865206f776e65726044820152fd5b818110612219575050565b6000815560010161220e565b1561222c57565b60405162461bcd60e51b815260206004820152601760248201527f4e6f7420617574686f72697a65642076657269666965720000000000000000006044820152606490fd5b1561227857565b60405162461bcd60e51b8152602060048201526016602482015275141c9bda9958dd08191bd95cc81b9bdd08195e1a5cdd60521b6044820152606490fd5b9060405191828154918282526020928383019160005283600020936000905b8282106122eb57505050611f2a92500383611ecb565b85546001600160a01b0316845260019586019588955093810193909101906122d5565b90815461231a81612086565b926123286040519485611ecb565b818452600090815260208082208186015b848410612347575050505050565b600183819261235585611eec565b81520192019301929061233956fea2646970667358221220a3aa0701b4b028a51834655723f39b1b6e059d8c6da0ff17fb381eae55e68ae064736f6c63430008130033",
  "linkReferences": {},
  "deployedLinkReferences": {}
}