{"contracts/PaymentDistributor.sol":{"PaymentDistributor":{"abi":[{"inputs":[{"internalType":"address","name":"_carbonCreditToken","type":"address"},{"internalType":"address","name":"_platformTreasury","type":"address"}],"stateMutability":"nonpayable","type":"constructor"},{"anonymous":false,"inputs":[{"indexed":true,"internalType":"address","name":"recipient","type":"address"},{"indexed":false,"internalType":"uint256","name":"amount","type":"uint256"}],"name":"FundsWithdrawn","type":"event"},{"anonymous":false,"inputs":[{"indexed":true,"internalType":"address","name":"previousOwner","type":"address"},{"indexed":true,"internalType":"address","name":"newOwner","type":"address"}],"name":"OwnershipTransferred","type":"event"},{"anonymous":false,"inputs":[{"indexed":true,"internalType":"uint256","name":"saleId","type":"uint256"},{"indexed":true,"internalType":"uint256","name":"projectId","type":"uint256"},{"indexed":false,"internalType":"uint256","name":"totalAmount","type":"uint256"},{"indexed":false,"internalType":"uint256","name":"timestamp","type":"uint256"}],"name":"PaymentDistributed","type":"event"},{"anonymous":false,"inputs":[{"indexed":true,"internalType":"uint256","name":"projectId","type":"uint256"},{"indexed":false,"internalType":"address[]","name":"communityWallets","type":"address[]"},{"indexed":false,"internalType":"uint256[]","name":"communityPercentages","type":"uint256[]"}],"name":"PaymentSplitConfigured","type":"event"},{"anonymous":false,"inputs":[{"indexed":true,"internalType":"uint256","name":"saleId","type":"uint256"},{"indexed":true,"internalType":"uint256","name":"projectId","type":"uint256"},{"indexed":true,"internalType":"uint256","name":"batchId","type":"uint256"},{"indexed":false,"internalType":"uint256","name":"amount","type":"uint256"},{"indexed":false,"internalType":"uint256","name":"price","type":"uint256"},{"indexed":false,"internalType":"address","name":"buyer","type":"address"},{"indexed":false,"internalType":"address","name":"seller","type":"address"}],"name":"SaleRecorded","type":"event"},{"inputs":[],"name":"carbonCreditToken","outputs":[{"internalType":"contract CarbonCreditToken","name":"","type":"address"}],"stateMutability":"view","type":"function"},{"inputs":[{"internalType":"uint256","name":"_projectId","type":"uint256"},{"internalType":"address[]","name":"_communityWallets","type":"address[]"},{"internalType":"uint256[]","name":"_communityPercentages","type":"uint256[]"},{"internalType":"address[]","name":"_ngoWallets","type":"address[]"},{"internalType":"uint256[]","name":"_ngoPercentages","type":"uint256[]"},{"internalType":"address[]","name":"_verifierWallets","type":"address[]"},{"internalType":"uint256[]","name":"_verifierPercentages","type":"uint256[]"},{"internalType":"address","name":"_platformWallet","type":"address"},{"internalType":"uint256","name":"_platformPercentage","type":"uint256"}],"name":"configurePaymentSplit","outputs":[],"stateMutability":"nonpayable","type":"function"},{"inputs":[],"name":"defaultPlatformFee","outputs":[{"internalType":"uint256","name":"","type":"uint256"}],"stateMutability":"view","type":"function"},{"inputs":[{"internalType":"address","name":"_recipient","type":"address"},{"internalType":"uint256","name":"_amount","type":"uint256"}],"name":"emergencyWithdraw","outputs":[],"stateMutability":"nonpayable","type":"function"},{"inputs":[{"internalType":"uint256","name":"_projectId","type":"uint256"}],"name":"getPaymentSplit","outputs":[{"components":[{"internalType":"address[]","name":"communityWallets","type":"address[]"},{"internalType":"uint256[]","name":"communityPercentages","type":"uint256[]"},{"internalType":"address[]","name":"ngoWallets","type":"address[]"},{"internalType":"uint256[]","name":"ngoPercentages","type":"uint256[]"},{"internalType":"address[]","name":"verifierWallets","type":"address[]"},{"internalType":"uint256[]","name":"verifierPercentages","type":"uint256[]"},{"internalType":"address","name":"platformWallet","type":"address"},{"internalType":"uint256","name":"platformPercentage","type":"uint256"}],"internalType":"struct PaymentDistributor.PaymentSplit","name":"","type":"tuple"}],"stateMutability":"view","type":"function"},{"inputs":[{"internalType":"address","name":"_address","type":"address"}],"name":"getPendingWithdrawal","outputs":[{"internalType":"uint256","name":"","type":"uint256"}],"stateMutability":"view","type":"function"},{"inputs":[{"internalType":"uint256","name":"_saleId","type":"uint256"}],"name":"getSale","outputs":[{"components":[{"internalType":"uint256","name":"projectId","type":"uint256"},{"internalType":"uint256","name":"batchId","type":"uint256"},{"internalType":"uint256","name":"amount","type":"uint256"},{"internalType":"uint256","name":"price","type":"uint256"},{"internalType":"address","name":"buyer","type":"address"},{"internalType":"address","name":"seller","type":"address"},{"internalType":"uint256","name":"timestamp","type":"uint256"},{"internalType":"bool","name":"isDistributed","type":"bool"}],"internalType":"struct PaymentDistributor.Sale","name":"","type":"tuple"}],"stateMutability":"view","type":"function"},{"inputs":[],"name":"getTotalSales","outputs":[{"internalType":"uint256","name":"","type":"uint256"}],"stateMutability":"view","type":"function"},{"inputs":[],"name":"owner","outputs":[{"internalType":"address","name":"","type":"address"}],"stateMutability":"view","type":"function"},{"inputs":[{"internalType":"address","name":"","type":"address"}],"name":"pendingWithdrawals","outputs":[{"internalType":"uint256","name":"","type":"uint256"}],"stateMutability":"view","type":"function"},{"inputs":[],"name":"platformTreasury","outputs":[{"internalType":"address","name":"","type":"address"}],"stateMutability":"view","type":"function"},{"inputs":[{"internalType":"uint256","name":"","type":"uint256"}],"name":"projectPaymentSplits","outputs":[{"internalType":"address","name":"platformWallet","type":"address"},{"internalType":"uint256","name":"platformPercentage","type":"uint256"}],"stateMutability":"view","type":"function"},{"inputs":[{"internalType":"uint256","name":"_projectId","type":"uint256"},{"internalType":"uint256","name":"_batchId","type":"uint256"},{"internalType":"uint256","name":"_amount","type":"uint256"},{"internalType":"uint256","name":"_price","type":"uint256"},{"internalType":"address","name":"_buyer","type":"address"},{"internalType":"address","name":"_seller","type":"address"}],"name":"recordSaleAndDistribute","outputs":[],"stateMutability":"payable","type":"function"},{"inputs":[],"name":"renounceOwnership","outputs":[],"stateMutability":"nonpayable","type":"function"},{"inputs":[{"internalType":"uint256","name":"","type":"uint256"}],"name":"sales","outputs":[{"internalType":"uint256","name":"projectId","type":"uint256"},{"internalType":"uint256","name":"batchId","type":"uint256"},{"internalType":"uint256","name":"amount","type":"uint256"},{"internalType":"uint256","name":"price","type":"uint256"},{"internalType":"address","name":"buyer","type":"address"},{"internalType":"address","name":"seller","type":"address"},{"internalType":"uint256","name":"timestamp","type":"uint256"},{"internalType":"bool","name":"isDistributed","type":"bool"}],"stateMutability":"view","type":"function"},{"inputs":[{"internalType":"address","name":"newOwner","type":"address"}],"name":"transferOwnership","outputs":[],"stateMutability":"nonpayable","type":"function"},{"inputs":[{"internalType":"uint256","name":"_newFee","type":"uint256"}],"name":"updateDefaultPlatformFee","outputs":[],"stateMutability":"nonpayable","type":"function"},{"inputs":[{"internalType":"address","name":"_newTreasury","type":"address"}],"name":"updatePlatformTreasury","outputs":[],"stateMutability":"nonpayable","type":"function"},{"inputs":[],"name":"withdraw","outputs":[],"stateMutability":"nonpayable","type":"function"},{"stateMutability":"payable","type":"receive"}],"evm":{"bytecode":{"linkReferences":{},"object":"6080346200016f57601f62001a1e38819003918201601f19168301916001600160401b03831184841017620001745780849260409485528339810103126200016f576200005a602062000052836200018a565b92016200018a565b60008054336001600160a01b0319808316821784556040519590946001600160a01b03949093859391908416907f8be0079c531659141344cd1fd0a4f28419497f9722a3daafe3b4186f6b6457e09080a36001805560fa600755169384156200012d575016918215620000e857816005541617600555600654161760065560405161187e9081620001a08239f35b60405162461bcd60e51b815260206004820152601860248201527f496e76616c6964207472656173757279206164647265737300000000000000006044820152606490fd5b62461bcd60e51b815260206004820152601560248201527f496e76616c696420746f6b656e206164647265737300000000000000000000006044820152606490fd5b600080fd5b634e487b7160e01b600052604160045260246000fd5b51906001600160a01b03821682036200016f5756fe608080604052600436101561001d575b50361561001b57600080fd5b005b60e0600035811c9182631c34212c146113cc575081632156a96c146113ae5781633ccfd60b146112ee57816366dea358146112c5578163715018a61461126c57816378dfdf9e14610d8f5781637ee8b2f8146100fd5781638409147914610d4f5781638da5cb5b14610d26578163943d7cae14610c9957816395ccea6714610bce5781639f60be5c14610a32578163a9a79f4c14610428578163b5f522f71461039e578163c1e9f11514610337578163d8f6d5961461022957508063e138818c14610200578063f2fde38b1461013c5763f3f43703146100fd573861000f565b34610137576020366003190112610137576001600160a01b0361011e6113e7565b1660005260046020526020604060002054604051908152f35b600080fd5b34610137576020366003190112610137576101556113e7565b61015d61158e565b6001600160a01b039081169081156101ac57600054826001600160601b0360a01b821617600055167f8be0079c531659141344cd1fd0a4f28419497f9722a3daafe3b4186f6b6457e0600080a3005b60405162461bcd60e51b815260206004820152602660248201527f4f776e61626c653a206e6577206f776e657220697320746865207a65726f206160448201526564647265737360d01b6064820152608490fd5b34610137576000366003190112610137576006546040516001600160a01b039091168152602090f35b34610137576020366003190112610137578060006101009260405161024d8161146e565b8281528260208201528260408201528260608201528260808201528260a08201528260c0820152015260043560005260036020526040600020906040516102938161146e565b8254928382526001810154602083019081526002820154906040840191825260038301546060850190815260018060a01b03928391826004870154169160808801928352836005880154169460a089019586528960ff600760068b01549a60c08d019b8c52015416990198151589526040519a8b525160208b01525160408a015251606089015251166080870152511660a08501525160c084015251151590820152f35b346101375760203660031901126101375760043561035361158e565b6103e8811161036157600755005b60405162461bcd60e51b81526020600482015260156024820152744665652063616e6e6f74206578636565642031302560581b6044820152606490fd5b34610137576020366003190112610137576101009060043560005260036020526040600020908154916001810154906002810154600382015460018060a01b039081600485015416916005850154169260ff600760068701549601541695604051988952602089015260408801526060870152608086015260a085015260c0840152151590820152f35b3461013757610120366003190112610137576024356001600160401b038111610137576104599036906004016114c2565b6044356001600160401b03811161013757610478903690600401611530565b906064356001600160401b038111610137576104989036906004016114c2565b916084356001600160401b038111610137576104b8903690600401611530565b9060a4356001600160401b038111610137576104d89036906004016114c2565b9160c4356001600160401b038111610137576104f8903690600401611530565b9260e4356001600160a01b03811690036101375761051461158e565b61052160043515156115e6565b84518351036109ee5785518251036109a9578051845103610964576000936101043591825b85518710156105735761056761056d916105608989611636565b5190611660565b96611627565b95610546565b92939487896000955b885187101561059c5761056761059691610560898c611636565b9561057c565b92919088886000955b88518710156105c5576105676105bf91610560898c611636565b956105a5565b876127108a921161091f5760043560005260026020526040600020938651956001600160401b03871161088a57600160401b871161088a5761060c87875481895588611680565b60208801968787600052602060002060005b838110610902575050505088516001600160401b03811161088a57600160401b811161088a576001870161065782825481845583611680565b60208b0190600052602060002060005b8381106108ee57505050508051906001600160401b03821161088a57600160401b821161088a57602060028801916106a484845481865585611680565b0190600052602060002060005b8381106108d157505050508051906001600160401b03821161088a57600160401b821161088a57602060038701916106ee84845481865585611680565b0190600052602060002060005b8381106108bd57505050508051906001600160401b03821161088a57600160401b821161088a576020600486019161073884845481865585611680565b0190600052602060002060005b8381106108a05750505050600583018151916001600160401b03831161088a57600160401b831161088a5760209061078284845481865585611680565b0190600052602060002060005b838110610876575050505060e4356001600160a01b0316156108655760e4355b6006830180546001600160a01b0319166001600160a01b03909216919091179055801561085a57600790915b0155604051916040830190604084525180915260608301919060005b81811061083b5784840360208601526004357f777ede1568ff74c4b2a534863225e8886ebd35c4d98fe8601304b64601ecbe0a8680610836888b61143a565b0390a2005b82516001600160a01b03168452602093840193909201916001016107f7565b5060078054916107db565b6006546001600160a01b03166107af565b60019060208451940193818401550161078f565b634e487b7160e01b600052604160045260246000fd5b82516001600160a01b031681830155602090920191600101610745565b6001906020845194019381840155016106fb565b82516001600160a01b0316818301556020909201916001016106b1565b600190602084519401938184015501610667565b82516001600160a01b03168183015560209092019160010161061e565b60405162461bcd60e51b815260206004820152601d60248201527f546f74616c2070657263656e74616765206578636565647320313030250000006044820152606490fd5b60405162461bcd60e51b815260206004820152601f60248201527f566572696669657220617272617973206c656e677468206d69736d61746368006044820152606490fd5b60405162461bcd60e51b815260206004820152601a60248201527f4e474f20617272617973206c656e677468206d69736d617463680000000000006044820152606490fd5b606460405162461bcd60e51b815260206004820152602060248201527f436f6d6d756e69747920617272617973206c656e677468206d69736d617463686044820152fd5b34610137576020806003193601126101375760405190610a518261146e565b82606092838152838382015283604082015283808201528360808201528360a082015260c081016000905201600090526004356000526002815260406000209060405192610a9e8461146e565b610aa78361179f565b8452610ab5600184016117f9565b84830190815294610ac86002850161179f565b6040860190815295610adc600386016117f9565b86840190815290610aef6004870161179f565b60808801908152610b02600588016117f9565b9060a08901918252600160a01b60019003938460068a0154169860c08b01998a526007015496868b019788526040519b8c9b8a8d52518c6101009b8c9101526101208d01610b4f916113fd565b9551601f198d8803810160408f015296610b689161143a565b905191868d830301908d0152610b7d916113fd565b905190848b82030160808c0152610b939161143a565b905190838a82030160a08b0152610ba9916113fd565b9051918882030160c0890152610bbe9161143a565b9451169085015251908301520390f35b3461013757604036600319011261013757610be76113e7565b60243590610bf361158e565b6001600160a01b0316908115610c6057478111610c245760008080809361001b955af1610c1e611722565b50611761565b60405162461bcd60e51b8152602060048201526014602482015273496e73756666696369656e742062616c616e636560601b6044820152606490fd5b60405162461bcd60e51b8152602060048201526011602482015270125b9d985b1a59081c9958da5c1a595b9d607a1b6044820152606490fd5b3461013757602036600319011261013757610cb26113e7565b610cba61158e565b6001600160a01b03168015610ce1576001600160601b0360a01b6006541617600655600080f35b60405162461bcd60e51b815260206004820152601860248201527f496e76616c6964207472656173757279206164647265737300000000000000006044820152606490fd5b34610137576000366003190112610137576000546040516001600160a01b039091168152602090f35b34610137576020366003190112610137576004356000526002602052604080600020600760018060a01b0360068301541691015482519182526020820152f35b60c0366003190112610137576084356001600160a01b03811681036101375760a4356001600160a01b038116810361013757610dc96116b4565b610dd660043515156115e6565b60449081351561122857606435156111e4576001600160a01b038316156111a8576001600160a01b0381161561116b57606435341061113057610e1a600854611627565b92836008558360005260036020526007604060002060043581556024356001820155843560028201556064356003820155600481016001600160601b0360a01b9060018060a01b03851682825416179055600582019060018060a01b038616908254161790554260068201550160ff19815416905560405192358352606435602084015260018060a01b0316604083015260018060a01b0316606082015260243590827f5a9a664aeedd315cc56eed6bf5de3eabfc7cbbbc971652fab2cd9c3a7aed295e608060043593a4600435600052600260205260406000209060009160018101925b8154811015610f765780612710610f2b610f1c610f38948861170a565b90549060031b1c60643561166d565b0480610f3d575b50611627565b610eff565b610f47828561170a565b60018060a01b0391549060031b1c166000526004602052610f6e6040600020918254611660565b905585610f32565b5060005b6002820154811015610fea5780612710610f9d610f1c610fa9946003870161170a565b0480610fae5750611627565b610f7a565b610fbb826002860161170a565b60018060a01b0391549060031b1c166000526004602052610fe26040600020918254611660565b905584610f32565b5060005b600482015481101561102f5780612710611011610f1c61101d946005870161170a565b04806110225750611627565b610fee565b610fbb826004860161170a565b50612710611043600783015460643561166d565b0490816110ff575b50508060005260036020526007604060002001600160ff198254161790556040519060643582524260208301527f56a4d6543e939e39122e27a8de510f88aca0a981ae6d4e5bb52683dcc0d77387604060043593a360643534116110b0575b60018055005b60643534033481116110e9576000808080938160643534146110e0575b3390f16110aa576040513d6000823e3d90fd5b506108fc6110cd565b634e487b7160e01b600052601160045260246000fd5b600601546001600160a01b031660009081526004602052604090208054909161112791611660565b9055818061104b565b60405162461bcd60e51b8152602060048201526014602482015273125b9cdd59999a58da595b9d081c185e5b595b9d60621b81840152606490fd5b60405162461bcd60e51b8152602060048201526016602482015275496e76616c69642073656c6c6572206164647265737360501b81840152606490fd5b60405162461bcd60e51b8152602060048201526015602482015274496e76616c6964206275796572206164647265737360581b81840152606490fd5b60405162461bcd60e51b815260206004820152601c60248201527f5072696365206d7573742062652067726561746572207468616e20300000000081840152606490fd5b60405162461bcd60e51b815260206004820152601d60248201527f416d6f756e74206d7573742062652067726561746572207468616e203000000081840152606490fd5b346101375760003660031901126101375761128561158e565b600080546001600160a01b0319811682556001600160a01b03167f8be0079c531659141344cd1fd0a4f28419497f9722a3daafe3b4186f6b6457e08280a3005b34610137576000366003190112610137576005546040516001600160a01b039091168152602090f35b34610137576000366003190112610137576113076116b4565b33600052600460205260406000205480156113725733600052600460205260006040812055611340600080808085335af1610c1e611722565b6040519081527feaff4b37086828766ad3268786972c0cd24259d4c87a80f9d3963a3c3d999b0d60203392a260018055005b60405162461bcd60e51b81526020600482015260146024820152734e6f2066756e647320746f20776974686472617760601b6044820152606490fd5b34610137576000366003190112610137576020600854604051908152f35b34610137576000366003190112610137576020906007548152f35b600435906001600160a01b038216820361013757565b90815180825260208080930193019160005b82811061141d575050505090565b83516001600160a01b03168552938101939281019260010161140f565b90815180825260208080930193019160005b82811061145a575050505090565b83518552938101939281019260010161144c565b61010081019081106001600160401b0382111761088a57604052565b90601f801991011681019081106001600160401b0382111761088a57604052565b6001600160401b03811161088a5760051b60200190565b81601f82011215610137578035916114d9836114ab565b926114e7604051948561148a565b808452602092838086019260051b820101928311610137578301905b828210611511575050505090565b81356001600160a01b0381168103610137578152908301908301611503565b81601f8201121561013757803591611547836114ab565b92611555604051948561148a565b808452602092838086019260051b820101928311610137578301905b82821061157f575050505090565b81358152908301908301611571565b6000546001600160a01b031633036115a257565b606460405162461bcd60e51b815260206004820152602060248201527f4f776e61626c653a2063616c6c6572206973206e6f7420746865206f776e65726044820152fd5b156115ed57565b60405162461bcd60e51b8152602060048201526012602482015271125b9d985b1a59081c1c9bda9958dd08125160721b6044820152606490fd5b60001981146110e95760010190565b805182101561164a5760209160051b010190565b634e487b7160e01b600052603260045260246000fd5b919082018092116110e957565b818102929181159184041417156110e957565b909182811061168e57505050565b60009182526020822092830192015b8281106116a957505050565b81815560010161169d565b6002600154146116c5576002600155565b60405162461bcd60e51b815260206004820152601f60248201527f5265656e7472616e637947756172643a207265656e7472616e742063616c6c006044820152606490fd5b805482101561164a5760005260206000200190600090565b3d1561175c573d906001600160401b03821161088a5760405191611750601f8201601f19166020018461148a565b82523d6000602084013e565b606090565b1561176857565b60405162461bcd60e51b815260206004820152600f60248201526e151c985b9cd9995c8819985a5b1959608a1b6044820152606490fd5b9060405191828154918282526020928383019160005283600020936000905b8282106117d6575050506117d49250038361148a565b565b85546001600160a01b0316845260019586019588955093810193909101906117be565b9060405191828154918282526020928383019160005283600020936000905b82821061182e575050506117d49250038361148a565b85548452600195860195889550938101939091019061181856fea264697066735822122097239a11d9e994e16979a311445d9f1ec2d3717047de90ec6ed48603400f4fd064736f6c63430008130033","opcodes":"PUSH1 0x80 CALLVALUE PUSH3 0x16F JUMPI PUSH1 0x1F PUSH3 0x1A1E CODESIZE DUP2 SWAP1 SUB SWAP2 DUP3 ADD PUSH1 0x1F NOT AND DUP4 ADD SWAP2 PUSH1 0x1 PUSH1 0x1 PUSH1 0x40 SHL SUB DUP4 GT DUP5 DUP5 LT OR PUSH3 0x174 JUMPI DUP1 DUP5 SWAP3 PUSH1 0x40 SWAP5 DUP6 MSTORE DUP4 CODECOPY DUP2 ADD SUB SLT PUSH3 0x16F JUMPI PUSH3 0x5A PUSH1 0x20 PUSH3 0x52 DUP4 PUSH3 0x18A JUMP JUMPDEST SWAP3 ADD PUSH3 0x18A JUMP JUMPDEST PUSH1 0x0 DUP1 SLOAD CALLER PUSH1 0x1 PUSH1 0x1 PUSH1 0xA0 SHL SUB NOT DUP1 DUP4 AND DUP3 OR DUP5 SSTORE PUSH1 0x40 MLOAD SWAP6 SWAP1 SWAP5 PUSH1 0x1 PUSH1 0x1 PUSH1 0xA0 SHL SUB SWAP5 SWAP1 SWAP4 DUP6 SWAP4 SWAP2 SWAP1 DUP5 AND SWAP1 PUSH32 0x8BE0079C531659141344CD1FD0A4F28419497F9722A3DAAFE3B4186F6B6457E0 SWAP1 DUP1 LOG3 PUSH1 0x1 DUP1 SSTORE PUSH1 0xFA PUSH1 0x7 SSTORE AND SWAP4 DUP5 ISZERO PUSH3 0x12D JUMPI POP AND SWAP2 DUP3 ISZERO PUSH3 0xE8 JUMPI DUP2 PUSH1 0x5 SLOAD AND OR PUSH1 0x5 SSTORE PUSH1 0x6 SLOAD AND OR PUSH1 0x6 SSTORE PUSH1 0x40 MLOAD PUSH2 0x187E SWAP1 DUP2 PUSH3 0x1A0 DUP3 CODECOPY RETURN JUMPDEST PUSH1 0x40 MLOAD PUSH3 0x461BCD PUSH1 0xE5 SHL DUP2 MSTORE PUSH1 0x20 PUSH1 0x4 DUP3 ADD MSTORE PUSH1 0x18 PUSH1 0x24 DUP3 ADD MSTORE PUSH32 0x496E76616C696420747265617375727920616464726573730000000000000000 PUSH1 0x44 DUP3 ADD MSTORE PUSH1 0x64 SWAP1 REVERT JUMPDEST PUSH3 0x461BCD PUSH1 0xE5 SHL DUP2 MSTORE PUSH1 0x20 PUSH1 0x4 DUP3 ADD MSTORE PUSH1 0x15 PUSH1 0x24 DUP3 ADD MSTORE PUSH32 0x496E76616C696420746F6B656E20616464726573730000000000000000000000 PUSH1 0x44 DUP3 ADD MSTORE PUSH1 0x64 SWAP1 REVERT JUMPDEST PUSH1 0x0 DUP1 REVERT JUMPDEST PUSH4 0x4E487B71 PUSH1 0xE0 SHL PUSH1 0x0 MSTORE PUSH1 0x41 PUSH1 0x4 MSTORE PUSH1 0x24 PUSH1 0x0 REVERT JUMPDEST MLOAD SWAP1 PUSH1 0x1 PUSH1 0x1 PUSH1 0xA0 SHL SUB DUP3 AND DUP3 SUB PUSH3 0x16F JUMPI JUMP INVALID PUSH1 0x80 DUP1 PUSH1 0x40 MSTORE PUSH1 0x4 CALLDATASIZE LT ISZERO PUSH2 0x1D JUMPI JUMPDEST POP CALLDATASIZE ISZERO PUSH2 0x1B JUMPI PUSH1 0x0 DUP1 REVERT JUMPDEST STOP JUMPDEST PUSH1 0xE0 PUSH1 0x0 CALLDATALOAD DUP2 SHR SWAP2 DUP3 PUSH4 0x1C34212C EQ PUSH2 0x13CC JUMPI POP DUP2 PUSH4 0x2156A96C EQ PUSH2 0x13AE JUMPI DUP2 PUSH4 0x3CCFD60B EQ PUSH2 0x12EE JUMPI DUP2 PUSH4 0x66DEA358 EQ PUSH2 0x12C5 JUMPI DUP2 PUSH4 0x715018A6 EQ PUSH2 0x126C JUMPI DUP2 PUSH4 0x78DFDF9E EQ PUSH2 0xD8F JUMPI DUP2 PUSH4 0x7EE8B2F8 EQ PUSH2 0xFD JUMPI DUP2 PUSH4 0x84091479 EQ PUSH2 0xD4F JUMPI DUP2 PUSH4 0x8DA5CB5B EQ PUSH2 0xD26 JUMPI DUP2 PUSH4 0x943D7CAE EQ PUSH2 0xC99 JUMPI DUP2 PUSH4 0x95CCEA67 EQ PUSH2 0xBCE JUMPI DUP2 PUSH4 0x9F60BE5C EQ PUSH2 0xA32 JUMPI DUP2 PUSH4 0xA9A79F4C EQ PUSH2 0x428 JUMPI DUP2 PUSH4 0xB5F522F7 EQ PUSH2 0x39E JUMPI DUP2 PUSH4 0xC1E9F115 EQ PUSH2 0x337 JUMPI DUP2 PUSH4 0xD8F6D596 EQ PUSH2 0x229 JUMPI POP DUP1 PUSH4 0xE138818C EQ PUSH2 0x200 JUMPI DUP1 PUSH4 0xF2FDE38B EQ PUSH2 0x13C JUMPI PUSH4 0xF3F43703 EQ PUSH2 0xFD JUMPI CODESIZE PUSH2 0xF JUMP JUMPDEST CALLVALUE PUSH2 0x137 JUMPI PUSH1 0x20 CALLDATASIZE PUSH1 0x3 NOT ADD SLT PUSH2 0x137 JUMPI PUSH1 0x1 PUSH1 0x1 PUSH1 0xA0 SHL SUB PUSH2 0x11E PUSH2 0x13E7 JUMP JUMPDEST AND PUSH1 0x0 MSTORE PUSH1 0x4 PUSH1 0x20 MSTORE PUSH1 0x20 PUSH1 0x40 PUSH1 0x0 KECCAK256 SLOAD PUSH1 0x40 MLOAD SWAP1 DUP2 MSTORE RETURN JUMPDEST PUSH1 0x0 DUP1 REVERT JUMPDEST CALLVALUE PUSH2 0x137 JUMPI PUSH1 0x20 CALLDATASIZE PUSH1 0x3 NOT ADD SLT PUSH2 0x137 JUMPI PUSH2 0x155 PUSH2 0x13E7 JUMP JUMPDEST PUSH2 0x15D PUSH2 0x158E JUMP JUMPDEST PUSH1 0x1 PUSH1 0x1 PUSH1 0xA0 SHL SUB SWAP1 DUP2 AND SWAP1 DUP2 ISZERO PUSH2 0x1AC JUMPI PUSH1 0x0 SLOAD DUP3 PUSH1 0x1 PUSH1 0x1 PUSH1 0x60 SHL SUB PUSH1 0xA0 SHL DUP3 AND OR PUSH1 0x0 SSTORE AND PUSH32 0x8BE0079C531659141344CD1FD0A4F28419497F9722A3DAAFE3B4186F6B6457E0 PUSH1 0x0 DUP1 LOG3 STOP JUMPDEST PUSH1 0x40 MLOAD PUSH3 0x461BCD PUSH1 0xE5 SHL DUP2 MSTORE PUSH1 0x20 PUSH1 0x4 DUP3 ADD MSTORE PUSH1 0x26 PUSH1 0x24 DUP3 ADD MSTORE PUSH32 0x4F776E61626C653A206E6577206F776E657220697320746865207A65726F2061 PUSH1 0x44 DUP3 ADD MSTORE PUSH6 0x646472657373 PUSH1 0xD0 SHL PUSH1 0x64 DUP3 ADD MSTORE PUSH1 0x84 SWAP1 REVERT JUMPDEST CALLVALUE PUSH2 0x137 JUMPI PUSH1 0x0 CALLDATASIZE PUSH1 0x3 NOT ADD SLT PUSH2 0x137 JUMPI PUSH1 0x6 SLOAD PUSH1 0x40 MLOAD PUSH1 0x1 PUSH1 0x1 PUSH1 0xA0 SHL SUB SWAP1 SWAP2 AND DUP2 MSTORE PUSH1 0x20 SWAP1 RETURN JUMPDEST CALLVALUE PUSH2 0x137 JUMPI PUSH1 0x20 CALLDATASIZE PUSH1 0x3 NOT ADD SLT PUSH2 0x137 JUMPI DUP1 PUSH1 0x0 PUSH2 0x100 SWAP3 PUSH1 0x40 MLOAD PUSH2 0x24D DUP2 PUSH2 0x146E JUMP JUMPDEST DUP3 DUP2 MSTORE DUP3 PUSH1 0x20 DUP3 ADD MSTORE DUP3 PUSH1 0x40 DUP3 ADD MSTORE DUP3 PUSH1 0x60 DUP3 ADD MSTORE DUP3 PUSH1 0x80 DUP3 ADD MSTORE DUP3 PUSH1 0xA0 DUP3 ADD MSTORE DUP3 PUSH1 0xC0 DUP3 ADD MSTORE ADD MSTORE PUSH1 0x4 CALLDATALOAD PUSH1 0x0 MSTORE PUSH1 0x3 PUSH1 0x20 MSTORE PUSH1 0x40 PUSH1 0x0 KECCAK256 SWAP1 PUSH1 0x40 MLOAD PUSH2 0x293 DUP2 PUSH2 0x146E JUMP JUMPDEST DUP3 SLOAD SWAP3 DUP4 DUP3 MSTORE PUSH1 0x1 DUP2 ADD SLOAD PUSH1 0x20 DUP4 ADD SWAP1 DUP2 MSTORE PUSH1 0x2 DUP3 ADD SLOAD SWAP1 PUSH1 0x40 DUP5 ADD SWAP2 DUP3 MSTORE PUSH1 0x3 DUP4 ADD SLOAD PUSH1 0x60 DUP6 ADD SWAP1 DUP2 MSTORE PUSH1 0x1 DUP1 PUSH1 0xA0 SHL SUB SWAP3 DUP4 SWAP2 DUP3 PUSH1 0x4 DUP8 ADD SLOAD AND SWAP2 PUSH1 0x80 DUP9 ADD SWAP3 DUP4 MSTORE DUP4 PUSH1 0x5 DUP9 ADD SLOAD AND SWAP5 PUSH1 0xA0 DUP10 ADD SWAP6 DUP7 MSTORE DUP10 PUSH1 0xFF PUSH1 0x7 PUSH1 0x6 DUP12 ADD SLOAD SWAP11 PUSH1 0xC0 DUP14 ADD SWAP12 DUP13 MSTORE ADD SLOAD AND SWAP10 ADD SWAP9 ISZERO ISZERO DUP10 MSTORE PUSH1 0x40 MLOAD SWAP11 DUP12 MSTORE MLOAD PUSH1 0x20 DUP12 ADD MSTORE MLOAD PUSH1 0x40 DUP11 ADD MSTORE MLOAD PUSH1 0x60 DUP10 ADD MSTORE MLOAD AND PUSH1 0x80 DUP8 ADD MSTORE MLOAD AND PUSH1 0xA0 DUP6 ADD MSTORE MLOAD PUSH1 0xC0 DUP5 ADD MSTORE MLOAD ISZERO ISZERO SWAP1 DUP3 ADD MSTORE RETURN JUMPDEST CALLVALUE PUSH2 0x137 JUMPI PUSH1 0x20 CALLDATASIZE PUSH1 0x3 NOT ADD SLT PUSH2 0x137 JUMPI PUSH1 0x4 CALLDATALOAD PUSH2 0x353 PUSH2 0x158E JUMP JUMPDEST PUSH2 0x3E8 DUP2 GT PUSH2 0x361 JUMPI PUSH1 0x7 SSTORE STOP JUMPDEST PUSH1 0x40 MLOAD PUSH3 0x461BCD PUSH1 0xE5 SHL DUP2 MSTORE PUSH1 0x20 PUSH1 0x4 DUP3 ADD MSTORE PUSH1 0x15 PUSH1 0x24 DUP3 ADD MSTORE PUSH21 0x4665652063616E6E6F742065786365656420313025 PUSH1 0x58 SHL PUSH1 0x44 DUP3 ADD MSTORE PUSH1 0x64 SWAP1 REVERT JUMPDEST CALLVALUE PUSH2 0x137 JUMPI PUSH1 0x20 CALLDATASIZE PUSH1 0x3 NOT ADD SLT PUSH2 0x137 JUMPI PUSH2 0x100 SWAP1 PUSH1 0x4 CALLDATALOAD PUSH1 0x0 MSTORE PUSH1 0x3 PUSH1 0x20 MSTORE PUSH1 0x40 PUSH1 0x0 KECCAK256 SWAP1 DUP2 SLOAD SWAP2 PUSH1 0x1 DUP2 ADD SLOAD SWAP1 PUSH1 0x2 DUP2 ADD SLOAD PUSH1 0x3 DUP3 ADD SLOAD PUSH1 0x1 DUP1 PUSH1 0xA0 SHL SUB SWAP1 DUP2 PUSH1 0x4 DUP6 ADD SLOAD AND SWAP2 PUSH1 0x5 DUP6 ADD SLOAD AND SWAP3 PUSH1 0xFF PUSH1 0x7 PUSH1 0x6 DUP8 ADD SLOAD SWAP7 ADD SLOAD AND SWAP6 PUSH1 0x40 MLOAD SWAP9 DUP10 MSTORE PUSH1 0x20 DUP10 ADD MSTORE PUSH1 0x40 DUP9 ADD MSTORE PUSH1 0x60 DUP8 ADD MSTORE PUSH1 0x80 DUP7 ADD MSTORE PUSH1 0xA0 DUP6 ADD MSTORE PUSH1 0xC0 DUP5 ADD MSTORE ISZERO ISZERO SWAP1 DUP3 ADD MSTORE RETURN JUMPDEST CALLVALUE PUSH2 0x137 JUMPI PUSH2 0x120 CALLDATASIZE PUSH1 0x3 NOT ADD SLT PUSH2 0x137 JUMPI PUSH1 0x24 CALLDATALOAD PUSH1 0x1 PUSH1 0x1 PUSH1 0x40 SHL SUB DUP2 GT PUSH2 0x137 JUMPI PUSH2 0x459 SWAP1 CALLDATASIZE SWAP1 PUSH1 0x4 ADD PUSH2 0x14C2 JUMP JUMPDEST PUSH1 0x44 CALLDATALOAD PUSH1 0x1 PUSH1 0x1 PUSH1 0x40 SHL SUB DUP2 GT PUSH2 0x137 JUMPI PUSH2 0x478 SWAP1 CALLDATASIZE SWAP1 PUSH1 0x4 ADD PUSH2 0x1530 JUMP JUMPDEST SWAP1 PUSH1 0x64 CALLDATALOAD PUSH1 0x1 PUSH1 0x1 PUSH1 0x40 SHL SUB DUP2 GT PUSH2 0x137 JUMPI PUSH2 0x498 SWAP1 CALLDATASIZE SWAP1 PUSH1 0x4 ADD PUSH2 0x14C2 JUMP JUMPDEST SWAP2 PUSH1 0x84 CALLDATALOAD PUSH1 0x1 PUSH1 0x1 PUSH1 0x40 SHL SUB DUP2 GT PUSH2 0x137 JUMPI PUSH2 0x4B8 SWAP1 CALLDATASIZE SWAP1 PUSH1 0x4 ADD PUSH2 0x1530 JUMP JUMPDEST SWAP1 PUSH1 0xA4 CALLDATALOAD PUSH1 0x1 PUSH1 0x1 PUSH1 0x40 SHL SUB DUP2 GT PUSH2 0x137 JUMPI PUSH2 0x4D8 SWAP1 CALLDATASIZE SWAP1 PUSH1 0x4 ADD PUSH2 0x14C2 JUMP JUMPDEST SWAP2 PUSH1 0xC4 CALLDATALOAD PUSH1 0x1 PUSH1 0x1 PUSH1 0x40 SHL SUB DUP2 GT PUSH2 0x137 JUMPI PUSH2 0x4F8 SWAP1 CALLDATASIZE SWAP1 PUSH1 0x4 ADD PUSH2 0x1530 JUMP JUMPDEST SWAP3 PUSH1 0xE4 CALLDATALOAD PUSH1 0x1 PUSH1 0x1 PUSH1 0xA0 SHL SUB DUP2 AND SWAP1 SUB PUSH2 0x137 JUMPI PUSH2 0x514 PUSH2 0x158E JUMP JUMPDEST PUSH2 0x521 PUSH1 0x4 CALLDATALOAD ISZERO ISZERO PUSH2 0x15E6 JUMP JUMPDEST DUP5 MLOAD DUP4 MLOAD SUB PUSH2 0x9EE JUMPI DUP6 MLOAD DUP3 MLOAD SUB PUSH2 0x9A9 JUMPI DUP1 MLOAD DUP5 MLOAD SUB PUSH2 0x964 JUMPI PUSH1 0x0 SWAP4 PUSH2 0x104 CALLDATALOAD SWAP2 DUP3 JUMPDEST DUP6 MLOAD DUP8 LT ISZERO PUSH2 0x573 JUMPI PUSH2 0x567 PUSH2 0x56D SWAP2 PUSH2 0x560 DUP10 DUP10 PUSH2 0x1636 JUMP JUMPDEST MLOAD SWAP1 PUSH2 0x1660 JUMP JUMPDEST SWAP7 PUSH2 0x1627 JUMP JUMPDEST SWAP6 PUSH2 0x546 JUMP JUMPDEST SWAP3 SWAP4 SWAP5 DUP8 DUP10 PUSH1 0x0 SWAP6 JUMPDEST DUP9 MLOAD DUP8 LT ISZERO PUSH2 0x59C JUMPI PUSH2 0x567 PUSH2 0x596 SWAP2 PUSH2 0x560 DUP10 DUP13 PUSH2 0x1636 JUMP JUMPDEST SWAP6 PUSH2 0x57C JUMP JUMPDEST SWAP3 SWAP2 SWAP1 DUP9 DUP9 PUSH1 0x0 SWAP6 JUMPDEST DUP9 MLOAD DUP8 LT ISZERO PUSH2 0x5C5 JUMPI PUSH2 0x567 PUSH2 0x5BF SWAP2 PUSH2 0x560 DUP10 DUP13 PUSH2 0x1636 JUMP JUMPDEST SWAP6 PUSH2 0x5A5 JUMP JUMPDEST DUP8 PUSH2 0x2710 DUP11 SWAP3 GT PUSH2 0x91F JUMPI PUSH1 0x4 CALLDATALOAD PUSH1 0x0 MSTORE PUSH1 0x2 PUSH1 0x20 MSTORE PUSH1 0x40 PUSH1 0x0 KECCAK256 SWAP4 DUP7 MLOAD SWAP6 PUSH1 0x1 PUSH1 0x1 PUSH1 0x40 SHL SUB DUP8 GT PUSH2 0x88A JUMPI PUSH1 0x1 PUSH1 0x40 SHL DUP8 GT PUSH2 0x88A JUMPI PUSH2 0x60C DUP8 DUP8 SLOAD DUP2 DUP10 SSTORE DUP9 PUSH2 0x1680 JUMP JUMPDEST PUSH1 0x20 DUP9 ADD SWAP7 DUP8 DUP8 PUSH1 0x0 MSTORE PUSH1 0x20 PUSH1 0x0 KECCAK256 PUSH1 0x0 JUMPDEST DUP4 DUP2 LT PUSH2 0x902 JUMPI POP POP POP POP DUP9 MLOAD PUSH1 0x1 PUSH1 0x1 PUSH1 0x40 SHL SUB DUP2 GT PUSH2 0x88A JUMPI PUSH1 0x1 PUSH1 0x40 SHL DUP2 GT PUSH2 0x88A JUMPI PUSH1 0x1 DUP8 ADD PUSH2 0x657 DUP3 DUP3 SLOAD DUP2 DUP5 SSTORE DUP4 PUSH2 0x1680 JUMP JUMPDEST PUSH1 0x20 DUP12 ADD SWAP1 PUSH1 0x0 MSTORE PUSH1 0x20 PUSH1 0x0 KECCAK256 PUSH1 0x0 JUMPDEST DUP4 DUP2 LT PUSH2 0x8EE JUMPI POP POP POP POP DUP1 MLOAD SWAP1 PUSH1 0x1 PUSH1 0x1 PUSH1 0x40 SHL SUB DUP3 GT PUSH2 0x88A JUMPI PUSH1 0x1 PUSH1 0x40 SHL DUP3 GT PUSH2 0x88A JUMPI PUSH1 0x20 PUSH1 0x2 DUP9 ADD SWAP2 PUSH2 0x6A4 DUP5 DUP5 SLOAD DUP2 DUP7 SSTORE DUP6 PUSH2 0x1680 JUMP JUMPDEST ADD SWAP1 PUSH1 0x0 MSTORE PUSH1 0x20 PUSH1 0x0 KECCAK256 PUSH1 0x0 JUMPDEST DUP4 DUP2 LT PUSH2 0x8D1 JUMPI POP POP POP POP DUP1 MLOAD SWAP1 PUSH1 0x1 PUSH1 0x1 PUSH1 0x40 SHL SUB DUP3 GT PUSH2 0x88A JUMPI PUSH1 0x1 PUSH1 0x40 SHL DUP3 GT PUSH2 0x88A JUMPI PUSH1 0x20 PUSH1 0x3 DUP8 ADD SWAP2 PUSH2 0x6EE DUP5 DUP5 SLOAD DUP2 DUP7 SSTORE DUP6 PUSH2 0x1680 JUMP JUMPDEST ADD SWAP1 PUSH1 0x0 MSTORE PUSH1 0x20 PUSH1 0x0 KECCAK256 PUSH1 0x0 JUMPDEST DUP4 DUP2 LT PUSH2 0x8BD JUMPI POP POP POP POP DUP1 MLOAD SWAP1 PUSH1 0x1 PUSH1 0x1 PUSH1 0x40 SHL SUB DUP3 GT PUSH2 0x88A JUMPI PUSH1 0x1 PUSH1 0x40 SHL DUP3 GT PUSH2 0x88A JUMPI PUSH1 0x20 PUSH1 0x4 DUP7 ADD SWAP2 PUSH2 0x738 DUP5 DUP5 SLOAD DUP2 DUP7 SSTORE DUP6 PUSH2 0x1680 JUMP JUMPDEST ADD SWAP1 PUSH1 0x0 MSTORE PUSH1 0x20 PUSH1 0x0 KECCAK256 PUSH1 0x0 JUMPDEST DUP4 DUP2 LT PUSH2 0x8A0 JUMPI POP POP POP POP PUSH1 0x5 DUP4 ADD DUP2 MLOAD SWAP2 PUSH1 0x1 PUSH1 0x1 PUSH1 0x40 SHL SUB DUP4 GT PUSH2 0x88A JUMPI PUSH1 0x1 PUSH1 0x40 SHL DUP4 GT PUSH2 0x88A JUMPI PUSH1 0x20 SWAP1 PUSH2 0x782 DUP5 DUP5 SLOAD DUP2 DUP7 SSTORE DUP6 PUSH2 0x1680 JUMP JUMPDEST ADD SWAP1 PUSH1 0x0 MSTORE PUSH1 0x20 PUSH1 0x0 KECCAK256 PUSH1 0x0 JUMPDEST DUP4 DUP2 LT PUSH2 0x876 JUMPI POP POP POP POP PUSH1 0xE4 CALLDATALOAD PUSH1 0x1 PUSH1 0x1 PUSH1 0xA0 SHL SUB AND ISZERO PUSH2 0x865 JUMPI PUSH1 0xE4 CALLDATALOAD JUMPDEST PUSH1 0x6 DUP4 ADD DUP1 SLOAD PUSH1 0x1 PUSH1 0x1 PUSH1 0xA0 SHL SUB NOT AND PUSH1 0x1 PUSH1 0x1 PUSH1 0xA0 SHL SUB SWAP1 SWAP3 AND SWAP2 SWAP1 SWAP2 OR SWAP1 SSTORE DUP1 ISZERO PUSH2 0x85A JUMPI PUSH1 0x7 SWAP1 SWAP2 JUMPDEST ADD SSTORE PUSH1 0x40 MLOAD SWAP2 PUSH1 0x40 DUP4 ADD SWAP1 PUSH1 0x40 DUP5 MSTORE MLOAD DUP1 SWAP2 MSTORE PUSH1 0x60 DUP4 ADD SWAP2 SWAP1 PUSH1 0x0 JUMPDEST DUP2 DUP2 LT PUSH2 0x83B JUMPI DUP5 DUP5 SUB PUSH1 0x20 DUP7 ADD MSTORE PUSH1 0x4 CALLDATALOAD PUSH32 0x777EDE1568FF74C4B2A534863225E8886EBD35C4D98FE8601304B64601ECBE0A DUP7 DUP1 PUSH2 0x836 DUP9 DUP12 PUSH2 0x143A JUMP JUMPDEST SUB SWAP1 LOG2 STOP JUMPDEST DUP3 MLOAD PUSH1 0x1 PUSH1 0x1 PUSH1 0xA0 SHL SUB AND DUP5 MSTORE PUSH1 0x20 SWAP4 DUP5 ADD SWAP4 SWAP1 SWAP3 ADD SWAP2 PUSH1 0x1 ADD PUSH2 0x7F7 JUMP JUMPDEST POP PUSH1 0x7 DUP1 SLOAD SWAP2 PUSH2 0x7DB JUMP JUMPDEST PUSH1 0x6 SLOAD PUSH1 0x1 PUSH1 0x1 PUSH1 0xA0 SHL SUB AND PUSH2 0x7AF JUMP JUMPDEST PUSH1 0x1 SWAP1 PUSH1 0x20 DUP5 MLOAD SWAP5 ADD SWAP4 DUP2 DUP5 ADD SSTORE ADD PUSH2 0x78F JUMP JUMPDEST PUSH4 0x4E487B71 PUSH1 0xE0 SHL PUSH1 0x0 MSTORE PUSH1 0x41 PUSH1 0x4 MSTORE PUSH1 0x24 PUSH1 0x0 REVERT JUMPDEST DUP3 MLOAD PUSH1 0x1 PUSH1 0x1 PUSH1 0xA0 SHL SUB AND DUP2 DUP4 ADD SSTORE PUSH1 0x20 SWAP1 SWAP3 ADD SWAP2 PUSH1 0x1 ADD PUSH2 0x745 JUMP JUMPDEST PUSH1 0x1 SWAP1 PUSH1 0x20 DUP5 MLOAD SWAP5 ADD SWAP4 DUP2 DUP5 ADD SSTORE ADD PUSH2 0x6FB JUMP JUMPDEST DUP3 MLOAD PUSH1 0x1 PUSH1 0x1 PUSH1 0xA0 SHL SUB AND DUP2 DUP4 ADD SSTORE PUSH1 0x20 SWAP1 SWAP3 ADD SWAP2 PUSH1 0x1 ADD PUSH2 0x6B1 JUMP JUMPDEST PUSH1 0x1 SWAP1 PUSH1 0x20 DUP5 MLOAD SWAP5 ADD SWAP4 DUP2 DUP5 ADD SSTORE ADD PUSH2 0x667 JUMP JUMPDEST DUP3 MLOAD PUSH1 0x1 PUSH1 0x1 PUSH1 0xA0 SHL SUB AND DUP2 DUP4 ADD SSTORE PUSH1 0x20 SWAP1 SWAP3 ADD SWAP2 PUSH1 0x1 ADD PUSH2 0x61E JUMP JUMPDEST PUSH1 0x40 MLOAD PUSH3 0x461BCD PUSH1 0xE5 SHL DUP2 MSTORE PUSH1 0x20 PUSH1 0x4 DUP3 ADD MSTORE PUSH1 0x1D PUSH1 0x24 DUP3 ADD MSTORE PUSH32 0x546F74616C2070657263656E7461676520657863656564732031303025000000 PUSH1 0x44 DUP3 ADD MSTORE PUSH1 0x64 SWAP1 REVERT JUMPDEST PUSH1 0x40 MLOAD PUSH3 0x461BCD PUSH1 0xE5 SHL DUP2 MSTORE PUSH1 0x20 PUSH1 0x4 DUP3 ADD MSTORE PUSH1 0x1F PUSH1 0x24 DUP3 ADD MSTORE PUSH32 0x566572696669657220617272617973206C656E677468206D69736D6174636800 PUSH1 0x44 DUP3 ADD MSTORE PUSH1 0x64 SWAP1 REVERT JUMPDEST PUSH1 0x40 MLOAD PUSH3 0x461BCD PUSH1 0xE5 SHL DUP2 MSTORE PUSH1 0x20 PUSH1 0x4 DUP3 ADD MSTORE PUSH1 0x1A PUSH1 0x24 DUP3 ADD MSTORE PUSH32 0x4E474F20617272617973206C656E677468206D69736D61746368000000000000 PUSH1 0x44 DUP3 ADD MSTORE PUSH1 0x64 SWAP1 REVERT JUMPDEST PUSH1 0x64 PUSH1 0x40 MLOAD PUSH3 0x461BCD PUSH1 0xE5 SHL DUP2 MSTORE PUSH1 0x20 PUSH1 0x4 DUP3 ADD MSTORE PUSH1 0x20 PUSH1 0x24 DUP3 ADD MSTORE PUSH32 0x436F6D6D756E69747920617272617973206C656E677468206D69736D61746368 PUSH1 0x44 DUP3 ADD MSTORE REVERT JUMPDEST CALLVALUE PUSH2 0x137 JUMPI PUSH1 0x20 DUP1 PUSH1 0x3 NOT CALLDATASIZE ADD SLT PUSH2 0x137 JUMPI PUSH1 0x40 MLOAD SWAP1 PUSH2 0xA51 DUP3 PUSH2 0x146E JUMP JUMPDEST DUP3 PUSH1 0x60 SWAP3 DUP4 DUP2 MSTORE DUP4 DUP4 DUP3 ADD MSTORE DUP4 PUSH1 0x40 DUP3 ADD MSTORE DUP4 DUP1 DUP3 ADD MSTORE DUP4 PUSH1 0x80 DUP3 ADD MSTORE DUP4 PUSH1 0xA0 DUP3 ADD MSTORE PUSH1 0xC0 DUP2 ADD PUSH1 0x0 SWAP1 MSTORE ADD PUSH1 0x0 SWAP1 MSTORE PUSH1 0x4 CALLDATALOAD PUSH1 0x0 MSTORE PUSH1 0x2 DUP2 MSTORE PUSH1 0x40 PUSH1 0x0 KECCAK256 SWAP1 PUSH1 0x40 MLOAD SWAP3 PUSH2 0xA9E DUP5 PUSH2 0x146E JUMP JUMPDEST PUSH2 0xAA7 DUP4 PUSH2 0x179F JUMP JUMPDEST DUP5 MSTORE PUSH2 0xAB5 PUSH1 0x1 DUP5 ADD PUSH2 0x17F9 JUMP JUMPDEST DUP5 DUP4 ADD SWAP1 DUP2 MSTORE SWAP5 PUSH2 0xAC8 PUSH1 0x2 DUP6 ADD PUSH2 0x179F JUMP JUMPDEST PUSH1 0x40 DUP7 ADD SWAP1 DUP2 MSTORE SWAP6 PUSH2 0xADC PUSH1 0x3 DUP7 ADD PUSH2 0x17F9 JUMP JUMPDEST DUP7 DUP5 ADD SWAP1 DUP2 MSTORE SWAP1 PUSH2 0xAEF PUSH1 0x4 DUP8 ADD PUSH2 0x179F JUMP JUMPDEST PUSH1 0x80 DUP9 ADD SWAP1 DUP2 MSTORE PUSH2 0xB02 PUSH1 0x5 DUP9 ADD PUSH2 0x17F9 JUMP JUMPDEST SWAP1 PUSH1 0xA0 DUP10 ADD SWAP2 DUP3 MSTORE PUSH1 0x1 PUSH1 0xA0 SHL PUSH1 0x1 SWAP1 SUB SWAP4 DUP5 PUSH1 0x6 DUP11 ADD SLOAD AND SWAP9 PUSH1 0xC0 DUP12 ADD SWAP10 DUP11 MSTORE PUSH1 0x7 ADD SLOAD SWAP7 DUP7 DUP12 ADD SWAP8 DUP9 MSTORE PUSH1 0x40 MLOAD SWAP12 DUP13 SWAP12 DUP11 DUP14 MSTORE MLOAD DUP13 PUSH2 0x100 SWAP12 DUP13 SWAP2 ADD MSTORE PUSH2 0x120 DUP14 ADD PUSH2 0xB4F SWAP2 PUSH2 0x13FD JUMP JUMPDEST SWAP6 MLOAD PUSH1 0x1F NOT DUP14 DUP9 SUB DUP2 ADD PUSH1 0x40 DUP16 ADD MSTORE SWAP7 PUSH2 0xB68 SWAP2 PUSH2 0x143A JUMP JUMPDEST SWAP1 MLOAD SWAP2 DUP7 DUP14 DUP4 SUB ADD SWAP1 DUP14 ADD MSTORE PUSH2 0xB7D SWAP2 PUSH2 0x13FD JUMP JUMPDEST SWAP1 MLOAD SWAP1 DUP5 DUP12 DUP3 SUB ADD PUSH1 0x80 DUP13 ADD MSTORE PUSH2 0xB93 SWAP2 PUSH2 0x143A JUMP JUMPDEST SWAP1 MLOAD SWAP1 DUP4 DUP11 DUP3 SUB ADD PUSH1 0xA0 DUP12 ADD MSTORE PUSH2 0xBA9 SWAP2 PUSH2 0x13FD JUMP JUMPDEST SWAP1 MLOAD SWAP2 DUP9 DUP3 SUB ADD PUSH1 0xC0 DUP10 ADD MSTORE PUSH2 0xBBE SWAP2 PUSH2 0x143A JUMP JUMPDEST SWAP5 MLOAD AND SWAP1 DUP6 ADD MSTORE MLOAD SWAP1 DUP4 ADD MSTORE SUB SWAP1 RETURN JUMPDEST CALLVALUE PUSH2 0x137 JUMPI PUSH1 0x40 CALLDATASIZE PUSH1 0x3 NOT ADD SLT PUSH2 0x137 JUMPI PUSH2 0xBE7 PUSH2 0x13E7 JUMP JUMPDEST PUSH1 0x24 CALLDATALOAD SWAP1 PUSH2 0xBF3 PUSH2 0x158E JUMP JUMPDEST PUSH1 0x1 PUSH1 0x1 PUSH1 0xA0 SHL SUB AND SWAP1 DUP2 ISZERO PUSH2 0xC60 JUMPI SELFBALANCE DUP2 GT PUSH2 0xC24 JUMPI PUSH1 0x0 DUP1 DUP1 DUP1 SWAP4 PUSH2 0x1B SWAP6 GAS CALL PUSH2 0xC1E PUSH2 0x1722 JUMP JUMPDEST POP PUSH2 0x1761 JUMP JUMPDEST PUSH1 0x40 MLOAD PUSH3 0x461BCD PUSH1 0xE5 SHL DUP2 MSTORE PUSH1 0x20 PUSH1 0x4 DUP3 ADD MSTORE PUSH1 0x14 PUSH1 0x24 DUP3 ADD MSTORE PUSH20 0x496E73756666696369656E742062616C616E6365 PUSH1 0x60 SHL PUSH1 0x44 DUP3 ADD MSTORE PUSH1 0x64 SWAP1 REVERT JUMPDEST PUSH1 0x40 MLOAD PUSH3 0x461BCD PUSH1 0xE5 SHL DUP2 MSTORE PUSH1 0x20 PUSH1 0x4 DUP3 ADD MSTORE PUSH1 0x11 PUSH1 0x24 DUP3 ADD MSTORE PUSH17 0x125B9D985B1A59081C9958DA5C1A595B9D PUSH1 0x7A SHL PUSH1 0x44 DUP3 ADD MSTORE PUSH1 0x64 SWAP1 REVERT JUMPDEST CALLVALUE PUSH2 0x137 JUMPI PUSH1 0x20 CALLDATASIZE PUSH1 0x3 NOT ADD SLT PUSH2 0x137 JUMPI PUSH2 0xCB2 PUSH2 0x13E7 JUMP JUMPDEST PUSH2 0xCBA PUSH2 0x158E JUMP JUMPDEST PUSH1 0x1 PUSH1 0x1 PUSH1 0xA0 SHL SUB AND DUP1 ISZERO PUSH2 0xCE1 JUMPI PUSH1 0x1 PUSH1 0x1 PUSH1 0x60 SHL SUB PUSH1 0xA0 SHL PUSH1 0x6 SLOAD AND OR PUSH1 0x6 SSTORE PUSH1 0x0 DUP1 RETURN JUMPDEST PUSH1 0x40 MLOAD PUSH3 0x461BCD PUSH1 0xE5 SHL DUP2 MSTORE PUSH1 0x20 PUSH1 0x4 DUP3 ADD MSTORE PUSH1 0x18 PUSH1 0x24 DUP3 ADD MSTORE PUSH32 0x496E76616C696420747265617375727920616464726573730000000000000000 PUSH1 0x44 DUP3 ADD MSTORE PUSH1 0x64 SWAP1 REVERT JUMPDEST CALLVALUE PUSH2 0x137 JUMPI PUSH1 0x0 CALLDATASIZE PUSH1 0x3 NOT ADD SLT PUSH2 0x137 JUMPI PUSH1 0x0 SLOAD PUSH1 0x40 MLOAD PUSH1 0x1 PUSH1 0x1 PUSH1 0xA0 SHL SUB SWAP1 SWAP2 AND DUP2 MSTORE PUSH1 0x20 SWAP1 RETURN JUMPDEST CALLVALUE PUSH2 0x137 JUMPI PUSH1 0x20 CALLDATASIZE PUSH1 0x3 NOT ADD SLT PUSH2 0x137 JUMPI PUSH1 0x4 CALLDATALOAD PUSH1 0x0 MSTORE PUSH1 0x2 PUSH1 0x20 MSTORE PUSH1 0x40 DUP1 PUSH1 0x0 KECCAK256 PUSH1 0x7 PUSH1 0x1 DUP1 PUSH1 0xA0 SHL SUB PUSH1 0x6 DUP4 ADD SLOAD AND SWAP2 ADD SLOAD DUP3 MLOAD SWAP2 DUP3 MSTORE PUSH1 0x20 DUP3 ADD MSTORE RETURN JUMPDEST PUSH1 0xC0 CALLDATASIZE PUSH1 0x3 NOT ADD SLT PUSH2 0x137 JUMPI PUSH1 0x84 CALLDATALOAD PUSH1 0x1 PUSH1 0x1 PUSH1 0xA0 SHL SUB DUP2 AND DUP2 SUB PUSH2 0x137 JUMPI PUSH1 0xA4 CALLDATALOAD PUSH1 0x1 PUSH1 0x1 PUSH1 0xA0 SHL SUB DUP2 AND DUP2 SUB PUSH2 0x137 JUMPI PUSH2 0xDC9 PUSH2 0x16B4 JUMP JUMPDEST PUSH2 0xDD6 PUSH1 0x4 CALLDATALOAD ISZERO ISZERO PUSH2 0x15E6 JUMP JUMPDEST PUSH1 0x44 SWAP1 DUP2 CALLDATALOAD ISZERO PUSH2 0x1228 JUMPI PUSH1 0x64 CALLDATALOAD ISZERO PUSH2 0x11E4 JUMPI PUSH1 0x1 PUSH1 0x1 PUSH1 0xA0 SHL SUB DUP4 AND ISZERO PUSH2 0x11A8 JUMPI PUSH1 0x1 PUSH1 0x1 PUSH1 0xA0 SHL SUB DUP2 AND ISZERO PUSH2 0x116B JUMPI PUSH1 0x64 CALLDATALOAD CALLVALUE LT PUSH2 0x1130 JUMPI PUSH2 0xE1A PUSH1 0x8 SLOAD PUSH2 0x1627 JUMP JUMPDEST SWAP3 DUP4 PUSH1 0x8 SSTORE DUP4 PUSH1 0x0 MSTORE PUSH1 0x3 PUSH1 0x20 MSTORE PUSH1 0x7 PUSH1 0x40 PUSH1 0x0 KECCAK256 PUSH1 0x4 CALLDATALOAD DUP2 SSTORE PUSH1 0x24 CALLDATALOAD PUSH1 0x1 DUP3 ADD SSTORE DUP5 CALLDATALOAD PUSH1 0x2 DUP3 ADD SSTORE PUSH1 0x64 CALLDATALOAD PUSH1 0x3 DUP3 ADD SSTORE PUSH1 0x4 DUP2 ADD PUSH1 0x1 PUSH1 0x1 PUSH1 0x60 SHL SUB PUSH1 0xA0 SHL SWAP1 PUSH1 0x1 DUP1 PUSH1 0xA0 SHL SUB DUP6 AND DUP3 DUP3 SLOAD AND OR SWAP1 SSTORE PUSH1 0x5 DUP3 ADD SWAP1 PUSH1 0x1 DUP1 PUSH1 0xA0 SHL SUB DUP7 AND SWAP1 DUP3 SLOAD AND OR SWAP1 SSTORE TIMESTAMP PUSH1 0x6 DUP3 ADD SSTORE ADD PUSH1 0xFF NOT DUP2 SLOAD AND SWAP1 SSTORE PUSH1 0x40 MLOAD SWAP3 CALLDATALOAD DUP4 MSTORE PUSH1 0x64 CALLDATALOAD PUSH1 0x20 DUP5 ADD MSTORE PUSH1 0x1 DUP1 PUSH1 0xA0 SHL SUB AND PUSH1 0x40 DUP4 ADD MSTORE PUSH1 0x1 DUP1 PUSH1 0xA0 SHL SUB AND PUSH1 0x60 DUP3 ADD MSTORE PUSH1 0x24 CALLDATALOAD SWAP1 DUP3 PUSH32 0x5A9A664AEEDD315CC56EED6BF5DE3EABFC7CBBBC971652FAB2CD9C3A7AED295E PUSH1 0x80 PUSH1 0x4 CALLDATALOAD SWAP4 LOG4 PUSH1 0x4 CALLDATALOAD PUSH1 0x0 MSTORE PUSH1 0x2 PUSH1 0x20 MSTORE PUSH1 0x40 PUSH1 0x0 KECCAK256 SWAP1 PUSH1 0x0 SWAP2 PUSH1 0x1 DUP2 ADD SWAP3 JUMPDEST DUP2 SLOAD DUP2 LT ISZERO PUSH2 0xF76 JUMPI DUP1 PUSH2 0x2710 PUSH2 0xF2B PUSH2 0xF1C PUSH2 0xF38 SWAP5 DUP9 PUSH2 0x170A JUMP JUMPDEST SWAP1 SLOAD SWAP1 PUSH1 0x3 SHL SHR PUSH1 0x64 CALLDATALOAD PUSH2 0x166D JUMP JUMPDEST DIV DUP1 PUSH2 0xF3D JUMPI JUMPDEST POP PUSH2 0x1627 JUMP JUMPDEST PUSH2 0xEFF JUMP JUMPDEST PUSH2 0xF47 DUP3 DUP6 PUSH2 0x170A JUMP JUMPDEST PUSH1 0x1 DUP1 PUSH1 0xA0 SHL SUB SWAP2 SLOAD SWAP1 PUSH1 0x3 SHL SHR AND PUSH1 0x0 MSTORE PUSH1 0x4 PUSH1 0x20 MSTORE PUSH2 0xF6E PUSH1 0x40 PUSH1 0x0 KECCAK256 SWAP2 DUP3 SLOAD PUSH2 0x1660 JUMP JUMPDEST SWAP1 SSTORE DUP6 PUSH2 0xF32 JUMP JUMPDEST POP PUSH1 0x0 JUMPDEST PUSH1 0x2 DUP3 ADD SLOAD DUP2 LT ISZERO PUSH2 0xFEA JUMPI DUP1 PUSH2 0x2710 PUSH2 0xF9D PUSH2 0xF1C PUSH2 0xFA9 SWAP5 PUSH1 0x3 DUP8 ADD PUSH2 0x170A JUMP JUMPDEST DIV DUP1 PUSH2 0xFAE JUMPI POP PUSH2 0x1627 JUMP JUMPDEST PUSH2 0xF7A JUMP JUMPDEST PUSH2 0xFBB DUP3 PUSH1 0x2 DUP7 ADD PUSH2 0x170A JUMP JUMPDEST PUSH1 0x1 DUP1 PUSH1 0xA0 SHL SUB SWAP2 SLOAD SWAP1 PUSH1 0x3 SHL SHR AND PUSH1 0x0 MSTORE PUSH1 0x4 PUSH1 0x20 MSTORE PUSH2 0xFE2 PUSH1 0x40 PUSH1 0x0 KECCAK256 SWAP2 DUP3 SLOAD PUSH2 0x1660 JUMP JUMPDEST SWAP1 SSTORE DUP5 PUSH2 0xF32 JUMP JUMPDEST POP PUSH1 0x0 JUMPDEST PUSH1 0x4 DUP3 ADD SLOAD DUP2 LT ISZERO PUSH2 0x102F JUMPI DUP1 PUSH2 0x2710 PUSH2 0x1011 PUSH2 0xF1C PUSH2 0x101D SWAP5 PUSH1 0x5 DUP8 ADD PUSH2 0x170A JUMP JUMPDEST DIV DUP1 PUSH2 0x1022 JUMPI POP PUSH2 0x1627 JUMP JUMPDEST PUSH2 0xFEE JUMP JUMPDEST PUSH2 0xFBB DUP3 PUSH1 0x4 DUP7 ADD PUSH2 0x170A JUMP JUMPDEST POP PUSH2 0x2710 PUSH2 0x1043 PUSH1 0x7 DUP4 ADD SLOAD PUSH1 0x64 CALLDATALOAD PUSH2 0x166D JUMP JUMPDEST DIV SWAP1 DUP2 PUSH2 0x10FF JUMPI JUMPDEST POP POP DUP1 PUSH1 0x0 MSTORE PUSH1 0x3 PUSH1 0x20 MSTORE PUSH1 0x7 PUSH1 0x40 PUSH1 0x0 KECCAK256 ADD PUSH1 0x1 PUSH1 0xFF NOT DUP3 SLOAD AND OR SWAP1 SSTORE PUSH1 0x40 MLOAD SWAP1 PUSH1 0x64 CALLDATALOAD DUP3 MSTORE TIMESTAMP PUSH1 0x20 DUP4 ADD MSTORE PUSH32 0x56A4D6543E939E39122E27A8DE510F88ACA0A981AE6D4E5BB52683DCC0D77387 PUSH1 0x40 PUSH1 0x4 CALLDATALOAD SWAP4 LOG3 PUSH1 0x64 CALLDATALOAD CALLVALUE GT PUSH2 0x10B0 JUMPI JUMPDEST PUSH1 0x1 DUP1 SSTORE STOP JUMPDEST PUSH1 0x64 CALLDATALOAD CALLVALUE SUB CALLVALUE DUP2 GT PUSH2 0x10E9 JUMPI PUSH1 0x0 DUP1 DUP1 DUP1 SWAP4 DUP2 PUSH1 0x64 CALLDATALOAD CALLVALUE EQ PUSH2 0x10E0 JUMPI JUMPDEST CALLER SWAP1 CALL PUSH2 0x10AA JUMPI PUSH1 0x40 MLOAD RETURNDATASIZE PUSH1 0x0 DUP3 RETURNDATACOPY RETURNDATASIZE SWAP1 REVERT JUMPDEST POP PUSH2 0x8FC PUSH2 0x10CD JUMP JUMPDEST PUSH4 0x4E487B71 PUSH1 0xE0 SHL PUSH1 0x0 MSTORE PUSH1 0x11 PUSH1 0x4 MSTORE PUSH1 0x24 PUSH1 0x0 REVERT JUMPDEST PUSH1 0x6 ADD SLOAD PUSH1 0x1 PUSH1 0x1 PUSH1 0xA0 SHL SUB AND PUSH1 0x0 SWAP1 DUP2 MSTORE PUSH1 0x4 PUSH1 0x20 MSTORE PUSH1 0x40 SWAP1 KECCAK256 DUP1 SLOAD SWAP1 SWAP2 PUSH2 0x1127 SWAP2 PUSH2 0x1660 JUMP JUMPDEST SWAP1 SSTORE DUP2 DUP1 PUSH2 0x104B JUMP JUMPDEST PUSH1 0x40 MLOAD PUSH3 0x461BCD PUSH1 0xE5 SHL DUP2 MSTORE PUSH1 0x20 PUSH1 0x4 DUP3 ADD MSTORE PUSH1 0x14 PUSH1 0x24 DUP3 ADD MSTORE PUSH20 0x125B9CDD59999A58DA595B9D081C185E5B595B9D PUSH1 0x62 SHL DUP2 DUP5 ADD MSTORE PUSH1 0x64 SWAP1 REVERT JUMPDEST PUSH1 0x40 MLOAD PUSH3 0x461BCD PUSH1 0xE5 SHL DUP2 MSTORE PUSH1 0x20 PUSH1 0x4 DUP3 ADD MSTORE PUSH1 0x16 PUSH1 0x24 DUP3 ADD MSTORE PUSH22 0x496E76616C69642073656C6C65722061646472657373 PUSH1 0x50 SHL DUP2 DUP5 ADD MSTORE PUSH1 0x64 SWAP1 REVERT JUMPDEST PUSH1 0x40 MLOAD PUSH3 0x461BCD PUSH1 0xE5 SHL DUP2 MSTORE PUSH1 0x20 PUSH1 0x4 DUP3 ADD MSTORE PUSH1 0x15 PUSH1 0x24 DUP3 ADD MSTORE PUSH21 0x496E76616C69642062757965722061646472657373 PUSH1 0x58 SHL DUP2 DUP5 ADD MSTORE PUSH1 0x64 SWAP1 REVERT JUMPDEST PUSH1 0x40 MLOAD PUSH3 0x461BCD PUSH1 0xE5 SHL DUP2 MSTORE PUSH1 0x20 PUSH1 0x4 DUP3 ADD MSTORE PUSH1 0x1C PUSH1 0x24 DUP3 ADD MSTORE PUSH32 0x5072696365206D7573742062652067726561746572207468616E203000000000 DUP2 DUP5 ADD MSTORE PUSH1 0x64 SWAP1 REVERT JUMPDEST PUSH1 0x40 MLOAD PUSH3 0x461BCD PUSH1 0xE5 SHL DUP2 MSTORE PUSH1 0x20 PUSH1 0x4 DUP3 ADD MSTORE PUSH1 0x1D PUSH1 0x24 DUP3 ADD MSTORE PUSH32 0x416D6F756E74206D7573742062652067726561746572207468616E2030000000 DUP2 DUP5 ADD MSTORE PUSH1 0x64 SWAP1 REVERT JUMPDEST CALLVALUE PUSH2 0x137 JUMPI PUSH1 0x0 CALLDATASIZE PUSH1 0x3 NOT ADD SLT PUSH2 0x137 JUMPI PUSH2 0x1285 PUSH2 0x158E JUMP JUMPDEST PUSH1 0x0 DUP1 SLOAD PUSH1 0x1 PUSH1 0x1 PUSH1 0xA0 SHL SUB NOT DUP2 AND DUP3 SSTORE PUSH1 0x1 PUSH1 0x1 PUSH1 0xA0 SHL SUB AND PUSH32 0x8BE0079C531659141344CD1FD0A4F28419497F9722A3DAAFE3B4186F6B6457E0 DUP3 DUP1 LOG3 STOP JUMPDEST CALLVALUE PUSH2 0x137 JUMPI PUSH1 0x0 CALLDATASIZE PUSH1 0x3 NOT ADD SLT PUSH2 0x137 JUMPI PUSH1 0x5 SLOAD PUSH1 0x40 MLOAD PUSH1 0x1 PUSH1 0x1 PUSH1 0xA0 SHL SUB SWAP1 SWAP2 AND DUP2 MSTORE PUSH1 0x20 SWAP1 RETURN JUMPDEST CALLVALUE PUSH2 0x137 JUMPI PUSH1 0x0 CALLDATASIZE PUSH1 0x3 NOT ADD SLT PUSH2 0x137 JUMPI PUSH2 0x1307 PUSH2 0x16B4 JUMP JUMPDEST CALLER PUSH1 0x0 MSTORE PUSH1 0x4 PUSH1 0x20 MSTORE PUSH1 0x40 PUSH1 0x0 KECCAK256 SLOAD DUP1 ISZERO PUSH2 0x1372 JUMPI CALLER PUSH1 0x0 MSTORE PUSH1 0x4 PUSH1 0x20 MSTORE PUSH1 0x0 PUSH1 0x40 DUP2 KECCAK256 SSTORE PUSH2 0x1340 PUSH1 0x0 DUP1 DUP1 DUP1 DUP6 CALLER GAS CALL PUSH2 0xC1E PUSH2 0x1722 JUMP JUMPDEST PUSH1 0x40 MLOAD SWAP1 DUP2 MSTORE PUSH32 0xEAFF4B37086828766AD3268786972C0CD24259D4C87A80F9D3963A3C3D999B0D PUSH1 0x20 CALLER SWAP3 LOG2 PUSH1 0x1 DUP1 SSTORE STOP JUMPDEST PUSH1 0x40 MLOAD PUSH3 0x461BCD PUSH1 0xE5 SHL DUP2 MSTORE PUSH1 0x20 PUSH1 0x4 DUP3 ADD MSTORE PUSH1 0x14 PUSH1 0x24 DUP3 ADD MSTORE PUSH20 0x4E6F2066756E647320746F207769746864726177 PUSH1 0x60 SHL PUSH1 0x44 DUP3 ADD MSTORE PUSH1 0x64 SWAP1 REVERT JUMPDEST CALLVALUE PUSH2 0x137 JUMPI PUSH1 0x0 CALLDATASIZE PUSH1 0x3 NOT ADD SLT PUSH2 0x137 JUMPI PUSH1 0x20 PUSH1 0x8 SLOAD PUSH1 0x40 MLOAD SWAP1 DUP2 MSTORE RETURN JUMPDEST CALLVALUE PUSH2 0x137 JUMPI PUSH1 0x0 CALLDATASIZE PUSH1 0x3 NOT ADD SLT PUSH2 0x137 JUMPI PUSH1 0x20 SWAP1 PUSH1 0x7 SLOAD DUP2 MSTORE RETURN JUMPDEST PUSH1 0x4 CALLDATALOAD SWAP1 PUSH1 0x1 PUSH1 0x1 PUSH1 0xA0 SHL SUB DUP3 AND DUP3 SUB PUSH2 0x137 JUMPI JUMP JUMPDEST SWAP1 DUP2 MLOAD DUP1 DUP3 MSTORE PUSH1 0x20 DUP1 DUP1 SWAP4 ADD SWAP4 ADD SWAP2 PUSH1 0x0 JUMPDEST DUP3 DUP2 LT PUSH2 0x141D JUMPI POP POP POP POP SWAP1 JUMP JUMPDEST DUP4 MLOAD PUSH1 0x1 PUSH1 0x1 PUSH1 0xA0 SHL SUB AND DUP6 MSTORE SWAP4 DUP2 ADD SWAP4 SWAP3 DUP2 ADD SWAP3 PUSH1 0x1 ADD PUSH2 0x140F JUMP JUMPDEST SWAP1 DUP2 MLOAD DUP1 DUP3 MSTORE PUSH1 0x20 DUP1 DUP1 SWAP4 ADD SWAP4 ADD SWAP2 PUSH1 0x0 JUMPDEST DUP3 DUP2 LT PUSH2 0x145A JUMPI POP POP POP POP SWAP1 JUMP JUMPDEST DUP4 MLOAD DUP6 MSTORE SWAP4 DUP2 ADD SWAP4 SWAP3 DUP2 ADD SWAP3 PUSH1 0x1 ADD PUSH2 0x144C JUMP JUMPDEST PUSH2 0x100 DUP2 ADD SWAP1 DUP2 LT PUSH1 0x1 PUSH1 0x1 PUSH1 0x40 SHL SUB DUP3 GT OR PUSH2 0x88A JUMPI PUSH1 0x40 MSTORE JUMP JUMPDEST SWAP1 PUSH1 0x1F DUP1 NOT SWAP2 ADD AND DUP2 ADD SWAP1 DUP2 LT PUSH1 0x1 PUSH1 0x1 PUSH1 0x40 SHL SUB DUP3 GT OR PUSH2 0x88A JUMPI PUSH1 0x40 MSTORE JUMP JUMPDEST PUSH1 0x1 PUSH1 0x1 PUSH1 0x40 SHL SUB DUP2 GT PUSH2 0x88A JUMPI PUSH1 0x5 SHL PUSH1 0x20 ADD SWAP1 JUMP JUMPDEST DUP2 PUSH1 0x1F DUP3 ADD SLT ISZERO PUSH2 0x137 JUMPI DUP1 CALLDATALOAD SWAP2 PUSH2 0x14D9 DUP4 PUSH2 0x14AB JUMP JUMPDEST SWAP3 PUSH2 0x14E7 PUSH1 0x40 MLOAD SWAP5 DUP6 PUSH2 0x148A JUMP JUMPDEST DUP1 DUP5 MSTORE PUSH1 0x20 SWAP3 DUP4 DUP1 DUP7 ADD SWAP3 PUSH1 0x5 SHL DUP3 ADD ADD SWAP3 DUP4 GT PUSH2 0x137 JUMPI DUP4 ADD SWAP1 JUMPDEST DUP3 DUP3 LT PUSH2 0x1511 JUMPI POP POP POP POP SWAP1 JUMP JUMPDEST DUP2 CALLDATALOAD PUSH1 0x1 PUSH1 0x1 PUSH1 0xA0 SHL SUB DUP2 AND DUP2 SUB PUSH2 0x137 JUMPI DUP2 MSTORE SWAP1 DUP4 ADD SWAP1 DUP4 ADD PUSH2 0x1503 JUMP JUMPDEST DUP2 PUSH1 0x1F DUP3 ADD SLT ISZERO PUSH2 0x137 JUMPI DUP1 CALLDATALOAD SWAP2 PUSH2 0x1547 DUP4 PUSH2 0x14AB JUMP JUMPDEST SWAP3 PUSH2 0x1555 PUSH1 0x40 MLOAD SWAP5 DUP6 PUSH2 0x148A JUMP JUMPDEST DUP1 DUP5 MSTORE PUSH1 0x20 SWAP3 DUP4 DUP1 DUP7 ADD SWAP3 PUSH1 0x5 SHL DUP3 ADD ADD SWAP3 DUP4 GT PUSH2 0x137 JUMPI DUP4 ADD SWAP1 JUMPDEST DUP3 DUP3 LT PUSH2 0x157F JUMPI POP POP POP POP SWAP1 JUMP JUMPDEST DUP2 CALLDATALOAD DUP2 MSTORE SWAP1 DUP4 ADD SWAP1 DUP4 ADD PUSH2 0x1571 JUMP JUMPDEST PUSH1 0x0 SLOAD PUSH1 0x1 PUSH1 0x1 PUSH1 0xA0 SHL SUB AND CALLER SUB PUSH2 0x15A2 JUMPI JUMP JUMPDEST PUSH1 0x64 PUSH1 0x40 MLOAD PUSH3 0x461BCD PUSH1 0xE5 SHL DUP2 MSTORE PUSH1 0x20 PUSH1 0x4 DUP3 ADD MSTORE PUSH1 0x20 PUSH1 0x24 DUP3 ADD MSTORE PUSH32 0x4F776E61626C653A2063616C6C6572206973206E6F7420746865206F776E6572 PUSH1 0x44 DUP3 ADD MSTORE REVERT JUMPDEST ISZERO PUSH2 0x15ED JUMPI JUMP JUMPDEST PUSH1 0x40 MLOAD PUSH3 0x461BCD PUSH1 0xE5 SHL DUP2 MSTORE PUSH1 0x20 PUSH1 0x4 DUP3 ADD MSTORE PUSH1 0x12 PUSH1 0x24 DUP3 ADD MSTORE PUSH18 0x125B9D985B1A59081C1C9BDA9958DD081251 PUSH1 0x72 SHL PUSH1 0x44 DUP3 ADD MSTORE PUSH1 0x64 SWAP1 REVERT JUMPDEST PUSH1 0x0 NOT DUP2 EQ PUSH2 0x10E9 JUMPI PUSH1 0x1 ADD SWAP1 JUMP JUMPDEST DUP1 MLOAD DUP3 LT ISZERO PUSH2 0x164A JUMPI PUSH1 0x20 SWAP2 PUSH1 0x5 SHL ADD ADD SWAP1 JUMP JUMPDEST PUSH4 0x4E487B71 PUSH1 0xE0 SHL PUSH1 0x0 MSTORE PUSH1 0x32 PUSH1 0x4 MSTORE PUSH1 0x24 PUSH1 0x0 REVERT JUMPDEST SWAP2 SWAP1 DUP3 ADD DUP1 SWAP3 GT PUSH2 0x10E9 JUMPI JUMP JUMPDEST DUP2 DUP2 MUL SWAP3 SWAP2 DUP2 ISZERO SWAP2 DUP5 DIV EQ OR ISZERO PUSH2 0x10E9 JUMPI JUMP JUMPDEST SWAP1 SWAP2 DUP3 DUP2 LT PUSH2 0x168E JUMPI POP POP POP JUMP JUMPDEST PUSH1 0x0 SWAP2 DUP3 MSTORE PUSH1 0x20 DUP3 KECCAK256 SWAP3 DUP4 ADD SWAP3 ADD JUMPDEST DUP3 DUP2 LT PUSH2 0x16A9 JUMPI POP POP POP JUMP JUMPDEST DUP2 DUP2 SSTORE PUSH1 0x1 ADD PUSH2 0x169D JUMP JUMPDEST PUSH1 0x2 PUSH1 0x1 SLOAD EQ PUSH2 0x16C5 JUMPI PUSH1 0x2 PUSH1 0x1 SSTORE JUMP JUMPDEST PUSH1 0x40 MLOAD PUSH3 0x461BCD PUSH1 0xE5 SHL DUP2 MSTORE PUSH1 0x20 PUSH1 0x4 DUP3 ADD MSTORE PUSH1 0x1F PUSH1 0x24 DUP3 ADD MSTORE PUSH32 0x5265656E7472616E637947756172643A207265656E7472616E742063616C6C00 PUSH1 0x44 DUP3 ADD MSTORE PUSH1 0x64 SWAP1 REVERT JUMPDEST DUP1 SLOAD DUP3 LT ISZERO PUSH2 0x164A JUMPI PUSH1 0x0 MSTORE PUSH1 0x20 PUSH1 0x0 KECCAK256 ADD SWAP1 PUSH1 0x0 SWAP1 JUMP JUMPDEST RETURNDATASIZE ISZERO PUSH2 0x175C JUMPI RETURNDATASIZE SWAP1 PUSH1 0x1 PUSH1 0x1 PUSH1 0x40 SHL SUB DUP3 GT PUSH2 0x88A JUMPI PUSH1 0x40 MLOAD SWAP2 PUSH2 0x1750 PUSH1 0x1F DUP3 ADD PUSH1 0x1F NOT AND PUSH1 0x20 ADD DUP5 PUSH2 0x148A JUMP JUMPDEST DUP3 MSTORE RETURNDATASIZE PUSH1 0x0 PUSH1 0x20 DUP5 ADD RETURNDATACOPY JUMP JUMPDEST PUSH1 0x60 SWAP1 JUMP JUMPDEST ISZERO PUSH2 0x1768 JUMPI JUMP JUMPDEST PUSH1 0x40 MLOAD PUSH3 0x461BCD PUSH1 0xE5 SHL DUP2 MSTORE PUSH1 0x20 PUSH1 0x4 DUP3 ADD MSTORE PUSH1 0xF PUSH1 0x24 DUP3 ADD MSTORE PUSH15 0x151C985B9CD9995C8819985A5B1959 PUSH1 0x8A SHL PUSH1 0x44 DUP3 ADD MSTORE PUSH1 0x64 SWAP1 REVERT JUMPDEST SWAP1 PUSH1 0x40 MLOAD SWAP2 DUP3 DUP2 SLOAD SWAP2 DUP3 DUP3 MSTORE PUSH1 0x20 SWAP3 DUP4 DUP4 ADD SWAP2 PUSH1 0x0 MSTORE DUP4 PUSH1 0x0 KECCAK256 SWAP4 PUSH1 0x0 SWAP1 JUMPDEST DUP3 DUP3 LT PUSH2 0x17D6 JUMPI POP POP POP PUSH2 0x17D4 SWAP3 POP SUB DUP4 PUSH2 0x148A JUMP JUMPDEST JUMP JUMPDEST DUP6 SLOAD PUSH1 0x1 PUSH1 0x1 PUSH1 0xA0 SHL SUB AND DUP5 MSTORE PUSH1 0x1 SWAP6 DUP7 ADD SWAP6 DUP9 SWAP6 POP SWAP4 DUP2 ADD SWAP4 SWAP1 SWAP2 ADD SWAP1 PUSH2 0x17BE JUMP JUMPDEST SWAP1 PUSH1 0x40 MLOAD SWAP2 DUP3 DUP2 SLOAD SWAP2 DUP3 DUP3 MSTORE PUSH1 0x20 SWAP3 DUP4 DUP4 ADD SWAP2 PUSH1 0x0 MSTORE DUP4 PUSH1 0x0 KECCAK256 SWAP4 PUSH1 0x0 SWAP1 JUMPDEST DUP3 DUP3 LT PUSH2 0x182E JUMPI POP POP POP PUSH2 0x17D4 SWAP3 POP SUB DUP4 PUSH2 0x148A JUMP JUMPDEST DUP6 SLOAD DUP5 MSTORE PUSH1 0x1 SWAP6 DUP7 ADD SWAP6 DUP9 SWAP6 POP SWAP4 DUP2 ADD SWAP4 SWAP1 SWAP2 ADD SWAP1 PUSH2 0x1818 JUMP INVALID LOG2 PUSH5 0x6970667358 0x22 SLT KECCAK256 SWAP8 0x23 SWAP11 GT 0xD9 0xE9 SWAP5 0xE1 PUSH10 0x79A311445D9F1EC2D371 PUSH17 0x47DE90EC6ED48603400F4FD064736F6C63 NUMBER STOP ADDMOD SGT STOP CALLER "},"methodIdentifiers":{"carbonCreditToken()":"66dea358","configurePaymentSplit(uint256,address[],uint256[],address[],uint256[],address[],uint256[],address,uint256)":"a9a79f4c","defaultPlatformFee()":"1c34212c","emergencyWithdraw(address,uint256)":"95ccea67","getPaymentSplit(uint256)":"9f60be5c","getPendingWithdrawal(address)":"7ee8b2f8","getSale(uint256)":"d8f6d596","getTotalSales()":"2156a96c","owner()":"8da5cb5b","pendingWithdrawals(address)":"f3f43703","platformTreasury()":"e138818c","projectPaymentSplits(uint256)":"84091479","recordSaleAndDistribute(uint256,uint256,uint256,uint256,address,address)":"78dfdf9e","renounceOwnership()":"715018a6","sales(uint256)":"b5f522f7","transferOwnership(address)":"f2fde38b","updateDefaultPlatformFee(uint256)":"c1e9f115","updatePlatformTreasury(address)":"943d7cae","withdraw()":"3ccfd60b"}}}}}