{"contracts/VerificationOracle.sol":{"VerificationOracle":{"abi":[{"inputs":[{"internalType":"address","name":"_projectRegistry","type":"address"},{"internalType":"address","name":"_carbonCreditToken","type":"address"}],"stateMutability":"nonpayable","type":"constructor"},{"anonymous":false,"inputs":[{"indexed":true,"internalType":"uint256","name":"projectId","type":"uint256"},{"indexed":false,"internalType":"uint256","name":"amount","type":"uint256"},{"indexed":false,"internalType":"address","name":"recipient","type":"address"}],"name":"CarbonCreditsIssued","type":"event"},{"anonymous":false,"inputs":[{"indexed":true,"internalType":"address","name":"previousOwner","type":"address"},{"indexed":true,"internalType":"address","name":"newOwner","type":"address"}],"name":"OwnershipTransferred","type":"event"},{"anonymous":false,"inputs":[{"indexed":true,"internalType":"uint256","name":"projectId","type":"uint256"},{"indexed":false,"internalType":"uint256","name":"finalCarbonCredits","type":"uint256"},{"indexed":false,"internalType":"uint256","name":"timestamp","type":"uint256"}],"name":"ProjectVerificationCompleted","type":"event"},{"anonymous":false,"inputs":[{"indexed":true,"internalType":"uint256","name":"verificationId","type":"uint256"},{"indexed":true,"internalType":"uint256","name":"projectId","type":"uint256"},{"indexed":false,"internalType":"enum VerificationOracle.DataSource","name":"source","type":"uint8"},{"indexed":false,"internalType":"address","name":"submitter","type":"address"},{"indexed":false,"internalType":"string","name":"ipfsHash","type":"string"}],"name":"VerificationDataSubmitted","type":"event"},{"anonymous":false,"inputs":[{"indexed":true,"internalType":"uint256","name":"verificationId","type":"uint256"},{"indexed":false,"internalType":"enum VerificationOracle.VerificationStatus","name":"oldStatus","type":"uint8"},{"indexed":false,"internalType":"enum VerificationOracle.VerificationStatus","name":"newStatus","type":"uint8"},{"indexed":false,"internalType":"address","name":"updatedBy","type":"address"}],"name":"VerificationStatusUpdated","type":"event"},{"inputs":[],"name":"VERIFICATION_THRESHOLD","outputs":[{"internalType":"uint256","name":"","type":"uint256"}],"stateMutability":"view","type":"function"},{"inputs":[{"internalType":"address","name":"_verifier","type":"address"}],"name":"addVerifier","outputs":[],"stateMutability":"nonpayable","type":"function"},{"inputs":[{"internalType":"address","name":"","type":"address"}],"name":"authorizedVerifiers","outputs":[{"internalType":"bool","name":"","type":"bool"}],"stateMutability":"view","type":"function"},{"inputs":[],"name":"carbonCreditToken","outputs":[{"internalType":"contract CarbonCreditToken","name":"","type":"address"}],"stateMutability":"view","type":"function"},{"inputs":[{"internalType":"uint256","name":"_projectId","type":"uint256"}],"name":"checkVerificationRequirements","outputs":[{"internalType":"bool","name":"","type":"bool"}],"stateMutability":"view","type":"function"},{"inputs":[{"internalType":"uint256","name":"_projectId","type":"uint256"}],"name":"getProjectVerification","outputs":[{"components":[{"internalType":"uint256","name":"projectId","type":"uint256"},{"internalType":"uint256[]","name":"verificationIds","type":"uint256[]"},{"internalType":"uint256","name":"communityDataCount","type":"uint256"},{"internalType":"uint256","name":"satelliteDataCount","type":"uint256"},{"internalType":"uint256","name":"droneDataCount","type":"uint256"},{"internalType":"uint256","name":"thirdPartyDataCount","type":"uint256"},{"internalType":"uint256","name":"verifiedDataCount","type":"uint256"},{"internalType":"bool","name":"isCompletelyVerified","type":"bool"},{"internalType":"uint256","name":"finalCarbonCredits","type":"uint256"},{"internalType":"uint256","name":"lastUpdateTimestamp","type":"uint256"}],"internalType":"struct VerificationOracle.ProjectVerification","name":"","type":"tuple"}],"stateMutability":"view","type":"function"},{"inputs":[{"internalType":"uint256","name":"_projectId","type":"uint256"}],"name":"getProjectVerificationIds","outputs":[{"internalType":"uint256[]","name":"","type":"uint256[]"}],"stateMutability":"view","type":"function"},{"inputs":[],"name":"getTotalVerifications","outputs":[{"internalType":"uint256","name":"","type":"uint256"}],"stateMutability":"view","type":"function"},{"inputs":[{"internalType":"uint256","name":"_verificationId","type":"uint256"}],"name":"getVerificationData","outputs":[{"components":[{"internalType":"uint256","name":"projectId","type":"uint256"},{"internalType":"enum VerificationOracle.DataSource","name":"source","type":"uint8"},{"internalType":"string","name":"ipfsHash","type":"string"},{"internalType":"string","name":"description","type":"string"},{"internalType":"address","name":"submitter","type":"address"},{"internalType":"uint256","name":"timestamp","type":"uint256"},{"internalType":"enum VerificationOracle.VerificationStatus","name":"status","type":"uint8"},{"internalType":"string","name":"notes","type":"string"},{"internalType":"uint256","name":"carbonCreditsEstimate","type":"uint256"}],"internalType":"struct VerificationOracle.VerificationData","name":"","type":"tuple"}],"stateMutability":"view","type":"function"},{"inputs":[{"internalType":"address","name":"_verifier","type":"address"}],"name":"isAuthorizedVerifier","outputs":[{"internalType":"bool","name":"","type":"bool"}],"stateMutability":"view","type":"function"},{"inputs":[{"internalType":"enum VerificationOracle.DataSource","name":"","type":"uint8"}],"name":"minimumDataRequirements","outputs":[{"internalType":"uint256","name":"","type":"uint256"}],"stateMutability":"view","type":"function"},{"inputs":[],"name":"owner","outputs":[{"internalType":"address","name":"","type":"address"}],"stateMutability":"view","type":"function"},{"inputs":[],"name":"projectRegistry","outputs":[{"internalType":"contract ProjectRegistry","name":"","type":"address"}],"stateMutability":"view","type":"function"},{"inputs":[{"internalType":"uint256","name":"","type":"uint256"}],"name":"projectVerifications","outputs":[{"internalType":"uint256","name":"projectId","type":"uint256"},{"internalType":"uint256","name":"communityDataCount","type":"uint256"},{"internalType":"uint256","name":"satelliteDataCount","type":"uint256"},{"internalType":"uint256","name":"droneDataCount","type":"uint256"},{"internalType":"uint256","name":"thirdPartyDataCount","type":"uint256"},{"internalType":"uint256","name":"verifiedDataCount","type":"uint256"},{"internalType":"bool","name":"isCompletelyVerified","type":"bool"},{"internalType":"uint256","name":"finalCarbonCredits","type":"uint256"},{"internalType":"uint256","name":"lastUpdateTimestamp","type":"uint256"}],"stateMutability":"view","type":"function"},{"inputs":[{"internalType":"address","name":"_verifier","type":"address"}],"name":"removeVerifier","outputs":[],"stateMutability":"nonpayable","type":"function"},{"inputs":[],"name":"renounceOwnership","outputs":[],"stateMutability":"nonpayable","type":"function"},{"inputs":[{"internalType":"uint256","name":"_projectId","type":"uint256"},{"internalType":"enum VerificationOracle.DataSource","name":"_source","type":"uint8"},{"internalType":"string","name":"_ipfsHash","type":"string"},{"internalType":"string","name":"_description","type":"string"},{"internalType":"uint256","name":"_carbonCreditsEstimate","type":"uint256"}],"name":"submitVerificationData","outputs":[{"internalType":"uint256","name":"","type":"uint256"}],"stateMutability":"nonpayable","type":"function"},{"inputs":[{"internalType":"address","name":"newOwner","type":"address"}],"name":"transferOwnership","outputs":[],"stateMutability":"nonpayable","type":"function"},{"inputs":[{"internalType":"enum VerificationOracle.DataSource","name":"_source","type":"uint8"},{"internalType":"uint256","name":"_minimum","type":"uint256"}],"name":"updateMinimumDataRequirements","outputs":[],"stateMutability":"nonpayable","type":"function"},{"inputs":[{"internalType":"uint256","name":"_verificationId","type":"uint256"},{"internalType":"enum VerificationOracle.VerificationStatus","name":"_newStatus","type":"uint8"},{"internalType":"string","name":"_notes","type":"string"}],"name":"updateVerificationStatus","outputs":[],"stateMutability":"nonpayable","type":"function"},{"inputs":[{"internalType":"enum VerificationOracle.DataSource","name":"_source","type":"uint8"},{"internalType":"uint256","name":"_weight","type":"uint256"}],"name":"updateVerificationWeights","outputs":[],"stateMutability":"nonpayable","type":"function"},{"inputs":[{"internalType":"uint256","name":"","type":"uint256"}],"name":"verificationData","outputs":[{"internalType":"uint256","name":"projectId","type":"uint256"},{"internalType":"enum VerificationOracle.DataSource","name":"source","type":"uint8"},{"internalType":"string","name":"ipfsHash","type":"string"},{"internalType":"string","name":"description","type":"string"},{"internalType":"address","name":"submitter","type":"address"},{"internalType":"uint256","name":"timestamp","type":"uint256"},{"internalType":"enum VerificationOracle.VerificationStatus","name":"status","type":"uint8"},{"internalType":"string","name":"notes","type":"string"},{"internalType":"uint256","name":"carbonCreditsEstimate","type":"uint256"}],"stateMutability":"view","type":"function"},{"inputs":[{"internalType":"enum VerificationOracle.DataSource","name":"","type":"uint8"}],"name":"verificationWeights","outputs":[{"internalType":"uint256","name":"","type":"uint256"}],"stateMutability":"view","type":"function"}],"evm":{"bytecode":{"linkReferences":{},"object":"608034620001cc5762001ff490601f38839003908101601f19168201906001600160401b03821183831017620001d15780839160409586948552833981010312620001cc576200004f81620001e7565b6200005e6020809301620001e7565b60008054336001600160a01b031980831682178455875193969490926001600160a01b03929083167f8be0079c531659141344cd1fd0a4f28419497f9722a3daafe3b4186f6b6457e08980a381600196878055169384156200018c5750169182156200013c5792869492826103e89795600894600254161760025560035416176003558380526007815260038585205582845260028585205560028452828585205560038452828585205583805252610bb8838320558152610dac82822055600281526109c48282205560038152205551611df79081620001fd8239f35b865162461bcd60e51b815260048101859052602360248201527f496e76616c696420636172626f6e2063726564697420746f6b656e206164647260448201526265737360e81b6064820152608490fd5b6064908662461bcd60e51b825280600483015260248201527f496e76616c69642070726f6a65637420726567697374727920616464726573736044820152fd5b600080fd5b634e487b7160e01b600052604160045260246000fd5b51906001600160a01b0382168203620001cc5756fe608080604052600436101561001357600080fd5b60e0600035811c9182630343b1e7146111eb57508163172800a5146111b857816318e14fba14611137578163281fa8f3146110535781633f53b43f1461103657816344c21fb314610ff85781634cc1ec4c14610f6f5781635a33d8dc14610f4657816366dea35814610f1d5781636a034ec514610e7a5781636cacbf30146107fc578163715018a614610e215781637c47ac4414610cc3575080638b71b8d014610c855780638da5cb5b14610c5c5780639000b3d614610bc8578063918a1bf51461083f5780639a891716146107fc578063a1e08143146107b5578063ca2dfd0a1461076f578063cd538b1a1461020c578063f2df9017146101ee5763f2fde38b1461011e57600080fd5b346101e95760203660031901126101e9576004356001600160a01b03818116918290036101e95761014d6115e5565b811561019557600054826bffffffffffffffffffffffff60a01b821617600055167f8be0079c531659141344cd1fd0a4f28419497f9722a3daafe3b4186f6b6457e0600080a3005b60405162461bcd60e51b815260206004820152602660248201527f4f776e61626c653a206e6577206f776e657220697320746865207a65726f206160448201526564647265737360d01b6064820152608490fd5b600080fd5b346101e95760003660031901126101e9576020600954604051908152f35b346101e95760a03660031901126101e957600460243510156101e95760443567ffffffffffffffff81116101e95761024890369060040161159e565b60643567ffffffffffffffff81116101e95761026890369060040161159e565b9060043515610735578051156106f057608435156106945761028b60095461163d565b8060095580600052600460205260406000206004358155600181016102b160243561138b565b60ff1981541660ff60243516179055825167ffffffffffffffff81116104f7576102de6002830154611412565b601f811161064d575b50806020601f82116001146105e0576000916105d5575b508160011b916000199060031b1c19161760028201555b835167ffffffffffffffff81116104f7576103336003830154611412565b601f811161058e575b50602094601f821160011461052257948192939495600092610517575b50508160011b916000199060031b1c19161760038201555b60048101336bffffffffffffffffffffffff60a01b8254161790554260058201556006810160ff1981541690556008608435910155600435600052600560205260406000209182541561050d575b6001830192835493680100000000000000008510156104f757846103ea91600160209701815561164c565b81549060031b9085821b91600019901b191617905561040a60243561138b565b602435610486576002810161041f815461163d565b90555b600942910155817f9e7e67e89185bed758a6a4bbb68d7139ab0c172f63ff96116aa46440c65d340f60405161045860243561138b565b60243581523386820152606060408201528061047b6004359560608301906113ce565b0390a3604051908152f35b61049160243561138b565b6024356001036104b157600381016104a9815461163d565b90555b610422565b6104bc60243561138b565b6024356002036104d457600481016104a9815461163d565b6104df60243561138b565b6003602435036104ac57600581016104a9815461163d565b634e487b7160e01b600052604160045260246000fd5b60043583556103bf565b015190508580610359565b601f198216956003840160005260206000209160005b8881106105765750836001959697981061055d575b505050811b016003820155610371565b015160001960f88460031b161c1916905585808061054d565b91926020600181928685015181550194019201610538565b600383016000526020600020601f830160051c8101602084106105ce575b601f830160051c820181106105c257505061033c565b600081556001016105ac565b50806105ac565b9050840151866102fe565b91506002830160005260206000206000925b601f1983168410610635576001935082601f1981161061061c575b5050811b016002820155610315565b86015160001960f88460031b161c19169055868061060d565b868101518255602093840193600190920191016105f2565b600283016000526020600020601f830160051c81016020841061068d575b601f830160051c820181106106815750506102e7565b6000815560010161066b565b508061066b565b60405162461bcd60e51b815260206004820152602e60248201527f436172626f6e206372656469747320657374696d617465206d7573742062652060448201526d067726561746572207468616e20360941b6064820152608490fd5b60405162461bcd60e51b815260206004820152601960248201527f4950465320686173682063616e6e6f7420626520656d707479000000000000006044820152606490fd5b60405162461bcd60e51b8152602060048201526012602482015271125b9d985b1a59081c1c9bda9958dd08125160721b6044820152606490fd5b346101e95760203660031901126101e9576004356001600160a01b038116908190036101e95761079d6115e5565b6000908152600660205260409020805460ff19169055005b346101e95760203660031901126101e95760043560005260056020526107f86107e46001604060002001611d72565b60405191829160208352602083019061154e565b0390f35b346101e95760203660031901126101e9576004356001600160a01b038116908190036101e9576000526006602052602060ff604060002054166040519015158152f35b346101e95760603660031901126101e95760043560243560048110156101e95767ffffffffffffffff916044358381116101e95761088190369060040161159e565b913360005260206006815260ff604060002054168015610bb4575b15610b705782151580610b64575b15610b20578260005260048152604060002093600685019586549660ff8816976108d38661138b565b60ff191660ff861617905581516007870192909182116104f75781906108f98454611412565b601f8111610acf575b508490601f8311600114610a6a57600092610a5f575b50508160011b916000199060031b1c19161790555b83546000526005815260406000206109448661138b565b60018614801580610a4c575b156109c15750947f7be320c0db528632d8632ea4fe18b691f6c76e16439688e631e75c0c13eb62ef926060928760066109bf990161098e815461163d565b90555b600942910155604051926109a48161138b565b83526109af8261138b565b820152336040820152a2546116a7565b005b6109ca8761138b565b80610a38575b610a04575b947f7be320c0db528632d8632ea4fe18b691f6c76e16439688e631e75c0c13eb62ef926060926109bf97610991565b9460068601928354928315610a2257600019909301909355946109d5565b634e487b7160e01b600052601160045260246000fd5b50610a428361138b565b60018314156109d0565b50610a568461138b565b60018414610950565b015190508880610918565b60008581528681209350601f198516905b87828210610ab9575050908460019594939210610aa0575b505050811b01905561092d565b015160001960f88460031b161c19169055888080610a93565b6001859682939686015181550195019301610a7b565b9091508360005284600020601f840160051c810191868510610b16575b90601f859493920160051c01905b818110610b075750610902565b60008155849350600101610afa565b9091508190610aec565b6064906040519062461bcd60e51b82526004820152601760248201527f496e76616c696420766572696669636174696f6e2049440000000000000000006044820152fd5b506009548311156108aa565b6064906040519062461bcd60e51b82526004820152601760248201527f4e6f7420617574686f72697a65642076657269666965720000000000000000006044820152fd5b506000546001600160a01b0316331461089c565b346101e95760203660031901126101e9576004356001600160a01b038116908190036101e957610bf66115e5565b8015610c17576000908152600660205260409020805460ff19166001179055005b60405162461bcd60e51b815260206004820152601860248201527f496e76616c6964207665726966696572206164647265737300000000000000006044820152606490fd5b346101e95760003660031901126101e9576000546040516001600160a01b039091168152602090f35b346101e95760203660031901126101e95760043560048110156101e957610cab8161138b565b60005260076020526020604060002054604051908152f35b346101e957602090816003193601126101e95760405190610ce382611469565b60008252606083830152600060408301526000606083015260006080830152600060a0830152600060c0830152600081830152610100906000828401526000610120809401526004356000526005845260406000209160405193610d4685611469565b8354855284610d5760018601611d72565b928782019384526002860154956040830196875260038101549560608401968752600482015460808501908152600583015460a0860190815260068401549160c08701928352600960ff6007870154169585890196151587528760088201549901988952015498888d01998a526040518e819f9e829f83525191015251998c6060610df06101409d8e604085015261016084019061154e565b9d519101525160808d01525160a08c01525160c08b0152519089015251151590870152519085015251908301520390f35b346101e95760003660031901126101e957610e3a6115e5565b600080546001600160a01b0319811682556001600160a01b03167f8be0079c531659141344cd1fd0a4f28419497f9722a3daafe3b4186f6b6457e08280a3005b346101e95760203660031901126101e9576004356000526005602052602060406000206002810154600080526007835260406000205411159081610f03575b81610ee9575b81610ed0575b506040519015158152f35b6005915001546003600052604060002054111582610ec5565b905060048101546002600052604060002054111590610ebf565b905060038101546001600052604060002054111590610eb9565b346101e95760003660031901126101e9576003546040516001600160a01b039091168152602090f35b346101e95760003660031901126101e9576002546040516001600160a01b039091168152602090f35b346101e95760203660031901126101e95761012090600435600052600560205260406000209081549160028101549160038201546004830154600584015460068501549160ff600787015416936009600888015497015497604051998a5260208a015260408901526060880152608087015260a0860152151560c0850152830152610100820152f35b346101e95760203660031901126101e95760043560048110156101e95761101e8161138b565b60005260086020526020604060002054604051908152f35b346101e95760003660031901126101e9576020604051611b588152f35b346101e95760203660031901126101e9576004356000526004602052604060002080549061112c60ff6001830154169361108f600284016114a8565b9261109c600382016114a8565b9160018060a01b0360048301541692600583015461110760ff600686015416926110f960086110cd600789016114a8565b970154996040519c8d9c8d526110e28161138b565b60208d015261012060408d018190528c01906113ce565b908a820360608c01526113ce565b94608089015260a088015261111b8161138b565b60c0870152858303908601526113ce565b906101008301520390f35b346101e957611145366113f3565b9061114e6115e5565b6127108211611173576111608161138b565b6000526008602052604060002055600080f35b60405162461bcd60e51b815260206004820152601960248201527f5765696768742063616e6e6f74206578636565642031303025000000000000006044820152606490fd5b346101e9576111c6366113f3565b906111cf6115e5565b6111d88161138b565b6000526007602052604060002055600080f35b90346101e957602091826003193601126101e9576112088161144c565b600081528281016000905260608060408301528080830152608082016000905260a082016000905260c082016000905280838301526101008092016000905260043560005260048452604060002092604051936112648561144c565b80548552600181015460ff16938686019461127e8161138b565b855261128c600283016114a8565b60408701908152916112a0600382016114a8565b93858801948552600160a01b6001900393846004840154169460808a0195865260058401549060a08b01918252600685015460ff169260c08c01936112e48161138b565b84526112f2600787016114a8565b95858d01968752600801549a878d019b8c526040518e819f9e829f8352519101525161131d8161138b565b60408d015251610120809a8d01526101408c01611339916113ce565b9751601f198c8a03810160808e015298611352916113ce565b96511660a08b01525160c08a0152519061136b8261138b565b88015251928683030190860152611381916113ce565b9151908301520390f35b6004111561139557565b634e487b7160e01b600052602160045260246000fd5b60005b8381106113be5750506000910152565b81810151838201526020016113ae565b906020916113e7815180928185528580860191016113ab565b601f01601f1916010190565b60409060031901126101e95760043560048110156101e9579060243590565b90600182811c92168015611442575b602083101461142c57565b634e487b7160e01b600052602260045260246000fd5b91607f1691611421565b610120810190811067ffffffffffffffff8211176104f757604052565b610140810190811067ffffffffffffffff8211176104f757604052565b90601f8019910116810190811067ffffffffffffffff8211176104f757604052565b90604051918260008254926114bc84611412565b90818452600194858116908160001461152b57506001146114e8575b50506114e692500383611486565b565b9093915060005260209081600020936000915b8183106115135750506114e6935082010138806114d8565b855488840185015294850194879450918301916114fb565b9150506114e694506020925060ff191682840152151560051b82010138806114d8565b90815180825260208080930193019160005b82811061156e575050505090565b835185529381019392810192600101611560565b67ffffffffffffffff81116104f757601f01601f191660200190565b81601f820112156101e9578035906115b582611582565b926115c36040519485611486565b828452602083830101116101e957816000926020809301838601378301015290565b6000546001600160a01b031633036115f957565b606460405162461bcd60e51b815260206004820152602060248201527f4f776e61626c653a2063616c6c6572206973206e6f7420746865206f776e65726044820152fd5b6000198114610a225760010190565b80548210156116645760005260206000200190600090565b634e487b7160e01b600052603260045260246000fd5b91908201809211610a2257565b8115611691570490565b634e487b7160e01b600052601260045260246000fd5b9060009180835260206005815260409081852060028101548680526007835283872054111580611c95575b80611c80575b80611c6b575b15611c63576001818101805488918291869183868a825b858410611bdd575050505050505061271090818102918183041490151715611bc957611b589161172491611687565b101580611bba575b61173a575b50505050509050565b60078201805460ff191682179055848752600583528387208101805488928392835b838110611b0a575060089695949392505081159050611aff5761177e91611687565b9283915b0155837fdcc8b478113051dfbcf065995f26b420abdc0f0228a339a6d66e0dca4cdc1c498480518581524285820152a26002546001600160a01b039087908216803b15611afb578190604487518094819363d3dc322f60e01b83528b60048401528960248401525af18015611ac257611acc575b506024878260025416865192838092631e1e7e5960e31b82528a60048301525afa908115611ac2578891611926575b50878360c0846003541693019261012485855116895194859384926305e0448b60e21b84528d60048501528b602485015242604485015260c06064850152601860c48501527f426c756520436172626f6e204d5256205374616e64617264000000000000000060e485015261010060848501528261010485015260a48401525af1801561191c576118ee575b507fd50dc6f94afd64c65475c1b8bae4dad09dceb9655b0a0d0331a022da575959a8959697505116908351928352820152a2803880808080611731565b8390813d8311611915575b6119038183611486565b8101031261191157876118b1565b8780fd5b503d6118f9565b86513d8b823e3d90fd5b90503d8089833e6119378183611486565b81018382820312611abe57815167ffffffffffffffff92838211611aba570190610200928383830312611aba578751938401848110828211176104f75788528251845285830151818111611ab25782611991918501611caa565b8685015287830151818111611ab257826119ac918501611caa565b8885015260608301516003811015611ab25760608501526080830151818111611ab257826119db918501611caa565b608085015260a083015160a08501526119f660c08401611cef565b60c085015260e0830151818111611ab25782611a13918501611d03565b60e085015261010080840151828111611ab65783611a32918601611d03565b9085015261012080840151906005821015611ab657850152610140808401519085015261016080840151908501526101809182840151918211611ab257611a7a918401611caa565b908301526101a080820151908301526101c080820151908301526101e080910151908115158203611aae5782015238611825565b8980fd5b8b80fd5b8c80fd5b8a80fd5b8880fd5b85513d8a823e3d90fd5b67ffffffffffffffff8198929811611ae757845295386117f6565b634e487b7160e01b82526041600452602482fd5b5080fd5b505086928391611782565b611b14818361164c565b90549060031b1c8c526004808952898d20908d60ff8681600686015416611b3a8161138b565b14611b52575b50505050611b4d9061163d565b61175c565b868495999a939401541690611b668261138b565b526008808b528b8f20549301548084029290801590840485141715611ba7575091611b97611b9d92611b4d9461167a565b9761167a565b9490388d81611b40565b634e487b7160e01b8f526011905260248efd5b5060ff6007830154161561172c565b634e487b7160e01b89526011600452602489fd5b611c258392600692611bf487899a9b9d989961164c565b90549060031b1c815260048c5260088282209c8d60ff978891015416611c198161138b565b8352522054809561167a565b98015416611c328161138b565b14611c4e575b50611c429061163d565b90879291868a8e6116f5565b611c5c90611c42929561167a565b9390611c38565b505050509050565b506005810154600387528387205411156116de565b506004810154600287528387205411156116d8565b506003810154600187528387205411156116d2565b81601f820112156101e9578051611cc081611582565b92611cce6040519485611486565b818452602082840101116101e957611cec91602080850191016113ab565b90565b51906001600160a01b03821682036101e957565b9080601f830112156101e95781519067ffffffffffffffff82116104f7578160051b60405193602093611d3885840187611486565b855283808601928201019283116101e9578301905b828210611d5b575050505090565b838091611d6784611cef565b815201910190611d4d565b9060405191828154918282526020928383019160005283600020936000905b828210611da7575050506114e692500383611486565b855484526001958601958895509381019390910190611d9156fea2646970667358221220ab7e14b6469d09cc3186a2bb78712ee7ee6bd35d116b2abf0e8b862c5a68afa564736f6c63430008130033","opcodes":"PUSH1 0x80 CALLVALUE PUSH3 0x1CC JUMPI PUSH3 0x1FF4 SWAP1 PUSH1 0x1F CODESIZE DUP4 SWAP1 SUB SWAP1 DUP2 ADD PUSH1 0x1F NOT AND DUP3 ADD SWAP1 PUSH1 0x1 PUSH1 0x1 PUSH1 0x40 SHL SUB DUP3 GT DUP4 DUP4 LT OR PUSH3 0x1D1 JUMPI DUP1 DUP4 SWAP2 PUSH1 0x40 SWAP6 DUP7 SWAP5 DUP6 MSTORE DUP4 CODECOPY DUP2 ADD SUB SLT PUSH3 0x1CC JUMPI PUSH3 0x4F DUP2 PUSH3 0x1E7 JUMP JUMPDEST PUSH3 0x5E PUSH1 0x20 DUP1 SWAP4 ADD PUSH3 0x1E7 JUMP JUMPDEST PUSH1 0x0 DUP1 SLOAD CALLER PUSH1 0x1 PUSH1 0x1 PUSH1 0xA0 SHL SUB NOT DUP1 DUP4 AND DUP3 OR DUP5 SSTORE DUP8 MLOAD SWAP4 SWAP7 SWAP5 SWAP1 SWAP3 PUSH1 0x1 PUSH1 0x1 PUSH1 0xA0 SHL SUB SWAP3 SWAP1 DUP4 AND PUSH32 0x8BE0079C531659141344CD1FD0A4F28419497F9722A3DAAFE3B4186F6B6457E0 DUP10 DUP1 LOG3 DUP2 PUSH1 0x1 SWAP7 DUP8 DUP1 SSTORE AND SWAP4 DUP5 ISZERO PUSH3 0x18C JUMPI POP AND SWAP2 DUP3 ISZERO PUSH3 0x13C JUMPI SWAP3 DUP7 SWAP5 SWAP3 DUP3 PUSH2 0x3E8 SWAP8 SWAP6 PUSH1 0x8 SWAP5 PUSH1 0x2 SLOAD AND OR PUSH1 0x2 SSTORE PUSH1 0x3 SLOAD AND OR PUSH1 0x3 SSTORE DUP4 DUP1 MSTORE PUSH1 0x7 DUP2 MSTORE PUSH1 0x3 DUP6 DUP6 KECCAK256 SSTORE DUP3 DUP5 MSTORE PUSH1 0x2 DUP6 DUP6 KECCAK256 SSTORE PUSH1 0x2 DUP5 MSTORE DUP3 DUP6 DUP6 KECCAK256 SSTORE PUSH1 0x3 DUP5 MSTORE DUP3 DUP6 DUP6 KECCAK256 SSTORE DUP4 DUP1 MSTORE MSTORE PUSH2 0xBB8 DUP4 DUP4 KECCAK256 SSTORE DUP2 MSTORE PUSH2 0xDAC DUP3 DUP3 KECCAK256 SSTORE PUSH1 0x2 DUP2 MSTORE PUSH2 0x9C4 DUP3 DUP3 KECCAK256 SSTORE PUSH1 0x3 DUP2 MSTORE KECCAK256 SSTORE MLOAD PUSH2 0x1DF7 SWAP1 DUP2 PUSH3 0x1FD DUP3 CODECOPY RETURN JUMPDEST DUP7 MLOAD PUSH3 0x461BCD PUSH1 0xE5 SHL DUP2 MSTORE PUSH1 0x4 DUP2 ADD DUP6 SWAP1 MSTORE PUSH1 0x23 PUSH1 0x24 DUP3 ADD MSTORE PUSH32 0x496E76616C696420636172626F6E2063726564697420746F6B656E2061646472 PUSH1 0x44 DUP3 ADD MSTORE PUSH3 0x657373 PUSH1 0xE8 SHL PUSH1 0x64 DUP3 ADD MSTORE PUSH1 0x84 SWAP1 REVERT JUMPDEST PUSH1 0x64 SWAP1 DUP7 PUSH3 0x461BCD PUSH1 0xE5 SHL DUP3 MSTORE DUP1 PUSH1 0x4 DUP4 ADD MSTORE PUSH1 0x24 DUP3 ADD MSTORE PUSH32 0x496E76616C69642070726F6A6563742072656769737472792061646472657373 PUSH1 0x44 DUP3 ADD MSTORE REVERT JUMPDEST PUSH1 0x0 DUP1 REVERT JUMPDEST PUSH4 0x4E487B71 PUSH1 0xE0 SHL PUSH1 0x0 MSTORE PUSH1 0x41 PUSH1 0x4 MSTORE PUSH1 0x24 PUSH1 0x0 REVERT JUMPDEST MLOAD SWAP1 PUSH1 0x1 PUSH1 0x1 PUSH1 0xA0 SHL SUB DUP3 AND DUP3 SUB PUSH3 0x1CC JUMPI JUMP INVALID PUSH1 0x80 DUP1 PUSH1 0x40 MSTORE PUSH1 0x4 CALLDATASIZE LT ISZERO PUSH2 0x13 JUMPI PUSH1 0x0 DUP1 REVERT JUMPDEST PUSH1 0xE0 PUSH1 0x0 CALLDATALOAD DUP2 SHR SWAP2 DUP3 PUSH4 0x343B1E7 EQ PUSH2 0x11EB JUMPI POP DUP2 PUSH4 0x172800A5 EQ PUSH2 0x11B8 JUMPI DUP2 PUSH4 0x18E14FBA EQ PUSH2 0x1137 JUMPI DUP2 PUSH4 0x281FA8F3 EQ PUSH2 0x1053 JUMPI DUP2 PUSH4 0x3F53B43F EQ PUSH2 0x1036 JUMPI DUP2 PUSH4 0x44C21FB3 EQ PUSH2 0xFF8 JUMPI DUP2 PUSH4 0x4CC1EC4C EQ PUSH2 0xF6F JUMPI DUP2 PUSH4 0x5A33D8DC EQ PUSH2 0xF46 JUMPI DUP2 PUSH4 0x66DEA358 EQ PUSH2 0xF1D JUMPI DUP2 PUSH4 0x6A034EC5 EQ PUSH2 0xE7A JUMPI DUP2 PUSH4 0x6CACBF30 EQ PUSH2 0x7FC JUMPI DUP2 PUSH4 0x715018A6 EQ PUSH2 0xE21 JUMPI DUP2 PUSH4 0x7C47AC44 EQ PUSH2 0xCC3 JUMPI POP DUP1 PUSH4 0x8B71B8D0 EQ PUSH2 0xC85 JUMPI DUP1 PUSH4 0x8DA5CB5B EQ PUSH2 0xC5C JUMPI DUP1 PUSH4 0x9000B3D6 EQ PUSH2 0xBC8 JUMPI DUP1 PUSH4 0x918A1BF5 EQ PUSH2 0x83F JUMPI DUP1 PUSH4 0x9A891716 EQ PUSH2 0x7FC JUMPI DUP1 PUSH4 0xA1E08143 EQ PUSH2 0x7B5 JUMPI DUP1 PUSH4 0xCA2DFD0A EQ PUSH2 0x76F JUMPI DUP1 PUSH4 0xCD538B1A EQ PUSH2 0x20C JUMPI DUP1 PUSH4 0xF2DF9017 EQ PUSH2 0x1EE JUMPI PUSH4 0xF2FDE38B EQ PUSH2 0x11E JUMPI PUSH1 0x0 DUP1 REVERT JUMPDEST CALLVALUE PUSH2 0x1E9 JUMPI PUSH1 0x20 CALLDATASIZE PUSH1 0x3 NOT ADD SLT PUSH2 0x1E9 JUMPI PUSH1 0x4 CALLDATALOAD PUSH1 0x1 PUSH1 0x1 PUSH1 0xA0 SHL SUB DUP2 DUP2 AND SWAP2 DUP3 SWAP1 SUB PUSH2 0x1E9 JUMPI PUSH2 0x14D PUSH2 0x15E5 JUMP JUMPDEST DUP2 ISZERO PUSH2 0x195 JUMPI PUSH1 0x0 SLOAD DUP3 PUSH12 0xFFFFFFFFFFFFFFFFFFFFFFFF PUSH1 0xA0 SHL DUP3 AND OR PUSH1 0x0 SSTORE AND PUSH32 0x8BE0079C531659141344CD1FD0A4F28419497F9722A3DAAFE3B4186F6B6457E0 PUSH1 0x0 DUP1 LOG3 STOP JUMPDEST PUSH1 0x40 MLOAD PUSH3 0x461BCD PUSH1 0xE5 SHL DUP2 MSTORE PUSH1 0x20 PUSH1 0x4 DUP3 ADD MSTORE PUSH1 0x26 PUSH1 0x24 DUP3 ADD MSTORE PUSH32 0x4F776E61626C653A206E6577206F776E657220697320746865207A65726F2061 PUSH1 0x44 DUP3 ADD MSTORE PUSH6 0x646472657373 PUSH1 0xD0 SHL PUSH1 0x64 DUP3 ADD MSTORE PUSH1 0x84 SWAP1 REVERT JUMPDEST PUSH1 0x0 DUP1 REVERT JUMPDEST CALLVALUE PUSH2 0x1E9 JUMPI PUSH1 0x0 CALLDATASIZE PUSH1 0x3 NOT ADD SLT PUSH2 0x1E9 JUMPI PUSH1 0x20 PUSH1 0x9 SLOAD PUSH1 0x40 MLOAD SWAP1 DUP2 MSTORE RETURN JUMPDEST CALLVALUE PUSH2 0x1E9 JUMPI PUSH1 0xA0 CALLDATASIZE PUSH1 0x3 NOT ADD SLT PUSH2 0x1E9 JUMPI PUSH1 0x4 PUSH1 0x24 CALLDATALOAD LT ISZERO PUSH2 0x1E9 JUMPI PUSH1 0x44 CALLDATALOAD PUSH8 0xFFFFFFFFFFFFFFFF DUP2 GT PUSH2 0x1E9 JUMPI PUSH2 0x248 SWAP1 CALLDATASIZE SWAP1 PUSH1 0x4 ADD PUSH2 0x159E JUMP JUMPDEST PUSH1 0x64 CALLDATALOAD PUSH8 0xFFFFFFFFFFFFFFFF DUP2 GT PUSH2 0x1E9 JUMPI PUSH2 0x268 SWAP1 CALLDATASIZE SWAP1 PUSH1 0x4 ADD PUSH2 0x159E JUMP JUMPDEST SWAP1 PUSH1 0x4 CALLDATALOAD ISZERO PUSH2 0x735 JUMPI DUP1 MLOAD ISZERO PUSH2 0x6F0 JUMPI PUSH1 0x84 CALLDATALOAD ISZERO PUSH2 0x694 JUMPI PUSH2 0x28B PUSH1 0x9 SLOAD PUSH2 0x163D JUMP JUMPDEST DUP1 PUSH1 0x9 SSTORE DUP1 PUSH1 0x0 MSTORE PUSH1 0x4 PUSH1 0x20 MSTORE PUSH1 0x40 PUSH1 0x0 KECCAK256 PUSH1 0x4 CALLDATALOAD DUP2 SSTORE PUSH1 0x1 DUP2 ADD PUSH2 0x2B1 PUSH1 0x24 CALLDATALOAD PUSH2 0x138B JUMP JUMPDEST PUSH1 0xFF NOT DUP2 SLOAD AND PUSH1 0xFF PUSH1 0x24 CALLDATALOAD AND OR SWAP1 SSTORE DUP3 MLOAD PUSH8 0xFFFFFFFFFFFFFFFF DUP2 GT PUSH2 0x4F7 JUMPI PUSH2 0x2DE PUSH1 0x2 DUP4 ADD SLOAD PUSH2 0x1412 JUMP JUMPDEST PUSH1 0x1F DUP2 GT PUSH2 0x64D JUMPI JUMPDEST POP DUP1 PUSH1 0x20 PUSH1 0x1F DUP3 GT PUSH1 0x1 EQ PUSH2 0x5E0 JUMPI PUSH1 0x0 SWAP2 PUSH2 0x5D5 JUMPI JUMPDEST POP DUP2 PUSH1 0x1 SHL SWAP2 PUSH1 0x0 NOT SWAP1 PUSH1 0x3 SHL SHR NOT AND OR PUSH1 0x2 DUP3 ADD SSTORE JUMPDEST DUP4 MLOAD PUSH8 0xFFFFFFFFFFFFFFFF DUP2 GT PUSH2 0x4F7 JUMPI PUSH2 0x333 PUSH1 0x3 DUP4 ADD SLOAD PUSH2 0x1412 JUMP JUMPDEST PUSH1 0x1F DUP2 GT PUSH2 0x58E JUMPI JUMPDEST POP PUSH1 0x20 SWAP5 PUSH1 0x1F DUP3 GT PUSH1 0x1 EQ PUSH2 0x522 JUMPI SWAP5 DUP2 SWAP3 SWAP4 SWAP5 SWAP6 PUSH1 0x0 SWAP3 PUSH2 0x517 JUMPI JUMPDEST POP POP DUP2 PUSH1 0x1 SHL SWAP2 PUSH1 0x0 NOT SWAP1 PUSH1 0x3 SHL SHR NOT AND OR PUSH1 0x3 DUP3 ADD SSTORE JUMPDEST PUSH1 0x4 DUP2 ADD CALLER PUSH12 0xFFFFFFFFFFFFFFFFFFFFFFFF PUSH1 0xA0 SHL DUP3 SLOAD AND OR SWAP1 SSTORE TIMESTAMP PUSH1 0x5 DUP3 ADD SSTORE PUSH1 0x6 DUP2 ADD PUSH1 0xFF NOT DUP2 SLOAD AND SWAP1 SSTORE PUSH1 0x8 PUSH1 0x84 CALLDATALOAD SWAP2 ADD SSTORE PUSH1 0x4 CALLDATALOAD PUSH1 0x0 MSTORE PUSH1 0x5 PUSH1 0x20 MSTORE PUSH1 0x40 PUSH1 0x0 KECCAK256 SWAP2 DUP3 SLOAD ISZERO PUSH2 0x50D JUMPI JUMPDEST PUSH1 0x1 DUP4 ADD SWAP3 DUP4 SLOAD SWAP4 PUSH9 0x10000000000000000 DUP6 LT ISZERO PUSH2 0x4F7 JUMPI DUP5 PUSH2 0x3EA SWAP2 PUSH1 0x1 PUSH1 0x20 SWAP8 ADD DUP2 SSTORE PUSH2 0x164C JUMP JUMPDEST DUP2 SLOAD SWAP1 PUSH1 0x3 SHL SWAP1 DUP6 DUP3 SHL SWAP2 PUSH1 0x0 NOT SWAP1 SHL NOT AND OR SWAP1 SSTORE PUSH2 0x40A PUSH1 0x24 CALLDATALOAD PUSH2 0x138B JUMP JUMPDEST PUSH1 0x24 CALLDATALOAD PUSH2 0x486 JUMPI PUSH1 0x2 DUP2 ADD PUSH2 0x41F DUP2 SLOAD PUSH2 0x163D JUMP JUMPDEST SWAP1 SSTORE JUMPDEST PUSH1 0x9 TIMESTAMP SWAP2 ADD SSTORE DUP2 PUSH32 0x9E7E67E89185BED758A6A4BBB68D7139AB0C172F63FF96116AA46440C65D340F PUSH1 0x40 MLOAD PUSH2 0x458 PUSH1 0x24 CALLDATALOAD PUSH2 0x138B JUMP JUMPDEST PUSH1 0x24 CALLDATALOAD DUP2 MSTORE CALLER DUP7 DUP3 ADD MSTORE PUSH1 0x60 PUSH1 0x40 DUP3 ADD MSTORE DUP1 PUSH2 0x47B PUSH1 0x4 CALLDATALOAD SWAP6 PUSH1 0x60 DUP4 ADD SWAP1 PUSH2 0x13CE JUMP JUMPDEST SUB SWAP1 LOG3 PUSH1 0x40 MLOAD SWAP1 DUP2 MSTORE RETURN JUMPDEST PUSH2 0x491 PUSH1 0x24 CALLDATALOAD PUSH2 0x138B JUMP JUMPDEST PUSH1 0x24 CALLDATALOAD PUSH1 0x1 SUB PUSH2 0x4B1 JUMPI PUSH1 0x3 DUP2 ADD PUSH2 0x4A9 DUP2 SLOAD PUSH2 0x163D JUMP JUMPDEST SWAP1 SSTORE JUMPDEST PUSH2 0x422 JUMP JUMPDEST PUSH2 0x4BC PUSH1 0x24 CALLDATALOAD PUSH2 0x138B JUMP JUMPDEST PUSH1 0x24 CALLDATALOAD PUSH1 0x2 SUB PUSH2 0x4D4 JUMPI PUSH1 0x4 DUP2 ADD PUSH2 0x4A9 DUP2 SLOAD PUSH2 0x163D JUMP JUMPDEST PUSH2 0x4DF PUSH1 0x24 CALLDATALOAD PUSH2 0x138B JUMP JUMPDEST PUSH1 0x3 PUSH1 0x24 CALLDATALOAD SUB PUSH2 0x4AC JUMPI PUSH1 0x5 DUP2 ADD PUSH2 0x4A9 DUP2 SLOAD PUSH2 0x163D JUMP JUMPDEST PUSH4 0x4E487B71 PUSH1 0xE0 SHL PUSH1 0x0 MSTORE PUSH1 0x41 PUSH1 0x4 MSTORE PUSH1 0x24 PUSH1 0x0 REVERT JUMPDEST PUSH1 0x4 CALLDATALOAD DUP4 SSTORE PUSH2 0x3BF JUMP JUMPDEST ADD MLOAD SWAP1 POP DUP6 DUP1 PUSH2 0x359 JUMP JUMPDEST PUSH1 0x1F NOT DUP3 AND SWAP6 PUSH1 0x3 DUP5 ADD PUSH1 0x0 MSTORE PUSH1 0x20 PUSH1 0x0 KECCAK256 SWAP2 PUSH1 0x0 JUMPDEST DUP9 DUP2 LT PUSH2 0x576 JUMPI POP DUP4 PUSH1 0x1 SWAP6 SWAP7 SWAP8 SWAP9 LT PUSH2 0x55D JUMPI JUMPDEST POP POP POP DUP2 SHL ADD PUSH1 0x3 DUP3 ADD SSTORE PUSH2 0x371 JUMP JUMPDEST ADD MLOAD PUSH1 0x0 NOT PUSH1 0xF8 DUP5 PUSH1 0x3 SHL AND SHR NOT AND SWAP1 SSTORE DUP6 DUP1 DUP1 PUSH2 0x54D JUMP JUMPDEST SWAP2 SWAP3 PUSH1 0x20 PUSH1 0x1 DUP2 SWAP3 DUP7 DUP6 ADD MLOAD DUP2 SSTORE ADD SWAP5 ADD SWAP3 ADD PUSH2 0x538 JUMP JUMPDEST PUSH1 0x3 DUP4 ADD PUSH1 0x0 MSTORE PUSH1 0x20 PUSH1 0x0 KECCAK256 PUSH1 0x1F DUP4 ADD PUSH1 0x5 SHR DUP2 ADD PUSH1 0x20 DUP5 LT PUSH2 0x5CE JUMPI JUMPDEST PUSH1 0x1F DUP4 ADD PUSH1 0x5 SHR DUP3 ADD DUP2 LT PUSH2 0x5C2 JUMPI POP POP PUSH2 0x33C JUMP JUMPDEST PUSH1 0x0 DUP2 SSTORE PUSH1 0x1 ADD PUSH2 0x5AC JUMP JUMPDEST POP DUP1 PUSH2 0x5AC JUMP JUMPDEST SWAP1 POP DUP5 ADD MLOAD DUP7 PUSH2 0x2FE JUMP JUMPDEST SWAP2 POP PUSH1 0x2 DUP4 ADD PUSH1 0x0 MSTORE PUSH1 0x20 PUSH1 0x0 KECCAK256 PUSH1 0x0 SWAP3 JUMPDEST PUSH1 0x1F NOT DUP4 AND DUP5 LT PUSH2 0x635 JUMPI PUSH1 0x1 SWAP4 POP DUP3 PUSH1 0x1F NOT DUP2 AND LT PUSH2 0x61C JUMPI JUMPDEST POP POP DUP2 SHL ADD PUSH1 0x2 DUP3 ADD SSTORE PUSH2 0x315 JUMP JUMPDEST DUP7 ADD MLOAD PUSH1 0x0 NOT PUSH1 0xF8 DUP5 PUSH1 0x3 SHL AND SHR NOT AND SWAP1 SSTORE DUP7 DUP1 PUSH2 0x60D JUMP JUMPDEST DUP7 DUP2 ADD MLOAD DUP3 SSTORE PUSH1 0x20 SWAP4 DUP5 ADD SWAP4 PUSH1 0x1 SWAP1 SWAP3 ADD SWAP2 ADD PUSH2 0x5F2 JUMP JUMPDEST PUSH1 0x2 DUP4 ADD PUSH1 0x0 MSTORE PUSH1 0x20 PUSH1 0x0 KECCAK256 PUSH1 0x1F DUP4 ADD PUSH1 0x5 SHR DUP2 ADD PUSH1 0x20 DUP5 LT PUSH2 0x68D JUMPI JUMPDEST PUSH1 0x1F DUP4 ADD PUSH1 0x5 SHR DUP3 ADD DUP2 LT PUSH2 0x681 JUMPI POP POP PUSH2 0x2E7 JUMP JUMPDEST PUSH1 0x0 DUP2 SSTORE PUSH1 0x1 ADD PUSH2 0x66B JUMP JUMPDEST POP DUP1 PUSH2 0x66B JUMP JUMPDEST PUSH1 0x40 MLOAD PUSH3 0x461BCD PUSH1 0xE5 SHL DUP2 MSTORE PUSH1 0x20 PUSH1 0x4 DUP3 ADD MSTORE PUSH1 0x2E PUSH1 0x24 DUP3 ADD MSTORE PUSH32 0x436172626F6E206372656469747320657374696D617465206D75737420626520 PUSH1 0x44 DUP3 ADD MSTORE PUSH14 0x67726561746572207468616E203 PUSH1 0x94 SHL PUSH1 0x64 DUP3 ADD MSTORE PUSH1 0x84 SWAP1 REVERT JUMPDEST PUSH1 0x40 MLOAD PUSH3 0x461BCD PUSH1 0xE5 SHL DUP2 MSTORE PUSH1 0x20 PUSH1 0x4 DUP3 ADD MSTORE PUSH1 0x19 PUSH1 0x24 DUP3 ADD MSTORE PUSH32 0x4950465320686173682063616E6E6F7420626520656D70747900000000000000 PUSH1 0x44 DUP3 ADD MSTORE PUSH1 0x64 SWAP1 REVERT JUMPDEST PUSH1 0x40 MLOAD PUSH3 0x461BCD PUSH1 0xE5 SHL DUP2 MSTORE PUSH1 0x20 PUSH1 0x4 DUP3 ADD MSTORE PUSH1 0x12 PUSH1 0x24 DUP3 ADD MSTORE PUSH18 0x125B9D985B1A59081C1C9BDA9958DD081251 PUSH1 0x72 SHL PUSH1 0x44 DUP3 ADD MSTORE PUSH1 0x64 SWAP1 REVERT JUMPDEST CALLVALUE PUSH2 0x1E9 JUMPI PUSH1 0x20 CALLDATASIZE PUSH1 0x3 NOT ADD SLT PUSH2 0x1E9 JUMPI PUSH1 0x4 CALLDATALOAD PUSH1 0x1 PUSH1 0x1 PUSH1 0xA0 SHL SUB DUP2 AND SWAP1 DUP2 SWAP1 SUB PUSH2 0x1E9 JUMPI PUSH2 0x79D PUSH2 0x15E5 JUMP JUMPDEST PUSH1 0x0 SWAP1 DUP2 MSTORE PUSH1 0x6 PUSH1 0x20 MSTORE PUSH1 0x40 SWAP1 KECCAK256 DUP1 SLOAD PUSH1 0xFF NOT AND SWAP1 SSTORE STOP JUMPDEST CALLVALUE PUSH2 0x1E9 JUMPI PUSH1 0x20 CALLDATASIZE PUSH1 0x3 NOT ADD SLT PUSH2 0x1E9 JUMPI PUSH1 0x4 CALLDATALOAD PUSH1 0x0 MSTORE PUSH1 0x5 PUSH1 0x20 MSTORE PUSH2 0x7F8 PUSH2 0x7E4 PUSH1 0x1 PUSH1 0x40 PUSH1 0x0 KECCAK256 ADD PUSH2 0x1D72 JUMP JUMPDEST PUSH1 0x40 MLOAD SWAP2 DUP3 SWAP2 PUSH1 0x20 DUP4 MSTORE PUSH1 0x20 DUP4 ADD SWAP1 PUSH2 0x154E JUMP JUMPDEST SUB SWAP1 RETURN JUMPDEST CALLVALUE PUSH2 0x1E9 JUMPI PUSH1 0x20 CALLDATASIZE PUSH1 0x3 NOT ADD SLT PUSH2 0x1E9 JUMPI PUSH1 0x4 CALLDATALOAD PUSH1 0x1 PUSH1 0x1 PUSH1 0xA0 SHL SUB DUP2 AND SWAP1 DUP2 SWAP1 SUB PUSH2 0x1E9 JUMPI PUSH1 0x0 MSTORE PUSH1 0x6 PUSH1 0x20 MSTORE PUSH1 0x20 PUSH1 0xFF PUSH1 0x40 PUSH1 0x0 KECCAK256 SLOAD AND PUSH1 0x40 MLOAD SWAP1 ISZERO ISZERO DUP2 MSTORE RETURN JUMPDEST CALLVALUE PUSH2 0x1E9 JUMPI PUSH1 0x60 CALLDATASIZE PUSH1 0x3 NOT ADD SLT PUSH2 0x1E9 JUMPI PUSH1 0x4 CALLDATALOAD PUSH1 0x24 CALLDATALOAD PUSH1 0x4 DUP2 LT ISZERO PUSH2 0x1E9 JUMPI PUSH8 0xFFFFFFFFFFFFFFFF SWAP2 PUSH1 0x44 CALLDATALOAD DUP4 DUP2 GT PUSH2 0x1E9 JUMPI PUSH2 0x881 SWAP1 CALLDATASIZE SWAP1 PUSH1 0x4 ADD PUSH2 0x159E JUMP JUMPDEST SWAP2 CALLER PUSH1 0x0 MSTORE PUSH1 0x20 PUSH1 0x6 DUP2 MSTORE PUSH1 0xFF PUSH1 0x40 PUSH1 0x0 KECCAK256 SLOAD AND DUP1 ISZERO PUSH2 0xBB4 JUMPI JUMPDEST ISZERO PUSH2 0xB70 JUMPI DUP3 ISZERO ISZERO DUP1 PUSH2 0xB64 JUMPI JUMPDEST ISZERO PUSH2 0xB20 JUMPI DUP3 PUSH1 0x0 MSTORE PUSH1 0x4 DUP2 MSTORE PUSH1 0x40 PUSH1 0x0 KECCAK256 SWAP4 PUSH1 0x6 DUP6 ADD SWAP6 DUP7 SLOAD SWAP7 PUSH1 0xFF DUP9 AND SWAP8 PUSH2 0x8D3 DUP7 PUSH2 0x138B JUMP JUMPDEST PUSH1 0xFF NOT AND PUSH1 0xFF DUP7 AND OR SWAP1 SSTORE DUP2 MLOAD PUSH1 0x7 DUP8 ADD SWAP3 SWAP1 SWAP2 DUP3 GT PUSH2 0x4F7 JUMPI DUP2 SWAP1 PUSH2 0x8F9 DUP5 SLOAD PUSH2 0x1412 JUMP JUMPDEST PUSH1 0x1F DUP2 GT PUSH2 0xACF JUMPI JUMPDEST POP DUP5 SWAP1 PUSH1 0x1F DUP4 GT PUSH1 0x1 EQ PUSH2 0xA6A JUMPI PUSH1 0x0 SWAP3 PUSH2 0xA5F JUMPI JUMPDEST POP POP DUP2 PUSH1 0x1 SHL SWAP2 PUSH1 0x0 NOT SWAP1 PUSH1 0x3 SHL SHR NOT AND OR SWAP1 SSTORE JUMPDEST DUP4 SLOAD PUSH1 0x0 MSTORE PUSH1 0x5 DUP2 MSTORE PUSH1 0x40 PUSH1 0x0 KECCAK256 PUSH2 0x944 DUP7 PUSH2 0x138B JUMP JUMPDEST PUSH1 0x1 DUP7 EQ DUP1 ISZERO DUP1 PUSH2 0xA4C JUMPI JUMPDEST ISZERO PUSH2 0x9C1 JUMPI POP SWAP5 PUSH32 0x7BE320C0DB528632D8632EA4FE18B691F6C76E16439688E631E75C0C13EB62EF SWAP3 PUSH1 0x60 SWAP3 DUP8 PUSH1 0x6 PUSH2 0x9BF SWAP10 ADD PUSH2 0x98E DUP2 SLOAD PUSH2 0x163D JUMP JUMPDEST SWAP1 SSTORE JUMPDEST PUSH1 0x9 TIMESTAMP SWAP2 ADD SSTORE PUSH1 0x40 MLOAD SWAP3 PUSH2 0x9A4 DUP2 PUSH2 0x138B JUMP JUMPDEST DUP4 MSTORE PUSH2 0x9AF DUP3 PUSH2 0x138B JUMP JUMPDEST DUP3 ADD MSTORE CALLER PUSH1 0x40 DUP3 ADD MSTORE LOG2 SLOAD PUSH2 0x16A7 JUMP JUMPDEST STOP JUMPDEST PUSH2 0x9CA DUP8 PUSH2 0x138B JUMP JUMPDEST DUP1 PUSH2 0xA38 JUMPI JUMPDEST PUSH2 0xA04 JUMPI JUMPDEST SWAP5 PUSH32 0x7BE320C0DB528632D8632EA4FE18B691F6C76E16439688E631E75C0C13EB62EF SWAP3 PUSH1 0x60 SWAP3 PUSH2 0x9BF SWAP8 PUSH2 0x991 JUMP JUMPDEST SWAP5 PUSH1 0x6 DUP7 ADD SWAP3 DUP4 SLOAD SWAP3 DUP4 ISZERO PUSH2 0xA22 JUMPI PUSH1 0x0 NOT SWAP1 SWAP4 ADD SWAP1 SWAP4 SSTORE SWAP5 PUSH2 0x9D5 JUMP JUMPDEST PUSH4 0x4E487B71 PUSH1 0xE0 SHL PUSH1 0x0 MSTORE PUSH1 0x11 PUSH1 0x4 MSTORE PUSH1 0x24 PUSH1 0x0 REVERT JUMPDEST POP PUSH2 0xA42 DUP4 PUSH2 0x138B JUMP JUMPDEST PUSH1 0x1 DUP4 EQ ISZERO PUSH2 0x9D0 JUMP JUMPDEST POP PUSH2 0xA56 DUP5 PUSH2 0x138B JUMP JUMPDEST PUSH1 0x1 DUP5 EQ PUSH2 0x950 JUMP JUMPDEST ADD MLOAD SWAP1 POP DUP9 DUP1 PUSH2 0x918 JUMP JUMPDEST PUSH1 0x0 DUP6 DUP2 MSTORE DUP7 DUP2 KECCAK256 SWAP4 POP PUSH1 0x1F NOT DUP6 AND SWAP1 JUMPDEST DUP8 DUP3 DUP3 LT PUSH2 0xAB9 JUMPI POP POP SWAP1 DUP5 PUSH1 0x1 SWAP6 SWAP5 SWAP4 SWAP3 LT PUSH2 0xAA0 JUMPI JUMPDEST POP POP POP DUP2 SHL ADD SWAP1 SSTORE PUSH2 0x92D JUMP JUMPDEST ADD MLOAD PUSH1 0x0 NOT PUSH1 0xF8 DUP5 PUSH1 0x3 SHL AND SHR NOT AND SWAP1 SSTORE DUP9 DUP1 DUP1 PUSH2 0xA93 JUMP JUMPDEST PUSH1 0x1 DUP6 SWAP7 DUP3 SWAP4 SWAP7 DUP7 ADD MLOAD DUP2 SSTORE ADD SWAP6 ADD SWAP4 ADD PUSH2 0xA7B JUMP JUMPDEST SWAP1 SWAP2 POP DUP4 PUSH1 0x0 MSTORE DUP5 PUSH1 0x0 KECCAK256 PUSH1 0x1F DUP5 ADD PUSH1 0x5 SHR DUP2 ADD SWAP2 DUP7 DUP6 LT PUSH2 0xB16 JUMPI JUMPDEST SWAP1 PUSH1 0x1F DUP6 SWAP5 SWAP4 SWAP3 ADD PUSH1 0x5 SHR ADD SWAP1 JUMPDEST DUP2 DUP2 LT PUSH2 0xB07 JUMPI POP PUSH2 0x902 JUMP JUMPDEST PUSH1 0x0 DUP2 SSTORE DUP5 SWAP4 POP PUSH1 0x1 ADD PUSH2 0xAFA JUMP JUMPDEST SWAP1 SWAP2 POP DUP2 SWAP1 PUSH2 0xAEC JUMP JUMPDEST PUSH1 0x64 SWAP1 PUSH1 0x40 MLOAD SWAP1 PUSH3 0x461BCD PUSH1 0xE5 SHL DUP3 MSTORE PUSH1 0x4 DUP3 ADD MSTORE PUSH1 0x17 PUSH1 0x24 DUP3 ADD MSTORE PUSH32 0x496E76616C696420766572696669636174696F6E204944000000000000000000 PUSH1 0x44 DUP3 ADD MSTORE REVERT JUMPDEST POP PUSH1 0x9 SLOAD DUP4 GT ISZERO PUSH2 0x8AA JUMP JUMPDEST PUSH1 0x64 SWAP1 PUSH1 0x40 MLOAD SWAP1 PUSH3 0x461BCD PUSH1 0xE5 SHL DUP3 MSTORE PUSH1 0x4 DUP3 ADD MSTORE PUSH1 0x17 PUSH1 0x24 DUP3 ADD MSTORE PUSH32 0x4E6F7420617574686F72697A6564207665726966696572000000000000000000 PUSH1 0x44 DUP3 ADD MSTORE REVERT JUMPDEST POP PUSH1 0x0 SLOAD PUSH1 0x1 PUSH1 0x1 PUSH1 0xA0 SHL SUB AND CALLER EQ PUSH2 0x89C JUMP JUMPDEST CALLVALUE PUSH2 0x1E9 JUMPI PUSH1 0x20 CALLDATASIZE PUSH1 0x3 NOT ADD SLT PUSH2 0x1E9 JUMPI PUSH1 0x4 CALLDATALOAD PUSH1 0x1 PUSH1 0x1 PUSH1 0xA0 SHL SUB DUP2 AND SWAP1 DUP2 SWAP1 SUB PUSH2 0x1E9 JUMPI PUSH2 0xBF6 PUSH2 0x15E5 JUMP JUMPDEST DUP1 ISZERO PUSH2 0xC17 JUMPI PUSH1 0x0 SWAP1 DUP2 MSTORE PUSH1 0x6 PUSH1 0x20 MSTORE PUSH1 0x40 SWAP1 KECCAK256 DUP1 SLOAD PUSH1 0xFF NOT AND PUSH1 0x1 OR SWAP1 SSTORE STOP JUMPDEST PUSH1 0x40 MLOAD PUSH3 0x461BCD PUSH1 0xE5 SHL DUP2 MSTORE PUSH1 0x20 PUSH1 0x4 DUP3 ADD MSTORE PUSH1 0x18 PUSH1 0x24 DUP3 ADD MSTORE PUSH32 0x496E76616C696420766572696669657220616464726573730000000000000000 PUSH1 0x44 DUP3 ADD MSTORE PUSH1 0x64 SWAP1 REVERT JUMPDEST CALLVALUE PUSH2 0x1E9 JUMPI PUSH1 0x0 CALLDATASIZE PUSH1 0x3 NOT ADD SLT PUSH2 0x1E9 JUMPI PUSH1 0x0 SLOAD PUSH1 0x40 MLOAD PUSH1 0x1 PUSH1 0x1 PUSH1 0xA0 SHL SUB SWAP1 SWAP2 AND DUP2 MSTORE PUSH1 0x20 SWAP1 RETURN JUMPDEST CALLVALUE PUSH2 0x1E9 JUMPI PUSH1 0x20 CALLDATASIZE PUSH1 0x3 NOT ADD SLT PUSH2 0x1E9 JUMPI PUSH1 0x4 CALLDATALOAD PUSH1 0x4 DUP2 LT ISZERO PUSH2 0x1E9 JUMPI PUSH2 0xCAB DUP2 PUSH2 0x138B JUMP JUMPDEST PUSH1 0x0 MSTORE PUSH1 0x7 PUSH1 0x20 MSTORE PUSH1 0x20 PUSH1 0x40 PUSH1 0x0 KECCAK256 SLOAD PUSH1 0x40 MLOAD SWAP1 DUP2 MSTORE RETURN JUMPDEST CALLVALUE PUSH2 0x1E9 JUMPI PUSH1 0x20 SWAP1 DUP2 PUSH1 0x3 NOT CALLDATASIZE ADD SLT PUSH2 0x1E9 JUMPI PUSH1 0x40 MLOAD SWAP1 PUSH2 0xCE3 DUP3 PUSH2 0x1469 JUMP JUMPDEST PUSH1 0x0 DUP3 MSTORE PUSH1 0x60 DUP4 DUP4 ADD MSTORE PUSH1 0x0 PUSH1 0x40 DUP4 ADD MSTORE PUSH1 0x0 PUSH1 0x60 DUP4 ADD MSTORE PUSH1 0x0 PUSH1 0x80 DUP4 ADD MSTORE PUSH1 0x0 PUSH1 0xA0 DUP4 ADD MSTORE PUSH1 0x0 PUSH1 0xC0 DUP4 ADD MSTORE PUSH1 0x0 DUP2 DUP4 ADD MSTORE PUSH2 0x100 SWAP1 PUSH1 0x0 DUP3 DUP5 ADD MSTORE PUSH1 0x0 PUSH2 0x120 DUP1 SWAP5 ADD MSTORE PUSH1 0x4 CALLDATALOAD PUSH1 0x0 MSTORE PUSH1 0x5 DUP5 MSTORE PUSH1 0x40 PUSH1 0x0 KECCAK256 SWAP2 PUSH1 0x40 MLOAD SWAP4 PUSH2 0xD46 DUP6 PUSH2 0x1469 JUMP JUMPDEST DUP4 SLOAD DUP6 MSTORE DUP5 PUSH2 0xD57 PUSH1 0x1 DUP7 ADD PUSH2 0x1D72 JUMP JUMPDEST SWAP3 DUP8 DUP3 ADD SWAP4 DUP5 MSTORE PUSH1 0x2 DUP7 ADD SLOAD SWAP6 PUSH1 0x40 DUP4 ADD SWAP7 DUP8 MSTORE PUSH1 0x3 DUP2 ADD SLOAD SWAP6 PUSH1 0x60 DUP5 ADD SWAP7 DUP8 MSTORE PUSH1 0x4 DUP3 ADD SLOAD PUSH1 0x80 DUP6 ADD SWAP1 DUP2 MSTORE PUSH1 0x5 DUP4 ADD SLOAD PUSH1 0xA0 DUP7 ADD SWAP1 DUP2 MSTORE PUSH1 0x6 DUP5 ADD SLOAD SWAP2 PUSH1 0xC0 DUP8 ADD SWAP3 DUP4 MSTORE PUSH1 0x9 PUSH1 0xFF PUSH1 0x7 DUP8 ADD SLOAD AND SWAP6 DUP6 DUP10 ADD SWAP7 ISZERO ISZERO DUP8 MSTORE DUP8 PUSH1 0x8 DUP3 ADD SLOAD SWAP10 ADD SWAP9 DUP10 MSTORE ADD SLOAD SWAP9 DUP9 DUP14 ADD SWAP10 DUP11 MSTORE PUSH1 0x40 MLOAD DUP15 DUP2 SWAP16 SWAP15 DUP3 SWAP16 DUP4 MSTORE MLOAD SWAP2 ADD MSTORE MLOAD SWAP10 DUP13 PUSH1 0x60 PUSH2 0xDF0 PUSH2 0x140 SWAP14 DUP15 PUSH1 0x40 DUP6 ADD MSTORE PUSH2 0x160 DUP5 ADD SWAP1 PUSH2 0x154E JUMP JUMPDEST SWAP14 MLOAD SWAP2 ADD MSTORE MLOAD PUSH1 0x80 DUP14 ADD MSTORE MLOAD PUSH1 0xA0 DUP13 ADD MSTORE MLOAD PUSH1 0xC0 DUP12 ADD MSTORE MLOAD SWAP1 DUP10 ADD MSTORE MLOAD ISZERO ISZERO SWAP1 DUP8 ADD MSTORE MLOAD SWAP1 DUP6 ADD MSTORE MLOAD SWAP1 DUP4 ADD MSTORE SUB SWAP1 RETURN JUMPDEST CALLVALUE PUSH2 0x1E9 JUMPI PUSH1 0x0 CALLDATASIZE PUSH1 0x3 NOT ADD SLT PUSH2 0x1E9 JUMPI PUSH2 0xE3A PUSH2 0x15E5 JUMP JUMPDEST PUSH1 0x0 DUP1 SLOAD PUSH1 0x1 PUSH1 0x1 PUSH1 0xA0 SHL SUB NOT DUP2 AND DUP3 SSTORE PUSH1 0x1 PUSH1 0x1 PUSH1 0xA0 SHL SUB AND PUSH32 0x8BE0079C531659141344CD1FD0A4F28419497F9722A3DAAFE3B4186F6B6457E0 DUP3 DUP1 LOG3 STOP JUMPDEST CALLVALUE PUSH2 0x1E9 JUMPI PUSH1 0x20 CALLDATASIZE PUSH1 0x3 NOT ADD SLT PUSH2 0x1E9 JUMPI PUSH1 0x4 CALLDATALOAD PUSH1 0x0 MSTORE PUSH1 0x5 PUSH1 0x20 MSTORE PUSH1 0x20 PUSH1 0x40 PUSH1 0x0 KECCAK256 PUSH1 0x2 DUP2 ADD SLOAD PUSH1 0x0 DUP1 MSTORE PUSH1 0x7 DUP4 MSTORE PUSH1 0x40 PUSH1 0x0 KECCAK256 SLOAD GT ISZERO SWAP1 DUP2 PUSH2 0xF03 JUMPI JUMPDEST DUP2 PUSH2 0xEE9 JUMPI JUMPDEST DUP2 PUSH2 0xED0 JUMPI JUMPDEST POP PUSH1 0x40 MLOAD SWAP1 ISZERO ISZERO DUP2 MSTORE RETURN JUMPDEST PUSH1 0x5 SWAP2 POP ADD SLOAD PUSH1 0x3 PUSH1 0x0 MSTORE PUSH1 0x40 PUSH1 0x0 KECCAK256 SLOAD GT ISZERO DUP3 PUSH2 0xEC5 JUMP JUMPDEST SWAP1 POP PUSH1 0x4 DUP2 ADD SLOAD PUSH1 0x2 PUSH1 0x0 MSTORE PUSH1 0x40 PUSH1 0x0 KECCAK256 SLOAD GT ISZERO SWAP1 PUSH2 0xEBF JUMP JUMPDEST SWAP1 POP PUSH1 0x3 DUP2 ADD SLOAD PUSH1 0x1 PUSH1 0x0 MSTORE PUSH1 0x40 PUSH1 0x0 KECCAK256 SLOAD GT ISZERO SWAP1 PUSH2 0xEB9 JUMP JUMPDEST CALLVALUE PUSH2 0x1E9 JUMPI PUSH1 0x0 CALLDATASIZE PUSH1 0x3 NOT ADD SLT PUSH2 0x1E9 JUMPI PUSH1 0x3 SLOAD PUSH1 0x40 MLOAD PUSH1 0x1 PUSH1 0x1 PUSH1 0xA0 SHL SUB SWAP1 SWAP2 AND DUP2 MSTORE PUSH1 0x20 SWAP1 RETURN JUMPDEST CALLVALUE PUSH2 0x1E9 JUMPI PUSH1 0x0 CALLDATASIZE PUSH1 0x3 NOT ADD SLT PUSH2 0x1E9 JUMPI PUSH1 0x2 SLOAD PUSH1 0x40 MLOAD PUSH1 0x1 PUSH1 0x1 PUSH1 0xA0 SHL SUB SWAP1 SWAP2 AND DUP2 MSTORE PUSH1 0x20 SWAP1 RETURN JUMPDEST CALLVALUE PUSH2 0x1E9 JUMPI PUSH1 0x20 CALLDATASIZE PUSH1 0x3 NOT ADD SLT PUSH2 0x1E9 JUMPI PUSH2 0x120 SWAP1 PUSH1 0x4 CALLDATALOAD PUSH1 0x0 MSTORE PUSH1 0x5 PUSH1 0x20 MSTORE PUSH1 0x40 PUSH1 0x0 KECCAK256 SWAP1 DUP2 SLOAD SWAP2 PUSH1 0x2 DUP2 ADD SLOAD SWAP2 PUSH1 0x3 DUP3 ADD SLOAD PUSH1 0x4 DUP4 ADD SLOAD PUSH1 0x5 DUP5 ADD SLOAD PUSH1 0x6 DUP6 ADD SLOAD SWAP2 PUSH1 0xFF PUSH1 0x7 DUP8 ADD SLOAD AND SWAP4 PUSH1 0x9 PUSH1 0x8 DUP9 ADD SLOAD SWAP8 ADD SLOAD SWAP8 PUSH1 0x40 MLOAD SWAP10 DUP11 MSTORE PUSH1 0x20 DUP11 ADD MSTORE PUSH1 0x40 DUP10 ADD MSTORE PUSH1 0x60 DUP9 ADD MSTORE PUSH1 0x80 DUP8 ADD MSTORE PUSH1 0xA0 DUP7 ADD MSTORE ISZERO ISZERO PUSH1 0xC0 DUP6 ADD MSTORE DUP4 ADD MSTORE PUSH2 0x100 DUP3 ADD MSTORE RETURN JUMPDEST CALLVALUE PUSH2 0x1E9 JUMPI PUSH1 0x20 CALLDATASIZE PUSH1 0x3 NOT ADD SLT PUSH2 0x1E9 JUMPI PUSH1 0x4 CALLDATALOAD PUSH1 0x4 DUP2 LT ISZERO PUSH2 0x1E9 JUMPI PUSH2 0x101E DUP2 PUSH2 0x138B JUMP JUMPDEST PUSH1 0x0 MSTORE PUSH1 0x8 PUSH1 0x20 MSTORE PUSH1 0x20 PUSH1 0x40 PUSH1 0x0 KECCAK256 SLOAD PUSH1 0x40 MLOAD SWAP1 DUP2 MSTORE RETURN JUMPDEST CALLVALUE PUSH2 0x1E9 JUMPI PUSH1 0x0 CALLDATASIZE PUSH1 0x3 NOT ADD SLT PUSH2 0x1E9 JUMPI PUSH1 0x20 PUSH1 0x40 MLOAD PUSH2 0x1B58 DUP2 MSTORE RETURN JUMPDEST CALLVALUE PUSH2 0x1E9 JUMPI PUSH1 0x20 CALLDATASIZE PUSH1 0x3 NOT ADD SLT PUSH2 0x1E9 JUMPI PUSH1 0x4 CALLDATALOAD PUSH1 0x0 MSTORE PUSH1 0x4 PUSH1 0x20 MSTORE PUSH1 0x40 PUSH1 0x0 KECCAK256 DUP1 SLOAD SWAP1 PUSH2 0x112C PUSH1 0xFF PUSH1 0x1 DUP4 ADD SLOAD AND SWAP4 PUSH2 0x108F PUSH1 0x2 DUP5 ADD PUSH2 0x14A8 JUMP JUMPDEST SWAP3 PUSH2 0x109C PUSH1 0x3 DUP3 ADD PUSH2 0x14A8 JUMP JUMPDEST SWAP2 PUSH1 0x1 DUP1 PUSH1 0xA0 SHL SUB PUSH1 0x4 DUP4 ADD SLOAD AND SWAP3 PUSH1 0x5 DUP4 ADD SLOAD PUSH2 0x1107 PUSH1 0xFF PUSH1 0x6 DUP7 ADD SLOAD AND SWAP3 PUSH2 0x10F9 PUSH1 0x8 PUSH2 0x10CD PUSH1 0x7 DUP10 ADD PUSH2 0x14A8 JUMP JUMPDEST SWAP8 ADD SLOAD SWAP10 PUSH1 0x40 MLOAD SWAP13 DUP14 SWAP13 DUP14 MSTORE PUSH2 0x10E2 DUP2 PUSH2 0x138B JUMP JUMPDEST PUSH1 0x20 DUP14 ADD MSTORE PUSH2 0x120 PUSH1 0x40 DUP14 ADD DUP2 SWAP1 MSTORE DUP13 ADD SWAP1 PUSH2 0x13CE JUMP JUMPDEST SWAP1 DUP11 DUP3 SUB PUSH1 0x60 DUP13 ADD MSTORE PUSH2 0x13CE JUMP JUMPDEST SWAP5 PUSH1 0x80 DUP10 ADD MSTORE PUSH1 0xA0 DUP9 ADD MSTORE PUSH2 0x111B DUP2 PUSH2 0x138B JUMP JUMPDEST PUSH1 0xC0 DUP8 ADD MSTORE DUP6 DUP4 SUB SWAP1 DUP7 ADD MSTORE PUSH2 0x13CE JUMP JUMPDEST SWAP1 PUSH2 0x100 DUP4 ADD MSTORE SUB SWAP1 RETURN JUMPDEST CALLVALUE PUSH2 0x1E9 JUMPI PUSH2 0x1145 CALLDATASIZE PUSH2 0x13F3 JUMP JUMPDEST SWAP1 PUSH2 0x114E PUSH2 0x15E5 JUMP JUMPDEST PUSH2 0x2710 DUP3 GT PUSH2 0x1173 JUMPI PUSH2 0x1160 DUP2 PUSH2 0x138B JUMP JUMPDEST PUSH1 0x0 MSTORE PUSH1 0x8 PUSH1 0x20 MSTORE PUSH1 0x40 PUSH1 0x0 KECCAK256 SSTORE PUSH1 0x0 DUP1 RETURN JUMPDEST PUSH1 0x40 MLOAD PUSH3 0x461BCD PUSH1 0xE5 SHL DUP2 MSTORE PUSH1 0x20 PUSH1 0x4 DUP3 ADD MSTORE PUSH1 0x19 PUSH1 0x24 DUP3 ADD MSTORE PUSH32 0x5765696768742063616E6E6F7420657863656564203130302500000000000000 PUSH1 0x44 DUP3 ADD MSTORE PUSH1 0x64 SWAP1 REVERT JUMPDEST CALLVALUE PUSH2 0x1E9 JUMPI PUSH2 0x11C6 CALLDATASIZE PUSH2 0x13F3 JUMP JUMPDEST SWAP1 PUSH2 0x11CF PUSH2 0x15E5 JUMP JUMPDEST PUSH2 0x11D8 DUP2 PUSH2 0x138B JUMP JUMPDEST PUSH1 0x0 MSTORE PUSH1 0x7 PUSH1 0x20 MSTORE PUSH1 0x40 PUSH1 0x0 KECCAK256 SSTORE PUSH1 0x0 DUP1 RETURN JUMPDEST SWAP1 CALLVALUE PUSH2 0x1E9 JUMPI PUSH1 0x20 SWAP2 DUP3 PUSH1 0x3 NOT CALLDATASIZE ADD SLT PUSH2 0x1E9 JUMPI PUSH2 0x1208 DUP2 PUSH2 0x144C JUMP JUMPDEST PUSH1 0x0 DUP2 MSTORE DUP3 DUP2 ADD PUSH1 0x0 SWAP1 MSTORE PUSH1 0x60 DUP1 PUSH1 0x40 DUP4 ADD MSTORE DUP1 DUP1 DUP4 ADD MSTORE PUSH1 0x80 DUP3 ADD PUSH1 0x0 SWAP1 MSTORE PUSH1 0xA0 DUP3 ADD PUSH1 0x0 SWAP1 MSTORE PUSH1 0xC0 DUP3 ADD PUSH1 0x0 SWAP1 MSTORE DUP1 DUP4 DUP4 ADD MSTORE PUSH2 0x100 DUP1 SWAP3 ADD PUSH1 0x0 SWAP1 MSTORE PUSH1 0x4 CALLDATALOAD PUSH1 0x0 MSTORE PUSH1 0x4 DUP5 MSTORE PUSH1 0x40 PUSH1 0x0 KECCAK256 SWAP3 PUSH1 0x40 MLOAD SWAP4 PUSH2 0x1264 DUP6 PUSH2 0x144C JUMP JUMPDEST DUP1 SLOAD DUP6 MSTORE PUSH1 0x1 DUP2 ADD SLOAD PUSH1 0xFF AND SWAP4 DUP7 DUP7 ADD SWAP5 PUSH2 0x127E DUP2 PUSH2 0x138B JUMP JUMPDEST DUP6 MSTORE PUSH2 0x128C PUSH1 0x2 DUP4 ADD PUSH2 0x14A8 JUMP JUMPDEST PUSH1 0x40 DUP8 ADD SWAP1 DUP2 MSTORE SWAP2 PUSH2 0x12A0 PUSH1 0x3 DUP3 ADD PUSH2 0x14A8 JUMP JUMPDEST SWAP4 DUP6 DUP9 ADD SWAP5 DUP6 MSTORE PUSH1 0x1 PUSH1 0xA0 SHL PUSH1 0x1 SWAP1 SUB SWAP4 DUP5 PUSH1 0x4 DUP5 ADD SLOAD AND SWAP5 PUSH1 0x80 DUP11 ADD SWAP6 DUP7 MSTORE PUSH1 0x5 DUP5 ADD SLOAD SWAP1 PUSH1 0xA0 DUP12 ADD SWAP2 DUP3 MSTORE PUSH1 0x6 DUP6 ADD SLOAD PUSH1 0xFF AND SWAP3 PUSH1 0xC0 DUP13 ADD SWAP4 PUSH2 0x12E4 DUP2 PUSH2 0x138B JUMP JUMPDEST DUP5 MSTORE PUSH2 0x12F2 PUSH1 0x7 DUP8 ADD PUSH2 0x14A8 JUMP JUMPDEST SWAP6 DUP6 DUP14 ADD SWAP7 DUP8 MSTORE PUSH1 0x8 ADD SLOAD SWAP11 DUP8 DUP14 ADD SWAP12 DUP13 MSTORE PUSH1 0x40 MLOAD DUP15 DUP2 SWAP16 SWAP15 DUP3 SWAP16 DUP4 MSTORE MLOAD SWAP2 ADD MSTORE MLOAD PUSH2 0x131D DUP2 PUSH2 0x138B JUMP JUMPDEST PUSH1 0x40 DUP14 ADD MSTORE MLOAD PUSH2 0x120 DUP1 SWAP11 DUP14 ADD MSTORE PUSH2 0x140 DUP13 ADD PUSH2 0x1339 SWAP2 PUSH2 0x13CE JUMP JUMPDEST SWAP8 MLOAD PUSH1 0x1F NOT DUP13 DUP11 SUB DUP2 ADD PUSH1 0x80 DUP15 ADD MSTORE SWAP9 PUSH2 0x1352 SWAP2 PUSH2 0x13CE JUMP JUMPDEST SWAP7 MLOAD AND PUSH1 0xA0 DUP12 ADD MSTORE MLOAD PUSH1 0xC0 DUP11 ADD MSTORE MLOAD SWAP1 PUSH2 0x136B DUP3 PUSH2 0x138B JUMP JUMPDEST DUP9 ADD MSTORE MLOAD SWAP3 DUP7 DUP4 SUB ADD SWAP1 DUP7 ADD MSTORE PUSH2 0x1381 SWAP2 PUSH2 0x13CE JUMP JUMPDEST SWAP2 MLOAD SWAP1 DUP4 ADD MSTORE SUB SWAP1 RETURN JUMPDEST PUSH1 0x4 GT ISZERO PUSH2 0x1395 JUMPI JUMP JUMPDEST PUSH4 0x4E487B71 PUSH1 0xE0 SHL PUSH1 0x0 MSTORE PUSH1 0x21 PUSH1 0x4 MSTORE PUSH1 0x24 PUSH1 0x0 REVERT JUMPDEST PUSH1 0x0 JUMPDEST DUP4 DUP2 LT PUSH2 0x13BE JUMPI POP POP PUSH1 0x0 SWAP2 ADD MSTORE JUMP JUMPDEST DUP2 DUP2 ADD MLOAD DUP4 DUP3 ADD MSTORE PUSH1 0x20 ADD PUSH2 0x13AE JUMP JUMPDEST SWAP1 PUSH1 0x20 SWAP2 PUSH2 0x13E7 DUP2 MLOAD DUP1 SWAP3 DUP2 DUP6 MSTORE DUP6 DUP1 DUP7 ADD SWAP2 ADD PUSH2 0x13AB JUMP JUMPDEST PUSH1 0x1F ADD PUSH1 0x1F NOT AND ADD ADD SWAP1 JUMP JUMPDEST PUSH1 0x40 SWAP1 PUSH1 0x3 NOT ADD SLT PUSH2 0x1E9 JUMPI PUSH1 0x4 CALLDATALOAD PUSH1 0x4 DUP2 LT ISZERO PUSH2 0x1E9 JUMPI SWAP1 PUSH1 0x24 CALLDATALOAD SWAP1 JUMP JUMPDEST SWAP1 PUSH1 0x1 DUP3 DUP2 SHR SWAP3 AND DUP1 ISZERO PUSH2 0x1442 JUMPI JUMPDEST PUSH1 0x20 DUP4 LT EQ PUSH2 0x142C JUMPI JUMP JUMPDEST PUSH4 0x4E487B71 PUSH1 0xE0 SHL PUSH1 0x0 MSTORE PUSH1 0x22 PUSH1 0x4 MSTORE PUSH1 0x24 PUSH1 0x0 REVERT JUMPDEST SWAP2 PUSH1 0x7F AND SWAP2 PUSH2 0x1421 JUMP JUMPDEST PUSH2 0x120 DUP2 ADD SWAP1 DUP2 LT PUSH8 0xFFFFFFFFFFFFFFFF DUP3 GT OR PUSH2 0x4F7 JUMPI PUSH1 0x40 MSTORE JUMP JUMPDEST PUSH2 0x140 DUP2 ADD SWAP1 DUP2 LT PUSH8 0xFFFFFFFFFFFFFFFF DUP3 GT OR PUSH2 0x4F7 JUMPI PUSH1 0x40 MSTORE JUMP JUMPDEST SWAP1 PUSH1 0x1F DUP1 NOT SWAP2 ADD AND DUP2 ADD SWAP1 DUP2 LT PUSH8 0xFFFFFFFFFFFFFFFF DUP3 GT OR PUSH2 0x4F7 JUMPI PUSH1 0x40 MSTORE JUMP JUMPDEST SWAP1 PUSH1 0x40 MLOAD SWAP2 DUP3 PUSH1 0x0 DUP3 SLOAD SWAP3 PUSH2 0x14BC DUP5 PUSH2 0x1412 JUMP JUMPDEST SWAP1 DUP2 DUP5 MSTORE PUSH1 0x1 SWAP5 DUP6 DUP2 AND SWAP1 DUP2 PUSH1 0x0 EQ PUSH2 0x152B JUMPI POP PUSH1 0x1 EQ PUSH2 0x14E8 JUMPI JUMPDEST POP POP PUSH2 0x14E6 SWAP3 POP SUB DUP4 PUSH2 0x1486 JUMP JUMPDEST JUMP JUMPDEST SWAP1 SWAP4 SWAP2 POP PUSH1 0x0 MSTORE PUSH1 0x20 SWAP1 DUP2 PUSH1 0x0 KECCAK256 SWAP4 PUSH1 0x0 SWAP2 JUMPDEST DUP2 DUP4 LT PUSH2 0x1513 JUMPI POP POP PUSH2 0x14E6 SWAP4 POP DUP3 ADD ADD CODESIZE DUP1 PUSH2 0x14D8 JUMP JUMPDEST DUP6 SLOAD DUP9 DUP5 ADD DUP6 ADD MSTORE SWAP5 DUP6 ADD SWAP5 DUP8 SWAP5 POP SWAP2 DUP4 ADD SWAP2 PUSH2 0x14FB JUMP JUMPDEST SWAP2 POP POP PUSH2 0x14E6 SWAP5 POP PUSH1 0x20 SWAP3 POP PUSH1 0xFF NOT AND DUP3 DUP5 ADD MSTORE ISZERO ISZERO PUSH1 0x5 SHL DUP3 ADD ADD CODESIZE DUP1 PUSH2 0x14D8 JUMP JUMPDEST SWAP1 DUP2 MLOAD DUP1 DUP3 MSTORE PUSH1 0x20 DUP1 DUP1 SWAP4 ADD SWAP4 ADD SWAP2 PUSH1 0x0 JUMPDEST DUP3 DUP2 LT PUSH2 0x156E JUMPI POP POP POP POP SWAP1 JUMP JUMPDEST DUP4 MLOAD DUP6 MSTORE SWAP4 DUP2 ADD SWAP4 SWAP3 DUP2 ADD SWAP3 PUSH1 0x1 ADD PUSH2 0x1560 JUMP JUMPDEST PUSH8 0xFFFFFFFFFFFFFFFF DUP2 GT PUSH2 0x4F7 JUMPI PUSH1 0x1F ADD PUSH1 0x1F NOT AND PUSH1 0x20 ADD SWAP1 JUMP JUMPDEST DUP2 PUSH1 0x1F DUP3 ADD SLT ISZERO PUSH2 0x1E9 JUMPI DUP1 CALLDATALOAD SWAP1 PUSH2 0x15B5 DUP3 PUSH2 0x1582 JUMP JUMPDEST SWAP3 PUSH2 0x15C3 PUSH1 0x40 MLOAD SWAP5 DUP6 PUSH2 0x1486 JUMP JUMPDEST DUP3 DUP5 MSTORE PUSH1 0x20 DUP4 DUP4 ADD ADD GT PUSH2 0x1E9 JUMPI DUP2 PUSH1 0x0 SWAP3 PUSH1 0x20 DUP1 SWAP4 ADD DUP4 DUP7 ADD CALLDATACOPY DUP4 ADD ADD MSTORE SWAP1 JUMP JUMPDEST PUSH1 0x0 SLOAD PUSH1 0x1 PUSH1 0x1 PUSH1 0xA0 SHL SUB AND CALLER SUB PUSH2 0x15F9 JUMPI JUMP JUMPDEST PUSH1 0x64 PUSH1 0x40 MLOAD PUSH3 0x461BCD PUSH1 0xE5 SHL DUP2 MSTORE PUSH1 0x20 PUSH1 0x4 DUP3 ADD MSTORE PUSH1 0x20 PUSH1 0x24 DUP3 ADD MSTORE PUSH32 0x4F776E61626C653A2063616C6C6572206973206E6F7420746865206F776E6572 PUSH1 0x44 DUP3 ADD MSTORE REVERT JUMPDEST PUSH1 0x0 NOT DUP2 EQ PUSH2 0xA22 JUMPI PUSH1 0x1 ADD SWAP1 JUMP JUMPDEST DUP1 SLOAD DUP3 LT ISZERO PUSH2 0x1664 JUMPI PUSH1 0x0 MSTORE PUSH1 0x20 PUSH1 0x0 KECCAK256 ADD SWAP1 PUSH1 0x0 SWAP1 JUMP JUMPDEST PUSH4 0x4E487B71 PUSH1 0xE0 SHL PUSH1 0x0 MSTORE PUSH1 0x32 PUSH1 0x4 MSTORE PUSH1 0x24 PUSH1 0x0 REVERT JUMPDEST SWAP2 SWAP1 DUP3 ADD DUP1 SWAP3 GT PUSH2 0xA22 JUMPI JUMP JUMPDEST DUP2 ISZERO PUSH2 0x1691 JUMPI DIV SWAP1 JUMP JUMPDEST PUSH4 0x4E487B71 PUSH1 0xE0 SHL PUSH1 0x0 MSTORE PUSH1 0x12 PUSH1 0x4 MSTORE PUSH1 0x24 PUSH1 0x0 REVERT JUMPDEST SWAP1 PUSH1 0x0 SWAP2 DUP1 DUP4 MSTORE PUSH1 0x20 PUSH1 0x5 DUP2 MSTORE PUSH1 0x40 SWAP1 DUP2 DUP6 KECCAK256 PUSH1 0x2 DUP2 ADD SLOAD DUP7 DUP1 MSTORE PUSH1 0x7 DUP4 MSTORE DUP4 DUP8 KECCAK256 SLOAD GT ISZERO DUP1 PUSH2 0x1C95 JUMPI JUMPDEST DUP1 PUSH2 0x1C80 JUMPI JUMPDEST DUP1 PUSH2 0x1C6B JUMPI JUMPDEST ISZERO PUSH2 0x1C63 JUMPI PUSH1 0x1 DUP2 DUP2 ADD DUP1 SLOAD DUP9 SWAP2 DUP3 SWAP2 DUP7 SWAP2 DUP4 DUP7 DUP11 DUP3 JUMPDEST DUP6 DUP5 LT PUSH2 0x1BDD JUMPI POP POP POP POP POP POP POP PUSH2 0x2710 SWAP1 DUP2 DUP2 MUL SWAP2 DUP2 DUP4 DIV EQ SWAP1 ISZERO OR ISZERO PUSH2 0x1BC9 JUMPI PUSH2 0x1B58 SWAP2 PUSH2 0x1724 SWAP2 PUSH2 0x1687 JUMP JUMPDEST LT ISZERO DUP1 PUSH2 0x1BBA JUMPI JUMPDEST PUSH2 0x173A JUMPI JUMPDEST POP POP POP POP POP SWAP1 POP JUMP JUMPDEST PUSH1 0x7 DUP3 ADD DUP1 SLOAD PUSH1 0xFF NOT AND DUP3 OR SWAP1 SSTORE DUP5 DUP8 MSTORE PUSH1 0x5 DUP4 MSTORE DUP4 DUP8 KECCAK256 DUP2 ADD DUP1 SLOAD DUP9 SWAP3 DUP4 SWAP3 DUP4 JUMPDEST DUP4 DUP2 LT PUSH2 0x1B0A JUMPI POP PUSH1 0x8 SWAP7 SWAP6 SWAP5 SWAP4 SWAP3 POP POP DUP2 ISZERO SWAP1 POP PUSH2 0x1AFF JUMPI PUSH2 0x177E SWAP2 PUSH2 0x1687 JUMP JUMPDEST SWAP3 DUP4 SWAP2 JUMPDEST ADD SSTORE DUP4 PUSH32 0xDCC8B478113051DFBCF065995F26B420ABDC0F0228A339A6D66E0DCA4CDC1C49 DUP5 DUP1 MLOAD DUP6 DUP2 MSTORE TIMESTAMP DUP6 DUP3 ADD MSTORE LOG2 PUSH1 0x2 SLOAD PUSH1 0x1 PUSH1 0x1 PUSH1 0xA0 SHL SUB SWAP1 DUP8 SWAP1 DUP3 AND DUP1 EXTCODESIZE ISZERO PUSH2 0x1AFB JUMPI DUP2 SWAP1 PUSH1 0x44 DUP8 MLOAD DUP1 SWAP5 DUP2 SWAP4 PUSH4 0xD3DC322F PUSH1 0xE0 SHL DUP4 MSTORE DUP12 PUSH1 0x4 DUP5 ADD MSTORE DUP10 PUSH1 0x24 DUP5 ADD MSTORE GAS CALL DUP1 ISZERO PUSH2 0x1AC2 JUMPI PUSH2 0x1ACC JUMPI JUMPDEST POP PUSH1 0x24 DUP8 DUP3 PUSH1 0x2 SLOAD AND DUP7 MLOAD SWAP3 DUP4 DUP1 SWAP3 PUSH4 0x1E1E7E59 PUSH1 0xE3 SHL DUP3 MSTORE DUP11 PUSH1 0x4 DUP4 ADD MSTORE GAS STATICCALL SWAP1 DUP2 ISZERO PUSH2 0x1AC2 JUMPI DUP9 SWAP2 PUSH2 0x1926 JUMPI JUMPDEST POP DUP8 DUP4 PUSH1 0xC0 DUP5 PUSH1 0x3 SLOAD AND SWAP4 ADD SWAP3 PUSH2 0x124 DUP6 DUP6 MLOAD AND DUP10 MLOAD SWAP5 DUP6 SWAP4 DUP5 SWAP3 PUSH4 0x5E0448B PUSH1 0xE2 SHL DUP5 MSTORE DUP14 PUSH1 0x4 DUP6 ADD MSTORE DUP12 PUSH1 0x24 DUP6 ADD MSTORE TIMESTAMP PUSH1 0x44 DUP6 ADD MSTORE PUSH1 0xC0 PUSH1 0x64 DUP6 ADD MSTORE PUSH1 0x18 PUSH1 0xC4 DUP6 ADD MSTORE PUSH32 0x426C756520436172626F6E204D5256205374616E646172640000000000000000 PUSH1 0xE4 DUP6 ADD MSTORE PUSH2 0x100 PUSH1 0x84 DUP6 ADD MSTORE DUP3 PUSH2 0x104 DUP6 ADD MSTORE PUSH1 0xA4 DUP5 ADD MSTORE GAS CALL DUP1 ISZERO PUSH2 0x191C JUMPI PUSH2 0x18EE JUMPI JUMPDEST POP PUSH32 0xD50DC6F94AFD64C65475C1B8BAE4DAD09DCEB9655B0A0D0331A022DA575959A8 SWAP6 SWAP7 SWAP8 POP MLOAD AND SWAP1 DUP4 MLOAD SWAP3 DUP4 MSTORE DUP3 ADD MSTORE LOG2 DUP1 CODESIZE DUP1 DUP1 DUP1 DUP1 PUSH2 0x1731 JUMP JUMPDEST DUP4 SWAP1 DUP2 RETURNDATASIZE DUP4 GT PUSH2 0x1915 JUMPI JUMPDEST PUSH2 0x1903 DUP2 DUP4 PUSH2 0x1486 JUMP JUMPDEST DUP2 ADD SUB SLT PUSH2 0x1911 JUMPI DUP8 PUSH2 0x18B1 JUMP JUMPDEST DUP8 DUP1 REVERT JUMPDEST POP RETURNDATASIZE PUSH2 0x18F9 JUMP JUMPDEST DUP7 MLOAD RETURNDATASIZE DUP12 DUP3 RETURNDATACOPY RETURNDATASIZE SWAP1 REVERT JUMPDEST SWAP1 POP RETURNDATASIZE DUP1 DUP10 DUP4 RETURNDATACOPY PUSH2 0x1937 DUP2 DUP4 PUSH2 0x1486 JUMP JUMPDEST DUP2 ADD DUP4 DUP3 DUP3 SUB SLT PUSH2 0x1ABE JUMPI DUP2 MLOAD PUSH8 0xFFFFFFFFFFFFFFFF SWAP3 DUP4 DUP3 GT PUSH2 0x1ABA JUMPI ADD SWAP1 PUSH2 0x200 SWAP3 DUP4 DUP4 DUP4 SUB SLT PUSH2 0x1ABA JUMPI DUP8 MLOAD SWAP4 DUP5 ADD DUP5 DUP2 LT DUP3 DUP3 GT OR PUSH2 0x4F7 JUMPI DUP9 MSTORE DUP3 MLOAD DUP5 MSTORE DUP6 DUP4 ADD MLOAD DUP2 DUP2 GT PUSH2 0x1AB2 JUMPI DUP3 PUSH2 0x1991 SWAP2 DUP6 ADD PUSH2 0x1CAA JUMP JUMPDEST DUP7 DUP6 ADD MSTORE DUP8 DUP4 ADD MLOAD DUP2 DUP2 GT PUSH2 0x1AB2 JUMPI DUP3 PUSH2 0x19AC SWAP2 DUP6 ADD PUSH2 0x1CAA JUMP JUMPDEST DUP9 DUP6 ADD MSTORE PUSH1 0x60 DUP4 ADD MLOAD PUSH1 0x3 DUP2 LT ISZERO PUSH2 0x1AB2 JUMPI PUSH1 0x60 DUP6 ADD MSTORE PUSH1 0x80 DUP4 ADD MLOAD DUP2 DUP2 GT PUSH2 0x1AB2 JUMPI DUP3 PUSH2 0x19DB SWAP2 DUP6 ADD PUSH2 0x1CAA JUMP JUMPDEST PUSH1 0x80 DUP6 ADD MSTORE PUSH1 0xA0 DUP4 ADD MLOAD PUSH1 0xA0 DUP6 ADD MSTORE PUSH2 0x19F6 PUSH1 0xC0 DUP5 ADD PUSH2 0x1CEF JUMP JUMPDEST PUSH1 0xC0 DUP6 ADD MSTORE PUSH1 0xE0 DUP4 ADD MLOAD DUP2 DUP2 GT PUSH2 0x1AB2 JUMPI DUP3 PUSH2 0x1A13 SWAP2 DUP6 ADD PUSH2 0x1D03 JUMP JUMPDEST PUSH1 0xE0 DUP6 ADD MSTORE PUSH2 0x100 DUP1 DUP5 ADD MLOAD DUP3 DUP2 GT PUSH2 0x1AB6 JUMPI DUP4 PUSH2 0x1A32 SWAP2 DUP7 ADD PUSH2 0x1D03 JUMP JUMPDEST SWAP1 DUP6 ADD MSTORE PUSH2 0x120 DUP1 DUP5 ADD MLOAD SWAP1 PUSH1 0x5 DUP3 LT ISZERO PUSH2 0x1AB6 JUMPI DUP6 ADD MSTORE PUSH2 0x140 DUP1 DUP5 ADD MLOAD SWAP1 DUP6 ADD MSTORE PUSH2 0x160 DUP1 DUP5 ADD MLOAD SWAP1 DUP6 ADD MSTORE PUSH2 0x180 SWAP2 DUP3 DUP5 ADD MLOAD SWAP2 DUP3 GT PUSH2 0x1AB2 JUMPI PUSH2 0x1A7A SWAP2 DUP5 ADD PUSH2 0x1CAA JUMP JUMPDEST SWAP1 DUP4 ADD MSTORE PUSH2 0x1A0 DUP1 DUP3 ADD MLOAD SWAP1 DUP4 ADD MSTORE PUSH2 0x1C0 DUP1 DUP3 ADD MLOAD SWAP1 DUP4 ADD MSTORE PUSH2 0x1E0 DUP1 SWAP2 ADD MLOAD SWAP1 DUP2 ISZERO ISZERO DUP3 SUB PUSH2 0x1AAE JUMPI DUP3 ADD MSTORE CODESIZE PUSH2 0x1825 JUMP JUMPDEST DUP10 DUP1 REVERT JUMPDEST DUP12 DUP1 REVERT JUMPDEST DUP13 DUP1 REVERT JUMPDEST DUP11 DUP1 REVERT JUMPDEST DUP9 DUP1 REVERT JUMPDEST DUP6 MLOAD RETURNDATASIZE DUP11 DUP3 RETURNDATACOPY RETURNDATASIZE SWAP1 REVERT JUMPDEST PUSH8 0xFFFFFFFFFFFFFFFF DUP2 SWAP9 SWAP3 SWAP9 GT PUSH2 0x1AE7 JUMPI DUP5 MSTORE SWAP6 CODESIZE PUSH2 0x17F6 JUMP JUMPDEST PUSH4 0x4E487B71 PUSH1 0xE0 SHL DUP3 MSTORE PUSH1 0x41 PUSH1 0x4 MSTORE PUSH1 0x24 DUP3 REVERT JUMPDEST POP DUP1 REVERT JUMPDEST POP POP DUP7 SWAP3 DUP4 SWAP2 PUSH2 0x1782 JUMP JUMPDEST PUSH2 0x1B14 DUP2 DUP4 PUSH2 0x164C JUMP JUMPDEST SWAP1 SLOAD SWAP1 PUSH1 0x3 SHL SHR DUP13 MSTORE PUSH1 0x4 DUP1 DUP10 MSTORE DUP10 DUP14 KECCAK256 SWAP1 DUP14 PUSH1 0xFF DUP7 DUP2 PUSH1 0x6 DUP7 ADD SLOAD AND PUSH2 0x1B3A DUP2 PUSH2 0x138B JUMP JUMPDEST EQ PUSH2 0x1B52 JUMPI JUMPDEST POP POP POP POP PUSH2 0x1B4D SWAP1 PUSH2 0x163D JUMP JUMPDEST PUSH2 0x175C JUMP JUMPDEST DUP7 DUP5 SWAP6 SWAP10 SWAP11 SWAP4 SWAP5 ADD SLOAD AND SWAP1 PUSH2 0x1B66 DUP3 PUSH2 0x138B JUMP JUMPDEST MSTORE PUSH1 0x8 DUP1 DUP12 MSTORE DUP12 DUP16 KECCAK256 SLOAD SWAP4 ADD SLOAD DUP1 DUP5 MUL SWAP3 SWAP1 DUP1 ISZERO SWAP1 DUP5 DIV DUP6 EQ OR ISZERO PUSH2 0x1BA7 JUMPI POP SWAP2 PUSH2 0x1B97 PUSH2 0x1B9D SWAP3 PUSH2 0x1B4D SWAP5 PUSH2 0x167A JUMP JUMPDEST SWAP8 PUSH2 0x167A JUMP JUMPDEST SWAP5 SWAP1 CODESIZE DUP14 DUP2 PUSH2 0x1B40 JUMP JUMPDEST PUSH4 0x4E487B71 PUSH1 0xE0 SHL DUP16 MSTORE PUSH1 0x11 SWAP1 MSTORE PUSH1 0x24 DUP15 REVERT JUMPDEST POP PUSH1 0xFF PUSH1 0x7 DUP4 ADD SLOAD AND ISZERO PUSH2 0x172C JUMP JUMPDEST PUSH4 0x4E487B71 PUSH1 0xE0 SHL DUP10 MSTORE PUSH1 0x11 PUSH1 0x4 MSTORE PUSH1 0x24 DUP10 REVERT JUMPDEST PUSH2 0x1C25 DUP4 SWAP3 PUSH1 0x6 SWAP3 PUSH2 0x1BF4 DUP8 DUP10 SWAP11 SWAP12 SWAP14 SWAP9 SWAP10 PUSH2 0x164C JUMP JUMPDEST SWAP1 SLOAD SWAP1 PUSH1 0x3 SHL SHR DUP2 MSTORE PUSH1 0x4 DUP13 MSTORE PUSH1 0x8 DUP3 DUP3 KECCAK256 SWAP13 DUP14 PUSH1 0xFF SWAP8 DUP9 SWAP2 ADD SLOAD AND PUSH2 0x1C19 DUP2 PUSH2 0x138B JUMP JUMPDEST DUP4 MSTORE MSTORE KECCAK256 SLOAD DUP1 SWAP6 PUSH2 0x167A JUMP JUMPDEST SWAP9 ADD SLOAD AND PUSH2 0x1C32 DUP2 PUSH2 0x138B JUMP JUMPDEST EQ PUSH2 0x1C4E JUMPI JUMPDEST POP PUSH2 0x1C42 SWAP1 PUSH2 0x163D JUMP JUMPDEST SWAP1 DUP8 SWAP3 SWAP2 DUP7 DUP11 DUP15 PUSH2 0x16F5 JUMP JUMPDEST PUSH2 0x1C5C SWAP1 PUSH2 0x1C42 SWAP3 SWAP6 PUSH2 0x167A JUMP JUMPDEST SWAP4 SWAP1 PUSH2 0x1C38 JUMP JUMPDEST POP POP POP POP SWAP1 POP JUMP JUMPDEST POP PUSH1 0x5 DUP2 ADD SLOAD PUSH1 0x3 DUP8 MSTORE DUP4 DUP8 KECCAK256 SLOAD GT ISZERO PUSH2 0x16DE JUMP JUMPDEST POP PUSH1 0x4 DUP2 ADD SLOAD PUSH1 0x2 DUP8 MSTORE DUP4 DUP8 KECCAK256 SLOAD GT ISZERO PUSH2 0x16D8 JUMP JUMPDEST POP PUSH1 0x3 DUP2 ADD SLOAD PUSH1 0x1 DUP8 MSTORE DUP4 DUP8 KECCAK256 SLOAD GT ISZERO PUSH2 0x16D2 JUMP JUMPDEST DUP2 PUSH1 0x1F DUP3 ADD SLT ISZERO PUSH2 0x1E9 JUMPI DUP1 MLOAD PUSH2 0x1CC0 DUP2 PUSH2 0x1582 JUMP JUMPDEST SWAP3 PUSH2 0x1CCE PUSH1 0x40 MLOAD SWAP5 DUP6 PUSH2 0x1486 JUMP JUMPDEST DUP2 DUP5 MSTORE PUSH1 0x20 DUP3 DUP5 ADD ADD GT PUSH2 0x1E9 JUMPI PUSH2 0x1CEC SWAP2 PUSH1 0x20 DUP1 DUP6 ADD SWAP2 ADD PUSH2 0x13AB JUMP JUMPDEST SWAP1 JUMP JUMPDEST MLOAD SWAP1 PUSH1 0x1 PUSH1 0x1 PUSH1 0xA0 SHL SUB DUP3 AND DUP3 SUB PUSH2 0x1E9 JUMPI JUMP JUMPDEST SWAP1 DUP1 PUSH1 0x1F DUP4 ADD SLT ISZERO PUSH2 0x1E9 JUMPI DUP2 MLOAD SWAP1 PUSH8 0xFFFFFFFFFFFFFFFF DUP3 GT PUSH2 0x4F7 JUMPI DUP2 PUSH1 0x5 SHL PUSH1 0x40 MLOAD SWAP4 PUSH1 0x20 SWAP4 PUSH2 0x1D38 DUP6 DUP5 ADD DUP8 PUSH2 0x1486 JUMP JUMPDEST DUP6 MSTORE DUP4 DUP1 DUP7 ADD SWAP3 DUP3 ADD ADD SWAP3 DUP4 GT PUSH2 0x1E9 JUMPI DUP4 ADD SWAP1 JUMPDEST DUP3 DUP3 LT PUSH2 0x1D5B JUMPI POP POP POP POP SWAP1 JUMP JUMPDEST DUP4 DUP1 SWAP2 PUSH2 0x1D67 DUP5 PUSH2 0x1CEF JUMP JUMPDEST DUP2 MSTORE ADD SWAP2 ADD SWAP1 PUSH2 0x1D4D JUMP JUMPDEST SWAP1 PUSH1 0x40 MLOAD SWAP2 DUP3 DUP2 SLOAD SWAP2 DUP3 DUP3 MSTORE PUSH1 0x20 SWAP3 DUP4 DUP4 ADD SWAP2 PUSH1 0x0 MSTORE DUP4 PUSH1 0x0 KECCAK256 SWAP4 PUSH1 0x0 SWAP1 JUMPDEST DUP3 DUP3 LT PUSH2 0x1DA7 JUMPI POP POP POP PUSH2 0x14E6 SWAP3 POP SUB DUP4 PUSH2 0x1486 JUMP JUMPDEST DUP6 SLOAD DUP5 MSTORE PUSH1 0x1 SWAP6 DUP7 ADD SWAP6 DUP9 SWAP6 POP SWAP4 DUP2 ADD SWAP4 SWAP1 SWAP2 ADD SWAP1 PUSH2 0x1D91 JUMP INVALID LOG2 PUSH5 0x6970667358 0x22 SLT KECCAK256 0xAB PUSH31 0x14B6469D09CC3186A2BB78712EE7EE6BD35D116B2ABF0E8B862C5A68AFA564 PUSH20 0x6F6C634300081300330000000000000000000000 "},"methodIdentifiers":{"VERIFICATION_THRESHOLD()":"3f53b43f","addVerifier(address)":"9000b3d6","authorizedVerifiers(address)":"9a891716","carbonCreditToken()":"66dea358","checkVerificationRequirements(uint256)":"6a034ec5","getProjectVerification(uint256)":"7c47ac44","getProjectVerificationIds(uint256)":"a1e08143","getTotalVerifications()":"f2df9017","getVerificationData(uint256)":"0343b1e7","isAuthorizedVerifier(address)":"6cacbf30","minimumDataRequirements(uint8)":"8b71b8d0","owner()":"8da5cb5b","projectRegistry()":"5a33d8dc","projectVerifications(uint256)":"4cc1ec4c","removeVerifier(address)":"ca2dfd0a","renounceOwnership()":"715018a6","submitVerificationData(uint256,uint8,string,string,uint256)":"cd538b1a","transferOwnership(address)":"f2fde38b","updateMinimumDataRequirements(uint8,uint256)":"172800a5","updateVerificationStatus(uint256,uint8,string)":"918a1bf5","updateVerificationWeights(uint8,uint256)":"18e14fba","verificationData(uint256)":"281fa8f3","verificationWeights(uint8)":"44c21fb3"}}}}}