{"contracts/GeoDataRegistry.sol":{"GeoDataRegistry":{"abi":[{"inputs":[],"stateMutability":"nonpayable","type":"constructor"},{"anonymous":false,"inputs":[{"indexed":true,"internalType":"uint256","name":"submissionId","type":"uint256"},{"indexed":true,"internalType":"address","name":"submitter","type":"address"},{"indexed":false,"internalType":"string","name":"projectId","type":"string"},{"indexed":false,"internalType":"int256","name":"latitude","type":"int256"},{"indexed":false,"internalType":"int256","name":"longitude","type":"int256"},{"indexed":false,"internalType":"uint256","name":"imageCount","type":"uint256"}],"name":"DataSubmitted","type":"event"},{"anonymous":false,"inputs":[{"indexed":true,"internalType":"uint256","name":"submissionId","type":"uint256"},{"indexed":true,"internalType":"address","name":"verifier","type":"address"},{"indexed":false,"internalType":"bool","name":"approved","type":"bool"},{"indexed":false,"internalType":"uint256","name":"carbonCreditsAwarded","type":"uint256"}],"name":"DataVerified","type":"event"},{"anonymous":false,"inputs":[{"indexed":true,"internalType":"uint256","name":"submissionId","type":"uint256"},{"indexed":false,"internalType":"int256","name":"newLatitude","type":"int256"},{"indexed":false,"internalType":"int256","name":"newLongitude","type":"int256"}],"name":"LocationDataUpdated","type":"event"},{"anonymous":false,"inputs":[{"indexed":true,"internalType":"bytes32","name":"role","type":"bytes32"},{"indexed":true,"internalType":"bytes32","name":"previousAdminRole","type":"bytes32"},{"indexed":true,"internalType":"bytes32","name":"newAdminRole","type":"bytes32"}],"name":"RoleAdminChanged","type":"event"},{"anonymous":false,"inputs":[{"indexed":true,"internalType":"bytes32","name":"role","type":"bytes32"},{"indexed":true,"internalType":"address","name":"account","type":"address"},{"indexed":true,"internalType":"address","name":"sender","type":"address"}],"name":"RoleGranted","type":"event"},{"anonymous":false,"inputs":[{"indexed":true,"internalType":"bytes32","name":"role","type":"bytes32"},{"indexed":true,"internalType":"address","name":"account","type":"address"},{"indexed":true,"internalType":"address","name":"sender","type":"address"}],"name":"RoleRevoked","type":"event"},{"inputs":[],"name":"DATA_SUBMITTER_ROLE","outputs":[{"internalType":"bytes32","name":"","type":"bytes32"}],"stateMutability":"view","type":"function"},{"inputs":[],"name":"DEFAULT_ADMIN_ROLE","outputs":[{"internalType":"bytes32","name":"","type":"bytes32"}],"stateMutability":"view","type":"function"},{"inputs":[],"name":"VERIFIER_ROLE","outputs":[{"internalType":"bytes32","name":"","type":"bytes32"}],"stateMutability":"view","type":"function"},{"inputs":[{"internalType":"bytes32","name":"role","type":"bytes32"}],"name":"getRoleAdmin","outputs":[{"internalType":"bytes32","name":"","type":"bytes32"}],"stateMutability":"view","type":"function"},{"inputs":[],"name":"getStatistics","outputs":[{"internalType":"uint256","name":"totalSubmissions","type":"uint256"},{"internalType":"uint256","name":"verifiedSubmissions","type":"uint256"},{"internalType":"uint256","name":"totalCarbonCredits","type":"uint256"},{"internalType":"uint256","name":"uniqueSubmitters","type":"uint256"}],"stateMutability":"view","type":"function"},{"inputs":[{"internalType":"uint256","name":"submissionId","type":"uint256"}],"name":"getSubmission","outputs":[{"internalType":"uint256","name":"id","type":"uint256"},{"internalType":"address","name":"submitter","type":"address"},{"internalType":"string","name":"projectId","type":"string"},{"internalType":"string","name":"projectType","type":"string"},{"components":[{"internalType":"int256","name":"latitude","type":"int256"},{"internalType":"int256","name":"longitude","type":"int256"},{"internalType":"int256","name":"altitude","type":"int256"},{"internalType":"uint256","name":"accuracy","type":"uint256"},{"internalType":"uint256","name":"timestamp","type":"uint256"}],"internalType":"struct GeoDataRegistry.GPSCoordinates","name":"location","type":"tuple"},{"internalType":"string","name":"description","type":"string"},{"internalType":"uint256","name":"submissionTime","type":"uint256"},{"internalType":"bool","name":"isVerified","type":"bool"},{"internalType":"uint256","name":"carbonCreditsAwarded","type":"uint256"}],"stateMutability":"view","type":"function"},{"inputs":[{"internalType":"uint256","name":"submissionId","type":"uint256"}],"name":"getSubmissionImages","outputs":[{"components":[{"internalType":"string","name":"ipfsHash","type":"string"},{"internalType":"string","name":"filename","type":"string"},{"internalType":"uint256","name":"fileSize","type":"uint256"},{"internalType":"uint256","name":"captureTime","type":"uint256"},{"internalType":"string","name":"imageType","type":"string"},{"internalType":"uint256","name":"width","type":"uint256"},{"internalType":"uint256","name":"height","type":"uint256"}],"internalType":"struct GeoDataRegistry.ImageMetadata[]","name":"","type":"tuple[]"}],"stateMutability":"view","type":"function"},{"inputs":[{"internalType":"string","name":"projectId","type":"string"}],"name":"getSubmissionsByProject","outputs":[{"internalType":"uint256[]","name":"","type":"uint256[]"}],"stateMutability":"view","type":"function"},{"inputs":[{"internalType":"address","name":"user","type":"address"}],"name":"getSubmissionsByUser","outputs":[{"internalType":"uint256[]","name":"","type":"uint256[]"}],"stateMutability":"view","type":"function"},{"inputs":[{"internalType":"int256","name":"minLatitude","type":"int256"},{"internalType":"int256","name":"maxLatitude","type":"int256"},{"internalType":"int256","name":"minLongitude","type":"int256"},{"internalType":"int256","name":"maxLongitude","type":"int256"}],"name":"getSubmissionsInArea","outputs":[{"internalType":"uint256[]","name":"","type":"uint256[]"}],"stateMutability":"view","type":"function"},{"inputs":[],"name":"getTotalSubmissions","outputs":[{"internalType":"uint256","name":"","type":"uint256"}],"stateMutability":"view","type":"function"},{"inputs":[{"internalType":"bytes32","name":"role","type":"bytes32"},{"internalType":"address","name":"account","type":"address"}],"name":"grantRole","outputs":[],"stateMutability":"nonpayable","type":"function"},{"inputs":[{"internalType":"address","name":"user","type":"address"}],"name":"grantSubmitterRole","outputs":[],"stateMutability":"nonpayable","type":"function"},{"inputs":[{"internalType":"address","name":"user","type":"address"}],"name":"grantVerifierRole","outputs":[],"stateMutability":"nonpayable","type":"function"},{"inputs":[{"internalType":"bytes32","name":"role","type":"bytes32"},{"internalType":"address","name":"account","type":"address"}],"name":"hasRole","outputs":[{"internalType":"bool","name":"","type":"bool"}],"stateMutability":"view","type":"function"},{"inputs":[{"internalType":"bytes32","name":"role","type":"bytes32"},{"internalType":"address","name":"account","type":"address"}],"name":"renounceRole","outputs":[],"stateMutability":"nonpayable","type":"function"},{"inputs":[{"internalType":"bytes32","name":"role","type":"bytes32"},{"internalType":"address","name":"account","type":"address"}],"name":"revokeRole","outputs":[],"stateMutability":"nonpayable","type":"function"},{"inputs":[{"internalType":"uint256","name":"","type":"uint256"}],"name":"submissions","outputs":[{"internalType":"uint256","name":"id","type":"uint256"},{"internalType":"address","name":"submitter","type":"address"},{"internalType":"string","name":"projectId","type":"string"},{"internalType":"string","name":"projectType","type":"string"},{"components":[{"internalType":"int256","name":"latitude","type":"int256"},{"internalType":"int256","name":"longitude","type":"int256"},{"internalType":"int256","name":"altitude","type":"int256"},{"internalType":"uint256","name":"accuracy","type":"uint256"},{"internalType":"uint256","name":"timestamp","type":"uint256"}],"internalType":"struct GeoDataRegistry.GPSCoordinates","name":"location","type":"tuple"},{"internalType":"string","name":"description","type":"string"},{"internalType":"uint256","name":"submissionTime","type":"uint256"},{"internalType":"bool","name":"isVerified","type":"bool"},{"internalType":"address","name":"verifiedBy","type":"address"},{"internalType":"uint256","name":"verificationTime","type":"uint256"},{"internalType":"string","name":"verificationNotes","type":"string"},{"internalType":"uint256","name":"carbonCreditsAwarded","type":"uint256"}],"stateMutability":"view","type":"function"},{"inputs":[{"internalType":"bytes32","name":"","type":"bytes32"}],"name":"submissionsByLocation","outputs":[{"internalType":"uint256","name":"","type":"uint256"}],"stateMutability":"view","type":"function"},{"inputs":[{"internalType":"string","name":"","type":"string"},{"internalType":"uint256","name":"","type":"uint256"}],"name":"submissionsByProject","outputs":[{"internalType":"uint256","name":"","type":"uint256"}],"stateMutability":"view","type":"function"},{"inputs":[{"internalType":"address","name":"","type":"address"},{"internalType":"uint256","name":"","type":"uint256"}],"name":"submissionsByUser","outputs":[{"internalType":"uint256","name":"","type":"uint256"}],"stateMutability":"view","type":"function"},{"inputs":[{"internalType":"string","name":"projectId","type":"string"},{"internalType":"string","name":"projectType","type":"string"},{"internalType":"int256","name":"latitude","type":"int256"},{"internalType":"int256","name":"longitude","type":"int256"},{"internalType":"int256","name":"altitude","type":"int256"},{"internalType":"uint256","name":"accuracy","type":"uint256"},{"internalType":"string","name":"description","type":"string"},{"internalType":"string[]","name":"imageHashes","type":"string[]"},{"internalType":"uint256[]","name":"imageSizes","type":"uint256[]"},{"internalType":"string[]","name":"imageFilenames","type":"string[]"}],"name":"submitGeoData","outputs":[{"internalType":"uint256","name":"","type":"uint256"}],"stateMutability":"nonpayable","type":"function"},{"inputs":[{"internalType":"bytes4","name":"interfaceId","type":"bytes4"}],"name":"supportsInterface","outputs":[{"internalType":"bool","name":"","type":"bool"}],"stateMutability":"view","type":"function"},{"inputs":[{"internalType":"uint256","name":"submissionId","type":"uint256"},{"internalType":"int256","name":"newLatitude","type":"int256"},{"internalType":"int256","name":"newLongitude","type":"int256"}],"name":"updateLocation","outputs":[],"stateMutability":"nonpayable","type":"function"},{"inputs":[{"internalType":"uint256","name":"submissionId","type":"uint256"},{"internalType":"bool","name":"approved","type":"bool"},{"internalType":"uint256","name":"carbonCredits","type":"uint256"},{"internalType":"string","name":"verificationNotes","type":"string"}],"name":"verifySubmission","outputs":[],"stateMutability":"nonpayable","type":"function"}],"evm":{"bytecode":{"linkReferences":{},"object":"60806040818152346200016757600180556000808052602091818352808220338352835260ff8183205416156200012f575b7f0ce23c3e399818cfee81a7ab0880f714e53d7672b08df0fa62f2843416e1ea09808352828452818320338452845260ff828420541615620000f5575b507ff52ef53ec1ccd82becd71536891a4878949c44f3e710519cb7b39d90c38fed2692838352828152818320338452815260ff828420541615620000ba575b61293685816200016d8239f35b83835282815281832090338452528120600160ff19825416179055339160008051602062002aa3833981519152339280a438808080620000ad565b8083528284528183203384528452818320600160ff198254161790553390339060008051602062002aa38339815191528580a4386200006e565b8180528183528082203383528352808220600160ff1982541617905533338360008051602062002aa38339815191528180a462000031565b600080fdfe608080604052600436101561001357600080fd5b60003560e01c90816301ffc9a714611eb3575080630337c06114611e2e5780631b2b49a614611df3578063248a9ca314611dc45780632f2ff15d14611d5f57806336568abe14611ccd578063372d6b2714611c2f578063396cf21914610d6f5780633e8686cc14610c305780634d077cd514610b6c57806354554d4614610b4e578063625205e514610ae357806364a879f614610a10578063663854a8146109e4578063850e6269146108d0578063916903f51461067c57806391d148541461062f578063a217fddf14610613578063ad73349e146104cc578063b901152314610454578063cc7c32ea146103fc578063d547741f146103bb578063d60e78aa14610310578063e7705db6146102d55763f4dd0a181461013257600080fd5b346102d0576020806003193601126102d05760043590600291610158835482111561288a565b60005260039182825260096040600020019081549061017682611ffa565b946101846040519687611f83565b82865284860191829460005285600020916000935b85851061025957604080518981528a51818b01819052600092600582901b83018101918b918d9085015b8287106101d05785850386f35b909192938280600192603f1989820301855287519061023561020e6101fe845160e0855260e08501906120b4565b85850151848203878601526120b4565b604084015160408401526060808501519084015260808085015190848303908501526120b4565b9160a0808201519083015260c08091015191015296019201960195929190926101c3565b60078860019260409b9a9b5161026e81611f4d565b61027788612166565b8152610284858901612166565b838201528688015460408201528588015460608201526102a660048901612166565b6080820152600588015460a0820152600688015460c0820152815201940194019392979697610199565b600080fd5b346102d05760003660031901126102d05760206040517f0ce23c3e399818cfee81a7ab0880f714e53d7672b08df0fa62f2843416e1ea098152f35b346102d0576020806003193601126102d0576004356001600160401b0381116102d05781610345610358923690600401611fa4565b8160405193828580945193849201612091565b8101600581520301902090604051908181845491828152019360005281600020916000905b8282106103a4576103a08561039481890382611f83565b604051918291826120f1565b0390f35b83548652948501946001938401939091019061037d565b346102d05760403660031901126102d0576103fa6004356103da611f1c565b908060005260006020526103f560016040600020015461255a565b612664565b005b346102d05760403660031901126102d057610415611f06565b6001600160a01b03166000908152600460205260409020805460243591908210156102d057602091610446916120d9565b90546040519160031b1c8152f35b346102d0576020806003193601126102d0576001600160a01b03610476611f06565b1660005260048152604060002090604051908181845491828152019360005281600020916000905b8282106104b5576103a08561039481890382611f83565b83548652948501946001938401939091019061049e565b346102d05760203660031901126102d0576004356000908152600360205260409020805460018201546001600160a01b039081169261050d60028201612166565b9161051a60038301612166565b6105266004840161220c565b91610533600a8501612166565b92600b85015493600c86015491600d87015494600e880161055390612166565b97600f0154986040519b8c9b8c5260208c01526102008060408d01528b0161057a916120b4565b8a810360608c015261058b916120b4565b9060808a016105c19160808091805184526020810151602085015260408101516040850152606081015160608501520151910152565b8881036101208a01526105d3916120b4565b9361014088015260ff8116151561016088015260081c166101808601526101a08501528381036101c0850152610608916120b4565b906101e08301520390f35b346102d05760003660031901126102d057602060405160008152f35b346102d05760403660031901126102d057610648611f1c565b600435600052600060205260406000209060018060a01b0316600052602052602060ff604060002054166040519015158152f35b346102d05760803660031901126102d0576024358015156004358183036102d057604435606435936001600160401b03948581116102d0576106c2903690600401611fa4565b946106cb612415565b6106d960025485111561288a565b836000526020916003835260ff600c60406000200154166108985760008581526003845260409020600c810180546001600160a81b0319163360081b610100600160a81b031617600190811790915542600d83015588519193600e8501929190821161088257610749835461212c565b601f8111610839575b508599601f83116001146107d357829188999a9b839260009a999a946107c8575b50501b916000199060031b1c19161790555b6107bd575b50506040519384528301527f1ee067cac16c3207f1d71495c3e49e98c43c4041ab771c976a8fbac0ac0945fb60403393a3005b600f0155818561078a565b015192508c80610773565b601f9291921982169a84600052876000209160005b8d81106108245750838a9b9c9d9a999a1061080b575b505050811b019055610785565b015160001960f88460031b161c191690558a80806107fe565b818301518455928501929189019189016107e8565b8360005286600020601f840160051c810191888510610878575b601f0160051c019082905b82811061086c575050610752565b6000815501829061085e565b9091508190610853565b634e487b7160e01b600052604160045260246000fd5b60405162461bcd60e51b815260048101849052601060248201526f105b1c9958591e481d995c9a599a595960821b6044820152606490fd5b346102d05760803660031901126102d05760025460443590602435906004356064356108fb836128ce565b9460009460015b85811115610952578787610915816128ce565b9160005b82811061092e57604051806103a086826120f1565b8061093c61094d9284612841565b516109478287612841565b52612832565b610919565b806000526020600381528461096d600460406000200161220c565b91825192858985121594856109d9575b5050836109ca575b836109bc575b5050506109a1575b61099c90612832565b610902565b956109b4818861094761099c948c612841565b969050610993565b015113159050848a8061098b565b92508581840151121592610985565b13159350858d61097d565b346102d05760203660031901126102d05760043560005260066020526020604060002054604051908152f35b346102d05760203660031901126102d057610a29611f06565b610a31612248565b6001600160a01b031660008181527f806e2a7d00c072d747779081bbe49e052b9bab0bb13b720d89dd394d70bf16a660205260409020547ff52ef53ec1ccd82becd71536891a4878949c44f3e710519cb7b39d90c38fed26919060ff1615610a9557005b8160005260006020526040600020816000526020526040600020600160ff1982541617905533917f2f8788117e7eff1d82e926ec794901d17c78024a50270940304540a733656f0d600080a4005b346102d05760403660031901126102d0576004356001600160401b0381116102d057610b13903690600401611fa4565b610b2f6020602435928160405193828580945193849201612091565b8101600581520301902080548210156102d057602091610446916120d9565b346102d05760003660031901126102d0576020600254604051908152f35b346102d05760603660031901126102d0576004357f1bfc43ab2fbfd9bf699bc08492eb03fee280e1218c69d3104ba4b96ff172b96d6040602435604435610bb1612415565b610bbf60025486111561288a565b63055d4a7f1982121580610c22575b610bd7906127b3565b630aba94ff1981121580610c14575b610bef906127f2565b84600052600360205280600584600020846004820155015582519182526020820152a2005b50630aba9500811315610be6565b5063055d4a80821315610bce565b346102d05760203660031901126102d05760043560006080604051610c5481611f32565b8281528260208201528260408201528260608201520152610c7960025482111561288a565b60005260036020526040600020805460018060a01b0360018301541691600b8101549060ff600c82015416610d56600f83015492610cb960028201612166565b610d48610d15610ccb60038501612166565b610d07610ce6600a610cdf6004890161220c565b9701612166565b946040519c8d9c8d5260208d015260408c6101a091829101528c01906120b4565b908a820360608c01526120b4565b92608089019060808091805184526020810151602085015260408101516040850152606081015160608501520151910152565b8682036101208801526120b4565b9261014085015215156101608401526101808301520390f35b346102d0576101403660031901126102d0576004356001600160401b0381116102d057610da0903690600401611fa4565b6024356001600160401b0381116102d057610dbf903690600401611fa4565b60c4356001600160401b0381116102d057610dde903690600401611fa4565b9060e4356001600160401b0381116102d057610dfe903690600401612011565b61010435906001600160401b0382116102d057366023830112156102d057816004013591610e2b83611ffa565b92610e396040519485611f83565b8084526024602085019160051b830101913683116102d057602401905b828210611c1f57505050610124356001600160401b0381116102d057610e80903690600401612011565b3360009081527f806e2a7d00c072d747779081bbe49e052b9bab0bb13b720d89dd394d70bf16a660205260409020549095907ff52ef53ec1ccd82becd71536891a4878949c44f3e710519cb7b39d90c38fed269060ff1615611a8a5750600260015414611a45576002600155805115611a00578151156119bb5781518351036119765781518651036119315763055d4a7f19604435121580611921575b610f26906127b3565b630aba94ff19606435121580611911575b610f40906127f2565b6001600254019485600255604051610f5781611f32565b60443581526064356020820152608435604082015260a435606082015242608082015286600052600360205260406000209587875560018701336bffffffffffffffffffffffff60a01b82541617905583516001600160401b03811161088257610fc4600289015461212c565b601f81116118ca575b50806020601f821160011461185d57600091611852575b508160011b916000199060031b1c19161760028801555b8051906001600160401b03821161088257611019600389015461212c565b601f811161180b575b50602090601f83116001146117985760809392916000918361178d575b50508160011b916000199060031b1c19161760038801555b80516004880155602081015160058801556040810151600688015560608101516007880155015160088601558051906001600160401b0382116108825781906110a3600a88015461212c565b601f811161173a575b50602090601f83116001146116c8576000926116bd575b50508160011b916000199060031b1c191617600a8501555b42600b850155600c8401805460ff1916905560005b82518110156115cf576111038184612841565b5161110e8289612841565b516111198387612841565b51906040519261112884611f4d565b8352602083015260408201524260608201526040518060408101106001600160401b03604083011117610882576040810160405260048152634a50454760e01b60208201526080820152600060a0820152600060c0820152600986015490600160401b82101561088257600182018060098901558210156115b9576009870160005260206000209080518051906001600160401b0382116108825781906111d46007870286015461212c565b601f8111611564575b50602090601f83116001146114ee576000926114e3575b50508160011b916000199060031b1c191617600784028301555b60208101518051906001600160401b0382116108825781906112386001600788028701015461212c565b601f811161148b575b50602090601f831160011461140f57600092611404575b50508160011b916000199060031b1c191617600160078502840101555b60408101516002600785028401015560608101516003600785028401015560808101518051906001600160401b038211610882576112bb6004600787028601015461212c565b601f81116113b8575b50602090601f831160011461133257600693836113229897969460079460c094600092611327575b50508160011b916000199060031b1c1916176004848802860101555b60a081015160058488028601015501519302010155612832565b6110f0565b0151905038806112ec565b9060046007870286010160005260206000209160005b601f19851681106113a057509360018460079460c0946006986113229c9b9a98601f19811610611387575b505050811b01600484880286010155611308565b015160001960f88460031b161c19169055388080611373565b91926020600181928685015181550194019201611348565b6004600787028601016000526020600020601f840160051c8101602085106113fd575b601f830160051c820181106113f15750506112c4565b600081556001016113db565b50806113db565b015190508c80611258565b92506001600787028601016000526020600020906000935b601f1984168510611470576001945083601f19811610611457575b505050811b0160016007850284010155611275565b015160001960f88460031b161c191690558c8080611442565b81810151835560209485019460019093019290910190611427565b9091506001600787028601016000526020600020601f840160051c8101602085106114dc575b90849392915b601f830160051c820181106114cd575050611241565b600081558594506001016114b7565b50806114b1565b015190508c806111f4565b92506007860285016000526020600020906000935b601f1984168510611549576001945083601f19811610611530575b505050811b016007840283015561120e565b015160001960f88460031b161c191690558c808061151e565b81810151835560209485019460019093019290910190611503565b9091506007860285016000526020600020601f840160051c8101602085106115b2575b90849392915b601f830160051c820181106115a35750506111dd565b6000815585945060010161158d565b5080611587565b634e487b7160e01b600052603260045260246000fd5b5084823360005260046020526115e9826040600020612855565b6116118260405160208187516116028183858c01612091565b81016005815203019020612855565b6040519060208201906044358252606435604084015260408352606083018381106001600160401b03821117610882576020956116917f2e4f38da55461b9a668617b5f5b98207993771446b025980c82d588652ccb58c9387958460405287519020600052600689528560406000205551916080845260e08701906120b4565b90604435608087015260643560a087015260c08601523394605f1991030190a360018055604051908152f35b0151905088806110c3565b9250600a87016000526020600020906000935b601f198416851061171f576001945083601f19811610611706575b505050811b01600a8501556110db565b015160001960f88460031b161c191690558880806116f6565b818101518355602094850194600190930192909101906116db565b909150600a87016000526020600020601f840160051c810160208510611786575b90849392915b601f830160051c820181106117775750506110ac565b60008155859450600101611761565b508061175b565b015190508b8061103f565b906003890160005260206000209160005b601f19851681106117f3575091839160019360809695601f198116106117da575b505050811b016003880155611057565b015160001960f88460031b161c191690558b80806117ca565b919260206001819286850151815501940192016117a9565b600389016000526020600020601f840160051c81016020851061184b575b601f830160051c8201811061183f575050611022565b60008155600101611829565b5080611829565b90508501518b610fe4565b91506002890160005260206000206000925b601f19831684106118b2576001935082601f19811610611899575b5050811b016002880155610ffb565b87015160001960f88460031b161c191690558b8061188a565b8781015182556020938401936001909201910161186f565b600289016000526020600020601f830160051c81016020841061190a575b601f830160051c820181106118fe575050610fcd565b600081556001016118e8565b50806118e8565b50630aba95006064351315610f37565b5063055d4a806044351315610f1d565b60405162461bcd60e51b815260206004820152601f60248201527f46696c656e616d6520617272617973206c656e677468206d69736d61746368006044820152606490fd5b60405162461bcd60e51b815260206004820152601c60248201527f496d61676520617272617973206c656e677468206d69736d61746368000000006044820152606490fd5b60405162461bcd60e51b815260206004820152601b60248201527f4174206c65617374206f6e6520696d61676520726571756972656400000000006044820152606490fd5b60405162461bcd60e51b815260206004820152601a60248201527f50726f6a6563742049442063616e6e6f7420626520656d7074790000000000006044820152606490fd5b60405162461bcd60e51b815260206004820152601f60248201527f5265656e7472616e637947756172643a207265656e7472616e742063616c6c006044820152606490fd5b611a93336126e9565b60405191611aa083611f68565b60428352602083019060603683378351156115b9576030825383516001908110156115b957607860218601536041905b808211611bc5575050611b81576048611b4e92611b5d92611b7d9560405195869376020b1b1b2b9b9a1b7b73a3937b61d1030b1b1b7bab73a1604d1b6020860152611b25815180926020603789019101612091565b8401917001034b99036b4b9b9b4b733903937b6329607d1b603784015251809386840190612091565b01036028810184520182611f83565b60405162461bcd60e51b81526020600482015291829160248301906120b4565b0390fd5b606460405162461bcd60e51b815260206004820152602060248201527f537472696e67733a20686578206c656e67746820696e73756666696369656e746044820152fd5b9091600f811660108110156115b9576f181899199a1a9b1b9c1cb0b131b232b360811b901a611bf484886126d8565b5360041c918015611c09576000190190611ad0565b634e487b7160e01b600052601160045260246000fd5b8135815260209182019101610e56565b346102d05760003660031901126102d0576002546000908160015b82811115611c705750916080926040519283526020830152604082015260006060820152f35b80600052600360209080825260ff600c6040600020015416611c9d575b5050611c9890612832565b611c4a565b9092611cab90959295612832565b928560005252600f604060002001548101809111611c095792611c9885611c8d565b346102d05760403660031901126102d057611ce6611f1c565b336001600160a01b03821603611d02576103fa90600435612664565b60405162461bcd60e51b815260206004820152602f60248201527f416363657373436f6e74726f6c3a2063616e206f6e6c792072656e6f756e636560448201526e103937b632b9903337b91039b2b63360891b6064820152608490fd5b346102d05760403660031901126102d057600435611d7b611f1c565b816000526000602052611d9560016040600020015461255a565b81600052600060205260406000209060018060a01b0316908160005260205260ff6040600020541615610a9557005b346102d05760203660031901126102d05760043560005260006020526020600160406000200154604051908152f35b346102d05760003660031901126102d05760206040517ff52ef53ec1ccd82becd71536891a4878949c44f3e710519cb7b39d90c38fed268152f35b346102d05760203660031901126102d057611e47611f06565b611e4f612248565b6001600160a01b031660008181527f1da0b5176dfe03406af5a6eed66ca01dda9b45ac4da671c3fa379cb93717ef8160205260409020547f0ce23c3e399818cfee81a7ab0880f714e53d7672b08df0fa62f2843416e1ea09919060ff1615610a9557005b346102d05760203660031901126102d0576004359063ffffffff60e01b82168092036102d057602091637965db0b60e01b8114908115611ef5575b5015158152f35b6301ffc9a760e01b14905083611eee565b600435906001600160a01b03821682036102d057565b602435906001600160a01b03821682036102d057565b60a081019081106001600160401b0382111761088257604052565b60e081019081106001600160401b0382111761088257604052565b608081019081106001600160401b0382111761088257604052565b90601f801991011681019081106001600160401b0382111761088257604052565b81601f820112156102d0578035906001600160401b0382116108825760405192611fd8601f8401601f191660200185611f83565b828452602083830101116102d057816000926020809301838601378301015290565b6001600160401b0381116108825760051b60200190565b9080601f830112156102d05781359061202982611ffa565b926120376040519485611f83565b828452602092838086019160051b830101928084116102d057848301915b8483106120655750505050505090565b82356001600160401b0381116102d057869161208684848094890101611fa4565b815201920191612055565b60005b8381106120a45750506000910152565b8181015183820152602001612094565b906020916120cd81518092818552858086019101612091565b601f01601f1916010190565b80548210156115b95760005260206000200190600090565b6020908160408183019282815285518094520193019160005b828110612118575050505090565b83518552938101939281019260010161210a565b90600182811c9216801561215c575b602083101461214657565b634e487b7160e01b600052602260045260246000fd5b91607f169161213b565b906040519182600082549261217a8461212c565b9081845260019485811690816000146121e957506001146121a6575b50506121a492500383611f83565b565b9093915060005260209081600020936000915b8183106121d15750506121a493508201013880612196565b855488840185015294850194879450918301916121b9565b9150506121a494506020925060ff191682840152151560051b8201013880612196565b9060405161221981611f32565b608060048294805484526001810154602085015260028101546040850152600381015460608501520154910152565b3360009081527fad3228b676f7d3cd4284a5443f17f1962b36e491b30a40b2405849e597ba5fb5602090815260408083205490929060ff161561228a57505050565b612293336126e9565b90808451906122a182611f68565b6042825284820192606036853782511561240157603084538251906001918210156124015790607860218501536041915b81831161239357505050612351576048611b7d93869361233593612326985198899376020b1b1b2b9b9a1b7b73a3937b61d1030b1b1b7bab73a1604d1b8a860152611b25815180928c603789019101612091565b01036028810187520185611f83565b5192839262461bcd60e51b8452600484015260248301906120b4565b60648486519062461bcd60e51b825280600483015260248201527f537472696e67733a20686578206c656e67746820696e73756666696369656e746044820152fd5b909192600f811660108110156123ed576f181899199a1a9b1b9c1cb0b131b232b360811b901a6123c385876126d8565b5360041c9280156123d9576000190191906122d2565b634e487b7160e01b82526011600452602482fd5b634e487b7160e01b83526032600452602483fd5b634e487b7160e01b81526032600452602490fd5b3360009081527f1da0b5176dfe03406af5a6eed66ca01dda9b45ac4da671c3fa379cb93717ef81602090815260408083205490927f0ce23c3e399818cfee81a7ab0880f714e53d7672b08df0fa62f2843416e1ea099160ff16156124795750505050565b612482336126e9565b9184519061248f82611f68565b6042825284820192606036853782511561240157603084538251906001918210156124015790607860218501536041915b81831161251457505050612351576048611b7d93869361233593612326985198899376020b1b1b2b9b9a1b7b73a3937b61d1030b1b1b7bab73a1604d1b8a860152611b25815180928c603789019101612091565b909192600f811660108110156123ed576f181899199a1a9b1b9c1cb0b131b232b360811b901a61254485876126d8565b5360041c9280156123d9576000190191906124c0565b600090808252602090828252604092838120338252835260ff8482205416156125835750505050565b61258c336126e9565b9184519061259982611f68565b6042825284820192606036853782511561240157603084538251906001918210156124015790607860218501536041915b81831161261e57505050612351576048611b7d93869361233593612326985198899376020b1b1b2b9b9a1b7b73a3937b61d1030b1b1b7bab73a1604d1b8a860152611b25815180928c603789019101612091565b909192600f811660108110156123ed576f181899199a1a9b1b9c1cb0b131b232b360811b901a61264e85876126d8565b5360041c9280156123d9576000190191906125ca565b9060009180835282602052604083209160018060a01b03169182845260205260ff60408420541661269457505050565b80835282602052604083208284526020526040832060ff1981541690557ff6391f5c32d9c69d2a47ea670b442974b53935d1edc7fd64eb21e047a839171b339380a4565b9081518110156115b9570160200190565b60405190606082018281106001600160401b0382111761088257604052602a82526020820160403682378251156115b9576030905381516001908110156115b957607860218401536029905b808211612745575050611b815790565b9091600f8116601081101561279e576f181899199a1a9b1b9c1cb0b131b232b360811b901a61277484866126d8565b5360041c918015612789576000190190612735565b60246000634e487b7160e01b81526011600452fd5b60246000634e487b7160e01b81526032600452fd5b156127ba57565b60405162461bcd60e51b815260206004820152601060248201526f496e76616c6964206c6174697475646560801b6044820152606490fd5b156127f957565b60405162461bcd60e51b8152602060048201526011602482015270496e76616c6964206c6f6e67697475646560781b6044820152606490fd5b6000198114611c095760010190565b80518210156115b95760209160051b010190565b8054600160401b81101561088257612872916001820181556120d9565b819291549060031b91821b91600019901b1916179055565b1561289157565b60405162461bcd60e51b8152602060048201526015602482015274125b9d985b1a59081cdd589b5a5cdcda5bdb881251605a1b6044820152606490fd5b906128d882611ffa565b6128e56040519182611f83565b82815280926128f6601f1991611ffa565b019060203691013756fea264697066735822122012382db04df9c35cdd39c68b6cf1b562ae6016863a76aa095ab3ba1368ac5bd064736f6c634300081300332f8788117e7eff1d82e926ec794901d17c78024a50270940304540a733656f0d","opcodes":"PUSH1 0x80 PUSH1 0x40 DUP2 DUP2 MSTORE CALLVALUE PUSH3 0x167 JUMPI PUSH1 0x1 DUP1 SSTORE PUSH1 0x0 DUP1 DUP1 MSTORE PUSH1 0x20 SWAP2 DUP2 DUP4 MSTORE DUP1 DUP3 KECCAK256 CALLER DUP4 MSTORE DUP4 MSTORE PUSH1 0xFF DUP2 DUP4 KECCAK256 SLOAD AND ISZERO PUSH3 0x12F JUMPI JUMPDEST PUSH32 0xCE23C3E399818CFEE81A7AB0880F714E53D7672B08DF0FA62F2843416E1EA09 DUP1 DUP4 MSTORE DUP3 DUP5 MSTORE DUP2 DUP4 KECCAK256 CALLER DUP5 MSTORE DUP5 MSTORE PUSH1 0xFF DUP3 DUP5 KECCAK256 SLOAD AND ISZERO PUSH3 0xF5 JUMPI JUMPDEST POP PUSH32 0xF52EF53EC1CCD82BECD71536891A4878949C44F3E710519CB7B39D90C38FED26 SWAP3 DUP4 DUP4 MSTORE DUP3 DUP2 MSTORE DUP2 DUP4 KECCAK256 CALLER DUP5 MSTORE DUP2 MSTORE PUSH1 0xFF DUP3 DUP5 KECCAK256 SLOAD AND ISZERO PUSH3 0xBA JUMPI JUMPDEST PUSH2 0x2936 DUP6 DUP2 PUSH3 0x16D DUP3 CODECOPY RETURN JUMPDEST DUP4 DUP4 MSTORE DUP3 DUP2 MSTORE DUP2 DUP4 KECCAK256 SWAP1 CALLER DUP5 MSTORE MSTORE DUP2 KECCAK256 PUSH1 0x1 PUSH1 0xFF NOT DUP3 SLOAD AND OR SWAP1 SSTORE CALLER SWAP2 PUSH1 0x0 DUP1 MLOAD PUSH1 0x20 PUSH3 0x2AA3 DUP4 CODECOPY DUP2 MLOAD SWAP2 MSTORE CALLER SWAP3 DUP1 LOG4 CODESIZE DUP1 DUP1 DUP1 PUSH3 0xAD JUMP JUMPDEST DUP1 DUP4 MSTORE DUP3 DUP5 MSTORE DUP2 DUP4 KECCAK256 CALLER DUP5 MSTORE DUP5 MSTORE DUP2 DUP4 KECCAK256 PUSH1 0x1 PUSH1 0xFF NOT DUP3 SLOAD AND OR SWAP1 SSTORE CALLER SWAP1 CALLER SWAP1 PUSH1 0x0 DUP1 MLOAD PUSH1 0x20 PUSH3 0x2AA3 DUP4 CODECOPY DUP2 MLOAD SWAP2 MSTORE DUP6 DUP1 LOG4 CODESIZE PUSH3 0x6E JUMP JUMPDEST DUP2 DUP1 MSTORE DUP2 DUP4 MSTORE DUP1 DUP3 KECCAK256 CALLER DUP4 MSTORE DUP4 MSTORE DUP1 DUP3 KECCAK256 PUSH1 0x1 PUSH1 0xFF NOT DUP3 SLOAD AND OR SWAP1 SSTORE CALLER CALLER DUP4 PUSH1 0x0 DUP1 MLOAD PUSH1 0x20 PUSH3 0x2AA3 DUP4 CODECOPY DUP2 MLOAD SWAP2 MSTORE DUP2 DUP1 LOG4 PUSH3 0x31 JUMP JUMPDEST PUSH1 0x0 DUP1 REVERT INVALID PUSH1 0x80 DUP1 PUSH1 0x40 MSTORE PUSH1 0x4 CALLDATASIZE LT ISZERO PUSH2 0x13 JUMPI PUSH1 0x0 DUP1 REVERT JUMPDEST PUSH1 0x0 CALLDATALOAD PUSH1 0xE0 SHR SWAP1 DUP2 PUSH4 0x1FFC9A7 EQ PUSH2 0x1EB3 JUMPI POP DUP1 PUSH4 0x337C061 EQ PUSH2 0x1E2E JUMPI DUP1 PUSH4 0x1B2B49A6 EQ PUSH2 0x1DF3 JUMPI DUP1 PUSH4 0x248A9CA3 EQ PUSH2 0x1DC4 JUMPI DUP1 PUSH4 0x2F2FF15D EQ PUSH2 0x1D5F JUMPI DUP1 PUSH4 0x36568ABE EQ PUSH2 0x1CCD JUMPI DUP1 PUSH4 0x372D6B27 EQ PUSH2 0x1C2F JUMPI DUP1 PUSH4 0x396CF219 EQ PUSH2 0xD6F JUMPI DUP1 PUSH4 0x3E8686CC EQ PUSH2 0xC30 JUMPI DUP1 PUSH4 0x4D077CD5 EQ PUSH2 0xB6C JUMPI DUP1 PUSH4 0x54554D46 EQ PUSH2 0xB4E JUMPI DUP1 PUSH4 0x625205E5 EQ PUSH2 0xAE3 JUMPI DUP1 PUSH4 0x64A879F6 EQ PUSH2 0xA10 JUMPI DUP1 PUSH4 0x663854A8 EQ PUSH2 0x9E4 JUMPI DUP1 PUSH4 0x850E6269 EQ PUSH2 0x8D0 JUMPI DUP1 PUSH4 0x916903F5 EQ PUSH2 0x67C JUMPI DUP1 PUSH4 0x91D14854 EQ PUSH2 0x62F JUMPI DUP1 PUSH4 0xA217FDDF EQ PUSH2 0x613 JUMPI DUP1 PUSH4 0xAD73349E EQ PUSH2 0x4CC JUMPI DUP1 PUSH4 0xB9011523 EQ PUSH2 0x454 JUMPI DUP1 PUSH4 0xCC7C32EA EQ PUSH2 0x3FC JUMPI DUP1 PUSH4 0xD547741F EQ PUSH2 0x3BB JUMPI DUP1 PUSH4 0xD60E78AA EQ PUSH2 0x310 JUMPI DUP1 PUSH4 0xE7705DB6 EQ PUSH2 0x2D5 JUMPI PUSH4 0xF4DD0A18 EQ PUSH2 0x132 JUMPI PUSH1 0x0 DUP1 REVERT JUMPDEST CALLVALUE PUSH2 0x2D0 JUMPI PUSH1 0x20 DUP1 PUSH1 0x3 NOT CALLDATASIZE ADD SLT PUSH2 0x2D0 JUMPI PUSH1 0x4 CALLDATALOAD SWAP1 PUSH1 0x2 SWAP2 PUSH2 0x158 DUP4 SLOAD DUP3 GT ISZERO PUSH2 0x288A JUMP JUMPDEST PUSH1 0x0 MSTORE PUSH1 0x3 SWAP2 DUP3 DUP3 MSTORE PUSH1 0x9 PUSH1 0x40 PUSH1 0x0 KECCAK256 ADD SWAP1 DUP2 SLOAD SWAP1 PUSH2 0x176 DUP3 PUSH2 0x1FFA JUMP JUMPDEST SWAP5 PUSH2 0x184 PUSH1 0x40 MLOAD SWAP7 DUP8 PUSH2 0x1F83 JUMP JUMPDEST DUP3 DUP7 MSTORE DUP5 DUP7 ADD SWAP2 DUP3 SWAP5 PUSH1 0x0 MSTORE DUP6 PUSH1 0x0 KECCAK256 SWAP2 PUSH1 0x0 SWAP4 JUMPDEST DUP6 DUP6 LT PUSH2 0x259 JUMPI PUSH1 0x40 DUP1 MLOAD DUP10 DUP2 MSTORE DUP11 MLOAD DUP2 DUP12 ADD DUP2 SWAP1 MSTORE PUSH1 0x0 SWAP3 PUSH1 0x5 DUP3 SWAP1 SHL DUP4 ADD DUP2 ADD SWAP2 DUP12 SWAP2 DUP14 SWAP1 DUP6 ADD JUMPDEST DUP3 DUP8 LT PUSH2 0x1D0 JUMPI DUP6 DUP6 SUB DUP7 RETURN JUMPDEST SWAP1 SWAP2 SWAP3 SWAP4 DUP3 DUP1 PUSH1 0x1 SWAP3 PUSH1 0x3F NOT DUP10 DUP3 SUB ADD DUP6 MSTORE DUP8 MLOAD SWAP1 PUSH2 0x235 PUSH2 0x20E PUSH2 0x1FE DUP5 MLOAD PUSH1 0xE0 DUP6 MSTORE PUSH1 0xE0 DUP6 ADD SWAP1 PUSH2 0x20B4 JUMP JUMPDEST DUP6 DUP6 ADD MLOAD DUP5 DUP3 SUB DUP8 DUP7 ADD MSTORE PUSH2 0x20B4 JUMP JUMPDEST PUSH1 0x40 DUP5 ADD MLOAD PUSH1 0x40 DUP5 ADD MSTORE PUSH1 0x60 DUP1 DUP6 ADD MLOAD SWAP1 DUP5 ADD MSTORE PUSH1 0x80 DUP1 DUP6 ADD MLOAD SWAP1 DUP5 DUP4 SUB SWAP1 DUP6 ADD MSTORE PUSH2 0x20B4 JUMP JUMPDEST SWAP2 PUSH1 0xA0 DUP1 DUP3 ADD MLOAD SWAP1 DUP4 ADD MSTORE PUSH1 0xC0 DUP1 SWAP2 ADD MLOAD SWAP2 ADD MSTORE SWAP7 ADD SWAP3 ADD SWAP7 ADD SWAP6 SWAP3 SWAP2 SWAP1 SWAP3 PUSH2 0x1C3 JUMP JUMPDEST PUSH1 0x7 DUP9 PUSH1 0x1 SWAP3 PUSH1 0x40 SWAP12 SWAP11 SWAP12 MLOAD PUSH2 0x26E DUP2 PUSH2 0x1F4D JUMP JUMPDEST PUSH2 0x277 DUP9 PUSH2 0x2166 JUMP JUMPDEST DUP2 MSTORE PUSH2 0x284 DUP6 DUP10 ADD PUSH2 0x2166 JUMP JUMPDEST DUP4 DUP3 ADD MSTORE DUP7 DUP9 ADD SLOAD PUSH1 0x40 DUP3 ADD MSTORE DUP6 DUP9 ADD SLOAD PUSH1 0x60 DUP3 ADD MSTORE PUSH2 0x2A6 PUSH1 0x4 DUP10 ADD PUSH2 0x2166 JUMP JUMPDEST PUSH1 0x80 DUP3 ADD MSTORE PUSH1 0x5 DUP9 ADD SLOAD PUSH1 0xA0 DUP3 ADD MSTORE PUSH1 0x6 DUP9 ADD SLOAD PUSH1 0xC0 DUP3 ADD MSTORE DUP2 MSTORE ADD SWAP5 ADD SWAP5 ADD SWAP4 SWAP3 SWAP8 SWAP7 SWAP8 PUSH2 0x199 JUMP JUMPDEST PUSH1 0x0 DUP1 REVERT JUMPDEST CALLVALUE PUSH2 0x2D0 JUMPI PUSH1 0x0 CALLDATASIZE PUSH1 0x3 NOT ADD SLT PUSH2 0x2D0 JUMPI PUSH1 0x20 PUSH1 0x40 MLOAD PUSH32 0xCE23C3E399818CFEE81A7AB0880F714E53D7672B08DF0FA62F2843416E1EA09 DUP2 MSTORE RETURN JUMPDEST CALLVALUE PUSH2 0x2D0 JUMPI PUSH1 0x20 DUP1 PUSH1 0x3 NOT CALLDATASIZE ADD SLT PUSH2 0x2D0 JUMPI PUSH1 0x4 CALLDATALOAD PUSH1 0x1 PUSH1 0x1 PUSH1 0x40 SHL SUB DUP2 GT PUSH2 0x2D0 JUMPI DUP2 PUSH2 0x345 PUSH2 0x358 SWAP3 CALLDATASIZE SWAP1 PUSH1 0x4 ADD PUSH2 0x1FA4 JUMP JUMPDEST DUP2 PUSH1 0x40 MLOAD SWAP4 DUP3 DUP6 DUP1 SWAP5 MLOAD SWAP4 DUP5 SWAP3 ADD PUSH2 0x2091 JUMP JUMPDEST DUP2 ADD PUSH1 0x5 DUP2 MSTORE SUB ADD SWAP1 KECCAK256 SWAP1 PUSH1 0x40 MLOAD SWAP1 DUP2 DUP2 DUP5 SLOAD SWAP2 DUP3 DUP2 MSTORE ADD SWAP4 PUSH1 0x0 MSTORE DUP2 PUSH1 0x0 KECCAK256 SWAP2 PUSH1 0x0 SWAP1 JUMPDEST DUP3 DUP3 LT PUSH2 0x3A4 JUMPI PUSH2 0x3A0 DUP6 PUSH2 0x394 DUP2 DUP10 SUB DUP3 PUSH2 0x1F83 JUMP JUMPDEST PUSH1 0x40 MLOAD SWAP2 DUP3 SWAP2 DUP3 PUSH2 0x20F1 JUMP JUMPDEST SUB SWAP1 RETURN JUMPDEST DUP4 SLOAD DUP7 MSTORE SWAP5 DUP6 ADD SWAP5 PUSH1 0x1 SWAP4 DUP5 ADD SWAP4 SWAP1 SWAP2 ADD SWAP1 PUSH2 0x37D JUMP JUMPDEST CALLVALUE PUSH2 0x2D0 JUMPI PUSH1 0x40 CALLDATASIZE PUSH1 0x3 NOT ADD SLT PUSH2 0x2D0 JUMPI PUSH2 0x3FA PUSH1 0x4 CALLDATALOAD PUSH2 0x3DA PUSH2 0x1F1C JUMP JUMPDEST SWAP1 DUP1 PUSH1 0x0 MSTORE PUSH1 0x0 PUSH1 0x20 MSTORE PUSH2 0x3F5 PUSH1 0x1 PUSH1 0x40 PUSH1 0x0 KECCAK256 ADD SLOAD PUSH2 0x255A JUMP JUMPDEST PUSH2 0x2664 JUMP JUMPDEST STOP JUMPDEST CALLVALUE PUSH2 0x2D0 JUMPI PUSH1 0x40 CALLDATASIZE PUSH1 0x3 NOT ADD SLT PUSH2 0x2D0 JUMPI PUSH2 0x415 PUSH2 0x1F06 JUMP JUMPDEST PUSH1 0x1 PUSH1 0x1 PUSH1 0xA0 SHL SUB AND PUSH1 0x0 SWAP1 DUP2 MSTORE PUSH1 0x4 PUSH1 0x20 MSTORE PUSH1 0x40 SWAP1 KECCAK256 DUP1 SLOAD PUSH1 0x24 CALLDATALOAD SWAP2 SWAP1 DUP3 LT ISZERO PUSH2 0x2D0 JUMPI PUSH1 0x20 SWAP2 PUSH2 0x446 SWAP2 PUSH2 0x20D9 JUMP JUMPDEST SWAP1 SLOAD PUSH1 0x40 MLOAD SWAP2 PUSH1 0x3 SHL SHR DUP2 MSTORE RETURN JUMPDEST CALLVALUE PUSH2 0x2D0 JUMPI PUSH1 0x20 DUP1 PUSH1 0x3 NOT CALLDATASIZE ADD SLT PUSH2 0x2D0 JUMPI PUSH1 0x1 PUSH1 0x1 PUSH1 0xA0 SHL SUB PUSH2 0x476 PUSH2 0x1F06 JUMP JUMPDEST AND PUSH1 0x0 MSTORE PUSH1 0x4 DUP2 MSTORE PUSH1 0x40 PUSH1 0x0 KECCAK256 SWAP1 PUSH1 0x40 MLOAD SWAP1 DUP2 DUP2 DUP5 SLOAD SWAP2 DUP3 DUP2 MSTORE ADD SWAP4 PUSH1 0x0 MSTORE DUP2 PUSH1 0x0 KECCAK256 SWAP2 PUSH1 0x0 SWAP1 JUMPDEST DUP3 DUP3 LT PUSH2 0x4B5 JUMPI PUSH2 0x3A0 DUP6 PUSH2 0x394 DUP2 DUP10 SUB DUP3 PUSH2 0x1F83 JUMP JUMPDEST DUP4 SLOAD DUP7 MSTORE SWAP5 DUP6 ADD SWAP5 PUSH1 0x1 SWAP4 DUP5 ADD SWAP4 SWAP1 SWAP2 ADD SWAP1 PUSH2 0x49E JUMP JUMPDEST CALLVALUE PUSH2 0x2D0 JUMPI PUSH1 0x20 CALLDATASIZE PUSH1 0x3 NOT ADD SLT PUSH2 0x2D0 JUMPI PUSH1 0x4 CALLDATALOAD PUSH1 0x0 SWAP1 DUP2 MSTORE PUSH1 0x3 PUSH1 0x20 MSTORE PUSH1 0x40 SWAP1 KECCAK256 DUP1 SLOAD PUSH1 0x1 DUP3 ADD SLOAD PUSH1 0x1 PUSH1 0x1 PUSH1 0xA0 SHL SUB SWAP1 DUP2 AND SWAP3 PUSH2 0x50D PUSH1 0x2 DUP3 ADD PUSH2 0x2166 JUMP JUMPDEST SWAP2 PUSH2 0x51A PUSH1 0x3 DUP4 ADD PUSH2 0x2166 JUMP JUMPDEST PUSH2 0x526 PUSH1 0x4 DUP5 ADD PUSH2 0x220C JUMP JUMPDEST SWAP2 PUSH2 0x533 PUSH1 0xA DUP6 ADD PUSH2 0x2166 JUMP JUMPDEST SWAP3 PUSH1 0xB DUP6 ADD SLOAD SWAP4 PUSH1 0xC DUP7 ADD SLOAD SWAP2 PUSH1 0xD DUP8 ADD SLOAD SWAP5 PUSH1 0xE DUP9 ADD PUSH2 0x553 SWAP1 PUSH2 0x2166 JUMP JUMPDEST SWAP8 PUSH1 0xF ADD SLOAD SWAP9 PUSH1 0x40 MLOAD SWAP12 DUP13 SWAP12 DUP13 MSTORE PUSH1 0x20 DUP13 ADD MSTORE PUSH2 0x200 DUP1 PUSH1 0x40 DUP14 ADD MSTORE DUP12 ADD PUSH2 0x57A SWAP2 PUSH2 0x20B4 JUMP JUMPDEST DUP11 DUP2 SUB PUSH1 0x60 DUP13 ADD MSTORE PUSH2 0x58B SWAP2 PUSH2 0x20B4 JUMP JUMPDEST SWAP1 PUSH1 0x80 DUP11 ADD PUSH2 0x5C1 SWAP2 PUSH1 0x80 DUP1 SWAP2 DUP1 MLOAD DUP5 MSTORE PUSH1 0x20 DUP2 ADD MLOAD PUSH1 0x20 DUP6 ADD MSTORE PUSH1 0x40 DUP2 ADD MLOAD PUSH1 0x40 DUP6 ADD MSTORE PUSH1 0x60 DUP2 ADD MLOAD PUSH1 0x60 DUP6 ADD MSTORE ADD MLOAD SWAP2 ADD MSTORE JUMP JUMPDEST DUP9 DUP2 SUB PUSH2 0x120 DUP11 ADD MSTORE PUSH2 0x5D3 SWAP2 PUSH2 0x20B4 JUMP JUMPDEST SWAP4 PUSH2 0x140 DUP9 ADD MSTORE PUSH1 0xFF DUP2 AND ISZERO ISZERO PUSH2 0x160 DUP9 ADD MSTORE PUSH1 0x8 SHR AND PUSH2 0x180 DUP7 ADD MSTORE PUSH2 0x1A0 DUP6 ADD MSTORE DUP4 DUP2 SUB PUSH2 0x1C0 DUP6 ADD MSTORE PUSH2 0x608 SWAP2 PUSH2 0x20B4 JUMP JUMPDEST SWAP1 PUSH2 0x1E0 DUP4 ADD MSTORE SUB SWAP1 RETURN JUMPDEST CALLVALUE PUSH2 0x2D0 JUMPI PUSH1 0x0 CALLDATASIZE PUSH1 0x3 NOT ADD SLT PUSH2 0x2D0 JUMPI PUSH1 0x20 PUSH1 0x40 MLOAD PUSH1 0x0 DUP2 MSTORE RETURN JUMPDEST CALLVALUE PUSH2 0x2D0 JUMPI PUSH1 0x40 CALLDATASIZE PUSH1 0x3 NOT ADD SLT PUSH2 0x2D0 JUMPI PUSH2 0x648 PUSH2 0x1F1C JUMP JUMPDEST PUSH1 0x4 CALLDATALOAD PUSH1 0x0 MSTORE PUSH1 0x0 PUSH1 0x20 MSTORE PUSH1 0x40 PUSH1 0x0 KECCAK256 SWAP1 PUSH1 0x1 DUP1 PUSH1 0xA0 SHL SUB AND PUSH1 0x0 MSTORE PUSH1 0x20 MSTORE PUSH1 0x20 PUSH1 0xFF PUSH1 0x40 PUSH1 0x0 KECCAK256 SLOAD AND PUSH1 0x40 MLOAD SWAP1 ISZERO ISZERO DUP2 MSTORE RETURN JUMPDEST CALLVALUE PUSH2 0x2D0 JUMPI PUSH1 0x80 CALLDATASIZE PUSH1 0x3 NOT ADD SLT PUSH2 0x2D0 JUMPI PUSH1 0x24 CALLDATALOAD DUP1 ISZERO ISZERO PUSH1 0x4 CALLDATALOAD DUP2 DUP4 SUB PUSH2 0x2D0 JUMPI PUSH1 0x44 CALLDATALOAD PUSH1 0x64 CALLDATALOAD SWAP4 PUSH1 0x1 PUSH1 0x1 PUSH1 0x40 SHL SUB SWAP5 DUP6 DUP2 GT PUSH2 0x2D0 JUMPI PUSH2 0x6C2 SWAP1 CALLDATASIZE SWAP1 PUSH1 0x4 ADD PUSH2 0x1FA4 JUMP JUMPDEST SWAP5 PUSH2 0x6CB PUSH2 0x2415 JUMP JUMPDEST PUSH2 0x6D9 PUSH1 0x2 SLOAD DUP6 GT ISZERO PUSH2 0x288A JUMP JUMPDEST DUP4 PUSH1 0x0 MSTORE PUSH1 0x20 SWAP2 PUSH1 0x3 DUP4 MSTORE PUSH1 0xFF PUSH1 0xC PUSH1 0x40 PUSH1 0x0 KECCAK256 ADD SLOAD AND PUSH2 0x898 JUMPI PUSH1 0x0 DUP6 DUP2 MSTORE PUSH1 0x3 DUP5 MSTORE PUSH1 0x40 SWAP1 KECCAK256 PUSH1 0xC DUP2 ADD DUP1 SLOAD PUSH1 0x1 PUSH1 0x1 PUSH1 0xA8 SHL SUB NOT AND CALLER PUSH1 0x8 SHL PUSH2 0x100 PUSH1 0x1 PUSH1 0xA8 SHL SUB AND OR PUSH1 0x1 SWAP1 DUP2 OR SWAP1 SWAP2 SSTORE TIMESTAMP PUSH1 0xD DUP4 ADD SSTORE DUP9 MLOAD SWAP2 SWAP4 PUSH1 0xE DUP6 ADD SWAP3 SWAP2 SWAP1 DUP3 GT PUSH2 0x882 JUMPI PUSH2 0x749 DUP4 SLOAD PUSH2 0x212C JUMP JUMPDEST PUSH1 0x1F DUP2 GT PUSH2 0x839 JUMPI JUMPDEST POP DUP6 SWAP10 PUSH1 0x1F DUP4 GT PUSH1 0x1 EQ PUSH2 0x7D3 JUMPI DUP3 SWAP2 DUP9 SWAP10 SWAP11 SWAP12 DUP4 SWAP3 PUSH1 0x0 SWAP11 SWAP10 SWAP11 SWAP5 PUSH2 0x7C8 JUMPI JUMPDEST POP POP SHL SWAP2 PUSH1 0x0 NOT SWAP1 PUSH1 0x3 SHL SHR NOT AND OR SWAP1 SSTORE JUMPDEST PUSH2 0x7BD JUMPI JUMPDEST POP POP PUSH1 0x40 MLOAD SWAP4 DUP5 MSTORE DUP4 ADD MSTORE PUSH32 0x1EE067CAC16C3207F1D71495C3E49E98C43C4041AB771C976A8FBAC0AC0945FB PUSH1 0x40 CALLER SWAP4 LOG3 STOP JUMPDEST PUSH1 0xF ADD SSTORE DUP2 DUP6 PUSH2 0x78A JUMP JUMPDEST ADD MLOAD SWAP3 POP DUP13 DUP1 PUSH2 0x773 JUMP JUMPDEST PUSH1 0x1F SWAP3 SWAP2 SWAP3 NOT DUP3 AND SWAP11 DUP5 PUSH1 0x0 MSTORE DUP8 PUSH1 0x0 KECCAK256 SWAP2 PUSH1 0x0 JUMPDEST DUP14 DUP2 LT PUSH2 0x824 JUMPI POP DUP4 DUP11 SWAP12 SWAP13 SWAP14 SWAP11 SWAP10 SWAP11 LT PUSH2 0x80B JUMPI JUMPDEST POP POP POP DUP2 SHL ADD SWAP1 SSTORE PUSH2 0x785 JUMP JUMPDEST ADD MLOAD PUSH1 0x0 NOT PUSH1 0xF8 DUP5 PUSH1 0x3 SHL AND SHR NOT AND SWAP1 SSTORE DUP11 DUP1 DUP1 PUSH2 0x7FE JUMP JUMPDEST DUP2 DUP4 ADD MLOAD DUP5 SSTORE SWAP3 DUP6 ADD SWAP3 SWAP2 DUP10 ADD SWAP2 DUP10 ADD PUSH2 0x7E8 JUMP JUMPDEST DUP4 PUSH1 0x0 MSTORE DUP7 PUSH1 0x0 KECCAK256 PUSH1 0x1F DUP5 ADD PUSH1 0x5 SHR DUP2 ADD SWAP2 DUP9 DUP6 LT PUSH2 0x878 JUMPI JUMPDEST PUSH1 0x1F ADD PUSH1 0x5 SHR ADD SWAP1 DUP3 SWAP1 JUMPDEST DUP3 DUP2 LT PUSH2 0x86C JUMPI POP POP PUSH2 0x752 JUMP JUMPDEST PUSH1 0x0 DUP2 SSTORE ADD DUP3 SWAP1 PUSH2 0x85E JUMP JUMPDEST SWAP1 SWAP2 POP DUP2 SWAP1 PUSH2 0x853 JUMP JUMPDEST PUSH4 0x4E487B71 PUSH1 0xE0 SHL PUSH1 0x0 MSTORE PUSH1 0x41 PUSH1 0x4 MSTORE PUSH1 0x24 PUSH1 0x0 REVERT JUMPDEST PUSH1 0x40 MLOAD PUSH3 0x461BCD PUSH1 0xE5 SHL DUP2 MSTORE PUSH1 0x4 DUP2 ADD DUP5 SWAP1 MSTORE PUSH1 0x10 PUSH1 0x24 DUP3 ADD MSTORE PUSH16 0x105B1C9958591E481D995C9A599A5959 PUSH1 0x82 SHL PUSH1 0x44 DUP3 ADD MSTORE PUSH1 0x64 SWAP1 REVERT JUMPDEST CALLVALUE PUSH2 0x2D0 JUMPI PUSH1 0x80 CALLDATASIZE PUSH1 0x3 NOT ADD SLT PUSH2 0x2D0 JUMPI PUSH1 0x2 SLOAD PUSH1 0x44 CALLDATALOAD SWAP1 PUSH1 0x24 CALLDATALOAD SWAP1 PUSH1 0x4 CALLDATALOAD PUSH1 0x64 CALLDATALOAD PUSH2 0x8FB DUP4 PUSH2 0x28CE JUMP JUMPDEST SWAP5 PUSH1 0x0 SWAP5 PUSH1 0x1 JUMPDEST DUP6 DUP2 GT ISZERO PUSH2 0x952 JUMPI DUP8 DUP8 PUSH2 0x915 DUP2 PUSH2 0x28CE JUMP JUMPDEST SWAP2 PUSH1 0x0 JUMPDEST DUP3 DUP2 LT PUSH2 0x92E JUMPI PUSH1 0x40 MLOAD DUP1 PUSH2 0x3A0 DUP7 DUP3 PUSH2 0x20F1 JUMP JUMPDEST DUP1 PUSH2 0x93C PUSH2 0x94D SWAP3 DUP5 PUSH2 0x2841 JUMP JUMPDEST MLOAD PUSH2 0x947 DUP3 DUP8 PUSH2 0x2841 JUMP JUMPDEST MSTORE PUSH2 0x2832 JUMP JUMPDEST PUSH2 0x919 JUMP JUMPDEST DUP1 PUSH1 0x0 MSTORE PUSH1 0x20 PUSH1 0x3 DUP2 MSTORE DUP5 PUSH2 0x96D PUSH1 0x4 PUSH1 0x40 PUSH1 0x0 KECCAK256 ADD PUSH2 0x220C JUMP JUMPDEST SWAP2 DUP3 MLOAD SWAP3 DUP6 DUP10 DUP6 SLT ISZERO SWAP5 DUP6 PUSH2 0x9D9 JUMPI JUMPDEST POP POP DUP4 PUSH2 0x9CA JUMPI JUMPDEST DUP4 PUSH2 0x9BC JUMPI JUMPDEST POP POP POP PUSH2 0x9A1 JUMPI JUMPDEST PUSH2 0x99C SWAP1 PUSH2 0x2832 JUMP JUMPDEST PUSH2 0x902 JUMP JUMPDEST SWAP6 PUSH2 0x9B4 DUP2 DUP9 PUSH2 0x947 PUSH2 0x99C SWAP5 DUP13 PUSH2 0x2841 JUMP JUMPDEST SWAP7 SWAP1 POP PUSH2 0x993 JUMP JUMPDEST ADD MLOAD SGT ISZERO SWAP1 POP DUP5 DUP11 DUP1 PUSH2 0x98B JUMP JUMPDEST SWAP3 POP DUP6 DUP2 DUP5 ADD MLOAD SLT ISZERO SWAP3 PUSH2 0x985 JUMP JUMPDEST SGT ISZERO SWAP4 POP DUP6 DUP14 PUSH2 0x97D JUMP JUMPDEST CALLVALUE PUSH2 0x2D0 JUMPI PUSH1 0x20 CALLDATASIZE PUSH1 0x3 NOT ADD SLT PUSH2 0x2D0 JUMPI PUSH1 0x4 CALLDATALOAD PUSH1 0x0 MSTORE PUSH1 0x6 PUSH1 0x20 MSTORE PUSH1 0x20 PUSH1 0x40 PUSH1 0x0 KECCAK256 SLOAD PUSH1 0x40 MLOAD SWAP1 DUP2 MSTORE RETURN JUMPDEST CALLVALUE PUSH2 0x2D0 JUMPI PUSH1 0x20 CALLDATASIZE PUSH1 0x3 NOT ADD SLT PUSH2 0x2D0 JUMPI PUSH2 0xA29 PUSH2 0x1F06 JUMP JUMPDEST PUSH2 0xA31 PUSH2 0x2248 JUMP JUMPDEST PUSH1 0x1 PUSH1 0x1 PUSH1 0xA0 SHL SUB AND PUSH1 0x0 DUP2 DUP2 MSTORE PUSH32 0x806E2A7D00C072D747779081BBE49E052B9BAB0BB13B720D89DD394D70BF16A6 PUSH1 0x20 MSTORE PUSH1 0x40 SWAP1 KECCAK256 SLOAD PUSH32 0xF52EF53EC1CCD82BECD71536891A4878949C44F3E710519CB7B39D90C38FED26 SWAP2 SWAP1 PUSH1 0xFF AND ISZERO PUSH2 0xA95 JUMPI STOP JUMPDEST DUP2 PUSH1 0x0 MSTORE PUSH1 0x0 PUSH1 0x20 MSTORE PUSH1 0x40 PUSH1 0x0 KECCAK256 DUP2 PUSH1 0x0 MSTORE PUSH1 0x20 MSTORE PUSH1 0x40 PUSH1 0x0 KECCAK256 PUSH1 0x1 PUSH1 0xFF NOT DUP3 SLOAD AND OR SWAP1 SSTORE CALLER SWAP2 PUSH32 0x2F8788117E7EFF1D82E926EC794901D17C78024A50270940304540A733656F0D PUSH1 0x0 DUP1 LOG4 STOP JUMPDEST CALLVALUE PUSH2 0x2D0 JUMPI PUSH1 0x40 CALLDATASIZE PUSH1 0x3 NOT ADD SLT PUSH2 0x2D0 JUMPI PUSH1 0x4 CALLDATALOAD PUSH1 0x1 PUSH1 0x1 PUSH1 0x40 SHL SUB DUP2 GT PUSH2 0x2D0 JUMPI PUSH2 0xB13 SWAP1 CALLDATASIZE SWAP1 PUSH1 0x4 ADD PUSH2 0x1FA4 JUMP JUMPDEST PUSH2 0xB2F PUSH1 0x20 PUSH1 0x24 CALLDATALOAD SWAP3 DUP2 PUSH1 0x40 MLOAD SWAP4 DUP3 DUP6 DUP1 SWAP5 MLOAD SWAP4 DUP5 SWAP3 ADD PUSH2 0x2091 JUMP JUMPDEST DUP2 ADD PUSH1 0x5 DUP2 MSTORE SUB ADD SWAP1 KECCAK256 DUP1 SLOAD DUP3 LT ISZERO PUSH2 0x2D0 JUMPI PUSH1 0x20 SWAP2 PUSH2 0x446 SWAP2 PUSH2 0x20D9 JUMP JUMPDEST CALLVALUE PUSH2 0x2D0 JUMPI PUSH1 0x0 CALLDATASIZE PUSH1 0x3 NOT ADD SLT PUSH2 0x2D0 JUMPI PUSH1 0x20 PUSH1 0x2 SLOAD PUSH1 0x40 MLOAD SWAP1 DUP2 MSTORE RETURN JUMPDEST CALLVALUE PUSH2 0x2D0 JUMPI PUSH1 0x60 CALLDATASIZE PUSH1 0x3 NOT ADD SLT PUSH2 0x2D0 JUMPI PUSH1 0x4 CALLDATALOAD PUSH32 0x1BFC43AB2FBFD9BF699BC08492EB03FEE280E1218C69D3104BA4B96FF172B96D PUSH1 0x40 PUSH1 0x24 CALLDATALOAD PUSH1 0x44 CALLDATALOAD PUSH2 0xBB1 PUSH2 0x2415 JUMP JUMPDEST PUSH2 0xBBF PUSH1 0x2 SLOAD DUP7 GT ISZERO PUSH2 0x288A JUMP JUMPDEST PUSH4 0x55D4A7F NOT DUP3 SLT ISZERO DUP1 PUSH2 0xC22 JUMPI JUMPDEST PUSH2 0xBD7 SWAP1 PUSH2 0x27B3 JUMP JUMPDEST PUSH4 0xABA94FF NOT DUP2 SLT ISZERO DUP1 PUSH2 0xC14 JUMPI JUMPDEST PUSH2 0xBEF SWAP1 PUSH2 0x27F2 JUMP JUMPDEST DUP5 PUSH1 0x0 MSTORE PUSH1 0x3 PUSH1 0x20 MSTORE DUP1 PUSH1 0x5 DUP5 PUSH1 0x0 KECCAK256 DUP5 PUSH1 0x4 DUP3 ADD SSTORE ADD SSTORE DUP3 MLOAD SWAP2 DUP3 MSTORE PUSH1 0x20 DUP3 ADD MSTORE LOG2 STOP JUMPDEST POP PUSH4 0xABA9500 DUP2 SGT ISZERO PUSH2 0xBE6 JUMP JUMPDEST POP PUSH4 0x55D4A80 DUP3 SGT ISZERO PUSH2 0xBCE JUMP JUMPDEST CALLVALUE PUSH2 0x2D0 JUMPI PUSH1 0x20 CALLDATASIZE PUSH1 0x3 NOT ADD SLT PUSH2 0x2D0 JUMPI PUSH1 0x4 CALLDATALOAD PUSH1 0x0 PUSH1 0x80 PUSH1 0x40 MLOAD PUSH2 0xC54 DUP2 PUSH2 0x1F32 JUMP JUMPDEST DUP3 DUP2 MSTORE DUP3 PUSH1 0x20 DUP3 ADD MSTORE DUP3 PUSH1 0x40 DUP3 ADD MSTORE DUP3 PUSH1 0x60 DUP3 ADD MSTORE ADD MSTORE PUSH2 0xC79 PUSH1 0x2 SLOAD DUP3 GT ISZERO PUSH2 0x288A JUMP JUMPDEST PUSH1 0x0 MSTORE PUSH1 0x3 PUSH1 0x20 MSTORE PUSH1 0x40 PUSH1 0x0 KECCAK256 DUP1 SLOAD PUSH1 0x1 DUP1 PUSH1 0xA0 SHL SUB PUSH1 0x1 DUP4 ADD SLOAD AND SWAP2 PUSH1 0xB DUP2 ADD SLOAD SWAP1 PUSH1 0xFF PUSH1 0xC DUP3 ADD SLOAD AND PUSH2 0xD56 PUSH1 0xF DUP4 ADD SLOAD SWAP3 PUSH2 0xCB9 PUSH1 0x2 DUP3 ADD PUSH2 0x2166 JUMP JUMPDEST PUSH2 0xD48 PUSH2 0xD15 PUSH2 0xCCB PUSH1 0x3 DUP6 ADD PUSH2 0x2166 JUMP JUMPDEST PUSH2 0xD07 PUSH2 0xCE6 PUSH1 0xA PUSH2 0xCDF PUSH1 0x4 DUP10 ADD PUSH2 0x220C JUMP JUMPDEST SWAP8 ADD PUSH2 0x2166 JUMP JUMPDEST SWAP5 PUSH1 0x40 MLOAD SWAP13 DUP14 SWAP13 DUP14 MSTORE PUSH1 0x20 DUP14 ADD MSTORE PUSH1 0x40 DUP13 PUSH2 0x1A0 SWAP2 DUP3 SWAP2 ADD MSTORE DUP13 ADD SWAP1 PUSH2 0x20B4 JUMP JUMPDEST SWAP1 DUP11 DUP3 SUB PUSH1 0x60 DUP13 ADD MSTORE PUSH2 0x20B4 JUMP JUMPDEST SWAP3 PUSH1 0x80 DUP10 ADD SWAP1 PUSH1 0x80 DUP1 SWAP2 DUP1 MLOAD DUP5 MSTORE PUSH1 0x20 DUP2 ADD MLOAD PUSH1 0x20 DUP6 ADD MSTORE PUSH1 0x40 DUP2 ADD MLOAD PUSH1 0x40 DUP6 ADD MSTORE PUSH1 0x60 DUP2 ADD MLOAD PUSH1 0x60 DUP6 ADD MSTORE ADD MLOAD SWAP2 ADD MSTORE JUMP JUMPDEST DUP7 DUP3 SUB PUSH2 0x120 DUP9 ADD MSTORE PUSH2 0x20B4 JUMP JUMPDEST SWAP3 PUSH2 0x140 DUP6 ADD MSTORE ISZERO ISZERO PUSH2 0x160 DUP5 ADD MSTORE PUSH2 0x180 DUP4 ADD MSTORE SUB SWAP1 RETURN JUMPDEST CALLVALUE PUSH2 0x2D0 JUMPI PUSH2 0x140 CALLDATASIZE PUSH1 0x3 NOT ADD SLT PUSH2 0x2D0 JUMPI PUSH1 0x4 CALLDATALOAD PUSH1 0x1 PUSH1 0x1 PUSH1 0x40 SHL SUB DUP2 GT PUSH2 0x2D0 JUMPI PUSH2 0xDA0 SWAP1 CALLDATASIZE SWAP1 PUSH1 0x4 ADD PUSH2 0x1FA4 JUMP JUMPDEST PUSH1 0x24 CALLDATALOAD PUSH1 0x1 PUSH1 0x1 PUSH1 0x40 SHL SUB DUP2 GT PUSH2 0x2D0 JUMPI PUSH2 0xDBF SWAP1 CALLDATASIZE SWAP1 PUSH1 0x4 ADD PUSH2 0x1FA4 JUMP JUMPDEST PUSH1 0xC4 CALLDATALOAD PUSH1 0x1 PUSH1 0x1 PUSH1 0x40 SHL SUB DUP2 GT PUSH2 0x2D0 JUMPI PUSH2 0xDDE SWAP1 CALLDATASIZE SWAP1 PUSH1 0x4 ADD PUSH2 0x1FA4 JUMP JUMPDEST SWAP1 PUSH1 0xE4 CALLDATALOAD PUSH1 0x1 PUSH1 0x1 PUSH1 0x40 SHL SUB DUP2 GT PUSH2 0x2D0 JUMPI PUSH2 0xDFE SWAP1 CALLDATASIZE SWAP1 PUSH1 0x4 ADD PUSH2 0x2011 JUMP JUMPDEST PUSH2 0x104 CALLDATALOAD SWAP1 PUSH1 0x1 PUSH1 0x1 PUSH1 0x40 SHL SUB DUP3 GT PUSH2 0x2D0 JUMPI CALLDATASIZE PUSH1 0x23 DUP4 ADD SLT ISZERO PUSH2 0x2D0 JUMPI DUP2 PUSH1 0x4 ADD CALLDATALOAD SWAP2 PUSH2 0xE2B DUP4 PUSH2 0x1FFA JUMP JUMPDEST SWAP3 PUSH2 0xE39 PUSH1 0x40 MLOAD SWAP5 DUP6 PUSH2 0x1F83 JUMP JUMPDEST DUP1 DUP5 MSTORE PUSH1 0x24 PUSH1 0x20 DUP6 ADD SWAP2 PUSH1 0x5 SHL DUP4 ADD ADD SWAP2 CALLDATASIZE DUP4 GT PUSH2 0x2D0 JUMPI PUSH1 0x24 ADD SWAP1 JUMPDEST DUP3 DUP3 LT PUSH2 0x1C1F JUMPI POP POP POP PUSH2 0x124 CALLDATALOAD PUSH1 0x1 PUSH1 0x1 PUSH1 0x40 SHL SUB DUP2 GT PUSH2 0x2D0 JUMPI PUSH2 0xE80 SWAP1 CALLDATASIZE SWAP1 PUSH1 0x4 ADD PUSH2 0x2011 JUMP JUMPDEST CALLER PUSH1 0x0 SWAP1 DUP2 MSTORE PUSH32 0x806E2A7D00C072D747779081BBE49E052B9BAB0BB13B720D89DD394D70BF16A6 PUSH1 0x20 MSTORE PUSH1 0x40 SWAP1 KECCAK256 SLOAD SWAP1 SWAP6 SWAP1 PUSH32 0xF52EF53EC1CCD82BECD71536891A4878949C44F3E710519CB7B39D90C38FED26 SWAP1 PUSH1 0xFF AND ISZERO PUSH2 0x1A8A JUMPI POP PUSH1 0x2 PUSH1 0x1 SLOAD EQ PUSH2 0x1A45 JUMPI PUSH1 0x2 PUSH1 0x1 SSTORE DUP1 MLOAD ISZERO PUSH2 0x1A00 JUMPI DUP2 MLOAD ISZERO PUSH2 0x19BB JUMPI DUP2 MLOAD DUP4 MLOAD SUB PUSH2 0x1976 JUMPI DUP2 MLOAD DUP7 MLOAD SUB PUSH2 0x1931 JUMPI PUSH4 0x55D4A7F NOT PUSH1 0x44 CALLDATALOAD SLT ISZERO DUP1 PUSH2 0x1921 JUMPI JUMPDEST PUSH2 0xF26 SWAP1 PUSH2 0x27B3 JUMP JUMPDEST PUSH4 0xABA94FF NOT PUSH1 0x64 CALLDATALOAD SLT ISZERO DUP1 PUSH2 0x1911 JUMPI JUMPDEST PUSH2 0xF40 SWAP1 PUSH2 0x27F2 JUMP JUMPDEST PUSH1 0x1 PUSH1 0x2 SLOAD ADD SWAP5 DUP6 PUSH1 0x2 SSTORE PUSH1 0x40 MLOAD PUSH2 0xF57 DUP2 PUSH2 0x1F32 JUMP JUMPDEST PUSH1 0x44 CALLDATALOAD DUP2 MSTORE PUSH1 0x64 CALLDATALOAD PUSH1 0x20 DUP3 ADD MSTORE PUSH1 0x84 CALLDATALOAD PUSH1 0x40 DUP3 ADD MSTORE PUSH1 0xA4 CALLDATALOAD PUSH1 0x60 DUP3 ADD MSTORE TIMESTAMP PUSH1 0x80 DUP3 ADD MSTORE DUP7 PUSH1 0x0 MSTORE PUSH1 0x3 PUSH1 0x20 MSTORE PUSH1 0x40 PUSH1 0x0 KECCAK256 SWAP6 DUP8 DUP8 SSTORE PUSH1 0x1 DUP8 ADD CALLER PUSH12 0xFFFFFFFFFFFFFFFFFFFFFFFF PUSH1 0xA0 SHL DUP3 SLOAD AND OR SWAP1 SSTORE DUP4 MLOAD PUSH1 0x1 PUSH1 0x1 PUSH1 0x40 SHL SUB DUP2 GT PUSH2 0x882 JUMPI PUSH2 0xFC4 PUSH1 0x2 DUP10 ADD SLOAD PUSH2 0x212C JUMP JUMPDEST PUSH1 0x1F DUP2 GT PUSH2 0x18CA JUMPI JUMPDEST POP DUP1 PUSH1 0x20 PUSH1 0x1F DUP3 GT PUSH1 0x1 EQ PUSH2 0x185D JUMPI PUSH1 0x0 SWAP2 PUSH2 0x1852 JUMPI JUMPDEST POP DUP2 PUSH1 0x1 SHL SWAP2 PUSH1 0x0 NOT SWAP1 PUSH1 0x3 SHL SHR NOT AND OR PUSH1 0x2 DUP9 ADD SSTORE JUMPDEST DUP1 MLOAD SWAP1 PUSH1 0x1 PUSH1 0x1 PUSH1 0x40 SHL SUB DUP3 GT PUSH2 0x882 JUMPI PUSH2 0x1019 PUSH1 0x3 DUP10 ADD SLOAD PUSH2 0x212C JUMP JUMPDEST PUSH1 0x1F DUP2 GT PUSH2 0x180B JUMPI JUMPDEST POP PUSH1 0x20 SWAP1 PUSH1 0x1F DUP4 GT PUSH1 0x1 EQ PUSH2 0x1798 JUMPI PUSH1 0x80 SWAP4 SWAP3 SWAP2 PUSH1 0x0 SWAP2 DUP4 PUSH2 0x178D JUMPI JUMPDEST POP POP DUP2 PUSH1 0x1 SHL SWAP2 PUSH1 0x0 NOT SWAP1 PUSH1 0x3 SHL SHR NOT AND OR PUSH1 0x3 DUP9 ADD SSTORE JUMPDEST DUP1 MLOAD PUSH1 0x4 DUP9 ADD SSTORE PUSH1 0x20 DUP2 ADD MLOAD PUSH1 0x5 DUP9 ADD SSTORE PUSH1 0x40 DUP2 ADD MLOAD PUSH1 0x6 DUP9 ADD SSTORE PUSH1 0x60 DUP2 ADD MLOAD PUSH1 0x7 DUP9 ADD SSTORE ADD MLOAD PUSH1 0x8 DUP7 ADD SSTORE DUP1 MLOAD SWAP1 PUSH1 0x1 PUSH1 0x1 PUSH1 0x40 SHL SUB DUP3 GT PUSH2 0x882 JUMPI DUP2 SWAP1 PUSH2 0x10A3 PUSH1 0xA DUP9 ADD SLOAD PUSH2 0x212C JUMP JUMPDEST PUSH1 0x1F DUP2 GT PUSH2 0x173A JUMPI JUMPDEST POP PUSH1 0x20 SWAP1 PUSH1 0x1F DUP4 GT PUSH1 0x1 EQ PUSH2 0x16C8 JUMPI PUSH1 0x0 SWAP3 PUSH2 0x16BD JUMPI JUMPDEST POP POP DUP2 PUSH1 0x1 SHL SWAP2 PUSH1 0x0 NOT SWAP1 PUSH1 0x3 SHL SHR NOT AND OR PUSH1 0xA DUP6 ADD SSTORE JUMPDEST TIMESTAMP PUSH1 0xB DUP6 ADD SSTORE PUSH1 0xC DUP5 ADD DUP1 SLOAD PUSH1 0xFF NOT AND SWAP1 SSTORE PUSH1 0x0 JUMPDEST DUP3 MLOAD DUP2 LT ISZERO PUSH2 0x15CF JUMPI PUSH2 0x1103 DUP2 DUP5 PUSH2 0x2841 JUMP JUMPDEST MLOAD PUSH2 0x110E DUP3 DUP10 PUSH2 0x2841 JUMP JUMPDEST MLOAD PUSH2 0x1119 DUP4 DUP8 PUSH2 0x2841 JUMP JUMPDEST MLOAD SWAP1 PUSH1 0x40 MLOAD SWAP3 PUSH2 0x1128 DUP5 PUSH2 0x1F4D JUMP JUMPDEST DUP4 MSTORE PUSH1 0x20 DUP4 ADD MSTORE PUSH1 0x40 DUP3 ADD MSTORE TIMESTAMP PUSH1 0x60 DUP3 ADD MSTORE PUSH1 0x40 MLOAD DUP1 PUSH1 0x40 DUP2 ADD LT PUSH1 0x1 PUSH1 0x1 PUSH1 0x40 SHL SUB PUSH1 0x40 DUP4 ADD GT OR PUSH2 0x882 JUMPI PUSH1 0x40 DUP2 ADD PUSH1 0x40 MSTORE PUSH1 0x4 DUP2 MSTORE PUSH4 0x4A504547 PUSH1 0xE0 SHL PUSH1 0x20 DUP3 ADD MSTORE PUSH1 0x80 DUP3 ADD MSTORE PUSH1 0x0 PUSH1 0xA0 DUP3 ADD MSTORE PUSH1 0x0 PUSH1 0xC0 DUP3 ADD MSTORE PUSH1 0x9 DUP7 ADD SLOAD SWAP1 PUSH1 0x1 PUSH1 0x40 SHL DUP3 LT ISZERO PUSH2 0x882 JUMPI PUSH1 0x1 DUP3 ADD DUP1 PUSH1 0x9 DUP10 ADD SSTORE DUP3 LT ISZERO PUSH2 0x15B9 JUMPI PUSH1 0x9 DUP8 ADD PUSH1 0x0 MSTORE PUSH1 0x20 PUSH1 0x0 KECCAK256 SWAP1 DUP1 MLOAD DUP1 MLOAD SWAP1 PUSH1 0x1 PUSH1 0x1 PUSH1 0x40 SHL SUB DUP3 GT PUSH2 0x882 JUMPI DUP2 SWAP1 PUSH2 0x11D4 PUSH1 0x7 DUP8 MUL DUP7 ADD SLOAD PUSH2 0x212C JUMP JUMPDEST PUSH1 0x1F DUP2 GT PUSH2 0x1564 JUMPI JUMPDEST POP PUSH1 0x20 SWAP1 PUSH1 0x1F DUP4 GT PUSH1 0x1 EQ PUSH2 0x14EE JUMPI PUSH1 0x0 SWAP3 PUSH2 0x14E3 JUMPI JUMPDEST POP POP DUP2 PUSH1 0x1 SHL SWAP2 PUSH1 0x0 NOT SWAP1 PUSH1 0x3 SHL SHR NOT AND OR PUSH1 0x7 DUP5 MUL DUP4 ADD SSTORE JUMPDEST PUSH1 0x20 DUP2 ADD MLOAD DUP1 MLOAD SWAP1 PUSH1 0x1 PUSH1 0x1 PUSH1 0x40 SHL SUB DUP3 GT PUSH2 0x882 JUMPI DUP2 SWAP1 PUSH2 0x1238 PUSH1 0x1 PUSH1 0x7 DUP9 MUL DUP8 ADD ADD SLOAD PUSH2 0x212C JUMP JUMPDEST PUSH1 0x1F DUP2 GT PUSH2 0x148B JUMPI JUMPDEST POP PUSH1 0x20 SWAP1 PUSH1 0x1F DUP4 GT PUSH1 0x1 EQ PUSH2 0x140F JUMPI PUSH1 0x0 SWAP3 PUSH2 0x1404 JUMPI JUMPDEST POP POP DUP2 PUSH1 0x1 SHL SWAP2 PUSH1 0x0 NOT SWAP1 PUSH1 0x3 SHL SHR NOT AND OR PUSH1 0x1 PUSH1 0x7 DUP6 MUL DUP5 ADD ADD SSTORE JUMPDEST PUSH1 0x40 DUP2 ADD MLOAD PUSH1 0x2 PUSH1 0x7 DUP6 MUL DUP5 ADD ADD SSTORE PUSH1 0x60 DUP2 ADD MLOAD PUSH1 0x3 PUSH1 0x7 DUP6 MUL DUP5 ADD ADD SSTORE PUSH1 0x80 DUP2 ADD MLOAD DUP1 MLOAD SWAP1 PUSH1 0x1 PUSH1 0x1 PUSH1 0x40 SHL SUB DUP3 GT PUSH2 0x882 JUMPI PUSH2 0x12BB PUSH1 0x4 PUSH1 0x7 DUP8 MUL DUP7 ADD ADD SLOAD PUSH2 0x212C JUMP JUMPDEST PUSH1 0x1F DUP2 GT PUSH2 0x13B8 JUMPI JUMPDEST POP PUSH1 0x20 SWAP1 PUSH1 0x1F DUP4 GT PUSH1 0x1 EQ PUSH2 0x1332 JUMPI PUSH1 0x6 SWAP4 DUP4 PUSH2 0x1322 SWAP9 SWAP8 SWAP7 SWAP5 PUSH1 0x7 SWAP5 PUSH1 0xC0 SWAP5 PUSH1 0x0 SWAP3 PUSH2 0x1327 JUMPI JUMPDEST POP POP DUP2 PUSH1 0x1 SHL SWAP2 PUSH1 0x0 NOT SWAP1 PUSH1 0x3 SHL SHR NOT AND OR PUSH1 0x4 DUP5 DUP9 MUL DUP7 ADD ADD SSTORE JUMPDEST PUSH1 0xA0 DUP2 ADD MLOAD PUSH1 0x5 DUP5 DUP9 MUL DUP7 ADD ADD SSTORE ADD MLOAD SWAP4 MUL ADD ADD SSTORE PUSH2 0x2832 JUMP JUMPDEST PUSH2 0x10F0 JUMP JUMPDEST ADD MLOAD SWAP1 POP CODESIZE DUP1 PUSH2 0x12EC JUMP JUMPDEST SWAP1 PUSH1 0x4 PUSH1 0x7 DUP8 MUL DUP7 ADD ADD PUSH1 0x0 MSTORE PUSH1 0x20 PUSH1 0x0 KECCAK256 SWAP2 PUSH1 0x0 JUMPDEST PUSH1 0x1F NOT DUP6 AND DUP2 LT PUSH2 0x13A0 JUMPI POP SWAP4 PUSH1 0x1 DUP5 PUSH1 0x7 SWAP5 PUSH1 0xC0 SWAP5 PUSH1 0x6 SWAP9 PUSH2 0x1322 SWAP13 SWAP12 SWAP11 SWAP9 PUSH1 0x1F NOT DUP2 AND LT PUSH2 0x1387 JUMPI JUMPDEST POP POP POP DUP2 SHL ADD PUSH1 0x4 DUP5 DUP9 MUL DUP7 ADD ADD SSTORE PUSH2 0x1308 JUMP JUMPDEST ADD MLOAD PUSH1 0x0 NOT PUSH1 0xF8 DUP5 PUSH1 0x3 SHL AND SHR NOT AND SWAP1 SSTORE CODESIZE DUP1 DUP1 PUSH2 0x1373 JUMP JUMPDEST SWAP2 SWAP3 PUSH1 0x20 PUSH1 0x1 DUP2 SWAP3 DUP7 DUP6 ADD MLOAD DUP2 SSTORE ADD SWAP5 ADD SWAP3 ADD PUSH2 0x1348 JUMP JUMPDEST PUSH1 0x4 PUSH1 0x7 DUP8 MUL DUP7 ADD ADD PUSH1 0x0 MSTORE PUSH1 0x20 PUSH1 0x0 KECCAK256 PUSH1 0x1F DUP5 ADD PUSH1 0x5 SHR DUP2 ADD PUSH1 0x20 DUP6 LT PUSH2 0x13FD JUMPI JUMPDEST PUSH1 0x1F DUP4 ADD PUSH1 0x5 SHR DUP3 ADD DUP2 LT PUSH2 0x13F1 JUMPI POP POP PUSH2 0x12C4 JUMP JUMPDEST PUSH1 0x0 DUP2 SSTORE PUSH1 0x1 ADD PUSH2 0x13DB JUMP JUMPDEST POP DUP1 PUSH2 0x13DB JUMP JUMPDEST ADD MLOAD SWAP1 POP DUP13 DUP1 PUSH2 0x1258 JUMP JUMPDEST SWAP3 POP PUSH1 0x1 PUSH1 0x7 DUP8 MUL DUP7 ADD ADD PUSH1 0x0 MSTORE PUSH1 0x20 PUSH1 0x0 KECCAK256 SWAP1 PUSH1 0x0 SWAP4 JUMPDEST PUSH1 0x1F NOT DUP5 AND DUP6 LT PUSH2 0x1470 JUMPI PUSH1 0x1 SWAP5 POP DUP4 PUSH1 0x1F NOT DUP2 AND LT PUSH2 0x1457 JUMPI JUMPDEST POP POP POP DUP2 SHL ADD PUSH1 0x1 PUSH1 0x7 DUP6 MUL DUP5 ADD ADD SSTORE PUSH2 0x1275 JUMP JUMPDEST ADD MLOAD PUSH1 0x0 NOT PUSH1 0xF8 DUP5 PUSH1 0x3 SHL AND SHR NOT AND SWAP1 SSTORE DUP13 DUP1 DUP1 PUSH2 0x1442 JUMP JUMPDEST DUP2 DUP2 ADD MLOAD DUP4 SSTORE PUSH1 0x20 SWAP5 DUP6 ADD SWAP5 PUSH1 0x1 SWAP1 SWAP4 ADD SWAP3 SWAP1 SWAP2 ADD SWAP1 PUSH2 0x1427 JUMP JUMPDEST SWAP1 SWAP2 POP PUSH1 0x1 PUSH1 0x7 DUP8 MUL DUP7 ADD ADD PUSH1 0x0 MSTORE PUSH1 0x20 PUSH1 0x0 KECCAK256 PUSH1 0x1F DUP5 ADD PUSH1 0x5 SHR DUP2 ADD PUSH1 0x20 DUP6 LT PUSH2 0x14DC JUMPI JUMPDEST SWAP1 DUP5 SWAP4 SWAP3 SWAP2 JUMPDEST PUSH1 0x1F DUP4 ADD PUSH1 0x5 SHR DUP3 ADD DUP2 LT PUSH2 0x14CD JUMPI POP POP PUSH2 0x1241 JUMP JUMPDEST PUSH1 0x0 DUP2 SSTORE DUP6 SWAP5 POP PUSH1 0x1 ADD PUSH2 0x14B7 JUMP JUMPDEST POP DUP1 PUSH2 0x14B1 JUMP JUMPDEST ADD MLOAD SWAP1 POP DUP13 DUP1 PUSH2 0x11F4 JUMP JUMPDEST SWAP3 POP PUSH1 0x7 DUP7 MUL DUP6 ADD PUSH1 0x0 MSTORE PUSH1 0x20 PUSH1 0x0 KECCAK256 SWAP1 PUSH1 0x0 SWAP4 JUMPDEST PUSH1 0x1F NOT DUP5 AND DUP6 LT PUSH2 0x1549 JUMPI PUSH1 0x1 SWAP5 POP DUP4 PUSH1 0x1F NOT DUP2 AND LT PUSH2 0x1530 JUMPI JUMPDEST POP POP POP DUP2 SHL ADD PUSH1 0x7 DUP5 MUL DUP4 ADD SSTORE PUSH2 0x120E JUMP JUMPDEST ADD MLOAD PUSH1 0x0 NOT PUSH1 0xF8 DUP5 PUSH1 0x3 SHL AND SHR NOT AND SWAP1 SSTORE DUP13 DUP1 DUP1 PUSH2 0x151E JUMP JUMPDEST DUP2 DUP2 ADD MLOAD DUP4 SSTORE PUSH1 0x20 SWAP5 DUP6 ADD SWAP5 PUSH1 0x1 SWAP1 SWAP4 ADD SWAP3 SWAP1 SWAP2 ADD SWAP1 PUSH2 0x1503 JUMP JUMPDEST SWAP1 SWAP2 POP PUSH1 0x7 DUP7 MUL DUP6 ADD PUSH1 0x0 MSTORE PUSH1 0x20 PUSH1 0x0 KECCAK256 PUSH1 0x1F DUP5 ADD PUSH1 0x5 SHR DUP2 ADD PUSH1 0x20 DUP6 LT PUSH2 0x15B2 JUMPI JUMPDEST SWAP1 DUP5 SWAP4 SWAP3 SWAP2 JUMPDEST PUSH1 0x1F DUP4 ADD PUSH1 0x5 SHR DUP3 ADD DUP2 LT PUSH2 0x15A3 JUMPI POP POP PUSH2 0x11DD JUMP JUMPDEST PUSH1 0x0 DUP2 SSTORE DUP6 SWAP5 POP PUSH1 0x1 ADD PUSH2 0x158D JUMP JUMPDEST POP DUP1 PUSH2 0x1587 JUMP JUMPDEST PUSH4 0x4E487B71 PUSH1 0xE0 SHL PUSH1 0x0 MSTORE PUSH1 0x32 PUSH1 0x4 MSTORE PUSH1 0x24 PUSH1 0x0 REVERT JUMPDEST POP DUP5 DUP3 CALLER PUSH1 0x0 MSTORE PUSH1 0x4 PUSH1 0x20 MSTORE PUSH2 0x15E9 DUP3 PUSH1 0x40 PUSH1 0x0 KECCAK256 PUSH2 0x2855 JUMP JUMPDEST PUSH2 0x1611 DUP3 PUSH1 0x40 MLOAD PUSH1 0x20 DUP2 DUP8 MLOAD PUSH2 0x1602 DUP2 DUP4 DUP6 DUP13 ADD PUSH2 0x2091 JUMP JUMPDEST DUP2 ADD PUSH1 0x5 DUP2 MSTORE SUB ADD SWAP1 KECCAK256 PUSH2 0x2855 JUMP JUMPDEST PUSH1 0x40 MLOAD SWAP1 PUSH1 0x20 DUP3 ADD SWAP1 PUSH1 0x44 CALLDATALOAD DUP3 MSTORE PUSH1 0x64 CALLDATALOAD PUSH1 0x40 DUP5 ADD MSTORE PUSH1 0x40 DUP4 MSTORE PUSH1 0x60 DUP4 ADD DUP4 DUP2 LT PUSH1 0x1 PUSH1 0x1 PUSH1 0x40 SHL SUB DUP3 GT OR PUSH2 0x882 JUMPI PUSH1 0x20 SWAP6 PUSH2 0x1691 PUSH32 0x2E4F38DA55461B9A668617B5F5B98207993771446B025980C82D588652CCB58C SWAP4 DUP8 SWAP6 DUP5 PUSH1 0x40 MSTORE DUP8 MLOAD SWAP1 KECCAK256 PUSH1 0x0 MSTORE PUSH1 0x6 DUP10 MSTORE DUP6 PUSH1 0x40 PUSH1 0x0 KECCAK256 SSTORE MLOAD SWAP2 PUSH1 0x80 DUP5 MSTORE PUSH1 0xE0 DUP8 ADD SWAP1 PUSH2 0x20B4 JUMP JUMPDEST SWAP1 PUSH1 0x44 CALLDATALOAD PUSH1 0x80 DUP8 ADD MSTORE PUSH1 0x64 CALLDATALOAD PUSH1 0xA0 DUP8 ADD MSTORE PUSH1 0xC0 DUP7 ADD MSTORE CALLER SWAP5 PUSH1 0x5F NOT SWAP2 SUB ADD SWAP1 LOG3 PUSH1 0x1 DUP1 SSTORE PUSH1 0x40 MLOAD SWAP1 DUP2 MSTORE RETURN JUMPDEST ADD MLOAD SWAP1 POP DUP9 DUP1 PUSH2 0x10C3 JUMP JUMPDEST SWAP3 POP PUSH1 0xA DUP8 ADD PUSH1 0x0 MSTORE PUSH1 0x20 PUSH1 0x0 KECCAK256 SWAP1 PUSH1 0x0 SWAP4 JUMPDEST PUSH1 0x1F NOT DUP5 AND DUP6 LT PUSH2 0x171F JUMPI PUSH1 0x1 SWAP5 POP DUP4 PUSH1 0x1F NOT DUP2 AND LT PUSH2 0x1706 JUMPI JUMPDEST POP POP POP DUP2 SHL ADD PUSH1 0xA DUP6 ADD SSTORE PUSH2 0x10DB JUMP JUMPDEST ADD MLOAD PUSH1 0x0 NOT PUSH1 0xF8 DUP5 PUSH1 0x3 SHL AND SHR NOT AND SWAP1 SSTORE DUP9 DUP1 DUP1 PUSH2 0x16F6 JUMP JUMPDEST DUP2 DUP2 ADD MLOAD DUP4 SSTORE PUSH1 0x20 SWAP5 DUP6 ADD SWAP5 PUSH1 0x1 SWAP1 SWAP4 ADD SWAP3 SWAP1 SWAP2 ADD SWAP1 PUSH2 0x16DB JUMP JUMPDEST SWAP1 SWAP2 POP PUSH1 0xA DUP8 ADD PUSH1 0x0 MSTORE PUSH1 0x20 PUSH1 0x0 KECCAK256 PUSH1 0x1F DUP5 ADD PUSH1 0x5 SHR DUP2 ADD PUSH1 0x20 DUP6 LT PUSH2 0x1786 JUMPI JUMPDEST SWAP1 DUP5 SWAP4 SWAP3 SWAP2 JUMPDEST PUSH1 0x1F DUP4 ADD PUSH1 0x5 SHR DUP3 ADD DUP2 LT PUSH2 0x1777 JUMPI POP POP PUSH2 0x10AC JUMP JUMPDEST PUSH1 0x0 DUP2 SSTORE DUP6 SWAP5 POP PUSH1 0x1 ADD PUSH2 0x1761 JUMP JUMPDEST POP DUP1 PUSH2 0x175B JUMP JUMPDEST ADD MLOAD SWAP1 POP DUP12 DUP1 PUSH2 0x103F JUMP JUMPDEST SWAP1 PUSH1 0x3 DUP10 ADD PUSH1 0x0 MSTORE PUSH1 0x20 PUSH1 0x0 KECCAK256 SWAP2 PUSH1 0x0 JUMPDEST PUSH1 0x1F NOT DUP6 AND DUP2 LT PUSH2 0x17F3 JUMPI POP SWAP2 DUP4 SWAP2 PUSH1 0x1 SWAP4 PUSH1 0x80 SWAP7 SWAP6 PUSH1 0x1F NOT DUP2 AND LT PUSH2 0x17DA JUMPI JUMPDEST POP POP POP DUP2 SHL ADD PUSH1 0x3 DUP9 ADD SSTORE PUSH2 0x1057 JUMP JUMPDEST ADD MLOAD PUSH1 0x0 NOT PUSH1 0xF8 DUP5 PUSH1 0x3 SHL AND SHR NOT AND SWAP1 SSTORE DUP12 DUP1 DUP1 PUSH2 0x17CA JUMP JUMPDEST SWAP2 SWAP3 PUSH1 0x20 PUSH1 0x1 DUP2 SWAP3 DUP7 DUP6 ADD MLOAD DUP2 SSTORE ADD SWAP5 ADD SWAP3 ADD PUSH2 0x17A9 JUMP JUMPDEST PUSH1 0x3 DUP10 ADD PUSH1 0x0 MSTORE PUSH1 0x20 PUSH1 0x0 KECCAK256 PUSH1 0x1F DUP5 ADD PUSH1 0x5 SHR DUP2 ADD PUSH1 0x20 DUP6 LT PUSH2 0x184B JUMPI JUMPDEST PUSH1 0x1F DUP4 ADD PUSH1 0x5 SHR DUP3 ADD DUP2 LT PUSH2 0x183F JUMPI POP POP PUSH2 0x1022 JUMP JUMPDEST PUSH1 0x0 DUP2 SSTORE PUSH1 0x1 ADD PUSH2 0x1829 JUMP JUMPDEST POP DUP1 PUSH2 0x1829 JUMP JUMPDEST SWAP1 POP DUP6 ADD MLOAD DUP12 PUSH2 0xFE4 JUMP JUMPDEST SWAP2 POP PUSH1 0x2 DUP10 ADD PUSH1 0x0 MSTORE PUSH1 0x20 PUSH1 0x0 KECCAK256 PUSH1 0x0 SWAP3 JUMPDEST PUSH1 0x1F NOT DUP4 AND DUP5 LT PUSH2 0x18B2 JUMPI PUSH1 0x1 SWAP4 POP DUP3 PUSH1 0x1F NOT DUP2 AND LT PUSH2 0x1899 JUMPI JUMPDEST POP POP DUP2 SHL ADD PUSH1 0x2 DUP9 ADD SSTORE PUSH2 0xFFB JUMP JUMPDEST DUP8 ADD MLOAD PUSH1 0x0 NOT PUSH1 0xF8 DUP5 PUSH1 0x3 SHL AND SHR NOT AND SWAP1 SSTORE DUP12 DUP1 PUSH2 0x188A JUMP JUMPDEST DUP8 DUP2 ADD MLOAD DUP3 SSTORE PUSH1 0x20 SWAP4 DUP5 ADD SWAP4 PUSH1 0x1 SWAP1 SWAP3 ADD SWAP2 ADD PUSH2 0x186F JUMP JUMPDEST PUSH1 0x2 DUP10 ADD PUSH1 0x0 MSTORE PUSH1 0x20 PUSH1 0x0 KECCAK256 PUSH1 0x1F DUP4 ADD PUSH1 0x5 SHR DUP2 ADD PUSH1 0x20 DUP5 LT PUSH2 0x190A JUMPI JUMPDEST PUSH1 0x1F DUP4 ADD PUSH1 0x5 SHR DUP3 ADD DUP2 LT PUSH2 0x18FE JUMPI POP POP PUSH2 0xFCD JUMP JUMPDEST PUSH1 0x0 DUP2 SSTORE PUSH1 0x1 ADD PUSH2 0x18E8 JUMP JUMPDEST POP DUP1 PUSH2 0x18E8 JUMP JUMPDEST POP PUSH4 0xABA9500 PUSH1 0x64 CALLDATALOAD SGT ISZERO PUSH2 0xF37 JUMP JUMPDEST POP PUSH4 0x55D4A80 PUSH1 0x44 CALLDATALOAD SGT ISZERO PUSH2 0xF1D JUMP JUMPDEST PUSH1 0x40 MLOAD PUSH3 0x461BCD PUSH1 0xE5 SHL DUP2 MSTORE PUSH1 0x20 PUSH1 0x4 DUP3 ADD MSTORE PUSH1 0x1F PUSH1 0x24 DUP3 ADD MSTORE PUSH32 0x46696C656E616D6520617272617973206C656E677468206D69736D6174636800 PUSH1 0x44 DUP3 ADD MSTORE PUSH1 0x64 SWAP1 REVERT JUMPDEST PUSH1 0x40 MLOAD PUSH3 0x461BCD PUSH1 0xE5 SHL DUP2 MSTORE PUSH1 0x20 PUSH1 0x4 DUP3 ADD MSTORE PUSH1 0x1C PUSH1 0x24 DUP3 ADD MSTORE PUSH32 0x496D61676520617272617973206C656E677468206D69736D6174636800000000 PUSH1 0x44 DUP3 ADD MSTORE PUSH1 0x64 SWAP1 REVERT JUMPDEST PUSH1 0x40 MLOAD PUSH3 0x461BCD PUSH1 0xE5 SHL DUP2 MSTORE PUSH1 0x20 PUSH1 0x4 DUP3 ADD MSTORE PUSH1 0x1B PUSH1 0x24 DUP3 ADD MSTORE PUSH32 0x4174206C65617374206F6E6520696D6167652072657175697265640000000000 PUSH1 0x44 DUP3 ADD MSTORE PUSH1 0x64 SWAP1 REVERT JUMPDEST PUSH1 0x40 MLOAD PUSH3 0x461BCD PUSH1 0xE5 SHL DUP2 MSTORE PUSH1 0x20 PUSH1 0x4 DUP3 ADD MSTORE PUSH1 0x1A PUSH1 0x24 DUP3 ADD MSTORE PUSH32 0x50726F6A6563742049442063616E6E6F7420626520656D707479000000000000 PUSH1 0x44 DUP3 ADD MSTORE PUSH1 0x64 SWAP1 REVERT JUMPDEST PUSH1 0x40 MLOAD PUSH3 0x461BCD PUSH1 0xE5 SHL DUP2 MSTORE PUSH1 0x20 PUSH1 0x4 DUP3 ADD MSTORE PUSH1 0x1F PUSH1 0x24 DUP3 ADD MSTORE PUSH32 0x5265656E7472616E637947756172643A207265656E7472616E742063616C6C00 PUSH1 0x44 DUP3 ADD MSTORE PUSH1 0x64 SWAP1 REVERT JUMPDEST PUSH2 0x1A93 CALLER PUSH2 0x26E9 JUMP JUMPDEST PUSH1 0x40 MLOAD SWAP2 PUSH2 0x1AA0 DUP4 PUSH2 0x1F68 JUMP JUMPDEST PUSH1 0x42 DUP4 MSTORE PUSH1 0x20 DUP4 ADD SWAP1 PUSH1 0x60 CALLDATASIZE DUP4 CALLDATACOPY DUP4 MLOAD ISZERO PUSH2 0x15B9 JUMPI PUSH1 0x30 DUP3 MSTORE8 DUP4 MLOAD PUSH1 0x1 SWAP1 DUP2 LT ISZERO PUSH2 0x15B9 JUMPI PUSH1 0x78 PUSH1 0x21 DUP7 ADD MSTORE8 PUSH1 0x41 SWAP1 JUMPDEST DUP1 DUP3 GT PUSH2 0x1BC5 JUMPI POP POP PUSH2 0x1B81 JUMPI PUSH1 0x48 PUSH2 0x1B4E SWAP3 PUSH2 0x1B5D SWAP3 PUSH2 0x1B7D SWAP6 PUSH1 0x40 MLOAD SWAP6 DUP7 SWAP4 PUSH23 0x20B1B1B2B9B9A1B7B73A3937B61D1030B1B1B7BAB73A1 PUSH1 0x4D SHL PUSH1 0x20 DUP7 ADD MSTORE PUSH2 0x1B25 DUP2 MLOAD DUP1 SWAP3 PUSH1 0x20 PUSH1 0x37 DUP10 ADD SWAP2 ADD PUSH2 0x2091 JUMP JUMPDEST DUP5 ADD SWAP2 PUSH17 0x1034B99036B4B9B9B4B733903937B6329 PUSH1 0x7D SHL PUSH1 0x37 DUP5 ADD MSTORE MLOAD DUP1 SWAP4 DUP7 DUP5 ADD SWAP1 PUSH2 0x2091 JUMP JUMPDEST ADD SUB PUSH1 0x28 DUP2 ADD DUP5 MSTORE ADD DUP3 PUSH2 0x1F83 JUMP JUMPDEST PUSH1 0x40 MLOAD PUSH3 0x461BCD PUSH1 0xE5 SHL DUP2 MSTORE PUSH1 0x20 PUSH1 0x4 DUP3 ADD MSTORE SWAP2 DUP3 SWAP2 PUSH1 0x24 DUP4 ADD SWAP1 PUSH2 0x20B4 JUMP JUMPDEST SUB SWAP1 REVERT JUMPDEST PUSH1 0x64 PUSH1 0x40 MLOAD PUSH3 0x461BCD PUSH1 0xE5 SHL DUP2 MSTORE PUSH1 0x20 PUSH1 0x4 DUP3 ADD MSTORE PUSH1 0x20 PUSH1 0x24 DUP3 ADD MSTORE PUSH32 0x537472696E67733A20686578206C656E67746820696E73756666696369656E74 PUSH1 0x44 DUP3 ADD MSTORE REVERT JUMPDEST SWAP1 SWAP2 PUSH1 0xF DUP2 AND PUSH1 0x10 DUP2 LT ISZERO PUSH2 0x15B9 JUMPI PUSH16 0x181899199A1A9B1B9C1CB0B131B232B3 PUSH1 0x81 SHL SWAP1 BYTE PUSH2 0x1BF4 DUP5 DUP9 PUSH2 0x26D8 JUMP JUMPDEST MSTORE8 PUSH1 0x4 SHR SWAP2 DUP1 ISZERO PUSH2 0x1C09 JUMPI PUSH1 0x0 NOT ADD SWAP1 PUSH2 0x1AD0 JUMP JUMPDEST PUSH4 0x4E487B71 PUSH1 0xE0 SHL PUSH1 0x0 MSTORE PUSH1 0x11 PUSH1 0x4 MSTORE PUSH1 0x24 PUSH1 0x0 REVERT JUMPDEST DUP2 CALLDATALOAD DUP2 MSTORE PUSH1 0x20 SWAP2 DUP3 ADD SWAP2 ADD PUSH2 0xE56 JUMP JUMPDEST CALLVALUE PUSH2 0x2D0 JUMPI PUSH1 0x0 CALLDATASIZE PUSH1 0x3 NOT ADD SLT PUSH2 0x2D0 JUMPI PUSH1 0x2 SLOAD PUSH1 0x0 SWAP1 DUP2 PUSH1 0x1 JUMPDEST DUP3 DUP2 GT ISZERO PUSH2 0x1C70 JUMPI POP SWAP2 PUSH1 0x80 SWAP3 PUSH1 0x40 MLOAD SWAP3 DUP4 MSTORE PUSH1 0x20 DUP4 ADD MSTORE PUSH1 0x40 DUP3 ADD MSTORE PUSH1 0x0 PUSH1 0x60 DUP3 ADD MSTORE RETURN JUMPDEST DUP1 PUSH1 0x0 MSTORE PUSH1 0x3 PUSH1 0x20 SWAP1 DUP1 DUP3 MSTORE PUSH1 0xFF PUSH1 0xC PUSH1 0x40 PUSH1 0x0 KECCAK256 ADD SLOAD AND PUSH2 0x1C9D JUMPI JUMPDEST POP POP PUSH2 0x1C98 SWAP1 PUSH2 0x2832 JUMP JUMPDEST PUSH2 0x1C4A JUMP JUMPDEST SWAP1 SWAP3 PUSH2 0x1CAB SWAP1 SWAP6 SWAP3 SWAP6 PUSH2 0x2832 JUMP JUMPDEST SWAP3 DUP6 PUSH1 0x0 MSTORE MSTORE PUSH1 0xF PUSH1 0x40 PUSH1 0x0 KECCAK256 ADD SLOAD DUP2 ADD DUP1 SWAP2 GT PUSH2 0x1C09 JUMPI SWAP3 PUSH2 0x1C98 DUP6 PUSH2 0x1C8D JUMP JUMPDEST CALLVALUE PUSH2 0x2D0 JUMPI PUSH1 0x40 CALLDATASIZE PUSH1 0x3 NOT ADD SLT PUSH2 0x2D0 JUMPI PUSH2 0x1CE6 PUSH2 0x1F1C JUMP JUMPDEST CALLER PUSH1 0x1 PUSH1 0x1 PUSH1 0xA0 SHL SUB DUP3 AND SUB PUSH2 0x1D02 JUMPI PUSH2 0x3FA SWAP1 PUSH1 0x4 CALLDATALOAD PUSH2 0x2664 JUMP JUMPDEST PUSH1 0x40 MLOAD PUSH3 0x461BCD PUSH1 0xE5 SHL DUP2 MSTORE PUSH1 0x20 PUSH1 0x4 DUP3 ADD MSTORE PUSH1 0x2F PUSH1 0x24 DUP3 ADD MSTORE PUSH32 0x416363657373436F6E74726F6C3A2063616E206F6E6C792072656E6F756E6365 PUSH1 0x44 DUP3 ADD MSTORE PUSH15 0x103937B632B9903337B91039B2B633 PUSH1 0x89 SHL PUSH1 0x64 DUP3 ADD MSTORE PUSH1 0x84 SWAP1 REVERT JUMPDEST CALLVALUE PUSH2 0x2D0 JUMPI PUSH1 0x40 CALLDATASIZE PUSH1 0x3 NOT ADD SLT PUSH2 0x2D0 JUMPI PUSH1 0x4 CALLDATALOAD PUSH2 0x1D7B PUSH2 0x1F1C JUMP JUMPDEST DUP2 PUSH1 0x0 MSTORE PUSH1 0x0 PUSH1 0x20 MSTORE PUSH2 0x1D95 PUSH1 0x1 PUSH1 0x40 PUSH1 0x0 KECCAK256 ADD SLOAD PUSH2 0x255A JUMP JUMPDEST DUP2 PUSH1 0x0 MSTORE PUSH1 0x0 PUSH1 0x20 MSTORE PUSH1 0x40 PUSH1 0x0 KECCAK256 SWAP1 PUSH1 0x1 DUP1 PUSH1 0xA0 SHL SUB AND SWAP1 DUP2 PUSH1 0x0 MSTORE PUSH1 0x20 MSTORE PUSH1 0xFF PUSH1 0x40 PUSH1 0x0 KECCAK256 SLOAD AND ISZERO PUSH2 0xA95 JUMPI STOP JUMPDEST CALLVALUE PUSH2 0x2D0 JUMPI PUSH1 0x20 CALLDATASIZE PUSH1 0x3 NOT ADD SLT PUSH2 0x2D0 JUMPI PUSH1 0x4 CALLDATALOAD PUSH1 0x0 MSTORE PUSH1 0x0 PUSH1 0x20 MSTORE PUSH1 0x20 PUSH1 0x1 PUSH1 0x40 PUSH1 0x0 KECCAK256 ADD SLOAD PUSH1 0x40 MLOAD SWAP1 DUP2 MSTORE RETURN JUMPDEST CALLVALUE PUSH2 0x2D0 JUMPI PUSH1 0x0 CALLDATASIZE PUSH1 0x3 NOT ADD SLT PUSH2 0x2D0 JUMPI PUSH1 0x20 PUSH1 0x40 MLOAD PUSH32 0xF52EF53EC1CCD82BECD71536891A4878949C44F3E710519CB7B39D90C38FED26 DUP2 MSTORE RETURN JUMPDEST CALLVALUE PUSH2 0x2D0 JUMPI PUSH1 0x20 CALLDATASIZE PUSH1 0x3 NOT ADD SLT PUSH2 0x2D0 JUMPI PUSH2 0x1E47 PUSH2 0x1F06 JUMP JUMPDEST PUSH2 0x1E4F PUSH2 0x2248 JUMP JUMPDEST PUSH1 0x1 PUSH1 0x1 PUSH1 0xA0 SHL SUB AND PUSH1 0x0 DUP2 DUP2 MSTORE PUSH32 0x1DA0B5176DFE03406AF5A6EED66CA01DDA9B45AC4DA671C3FA379CB93717EF81 PUSH1 0x20 MSTORE PUSH1 0x40 SWAP1 KECCAK256 SLOAD PUSH32 0xCE23C3E399818CFEE81A7AB0880F714E53D7672B08DF0FA62F2843416E1EA09 SWAP2 SWAP1 PUSH1 0xFF AND ISZERO PUSH2 0xA95 JUMPI STOP JUMPDEST CALLVALUE PUSH2 0x2D0 JUMPI PUSH1 0x20 CALLDATASIZE PUSH1 0x3 NOT ADD SLT PUSH2 0x2D0 JUMPI PUSH1 0x4 CALLDATALOAD SWAP1 PUSH4 0xFFFFFFFF PUSH1 0xE0 SHL DUP3 AND DUP1 SWAP3 SUB PUSH2 0x2D0 JUMPI PUSH1 0x20 SWAP2 PUSH4 0x7965DB0B PUSH1 0xE0 SHL DUP2 EQ SWAP1 DUP2 ISZERO PUSH2 0x1EF5 JUMPI JUMPDEST POP ISZERO ISZERO DUP2 MSTORE RETURN JUMPDEST PUSH4 0x1FFC9A7 PUSH1 0xE0 SHL EQ SWAP1 POP DUP4 PUSH2 0x1EEE JUMP JUMPDEST PUSH1 0x4 CALLDATALOAD SWAP1 PUSH1 0x1 PUSH1 0x1 PUSH1 0xA0 SHL SUB DUP3 AND DUP3 SUB PUSH2 0x2D0 JUMPI JUMP JUMPDEST PUSH1 0x24 CALLDATALOAD SWAP1 PUSH1 0x1 PUSH1 0x1 PUSH1 0xA0 SHL SUB DUP3 AND DUP3 SUB PUSH2 0x2D0 JUMPI JUMP JUMPDEST PUSH1 0xA0 DUP2 ADD SWAP1 DUP2 LT PUSH1 0x1 PUSH1 0x1 PUSH1 0x40 SHL SUB DUP3 GT OR PUSH2 0x882 JUMPI PUSH1 0x40 MSTORE JUMP JUMPDEST PUSH1 0xE0 DUP2 ADD SWAP1 DUP2 LT PUSH1 0x1 PUSH1 0x1 PUSH1 0x40 SHL SUB DUP3 GT OR PUSH2 0x882 JUMPI PUSH1 0x40 MSTORE JUMP JUMPDEST PUSH1 0x80 DUP2 ADD SWAP1 DUP2 LT PUSH1 0x1 PUSH1 0x1 PUSH1 0x40 SHL SUB DUP3 GT OR PUSH2 0x882 JUMPI PUSH1 0x40 MSTORE JUMP JUMPDEST SWAP1 PUSH1 0x1F DUP1 NOT SWAP2 ADD AND DUP2 ADD SWAP1 DUP2 LT PUSH1 0x1 PUSH1 0x1 PUSH1 0x40 SHL SUB DUP3 GT OR PUSH2 0x882 JUMPI PUSH1 0x40 MSTORE JUMP JUMPDEST DUP2 PUSH1 0x1F DUP3 ADD SLT ISZERO PUSH2 0x2D0 JUMPI DUP1 CALLDATALOAD SWAP1 PUSH1 0x1 PUSH1 0x1 PUSH1 0x40 SHL SUB DUP3 GT PUSH2 0x882 JUMPI PUSH1 0x40 MLOAD SWAP3 PUSH2 0x1FD8 PUSH1 0x1F DUP5 ADD PUSH1 0x1F NOT AND PUSH1 0x20 ADD DUP6 PUSH2 0x1F83 JUMP JUMPDEST DUP3 DUP5 MSTORE PUSH1 0x20 DUP4 DUP4 ADD ADD GT PUSH2 0x2D0 JUMPI DUP2 PUSH1 0x0 SWAP3 PUSH1 0x20 DUP1 SWAP4 ADD DUP4 DUP7 ADD CALLDATACOPY DUP4 ADD ADD MSTORE SWAP1 JUMP JUMPDEST PUSH1 0x1 PUSH1 0x1 PUSH1 0x40 SHL SUB DUP2 GT PUSH2 0x882 JUMPI PUSH1 0x5 SHL PUSH1 0x20 ADD SWAP1 JUMP JUMPDEST SWAP1 DUP1 PUSH1 0x1F DUP4 ADD SLT ISZERO PUSH2 0x2D0 JUMPI DUP2 CALLDATALOAD SWAP1 PUSH2 0x2029 DUP3 PUSH2 0x1FFA JUMP JUMPDEST SWAP3 PUSH2 0x2037 PUSH1 0x40 MLOAD SWAP5 DUP6 PUSH2 0x1F83 JUMP JUMPDEST DUP3 DUP5 MSTORE PUSH1 0x20 SWAP3 DUP4 DUP1 DUP7 ADD SWAP2 PUSH1 0x5 SHL DUP4 ADD ADD SWAP3 DUP1 DUP5 GT PUSH2 0x2D0 JUMPI DUP5 DUP4 ADD SWAP2 JUMPDEST DUP5 DUP4 LT PUSH2 0x2065 JUMPI POP POP POP POP POP POP SWAP1 JUMP JUMPDEST DUP3 CALLDATALOAD PUSH1 0x1 PUSH1 0x1 PUSH1 0x40 SHL SUB DUP2 GT PUSH2 0x2D0 JUMPI DUP7 SWAP2 PUSH2 0x2086 DUP5 DUP5 DUP1 SWAP5 DUP10 ADD ADD PUSH2 0x1FA4 JUMP JUMPDEST DUP2 MSTORE ADD SWAP3 ADD SWAP2 PUSH2 0x2055 JUMP JUMPDEST PUSH1 0x0 JUMPDEST DUP4 DUP2 LT PUSH2 0x20A4 JUMPI POP POP PUSH1 0x0 SWAP2 ADD MSTORE JUMP JUMPDEST DUP2 DUP2 ADD MLOAD DUP4 DUP3 ADD MSTORE PUSH1 0x20 ADD PUSH2 0x2094 JUMP JUMPDEST SWAP1 PUSH1 0x20 SWAP2 PUSH2 0x20CD DUP2 MLOAD DUP1 SWAP3 DUP2 DUP6 MSTORE DUP6 DUP1 DUP7 ADD SWAP2 ADD PUSH2 0x2091 JUMP JUMPDEST PUSH1 0x1F ADD PUSH1 0x1F NOT AND ADD ADD SWAP1 JUMP JUMPDEST DUP1 SLOAD DUP3 LT ISZERO PUSH2 0x15B9 JUMPI PUSH1 0x0 MSTORE PUSH1 0x20 PUSH1 0x0 KECCAK256 ADD SWAP1 PUSH1 0x0 SWAP1 JUMP JUMPDEST PUSH1 0x20 SWAP1 DUP2 PUSH1 0x40 DUP2 DUP4 ADD SWAP3 DUP3 DUP2 MSTORE DUP6 MLOAD DUP1 SWAP5 MSTORE ADD SWAP4 ADD SWAP2 PUSH1 0x0 JUMPDEST DUP3 DUP2 LT PUSH2 0x2118 JUMPI POP POP POP POP SWAP1 JUMP JUMPDEST DUP4 MLOAD DUP6 MSTORE SWAP4 DUP2 ADD SWAP4 SWAP3 DUP2 ADD SWAP3 PUSH1 0x1 ADD PUSH2 0x210A JUMP JUMPDEST SWAP1 PUSH1 0x1 DUP3 DUP2 SHR SWAP3 AND DUP1 ISZERO PUSH2 0x215C JUMPI JUMPDEST PUSH1 0x20 DUP4 LT EQ PUSH2 0x2146 JUMPI JUMP JUMPDEST PUSH4 0x4E487B71 PUSH1 0xE0 SHL PUSH1 0x0 MSTORE PUSH1 0x22 PUSH1 0x4 MSTORE PUSH1 0x24 PUSH1 0x0 REVERT JUMPDEST SWAP2 PUSH1 0x7F AND SWAP2 PUSH2 0x213B JUMP JUMPDEST SWAP1 PUSH1 0x40 MLOAD SWAP2 DUP3 PUSH1 0x0 DUP3 SLOAD SWAP3 PUSH2 0x217A DUP5 PUSH2 0x212C JUMP JUMPDEST SWAP1 DUP2 DUP5 MSTORE PUSH1 0x1 SWAP5 DUP6 DUP2 AND SWAP1 DUP2 PUSH1 0x0 EQ PUSH2 0x21E9 JUMPI POP PUSH1 0x1 EQ PUSH2 0x21A6 JUMPI JUMPDEST POP POP PUSH2 0x21A4 SWAP3 POP SUB DUP4 PUSH2 0x1F83 JUMP JUMPDEST JUMP JUMPDEST SWAP1 SWAP4 SWAP2 POP PUSH1 0x0 MSTORE PUSH1 0x20 SWAP1 DUP2 PUSH1 0x0 KECCAK256 SWAP4 PUSH1 0x0 SWAP2 JUMPDEST DUP2 DUP4 LT PUSH2 0x21D1 JUMPI POP POP PUSH2 0x21A4 SWAP4 POP DUP3 ADD ADD CODESIZE DUP1 PUSH2 0x2196 JUMP JUMPDEST DUP6 SLOAD DUP9 DUP5 ADD DUP6 ADD MSTORE SWAP5 DUP6 ADD SWAP5 DUP8 SWAP5 POP SWAP2 DUP4 ADD SWAP2 PUSH2 0x21B9 JUMP JUMPDEST SWAP2 POP POP PUSH2 0x21A4 SWAP5 POP PUSH1 0x20 SWAP3 POP PUSH1 0xFF NOT AND DUP3 DUP5 ADD MSTORE ISZERO ISZERO PUSH1 0x5 SHL DUP3 ADD ADD CODESIZE DUP1 PUSH2 0x2196 JUMP JUMPDEST SWAP1 PUSH1 0x40 MLOAD PUSH2 0x2219 DUP2 PUSH2 0x1F32 JUMP JUMPDEST PUSH1 0x80 PUSH1 0x4 DUP3 SWAP5 DUP1 SLOAD DUP5 MSTORE PUSH1 0x1 DUP2 ADD SLOAD PUSH1 0x20 DUP6 ADD MSTORE PUSH1 0x2 DUP2 ADD SLOAD PUSH1 0x40 DUP6 ADD MSTORE PUSH1 0x3 DUP2 ADD SLOAD PUSH1 0x60 DUP6 ADD MSTORE ADD SLOAD SWAP2 ADD MSTORE JUMP JUMPDEST CALLER PUSH1 0x0 SWAP1 DUP2 MSTORE PUSH32 0xAD3228B676F7D3CD4284A5443F17F1962B36E491B30A40B2405849E597BA5FB5 PUSH1 0x20 SWAP1 DUP2 MSTORE PUSH1 0x40 DUP1 DUP4 KECCAK256 SLOAD SWAP1 SWAP3 SWAP1 PUSH1 0xFF AND ISZERO PUSH2 0x228A JUMPI POP POP POP JUMP JUMPDEST PUSH2 0x2293 CALLER PUSH2 0x26E9 JUMP JUMPDEST SWAP1 DUP1 DUP5 MLOAD SWAP1 PUSH2 0x22A1 DUP3 PUSH2 0x1F68 JUMP JUMPDEST PUSH1 0x42 DUP3 MSTORE DUP5 DUP3 ADD SWAP3 PUSH1 0x60 CALLDATASIZE DUP6 CALLDATACOPY DUP3 MLOAD ISZERO PUSH2 0x2401 JUMPI PUSH1 0x30 DUP5 MSTORE8 DUP3 MLOAD SWAP1 PUSH1 0x1 SWAP2 DUP3 LT ISZERO PUSH2 0x2401 JUMPI SWAP1 PUSH1 0x78 PUSH1 0x21 DUP6 ADD MSTORE8 PUSH1 0x41 SWAP2 JUMPDEST DUP2 DUP4 GT PUSH2 0x2393 JUMPI POP POP POP PUSH2 0x2351 JUMPI PUSH1 0x48 PUSH2 0x1B7D SWAP4 DUP7 SWAP4 PUSH2 0x2335 SWAP4 PUSH2 0x2326 SWAP9 MLOAD SWAP9 DUP10 SWAP4 PUSH23 0x20B1B1B2B9B9A1B7B73A3937B61D1030B1B1B7BAB73A1 PUSH1 0x4D SHL DUP11 DUP7 ADD MSTORE PUSH2 0x1B25 DUP2 MLOAD DUP1 SWAP3 DUP13 PUSH1 0x37 DUP10 ADD SWAP2 ADD PUSH2 0x2091 JUMP JUMPDEST ADD SUB PUSH1 0x28 DUP2 ADD DUP8 MSTORE ADD DUP6 PUSH2 0x1F83 JUMP JUMPDEST MLOAD SWAP3 DUP4 SWAP3 PUSH3 0x461BCD PUSH1 0xE5 SHL DUP5 MSTORE PUSH1 0x4 DUP5 ADD MSTORE PUSH1 0x24 DUP4 ADD SWAP1 PUSH2 0x20B4 JUMP JUMPDEST PUSH1 0x64 DUP5 DUP7 MLOAD SWAP1 PUSH3 0x461BCD PUSH1 0xE5 SHL DUP3 MSTORE DUP1 PUSH1 0x4 DUP4 ADD MSTORE PUSH1 0x24 DUP3 ADD MSTORE PUSH32 0x537472696E67733A20686578206C656E67746820696E73756666696369656E74 PUSH1 0x44 DUP3 ADD MSTORE REVERT JUMPDEST SWAP1 SWAP2 SWAP3 PUSH1 0xF DUP2 AND PUSH1 0x10 DUP2 LT ISZERO PUSH2 0x23ED JUMPI PUSH16 0x181899199A1A9B1B9C1CB0B131B232B3 PUSH1 0x81 SHL SWAP1 BYTE PUSH2 0x23C3 DUP6 DUP8 PUSH2 0x26D8 JUMP JUMPDEST MSTORE8 PUSH1 0x4 SHR SWAP3 DUP1 ISZERO PUSH2 0x23D9 JUMPI PUSH1 0x0 NOT ADD SWAP2 SWAP1 PUSH2 0x22D2 JUMP JUMPDEST PUSH4 0x4E487B71 PUSH1 0xE0 SHL DUP3 MSTORE PUSH1 0x11 PUSH1 0x4 MSTORE PUSH1 0x24 DUP3 REVERT JUMPDEST PUSH4 0x4E487B71 PUSH1 0xE0 SHL DUP4 MSTORE PUSH1 0x32 PUSH1 0x4 MSTORE PUSH1 0x24 DUP4 REVERT JUMPDEST PUSH4 0x4E487B71 PUSH1 0xE0 SHL DUP2 MSTORE PUSH1 0x32 PUSH1 0x4 MSTORE PUSH1 0x24 SWAP1 REVERT JUMPDEST CALLER PUSH1 0x0 SWAP1 DUP2 MSTORE PUSH32 0x1DA0B5176DFE03406AF5A6EED66CA01DDA9B45AC4DA671C3FA379CB93717EF81 PUSH1 0x20 SWAP1 DUP2 MSTORE PUSH1 0x40 DUP1 DUP4 KECCAK256 SLOAD SWAP1 SWAP3 PUSH32 0xCE23C3E399818CFEE81A7AB0880F714E53D7672B08DF0FA62F2843416E1EA09 SWAP2 PUSH1 0xFF AND ISZERO PUSH2 0x2479 JUMPI POP POP POP POP JUMP JUMPDEST PUSH2 0x2482 CALLER PUSH2 0x26E9 JUMP JUMPDEST SWAP2 DUP5 MLOAD SWAP1 PUSH2 0x248F DUP3 PUSH2 0x1F68 JUMP JUMPDEST PUSH1 0x42 DUP3 MSTORE DUP5 DUP3 ADD SWAP3 PUSH1 0x60 CALLDATASIZE DUP6 CALLDATACOPY DUP3 MLOAD ISZERO PUSH2 0x2401 JUMPI PUSH1 0x30 DUP5 MSTORE8 DUP3 MLOAD SWAP1 PUSH1 0x1 SWAP2 DUP3 LT ISZERO PUSH2 0x2401 JUMPI SWAP1 PUSH1 0x78 PUSH1 0x21 DUP6 ADD MSTORE8 PUSH1 0x41 SWAP2 JUMPDEST DUP2 DUP4 GT PUSH2 0x2514 JUMPI POP POP POP PUSH2 0x2351 JUMPI PUSH1 0x48 PUSH2 0x1B7D SWAP4 DUP7 SWAP4 PUSH2 0x2335 SWAP4 PUSH2 0x2326 SWAP9 MLOAD SWAP9 DUP10 SWAP4 PUSH23 0x20B1B1B2B9B9A1B7B73A3937B61D1030B1B1B7BAB73A1 PUSH1 0x4D SHL DUP11 DUP7 ADD MSTORE PUSH2 0x1B25 DUP2 MLOAD DUP1 SWAP3 DUP13 PUSH1 0x37 DUP10 ADD SWAP2 ADD PUSH2 0x2091 JUMP JUMPDEST SWAP1 SWAP2 SWAP3 PUSH1 0xF DUP2 AND PUSH1 0x10 DUP2 LT ISZERO PUSH2 0x23ED JUMPI PUSH16 0x181899199A1A9B1B9C1CB0B131B232B3 PUSH1 0x81 SHL SWAP1 BYTE PUSH2 0x2544 DUP6 DUP8 PUSH2 0x26D8 JUMP JUMPDEST MSTORE8 PUSH1 0x4 SHR SWAP3 DUP1 ISZERO PUSH2 0x23D9 JUMPI PUSH1 0x0 NOT ADD SWAP2 SWAP1 PUSH2 0x24C0 JUMP JUMPDEST PUSH1 0x0 SWAP1 DUP1 DUP3 MSTORE PUSH1 0x20 SWAP1 DUP3 DUP3 MSTORE PUSH1 0x40 SWAP3 DUP4 DUP2 KECCAK256 CALLER DUP3 MSTORE DUP4 MSTORE PUSH1 0xFF DUP5 DUP3 KECCAK256 SLOAD AND ISZERO PUSH2 0x2583 JUMPI POP POP POP POP JUMP JUMPDEST PUSH2 0x258C CALLER PUSH2 0x26E9 JUMP JUMPDEST SWAP2 DUP5 MLOAD SWAP1 PUSH2 0x2599 DUP3 PUSH2 0x1F68 JUMP JUMPDEST PUSH1 0x42 DUP3 MSTORE DUP5 DUP3 ADD SWAP3 PUSH1 0x60 CALLDATASIZE DUP6 CALLDATACOPY DUP3 MLOAD ISZERO PUSH2 0x2401 JUMPI PUSH1 0x30 DUP5 MSTORE8 DUP3 MLOAD SWAP1 PUSH1 0x1 SWAP2 DUP3 LT ISZERO PUSH2 0x2401 JUMPI SWAP1 PUSH1 0x78 PUSH1 0x21 DUP6 ADD MSTORE8 PUSH1 0x41 SWAP2 JUMPDEST DUP2 DUP4 GT PUSH2 0x261E JUMPI POP POP POP PUSH2 0x2351 JUMPI PUSH1 0x48 PUSH2 0x1B7D SWAP4 DUP7 SWAP4 PUSH2 0x2335 SWAP4 PUSH2 0x2326 SWAP9 MLOAD SWAP9 DUP10 SWAP4 PUSH23 0x20B1B1B2B9B9A1B7B73A3937B61D1030B1B1B7BAB73A1 PUSH1 0x4D SHL DUP11 DUP7 ADD MSTORE PUSH2 0x1B25 DUP2 MLOAD DUP1 SWAP3 DUP13 PUSH1 0x37 DUP10 ADD SWAP2 ADD PUSH2 0x2091 JUMP JUMPDEST SWAP1 SWAP2 SWAP3 PUSH1 0xF DUP2 AND PUSH1 0x10 DUP2 LT ISZERO PUSH2 0x23ED JUMPI PUSH16 0x181899199A1A9B1B9C1CB0B131B232B3 PUSH1 0x81 SHL SWAP1 BYTE PUSH2 0x264E DUP6 DUP8 PUSH2 0x26D8 JUMP JUMPDEST MSTORE8 PUSH1 0x4 SHR SWAP3 DUP1 ISZERO PUSH2 0x23D9 JUMPI PUSH1 0x0 NOT ADD SWAP2 SWAP1 PUSH2 0x25CA JUMP JUMPDEST SWAP1 PUSH1 0x0 SWAP2 DUP1 DUP4 MSTORE DUP3 PUSH1 0x20 MSTORE PUSH1 0x40 DUP4 KECCAK256 SWAP2 PUSH1 0x1 DUP1 PUSH1 0xA0 SHL SUB AND SWAP2 DUP3 DUP5 MSTORE PUSH1 0x20 MSTORE PUSH1 0xFF PUSH1 0x40 DUP5 KECCAK256 SLOAD AND PUSH2 0x2694 JUMPI POP POP POP JUMP JUMPDEST DUP1 DUP4 MSTORE DUP3 PUSH1 0x20 MSTORE PUSH1 0x40 DUP4 KECCAK256 DUP3 DUP5 MSTORE PUSH1 0x20 MSTORE PUSH1 0x40 DUP4 KECCAK256 PUSH1 0xFF NOT DUP2 SLOAD AND SWAP1 SSTORE PUSH32 0xF6391F5C32D9C69D2A47EA670B442974B53935D1EDC7FD64EB21E047A839171B CALLER SWAP4 DUP1 LOG4 JUMP JUMPDEST SWAP1 DUP2 MLOAD DUP2 LT ISZERO PUSH2 0x15B9 JUMPI ADD PUSH1 0x20 ADD SWAP1 JUMP JUMPDEST PUSH1 0x40 MLOAD SWAP1 PUSH1 0x60 DUP3 ADD DUP3 DUP2 LT PUSH1 0x1 PUSH1 0x1 PUSH1 0x40 SHL SUB DUP3 GT OR PUSH2 0x882 JUMPI PUSH1 0x40 MSTORE PUSH1 0x2A DUP3 MSTORE PUSH1 0x20 DUP3 ADD PUSH1 0x40 CALLDATASIZE DUP3 CALLDATACOPY DUP3 MLOAD ISZERO PUSH2 0x15B9 JUMPI PUSH1 0x30 SWAP1 MSTORE8 DUP2 MLOAD PUSH1 0x1 SWAP1 DUP2 LT ISZERO PUSH2 0x15B9 JUMPI PUSH1 0x78 PUSH1 0x21 DUP5 ADD MSTORE8 PUSH1 0x29 SWAP1 JUMPDEST DUP1 DUP3 GT PUSH2 0x2745 JUMPI POP POP PUSH2 0x1B81 JUMPI SWAP1 JUMP JUMPDEST SWAP1 SWAP2 PUSH1 0xF DUP2 AND PUSH1 0x10 DUP2 LT ISZERO PUSH2 0x279E JUMPI PUSH16 0x181899199A1A9B1B9C1CB0B131B232B3 PUSH1 0x81 SHL SWAP1 BYTE PUSH2 0x2774 DUP5 DUP7 PUSH2 0x26D8 JUMP JUMPDEST MSTORE8 PUSH1 0x4 SHR SWAP2 DUP1 ISZERO PUSH2 0x2789 JUMPI PUSH1 0x0 NOT ADD SWAP1 PUSH2 0x2735 JUMP JUMPDEST PUSH1 0x24 PUSH1 0x0 PUSH4 0x4E487B71 PUSH1 0xE0 SHL DUP2 MSTORE PUSH1 0x11 PUSH1 0x4 MSTORE REVERT JUMPDEST PUSH1 0x24 PUSH1 0x0 PUSH4 0x4E487B71 PUSH1 0xE0 SHL DUP2 MSTORE PUSH1 0x32 PUSH1 0x4 MSTORE REVERT JUMPDEST ISZERO PUSH2 0x27BA JUMPI JUMP JUMPDEST PUSH1 0x40 MLOAD PUSH3 0x461BCD PUSH1 0xE5 SHL DUP2 MSTORE PUSH1 0x20 PUSH1 0x4 DUP3 ADD MSTORE PUSH1 0x10 PUSH1 0x24 DUP3 ADD MSTORE PUSH16 0x496E76616C6964206C61746974756465 PUSH1 0x80 SHL PUSH1 0x44 DUP3 ADD MSTORE PUSH1 0x64 SWAP1 REVERT JUMPDEST ISZERO PUSH2 0x27F9 JUMPI JUMP JUMPDEST PUSH1 0x40 MLOAD PUSH3 0x461BCD PUSH1 0xE5 SHL DUP2 MSTORE PUSH1 0x20 PUSH1 0x4 DUP3 ADD MSTORE PUSH1 0x11 PUSH1 0x24 DUP3 ADD MSTORE PUSH17 0x496E76616C6964206C6F6E676974756465 PUSH1 0x78 SHL PUSH1 0x44 DUP3 ADD MSTORE PUSH1 0x64 SWAP1 REVERT JUMPDEST PUSH1 0x0 NOT DUP2 EQ PUSH2 0x1C09 JUMPI PUSH1 0x1 ADD SWAP1 JUMP JUMPDEST DUP1 MLOAD DUP3 LT ISZERO PUSH2 0x15B9 JUMPI PUSH1 0x20 SWAP2 PUSH1 0x5 SHL ADD ADD SWAP1 JUMP JUMPDEST DUP1 SLOAD PUSH1 0x1 PUSH1 0x40 SHL DUP2 LT ISZERO PUSH2 0x882 JUMPI PUSH2 0x2872 SWAP2 PUSH1 0x1 DUP3 ADD DUP2 SSTORE PUSH2 0x20D9 JUMP JUMPDEST DUP2 SWAP3 SWAP2 SLOAD SWAP1 PUSH1 0x3 SHL SWAP2 DUP3 SHL SWAP2 PUSH1 0x0 NOT SWAP1 SHL NOT AND OR SWAP1 SSTORE JUMP JUMPDEST ISZERO PUSH2 0x2891 JUMPI JUMP JUMPDEST PUSH1 0x40 MLOAD PUSH3 0x461BCD PUSH1 0xE5 SHL DUP2 MSTORE PUSH1 0x20 PUSH1 0x4 DUP3 ADD MSTORE PUSH1 0x15 PUSH1 0x24 DUP3 ADD MSTORE PUSH21 0x125B9D985B1A59081CDD589B5A5CDCDA5BDB881251 PUSH1 0x5A SHL PUSH1 0x44 DUP3 ADD MSTORE PUSH1 0x64 SWAP1 REVERT JUMPDEST SWAP1 PUSH2 0x28D8 DUP3 PUSH2 0x1FFA JUMP JUMPDEST PUSH2 0x28E5 PUSH1 0x40 MLOAD SWAP2 DUP3 PUSH2 0x1F83 JUMP JUMPDEST DUP3 DUP2 MSTORE DUP1 SWAP3 PUSH2 0x28F6 PUSH1 0x1F NOT SWAP2 PUSH2 0x1FFA JUMP JUMPDEST ADD SWAP1 PUSH1 0x20 CALLDATASIZE SWAP2 ADD CALLDATACOPY JUMP INVALID LOG2 PUSH5 0x6970667358 0x22 SLT KECCAK256 SLT CODESIZE 0x2D 0xB0 0x4D 0xF9 0xC3 0x5C 0xDD CODECOPY 0xC6 DUP12 PUSH13 0xF1B562AE6016863A76AA095AB3 0xBA SGT PUSH9 0xAC5BD064736F6C6343 STOP ADDMOD SGT STOP CALLER 0x2F DUP8 DUP9 GT PUSH31 0x7EFF1D82E926EC794901D17C78024A50270940304540A733656F0D00000000 "},"methodIdentifiers":{"DATA_SUBMITTER_ROLE()":"1b2b49a6","DEFAULT_ADMIN_ROLE()":"a217fddf","VERIFIER_ROLE()":"e7705db6","getRoleAdmin(bytes32)":"248a9ca3","getStatistics()":"372d6b27","getSubmission(uint256)":"3e8686cc","getSubmissionImages(uint256)":"f4dd0a18","getSubmissionsByProject(string)":"d60e78aa","getSubmissionsByUser(address)":"b9011523","getSubmissionsInArea(int256,int256,int256,int256)":"850e6269","getTotalSubmissions()":"54554d46","grantRole(bytes32,address)":"2f2ff15d","grantSubmitterRole(address)":"64a879f6","grantVerifierRole(address)":"0337c061","hasRole(bytes32,address)":"91d14854","renounceRole(bytes32,address)":"36568abe","revokeRole(bytes32,address)":"d547741f","submissions(uint256)":"ad73349e","submissionsByLocation(bytes32)":"663854a8","submissionsByProject(string,uint256)":"625205e5","submissionsByUser(address,uint256)":"cc7c32ea","submitGeoData(string,string,int256,int256,int256,uint256,string,string[],uint256[],string[])":"396cf219","supportsInterface(bytes4)":"01ffc9a7","updateLocation(uint256,int256,int256)":"4d077cd5","verifySubmission(uint256,bool,uint256,string)":"916903f5"}}}}}