{"contracts/CarbonCreditMarketplace.sol":{"CarbonCreditMarketplace":{"abi":[{"inputs":[{"internalType":"address","name":"_carbonCreditToken","type":"address"},{"internalType":"address","name":"_projectRegistry","type":"address"},{"internalType":"address","name":"_paymentDistributor","type":"address"},{"internalType":"address","name":"_feeRecipient","type":"address"}],"stateMutability":"nonpayable","type":"constructor"},{"anonymous":false,"inputs":[{"indexed":true,"internalType":"uint256","name":"listingId","type":"uint256"},{"indexed":true,"internalType":"uint256","name":"batchId","type":"uint256"},{"indexed":true,"internalType":"uint256","name":"projectId","type":"uint256"},{"indexed":false,"internalType":"address","name":"seller","type":"address"},{"indexed":false,"internalType":"address","name":"buyer","type":"address"},{"indexed":false,"internalType":"uint256","name":"amount","type":"uint256"},{"indexed":false,"internalType":"uint256","name":"totalPrice","type":"uint256"}],"name":"CreditsPurchased","type":"event"},{"anonymous":false,"inputs":[{"indexed":true,"internalType":"uint256","name":"listingId","type":"uint256"},{"indexed":true,"internalType":"address","name":"seller","type":"address"}],"name":"ListingCancelled","type":"event"},{"anonymous":false,"inputs":[{"indexed":true,"internalType":"uint256","name":"listingId","type":"uint256"},{"indexed":true,"internalType":"uint256","name":"batchId","type":"uint256"},{"indexed":true,"internalType":"uint256","name":"projectId","type":"uint256"},{"indexed":false,"internalType":"address","name":"seller","type":"address"},{"indexed":false,"internalType":"uint256","name":"amount","type":"uint256"},{"indexed":false,"internalType":"uint256","name":"pricePerCredit","type":"uint256"}],"name":"ListingCreated","type":"event"},{"anonymous":false,"inputs":[{"indexed":true,"internalType":"address","name":"previousOwner","type":"address"},{"indexed":true,"internalType":"address","name":"newOwner","type":"address"}],"name":"OwnershipTransferred","type":"event"},{"anonymous":false,"inputs":[{"indexed":false,"internalType":"uint256","name":"oldFee","type":"uint256"},{"indexed":false,"internalType":"uint256","name":"newFee","type":"uint256"}],"name":"PlatformFeeUpdated","type":"event"},{"anonymous":false,"inputs":[{"indexed":true,"internalType":"uint256","name":"listingId","type":"uint256"},{"indexed":false,"internalType":"uint256","name":"oldPrice","type":"uint256"},{"indexed":false,"internalType":"uint256","name":"newPrice","type":"uint256"}],"name":"PriceUpdated","type":"event"},{"inputs":[{"internalType":"uint256","name":"","type":"uint256"},{"internalType":"uint256","name":"","type":"uint256"}],"name":"batchSales","outputs":[{"internalType":"uint256","name":"listingId","type":"uint256"},{"internalType":"uint256","name":"batchId","type":"uint256"},{"internalType":"uint256","name":"projectId","type":"uint256"},{"internalType":"address","name":"seller","type":"address"},{"internalType":"address","name":"buyer","type":"address"},{"internalType":"uint256","name":"amount","type":"uint256"},{"internalType":"uint256","name":"pricePerCredit","type":"uint256"},{"internalType":"uint256","name":"totalPrice","type":"uint256"},{"internalType":"uint256","name":"timestamp","type":"uint256"},{"internalType":"string","name":"buyerReason","type":"string"}],"stateMutability":"view","type":"function"},{"inputs":[{"internalType":"address","name":"","type":"address"},{"internalType":"uint256","name":"","type":"uint256"}],"name":"buyerPurchases","outputs":[{"internalType":"uint256","name":"","type":"uint256"}],"stateMutability":"view","type":"function"},{"inputs":[{"internalType":"uint256","name":"_listingId","type":"uint256"}],"name":"cancelListing","outputs":[],"stateMutability":"nonpayable","type":"function"},{"inputs":[],"name":"carbonCreditToken","outputs":[{"internalType":"contract ICarbonCreditToken","name":"","type":"address"}],"stateMutability":"view","type":"function"},{"inputs":[{"internalType":"uint256","name":"_batchId","type":"uint256"},{"internalType":"uint256","name":"_amount","type":"uint256"},{"internalType":"uint256","name":"_pricePerCredit","type":"uint256"},{"internalType":"uint256","name":"_duration","type":"uint256"},{"internalType":"string","name":"_description","type":"string"}],"name":"createListing","outputs":[{"internalType":"uint256","name":"","type":"uint256"}],"stateMutability":"nonpayable","type":"function"},{"inputs":[],"name":"emergencyWithdraw","outputs":[],"stateMutability":"nonpayable","type":"function"},{"inputs":[],"name":"feeRecipient","outputs":[{"internalType":"address","name":"","type":"address"}],"stateMutability":"view","type":"function"},{"inputs":[{"internalType":"uint256","name":"_limit","type":"uint256"},{"internalType":"uint256","name":"_offset","type":"uint256"}],"name":"getActiveListings","outputs":[{"internalType":"uint256[]","name":"","type":"uint256[]"}],"stateMutability":"view","type":"function"},{"inputs":[{"internalType":"uint256","name":"_batchId","type":"uint256"}],"name":"getBatchSales","outputs":[{"components":[{"internalType":"uint256","name":"listingId","type":"uint256"},{"internalType":"uint256","name":"batchId","type":"uint256"},{"internalType":"uint256","name":"projectId","type":"uint256"},{"internalType":"address","name":"seller","type":"address"},{"internalType":"address","name":"buyer","type":"address"},{"internalType":"uint256","name":"amount","type":"uint256"},{"internalType":"uint256","name":"pricePerCredit","type":"uint256"},{"internalType":"uint256","name":"totalPrice","type":"uint256"},{"internalType":"uint256","name":"timestamp","type":"uint256"},{"internalType":"string","name":"buyerReason","type":"string"}],"internalType":"struct CarbonCreditMarketplace.Sale[]","name":"","type":"tuple[]"}],"stateMutability":"view","type":"function"},{"inputs":[{"internalType":"uint256","name":"_listingId","type":"uint256"}],"name":"getListing","outputs":[{"components":[{"internalType":"uint256","name":"id","type":"uint256"},{"internalType":"uint256","name":"batchId","type":"uint256"},{"internalType":"uint256","name":"projectId","type":"uint256"},{"internalType":"address","name":"seller","type":"address"},{"internalType":"uint256","name":"amount","type":"uint256"},{"internalType":"uint256","name":"pricePerCredit","type":"uint256"},{"internalType":"uint256","name":"totalPrice","type":"uint256"},{"internalType":"bool","name":"isActive","type":"bool"},{"internalType":"uint256","name":"createdAt","type":"uint256"},{"internalType":"uint256","name":"expiresAt","type":"uint256"},{"internalType":"string","name":"description","type":"string"},{"internalType":"uint256","name":"vintage","type":"uint256"},{"internalType":"string","name":"verificationStandard","type":"string"},{"internalType":"string","name":"projectName","type":"string"},{"internalType":"string","name":"projectLocation","type":"string"}],"internalType":"struct CarbonCreditMarketplace.Listing","name":"","type":"tuple"}],"stateMutability":"view","type":"function"},{"inputs":[],"name":"getMarketplaceStats","outputs":[{"internalType":"uint256","name":"totalListings","type":"uint256"},{"internalType":"uint256","name":"volume","type":"uint256"},{"internalType":"uint256","name":"fees","type":"uint256"},{"internalType":"uint256","name":"activeListingsCount","type":"uint256"}],"stateMutability":"view","type":"function"},{"inputs":[{"internalType":"uint256","name":"_projectId","type":"uint256"}],"name":"getProjectListings","outputs":[{"internalType":"uint256[]","name":"","type":"uint256[]"}],"stateMutability":"view","type":"function"},{"inputs":[{"internalType":"uint256","name":"","type":"uint256"}],"name":"listings","outputs":[{"internalType":"uint256","name":"id","type":"uint256"},{"internalType":"uint256","name":"batchId","type":"uint256"},{"internalType":"uint256","name":"projectId","type":"uint256"},{"internalType":"address","name":"seller","type":"address"},{"internalType":"uint256","name":"amount","type":"uint256"},{"internalType":"uint256","name":"pricePerCredit","type":"uint256"},{"internalType":"uint256","name":"totalPrice","type":"uint256"},{"internalType":"bool","name":"isActive","type":"bool"},{"internalType":"uint256","name":"createdAt","type":"uint256"},{"internalType":"uint256","name":"expiresAt","type":"uint256"},{"internalType":"string","name":"description","type":"string"},{"internalType":"uint256","name":"vintage","type":"uint256"},{"internalType":"string","name":"verificationStandard","type":"string"},{"internalType":"string","name":"projectName","type":"string"},{"internalType":"string","name":"projectLocation","type":"string"}],"stateMutability":"view","type":"function"},{"inputs":[],"name":"owner","outputs":[{"internalType":"address","name":"","type":"address"}],"stateMutability":"view","type":"function"},{"inputs":[],"name":"paymentDistributor","outputs":[{"internalType":"contract IPaymentDistributor","name":"","type":"address"}],"stateMutability":"view","type":"function"},{"inputs":[],"name":"platformFeePercentage","outputs":[{"internalType":"uint256","name":"","type":"uint256"}],"stateMutability":"view","type":"function"},{"inputs":[],"name":"projectRegistry","outputs":[{"internalType":"contract IProjectRegistry","name":"","type":"address"}],"stateMutability":"view","type":"function"},{"inputs":[{"internalType":"uint256","name":"","type":"uint256"}],"name":"projectTotalRevenue","outputs":[{"internalType":"uint256","name":"","type":"uint256"}],"stateMutability":"view","type":"function"},{"inputs":[{"internalType":"uint256","name":"","type":"uint256"}],"name":"projectTotalSales","outputs":[{"internalType":"uint256","name":"","type":"uint256"}],"stateMutability":"view","type":"function"},{"inputs":[{"internalType":"uint256","name":"_listingId","type":"uint256"},{"internalType":"uint256","name":"_amount","type":"uint256"},{"internalType":"string","name":"_reason","type":"string"}],"name":"purchaseCredits","outputs":[],"stateMutability":"payable","type":"function"},{"inputs":[],"name":"renounceOwnership","outputs":[],"stateMutability":"nonpayable","type":"function"},{"inputs":[{"internalType":"address","name":"","type":"address"},{"internalType":"uint256","name":"","type":"uint256"}],"name":"sellerListings","outputs":[{"internalType":"uint256","name":"","type":"uint256"}],"stateMutability":"view","type":"function"},{"inputs":[{"internalType":"address","name":"_newFeeRecipient","type":"address"}],"name":"setFeeRecipient","outputs":[],"stateMutability":"nonpayable","type":"function"},{"inputs":[{"internalType":"uint256","name":"_newFeePercentage","type":"uint256"}],"name":"setPlatformFee","outputs":[],"stateMutability":"nonpayable","type":"function"},{"inputs":[],"name":"totalFeesCollected","outputs":[{"internalType":"uint256","name":"","type":"uint256"}],"stateMutability":"view","type":"function"},{"inputs":[],"name":"totalVolumeTraded","outputs":[{"internalType":"uint256","name":"","type":"uint256"}],"stateMutability":"view","type":"function"},{"inputs":[{"internalType":"address","name":"newOwner","type":"address"}],"name":"transferOwnership","outputs":[],"stateMutability":"nonpayable","type":"function"},{"inputs":[{"internalType":"uint256","name":"_listingId","type":"uint256"},{"internalType":"uint256","name":"_newPricePerCredit","type":"uint256"}],"name":"updatePrice","outputs":[],"stateMutability":"nonpayable","type":"function"},{"inputs":[{"internalType":"address","name":"","type":"address"}],"name":"userTotalPurchases","outputs":[{"internalType":"uint256","name":"","type":"uint256"}],"stateMutability":"view","type":"function"},{"inputs":[{"internalType":"address","name":"","type":"address"}],"name":"userTotalSales","outputs":[{"internalType":"uint256","name":"","type":"uint256"}],"stateMutability":"view","type":"function"}],"evm":{"bytecode":{"linkReferences":{},"object":"6080346200025757601f62002c5138819003918201601f191683019291906001600160401b038411838510176200025c5781608092849260409687528339810103126200025757620000518162000272565b906020916200006283830162000272565b916200007e60606200007687840162000272565b920162000272565b6001600081815581546001600160a01b03198082163390811790945589519097949690946001600160a01b0394909385938416907f8be0079c531659141344cd1fd0a4f28419497f9722a3daafe3b4186f6b6457e09080a360fa600a55169283156200020957508116928315620001c7578116938415620001775716948515620001345750836002541617600255826003541617600355816004541617600455600b541617600b55516129c99081620002888239f35b60649087519062461bcd60e51b82526004820152601d60248201527f496e76616c69642066656520726563697069656e7420616464726573730000006044820152fd5b875162461bcd60e51b815260048101889052602360248201527f496e76616c6964207061796d656e74206469737472696275746f72206164647260448201526265737360e81b6064820152608490fd5b60648789519062461bcd60e51b825280600483015260248201527f496e76616c69642070726f6a65637420726567697374727920616464726573736044820152fd5b62461bcd60e51b815260048101889052602360248201527f496e76616c696420636172626f6e2063726564697420746f6b656e206164647260448201526265737360e81b6064820152608490fd5b600080fd5b634e487b7160e01b600052604160045260246000fd5b51906001600160a01b0382168203620002575756fe6080604052600436101561001257600080fd5b6000803560e01c8063054564f0146122ee578063058d1b7814611857578063107a274a146115f357806312e8e2c314611556578063305a67a81461148b57806334b7bfef146114355780633e95a9d01461136257806346904840146113395780635a33d8dc146113105780635adc19c7146112f257806360c6d8ae146112d457806361f07fdc1461111b5780636602219f146110f157806366dea358146110c8578063715018a61461106b578063812d966a14610fd657806382367b2d14610eed57806382cbd16f14610e2e5780638da5cb5b14610e055780639e7d1d2c14610668578063a85811f21461062f578063c128b231146104da578063cb52b930146104b0578063cda6526d14610487578063cdd78cfc14610469578063db2e21bc14610419578063dc6e9cbe146103e0578063de74e57b146102b3578063e74b981b1461022f5763f2fde38b1461016757600080fd5b3461022c57602036600319011261022c57610180612336565b6101886125e5565b6001600160a01b039081169081156101d857600154826001600160601b0360a01b821617600155167f8be0079c531659141344cd1fd0a4f28419497f9722a3daafe3b4186f6b6457e0600080a380f35b60405162461bcd60e51b815260206004820152602660248201527f4f776e61626c653a206e6577206f776e657220697320746865207a65726f206160448201526564647265737360d01b6064820152608490fd5b80fd5b503461022c57602036600319011261022c57610249612336565b6102516125e5565b6001600160a01b03168015610276576001600160601b0360a01b600b541617600b5580f35b60405162461bcd60e51b8152602060048201526015602482015274125b9d985b1a5908199959481c9958da5c1a595b9d605a1b6044820152606490fd5b503461022c57602036600319011261022c576004358152600660205260409020805490600181015490600281015490600160a01b60019003600382015416600482015460058301546006840154600785015460ff16600886015490600987015492600a88016103219061253f565b94600b89015496600c8a016103359061253f565b98610342600d8c0161253f565b9a600e0161034f9061253f565b9b6040519e8f9e8f91825260208201526040015260608d015260808c015260a08b015260c08a0152151560e08901526101008801526101208701526101e080610140880152860161039f91612473565b906101608601528481036101808601526103b891612473565b8381036101a08501526103ca91612473565b8281036101c08401526103dc91612473565b0390f35b503461022c57602036600319011261022c576020906040906001600160a01b03610408612336565b168152601083522054604051908152f35b503461022c578060031936011261022c576104326125e5565b8080808060018060a01b03600154164790828215610460575bf1156104545780f35b604051903d90823e3d90fd5b506108fc61044b565b503461022c578060031936011261022c576020600a54604051908152f35b503461022c578060031936011261022c576004546040516001600160a01b039091168152602090f35b503461022c57602036600319011261022c5760406020916004358152600f83522054604051908152f35b503461022c576104e9366124d3565b819291151580610624575b156105ef576105028361294d565b829083916005545b801515806105e6575b156105a55780865260066020526040862060ff6007820154169081610596575b5061055c575b8015610548576000190161050a565b634e487b7160e01b86526011600452602486fd5b9284811015610575575b61056f90612795565b92610539565b9061058e818561058861056f948761297f565b52612795565b919050610566565b60099150015442111538610533565b5084916105b18261294d565b925b8281106105c857604051806103dc8682612498565b806105d66105e1928461297f565b51610588828761297f565b6105b3565b50868210610513565b60405162461bcd60e51b815260206004820152600d60248201526c125b9d985b1a59081b1a5b5a5d609a1b6044820152606490fd5b5060648311156104f4565b503461022c57602036600319011261022c576020906040906001600160a01b03610657612336565b168152601183522054604051908152f35b50606036600319011261022c576044356001600160401b038111610e0157610694903690600401612409565b600435151580610df3575b6106a89061283c565b600435825260066020526106c560ff60076040852001541661287d565b600435825260066020526106e260096040842001544211156128c1565b6106ea6127e6565b60043582526006602052604082209060243515801580610de3575b15610dad576003830180549093906001600160a01b0316338114610d6857610733600583015460243561276c565b92833410610d2c5761271061074a600a548661276c565b04916107568386612903565b91670de0b6b3a7640000906024358083020482141715610d1857602090606460018060a01b0360025416938b60405195869485936323b872dd60e01b855260048501523360248501526024350260448401525af1908115610d0d578891610ccf575b5015610c92576001830192835495600282019687549160018060a01b038a5416600585015490604051946107eb866123b1565b60043586528460208701526040860152606085015233608085015260243560a085015260c08401528760e0840152426101008401526101208301528952600960205260408920805490600160401b821015610c6a5790610850916001820181556124e9565b919091610c7e5780518255602081015160018301556040810151600283015560608101516003830180546001600160a01b039283166001600160a01b031991821617909155608083015160048501805491909316911617905560a0810151600583015560c0810151600683015560e08101516007830155610100810151600883015561012001518051906001600160401b038211610c6a579082916108fc60098d989796950154612505565b601f8111610c11575b50602090601f8311600114610ba15760099291889183610b96575b50508160011b916000199060031b1c1916179101555b338452600860205261094d600435604086206127b1565b86548452600e6020526040842061096760243582546127a4565b905586548452600f602052604084206109818782546127a4565b905533845260106020526040842061099c60243582546127a4565b905587546001600160a01b0316845260116020526040842080546109c390602435906127a4565b90556109d3602435600c546127a4565b600c556109e283600d546127a4565b600d55600481016109f66024358254612903565b80915515610b85575b5080610ad5575b508015908115610aa5575b505050813411610a73575b5491549260018060a01b0390541690604051918252336020830152602435604083015260608201527fadbf2fbb2217816b8127cc88f7d4edcfefc9abd4724f6ceea09abad75396a6e8608060043592a46001815580f35b84808080610a818634612903565b818115610a9c575b3390f1610a1c575b6040513d86823e3d90fd5b506108fc610a89565b82809291819260018060a01b03600b5416908390610acc575bf115610a9157843880610a11565b506108fc610abe565b60045486548554895494956001600160a01b039586169590949193169190823b15610b815760c4926040519687958694633c6fefcf60e11b865260048601526024850152602435604485015282606485015233608485015260a48401525af18015610b7657610b47575b908691610a06565b6001600160401b038197929711610b62576040529438610b3f565b634e487b7160e01b82526041600452602482fd5b6040513d89823e3d90fd5b8480fd5b600701805460ff19169055386109ff565b015190503880610920565b906009840188526020882091885b601f1985168110610bf65750918391600193600995601f19811610610bdd575b505050811b01910155610936565b015160001960f88460031b161c19169055388080610bcf565b8183015184558e995060019093019260209283019201610baf565b9091929394959650600984018c5260208c20601f840160051c810160208510610c63575b908d98979695949392915b601f830160051c82018110610c56575050610905565b9889558d98600101610c40565b5080610c35565b634e487b7160e01b8b52604160045260248bfd5b634e487b7160e01b8a5260048a905260248afd5b60405162461bcd60e51b8152602060048201526015602482015274151bdad95b881d1c985b9cd9995c8819985a5b1959605a1b6044820152606490fd5b90506020813d602011610d05575b81610cea602093836123cd565b81010312610d0157610cfb906126ce565b386107b8565b8780fd5b3d9150610cdd565b6040513d8a823e3d90fd5b634e487b7160e01b89526011600452602489fd5b60405162461bcd60e51b8152602060048201526014602482015273125b9cdd59999a58da595b9d081c185e5b595b9d60621b6044820152606490fd5b60405162461bcd60e51b815260206004820152601b60248201527f43616e6e6f742062757920796f7572206f776e206c697374696e6700000000006044820152606490fd5b60405162461bcd60e51b815260206004820152600e60248201526d125b9d985b1a5908185b5bdd5b9d60921b6044820152606490fd5b5060048301546024351115610705565b50600554600435111561069f565b5080fd5b503461022c578060031936011261022c576001546040516001600160a01b039091168152602090f35b503461022c57610e3d366124d3565b9082526009602052604082208054821015610ee957610e5c92506124e9565b5080546103dc60018301549260028101549060018060a01b0380600383015416906004830154166005830154600684015491600785015493610ea560096008880154970161253f565b966040519a8b9a8b5260208b015260408a01526060890152608088015260a087015260c086015260e085015261010084015261014080610120850152830190612473565b8280fd5b503461022c5760407f15819dd2fd9f6418b142e798d08a18d0bf06ea368f4480b7b0d3f75bd966bc48610f1f366124d3565b819391151580610fca575b610f339061283c565b8385526006602052610f4d60ff600784882001541661287d565b8385526006602052610f67600983872001544211156128c1565b8385526006602052610f8860018060a01b0360038488200154163314612910565b610f9381151561263d565b838552600660205281852090600582019181835493556006610fb983600484015461276c565b91015582519182526020820152a280f35b50600554841115610f2a565b503461022c578060031936011261022c576005548160015b828111156110185760808383600c54600d5490604051938452602084015260408301526060820152f35b80845260066020526040842060ff600782015416908161105c575b50611047575b61104290612795565b610fee565b9061105461104291612795565b919050611039565b60099150015442111538611033565b503461022c578060031936011261022c576110846125e5565b600180546001600160a01b0319811690915581906001600160a01b03167f8be0079c531659141344cd1fd0a4f28419497f9722a3daafe3b4186f6b6457e08280a380f35b503461022c578060031936011261022c576002546040516001600160a01b039091168152602090f35b503461022c57602036600319011261022c5760406020916004358152600e83522054604051908152f35b503461022c57602080600319360112610e01579060043581526009908183526040812090815461114a816126ef565b9361115860405195866123cd565b81855285850190819484528684209084925b84841061123f575050505050604051928484019085855251809152604084019460408260051b8601019392955b8287106111a45785850386f35b90919293828061122f600193603f198a8203018652885180518252838101518483015260408101516040830152858060a01b0360608181840151169084015260809081830151169083015260a0808201519083015260c0808201519083015260e081015160e08301526101008082015190830152610120809101519161014080928201520190612473565b9601920196019592919092611197565b600a8960019260409b9a989b51611255816123b1565b86548152848701548382015260028701546040820152848060a01b038060038901541660608301526004880154166080820152600587015460a0820152600687015460c0820152600787015460e082015260088701546101008201526112bc86880161253f565b6101208201528152019301930192919794969761116a565b503461022c578060031936011261022c576020600d54604051908152f35b503461022c578060031936011261022c576020600c54604051908152f35b503461022c578060031936011261022c576003546040516001600160a01b039091168152602090f35b503461022c578060031936011261022c57600b546040516001600160a01b039091168152602090f35b503461022c57602080600319360112610e01576004356005546113848161294d565b91849360015b838111156113c9575050505061139f8261294d565b925b8281106113b657604051806103dc8682612498565b806105d66113c4928461297f565b6113a1565b8087526006825260408720836002820154149081611426575b81611417575b506113fc575b6113f790612795565b61138a565b9461140f81876105886113f7948961297f565b9590506113ee565b600991500154421115386113e8565b600781015460ff1691506113e2565b503461022c57604036600319011261022c5761144f612336565b6001600160a01b031681526008602052604081208054602435929083101561022c57602061147d8484612351565b90546040519160031b1c8152f35b503461022c57602036600319011261022c576004358015158061154a575b6114b29061283c565b80825260066020526114cd60ff60076040852001541661287d565b80825260066020526114e860096040842001544211156128c1565b808252600660205261150a60018060a01b036003604085200154163314612910565b808252600660205260408220600701805460ff1916905533907f8e25282255ab31897df2b0456bb993ac7f84d376861aefd84901d2d63a7428a28380a380f35b506005548111156114a9565b503461022c57602036600319011261022c576004356115736125e5565b6103e881116115b65760407fd347e206f25a89b917fc9482f1a2d294d749baa4dc9bde7fb495ee11fe49164391600a549080600a5582519182526020820152a180f35b60405162461bcd60e51b81526020600482015260156024820152744665652063616e6e6f74206578636565642031302560581b6044820152606490fd5b503461022c57602036600319011261022c5760406103dc9160606101c0835161161b8161237f565b838152836020820152838582015283838201528360808201528360a08201528360c08201528360e08201528361010082015283610120820152826101408201528361016082015282610180820152826101a082015201526004358015158061184b575b6116879061283c565b8152600660205220611756600e604051926116a18461237f565b80548452600181015460208501526002810154604085015260038101546001600160a01b0316606085015260048101546080850152600581015460a0850152600681015460c0850152600781015460ff16151560e08501526008810154610100850152600981015461012085015261171b600a820161253f565b610140850152600b810154610160850152611738600c820161253f565b61018085015261174a600d820161253f565b6101a08501520161253f565b6101c08201526040519182916020835280516020840152602081015160408401526040810151606084015260018060a01b036060820151166080840152608081015160a084015260a081015160c084015260c081015160e084015260e081015115156101008401526101008101516101208401526101208101516101408401526101408101516117f56101e09182610160870152610200860190612473565b906101608301516101808601526101c061183a61182661018086015194601f1995868a8303016101a08b0152612473565b6101a08601518589830301848a0152612473565b930151918584030190850152612473565b5060055481111561167e565b503461022c5760a036600319011261022c576084356001600160401b038111610e0157611888903690600401612409565b906118916127e6565b602435156122a9576118a6604435151561263d565b60643515612264576276a7006064351161221f57600254604051632d62214160e11b815260048035908201526001600160a01b03909116918082602481865afa91821561221257819082839484928591612176575b5061213157602435116120ec57600354604051631e1e7e5960e31b81526004810184905291908490839060249082906001600160a01b03165afa958615610a915784928597611fcf575b50670de0b6b3a76400009060243580830204820361054857906020602492604051938480926370a0823160e01b82523360048301525afa918215611fc4578692611f8c575b506024350211611f505761199f600554612795565b94856005556119b260443560243561276c565b9786865260066020526040862098878a5560043560018b01558560028b015560038a01336001600160601b0360a01b82541617905560243560048b015560443560058b015560068a015560078901600160ff198254161790554260088a0155611a1d606435426127a4565b60098a01558051906001600160401b038211611f3c578190611a42600a8c0154612505565b601f8111611eec575b50602090601f8311600114611e7d578892611e72575b50508160011b916000199060031b1c191617600a8901555b600b8801558051906001600160401b038211611e5e578190611a9e600c8a0154612505565b601f8111611e0e575b50602090601f8311600114611d9f578692611d94575b50508160011b916000199060031b1c191617600c8701555b8051906001600160401b038211611d80578190611af5600d890154612505565b601f8111611d30575b50602090601f8311600114611cc1578592611cb6575b50508160011b916000199060031b1c191617600d8601555b8351946001600160401b038611611ca257611b4a600e820154612505565b601f8111611c5a575b5060209586601f8211600114611bee579080600e92600197988792611be3575b5050600019600383901b1c191690861b179101555b33825260078552611b9c84604084206127b1565b604051338152602435868201526044356040820152847f7f12aab9dbe6b7bab93408a8e76afd973c16eb4aa5606e70c1d7e7a4c93ef92e606060043593a455604051908152f35b015190503880611b73565b600e8301855287852096855b601f1984168110611c43575091600196978792600e9483601f19811610611c2a575b505050811b01910155611b88565b015160001960f88460031b161c19169055388080611c1c565b919789600181928b85015181550199019201611bfa565b600e8201845260208420601f880160051c81019160208910611c98575b601f0160051c01905b818110611c8d5750611b53565b848155600101611c80565b9091508190611c77565b634e487b7160e01b83526041600452602483fd5b015190503880611b14565b9250600d88018552602085209085935b601f1984168510611d15576001945083601f19811610611cfc575b505050811b01600d860155611b2c565b015160001960f88460031b161c19169055388080611cec565b81810151835560209485019460019093019290910190611cd1565b909150600d8801855260208520601f840160051c810160208510611d79575b90849392915b601f830160051c82018110611d6b575050611afe565b878155859450600101611d55565b5080611d4f565b634e487b7160e01b84526041600452602484fd5b015190503880611abd565b9250600c89018652602086209086935b601f1984168510611df3576001945083601f19811610611dda575b505050811b01600c870155611ad5565b015160001960f88460031b161c19169055388080611dca565b81810151835560209485019460019093019290910190611daf565b909150600c8901865260208620601f840160051c810160208510611e57575b90849392915b601f830160051c82018110611e49575050611aa7565b888155859450600101611e33565b5080611e2d565b634e487b7160e01b85526041600452602485fd5b015190503880611a61565b9250600a8b018852602088209088935b601f1984168510611ed1576001945083601f19811610611eb8575b505050811b01600a890155611a79565b015160001960f88460031b161c19169055388080611ea8565b81810151835560209485019460019093019290910190611e8d565b909150600a8b01885260208820601f840160051c810160208510611f35575b90849392915b601f830160051c82018110611f27575050611a4b565b8a8155859450600101611f11565b5080611f0b565b634e487b7160e01b87526041600452602487fd5b60405162461bcd60e51b8152602060048201526014602482015273496e73756666696369656e742062616c616e636560601b6044820152606490fd5b9091506020813d602011611fbc575b81611fa8602093836123cd565b81010312611fb85751903861198a565b8580fd5b3d9150611f9b565b6040513d88823e3d90fd5b925095503d918285823e611fe383826123cd565b610200818481010312610b815760208101516001600160401b038111611fb85761201290848301908301612689565b9060408101516001600160401b0381116120e85761203590858301908301612689565b5060808101516001600160401b0381116120e85761205890858301908301612689565b9361206560c083016126db565b5060e08201516001600160401b038111610d015761208890828401908401612706565b506101008201516001600160401b038111610d01576120ac90828401908401612706565b50610180820151906001600160401b038211610d0157916120d86101e0926120df948301908301612689565b50016126ce565b50919538611945565b8680fd5b60405162461bcd60e51b815260206004820152601960248201527f416d6f756e7420657863656564732062617463682073697a65000000000000006044820152606490fd5b60405162461bcd60e51b815260206004820152601b60248201527f43616e6e6f74206c6973742072657469726564206372656469747300000000006044820152606490fd5b9550505050503d918282823e61218c83826123cd565b610100818481010312610e015780519060208101519160408201519060608301516001600160401b038111611fb8576121ca90878501908501612689565b956080840151906001600160401b0382116120e857906121ee918501908501612689565b5061220760e061220060a086016126ce565b94016126db565b5092909491386118fb565b50604051903d90823e3d90fd5b60405162461bcd60e51b815260206004820152601e60248201527f4475726174696f6e2063616e6e6f7420657863656564203930206461797300006044820152606490fd5b60405162461bcd60e51b815260206004820152601f60248201527f4475726174696f6e206d7573742062652067726561746572207468616e2030006044820152606490fd5b60405162461bcd60e51b815260206004820152601d60248201527f416d6f756e74206d7573742062652067726561746572207468616e20300000006044820152606490fd5b503461022c57604036600319011261022c57612308612336565b6001600160a01b031681526007602052604081208054602435929083101561022c57602061147d8484612351565b600435906001600160a01b038216820361234c57565b600080fd5b80548210156123695760005260206000200190600090565b634e487b7160e01b600052603260045260246000fd5b6101e081019081106001600160401b0382111761239b57604052565b634e487b7160e01b600052604160045260246000fd5b61014081019081106001600160401b0382111761239b57604052565b90601f801991011681019081106001600160401b0382111761239b57604052565b6001600160401b03811161239b57601f01601f191660200190565b81601f8201121561234c57803590612420826123ee565b9261242e60405194856123cd565b8284526020838301011161234c57816000926020809301838601378301015290565b60005b8381106124635750506000910152565b8181015183820152602001612453565b9060209161248c81518092818552858086019101612450565b601f01601f1916010190565b6020908160408183019282815285518094520193019160005b8281106124bf575050505090565b8351855293810193928101926001016124b1565b604090600319011261234c576004359060243590565b805482101561236957600052600a602060002091020190600090565b90600182811c92168015612535575b602083101461251f57565b634e487b7160e01b600052602260045260246000fd5b91607f1691612514565b906040519182600082549261255384612505565b9081845260019485811690816000146125c2575060011461257f575b505061257d925003836123cd565b565b9093915060005260209081600020936000915b8183106125aa57505061257d9350820101388061256f565b85548884018501529485019487945091830191612592565b91505061257d94506020925060ff191682840152151560051b820101388061256f565b6001546001600160a01b031633036125f957565b606460405162461bcd60e51b815260206004820152602060248201527f4f776e61626c653a2063616c6c6572206973206e6f7420746865206f776e65726044820152fd5b1561264457565b60405162461bcd60e51b815260206004820152601c60248201527f5072696365206d7573742062652067726561746572207468616e2030000000006044820152606490fd5b81601f8201121561234c57805161269f816123ee565b926126ad60405194856123cd565b8184526020828401011161234c576126cb9160208085019101612450565b90565b5190811515820361234c57565b51906001600160a01b038216820361234c57565b6001600160401b03811161239b5760051b60200190565b81601f8201121561234c5780519161271d836126ef565b9261272b60405194856123cd565b808452602092838086019260051b82010192831161234c578301905b828210612755575050505090565b838091612761846126db565b815201910190612747565b8181029291811591840414171561277f57565b634e487b7160e01b600052601160045260246000fd5b600019811461277f5760010190565b9190820180921161277f57565b8054600160401b81101561239b576127ce91600182018155612351565b819291549060031b91821b91600019901b1916179055565b6002600054146127f7576002600055565b60405162461bcd60e51b815260206004820152601f60248201527f5265656e7472616e637947756172643a207265656e7472616e742063616c6c006044820152606490fd5b1561284357565b60405162461bcd60e51b8152602060048201526012602482015271125b9d985b1a59081b1a5cdd1a5b99c8125160721b6044820152606490fd5b1561288457565b60405162461bcd60e51b81526020600482015260156024820152744c697374696e67206973206e6f742061637469766560581b6044820152606490fd5b156128c857565b60405162461bcd60e51b8152602060048201526013602482015272131a5cdd1a5b99c81a185cc8195e1c1a5c9959606a1b6044820152606490fd5b9190820391821161277f57565b1561291757565b60405162461bcd60e51b815260206004820152600e60248201526d2737ba103a34329039b2b63632b960911b6044820152606490fd5b90612957826126ef565b61296460405191826123cd565b8281528092612975601f19916126ef565b0190602036910137565b80518210156123695760209160051b01019056fea26469706673582212203389443ce98e814b449bebaa64774f9f5e2c3d19f05ba0b4058bf1de3c95c9b264736f6c63430008130033","opcodes":"PUSH1 0x80 CALLVALUE PUSH3 0x257 JUMPI PUSH1 0x1F PUSH3 0x2C51 CODESIZE DUP2 SWAP1 SUB SWAP2 DUP3 ADD PUSH1 0x1F NOT AND DUP4 ADD SWAP3 SWAP2 SWAP1 PUSH1 0x1 PUSH1 0x1 PUSH1 0x40 SHL SUB DUP5 GT DUP4 DUP6 LT OR PUSH3 0x25C JUMPI DUP2 PUSH1 0x80 SWAP3 DUP5 SWAP3 PUSH1 0x40 SWAP7 DUP8 MSTORE DUP4 CODECOPY DUP2 ADD SUB SLT PUSH3 0x257 JUMPI PUSH3 0x51 DUP2 PUSH3 0x272 JUMP JUMPDEST SWAP1 PUSH1 0x20 SWAP2 PUSH3 0x62 DUP4 DUP4 ADD PUSH3 0x272 JUMP JUMPDEST SWAP2 PUSH3 0x7E PUSH1 0x60 PUSH3 0x76 DUP8 DUP5 ADD PUSH3 0x272 JUMP JUMPDEST SWAP3 ADD PUSH3 0x272 JUMP JUMPDEST PUSH1 0x1 PUSH1 0x0 DUP2 DUP2 SSTORE DUP2 SLOAD PUSH1 0x1 PUSH1 0x1 PUSH1 0xA0 SHL SUB NOT DUP1 DUP3 AND CALLER SWAP1 DUP2 OR SWAP1 SWAP5 SSTORE DUP10 MLOAD SWAP1 SWAP8 SWAP5 SWAP7 SWAP1 SWAP5 PUSH1 0x1 PUSH1 0x1 PUSH1 0xA0 SHL SUB SWAP5 SWAP1 SWAP4 DUP6 SWAP4 DUP5 AND SWAP1 PUSH32 0x8BE0079C531659141344CD1FD0A4F28419497F9722A3DAAFE3B4186F6B6457E0 SWAP1 DUP1 LOG3 PUSH1 0xFA PUSH1 0xA SSTORE AND SWAP3 DUP4 ISZERO PUSH3 0x209 JUMPI POP DUP2 AND SWAP3 DUP4 ISZERO PUSH3 0x1C7 JUMPI DUP2 AND SWAP4 DUP5 ISZERO PUSH3 0x177 JUMPI AND SWAP5 DUP6 ISZERO PUSH3 0x134 JUMPI POP DUP4 PUSH1 0x2 SLOAD AND OR PUSH1 0x2 SSTORE DUP3 PUSH1 0x3 SLOAD AND OR PUSH1 0x3 SSTORE DUP2 PUSH1 0x4 SLOAD AND OR PUSH1 0x4 SSTORE PUSH1 0xB SLOAD AND OR PUSH1 0xB SSTORE MLOAD PUSH2 0x29C9 SWAP1 DUP2 PUSH3 0x288 DUP3 CODECOPY RETURN JUMPDEST PUSH1 0x64 SWAP1 DUP8 MLOAD SWAP1 PUSH3 0x461BCD PUSH1 0xE5 SHL DUP3 MSTORE PUSH1 0x4 DUP3 ADD MSTORE PUSH1 0x1D PUSH1 0x24 DUP3 ADD MSTORE PUSH32 0x496E76616C69642066656520726563697069656E742061646472657373000000 PUSH1 0x44 DUP3 ADD MSTORE REVERT JUMPDEST DUP8 MLOAD PUSH3 0x461BCD PUSH1 0xE5 SHL DUP2 MSTORE PUSH1 0x4 DUP2 ADD DUP9 SWAP1 MSTORE PUSH1 0x23 PUSH1 0x24 DUP3 ADD MSTORE PUSH32 0x496E76616C6964207061796D656E74206469737472696275746F722061646472 PUSH1 0x44 DUP3 ADD MSTORE PUSH3 0x657373 PUSH1 0xE8 SHL PUSH1 0x64 DUP3 ADD MSTORE PUSH1 0x84 SWAP1 REVERT JUMPDEST PUSH1 0x64 DUP8 DUP10 MLOAD SWAP1 PUSH3 0x461BCD PUSH1 0xE5 SHL DUP3 MSTORE DUP1 PUSH1 0x4 DUP4 ADD MSTORE PUSH1 0x24 DUP3 ADD MSTORE PUSH32 0x496E76616C69642070726F6A6563742072656769737472792061646472657373 PUSH1 0x44 DUP3 ADD MSTORE REVERT JUMPDEST PUSH3 0x461BCD PUSH1 0xE5 SHL DUP2 MSTORE PUSH1 0x4 DUP2 ADD DUP9 SWAP1 MSTORE PUSH1 0x23 PUSH1 0x24 DUP3 ADD MSTORE PUSH32 0x496E76616C696420636172626F6E2063726564697420746F6B656E2061646472 PUSH1 0x44 DUP3 ADD MSTORE PUSH3 0x657373 PUSH1 0xE8 SHL PUSH1 0x64 DUP3 ADD MSTORE PUSH1 0x84 SWAP1 REVERT JUMPDEST PUSH1 0x0 DUP1 REVERT JUMPDEST PUSH4 0x4E487B71 PUSH1 0xE0 SHL PUSH1 0x0 MSTORE PUSH1 0x41 PUSH1 0x4 MSTORE PUSH1 0x24 PUSH1 0x0 REVERT JUMPDEST MLOAD SWAP1 PUSH1 0x1 PUSH1 0x1 PUSH1 0xA0 SHL SUB DUP3 AND DUP3 SUB PUSH3 0x257 JUMPI JUMP INVALID PUSH1 0x80 PUSH1 0x40 MSTORE PUSH1 0x4 CALLDATASIZE LT ISZERO PUSH2 0x12 JUMPI PUSH1 0x0 DUP1 REVERT JUMPDEST PUSH1 0x0 DUP1 CALLDATALOAD PUSH1 0xE0 SHR DUP1 PUSH4 0x54564F0 EQ PUSH2 0x22EE JUMPI DUP1 PUSH4 0x58D1B78 EQ PUSH2 0x1857 JUMPI DUP1 PUSH4 0x107A274A EQ PUSH2 0x15F3 JUMPI DUP1 PUSH4 0x12E8E2C3 EQ PUSH2 0x1556 JUMPI DUP1 PUSH4 0x305A67A8 EQ PUSH2 0x148B JUMPI DUP1 PUSH4 0x34B7BFEF EQ PUSH2 0x1435 JUMPI DUP1 PUSH4 0x3E95A9D0 EQ PUSH2 0x1362 JUMPI DUP1 PUSH4 0x46904840 EQ PUSH2 0x1339 JUMPI DUP1 PUSH4 0x5A33D8DC EQ PUSH2 0x1310 JUMPI DUP1 PUSH4 0x5ADC19C7 EQ PUSH2 0x12F2 JUMPI DUP1 PUSH4 0x60C6D8AE EQ PUSH2 0x12D4 JUMPI DUP1 PUSH4 0x61F07FDC EQ PUSH2 0x111B JUMPI DUP1 PUSH4 0x6602219F EQ PUSH2 0x10F1 JUMPI DUP1 PUSH4 0x66DEA358 EQ PUSH2 0x10C8 JUMPI DUP1 PUSH4 0x715018A6 EQ PUSH2 0x106B JUMPI DUP1 PUSH4 0x812D966A EQ PUSH2 0xFD6 JUMPI DUP1 PUSH4 0x82367B2D EQ PUSH2 0xEED JUMPI DUP1 PUSH4 0x82CBD16F EQ PUSH2 0xE2E JUMPI DUP1 PUSH4 0x8DA5CB5B EQ PUSH2 0xE05 JUMPI DUP1 PUSH4 0x9E7D1D2C EQ PUSH2 0x668 JUMPI DUP1 PUSH4 0xA85811F2 EQ PUSH2 0x62F JUMPI DUP1 PUSH4 0xC128B231 EQ PUSH2 0x4DA JUMPI DUP1 PUSH4 0xCB52B930 EQ PUSH2 0x4B0 JUMPI DUP1 PUSH4 0xCDA6526D EQ PUSH2 0x487 JUMPI DUP1 PUSH4 0xCDD78CFC EQ PUSH2 0x469 JUMPI DUP1 PUSH4 0xDB2E21BC EQ PUSH2 0x419 JUMPI DUP1 PUSH4 0xDC6E9CBE EQ PUSH2 0x3E0 JUMPI DUP1 PUSH4 0xDE74E57B EQ PUSH2 0x2B3 JUMPI DUP1 PUSH4 0xE74B981B EQ PUSH2 0x22F JUMPI PUSH4 0xF2FDE38B EQ PUSH2 0x167 JUMPI PUSH1 0x0 DUP1 REVERT JUMPDEST CALLVALUE PUSH2 0x22C JUMPI PUSH1 0x20 CALLDATASIZE PUSH1 0x3 NOT ADD SLT PUSH2 0x22C JUMPI PUSH2 0x180 PUSH2 0x2336 JUMP JUMPDEST PUSH2 0x188 PUSH2 0x25E5 JUMP JUMPDEST PUSH1 0x1 PUSH1 0x1 PUSH1 0xA0 SHL SUB SWAP1 DUP2 AND SWAP1 DUP2 ISZERO PUSH2 0x1D8 JUMPI PUSH1 0x1 SLOAD DUP3 PUSH1 0x1 PUSH1 0x1 PUSH1 0x60 SHL SUB PUSH1 0xA0 SHL DUP3 AND OR PUSH1 0x1 SSTORE AND PUSH32 0x8BE0079C531659141344CD1FD0A4F28419497F9722A3DAAFE3B4186F6B6457E0 PUSH1 0x0 DUP1 LOG3 DUP1 RETURN JUMPDEST PUSH1 0x40 MLOAD PUSH3 0x461BCD PUSH1 0xE5 SHL DUP2 MSTORE PUSH1 0x20 PUSH1 0x4 DUP3 ADD MSTORE PUSH1 0x26 PUSH1 0x24 DUP3 ADD MSTORE PUSH32 0x4F776E61626C653A206E6577206F776E657220697320746865207A65726F2061 PUSH1 0x44 DUP3 ADD MSTORE PUSH6 0x646472657373 PUSH1 0xD0 SHL PUSH1 0x64 DUP3 ADD MSTORE PUSH1 0x84 SWAP1 REVERT JUMPDEST DUP1 REVERT JUMPDEST POP CALLVALUE PUSH2 0x22C JUMPI PUSH1 0x20 CALLDATASIZE PUSH1 0x3 NOT ADD SLT PUSH2 0x22C JUMPI PUSH2 0x249 PUSH2 0x2336 JUMP JUMPDEST PUSH2 0x251 PUSH2 0x25E5 JUMP JUMPDEST PUSH1 0x1 PUSH1 0x1 PUSH1 0xA0 SHL SUB AND DUP1 ISZERO PUSH2 0x276 JUMPI PUSH1 0x1 PUSH1 0x1 PUSH1 0x60 SHL SUB PUSH1 0xA0 SHL PUSH1 0xB SLOAD AND OR PUSH1 0xB SSTORE DUP1 RETURN JUMPDEST PUSH1 0x40 MLOAD PUSH3 0x461BCD PUSH1 0xE5 SHL DUP2 MSTORE PUSH1 0x20 PUSH1 0x4 DUP3 ADD MSTORE PUSH1 0x15 PUSH1 0x24 DUP3 ADD MSTORE PUSH21 0x125B9D985B1A5908199959481C9958DA5C1A595B9D PUSH1 0x5A SHL PUSH1 0x44 DUP3 ADD MSTORE PUSH1 0x64 SWAP1 REVERT JUMPDEST POP CALLVALUE PUSH2 0x22C JUMPI PUSH1 0x20 CALLDATASIZE PUSH1 0x3 NOT ADD SLT PUSH2 0x22C JUMPI PUSH1 0x4 CALLDATALOAD DUP2 MSTORE PUSH1 0x6 PUSH1 0x20 MSTORE PUSH1 0x40 SWAP1 KECCAK256 DUP1 SLOAD SWAP1 PUSH1 0x1 DUP2 ADD SLOAD SWAP1 PUSH1 0x2 DUP2 ADD SLOAD SWAP1 PUSH1 0x1 PUSH1 0xA0 SHL PUSH1 0x1 SWAP1 SUB PUSH1 0x3 DUP3 ADD SLOAD AND PUSH1 0x4 DUP3 ADD SLOAD PUSH1 0x5 DUP4 ADD SLOAD PUSH1 0x6 DUP5 ADD SLOAD PUSH1 0x7 DUP6 ADD SLOAD PUSH1 0xFF AND PUSH1 0x8 DUP7 ADD SLOAD SWAP1 PUSH1 0x9 DUP8 ADD SLOAD SWAP3 PUSH1 0xA DUP9 ADD PUSH2 0x321 SWAP1 PUSH2 0x253F JUMP JUMPDEST SWAP5 PUSH1 0xB DUP10 ADD SLOAD SWAP7 PUSH1 0xC DUP11 ADD PUSH2 0x335 SWAP1 PUSH2 0x253F JUMP JUMPDEST SWAP9 PUSH2 0x342 PUSH1 0xD DUP13 ADD PUSH2 0x253F JUMP JUMPDEST SWAP11 PUSH1 0xE ADD PUSH2 0x34F SWAP1 PUSH2 0x253F JUMP JUMPDEST SWAP12 PUSH1 0x40 MLOAD SWAP15 DUP16 SWAP15 DUP16 SWAP2 DUP3 MSTORE PUSH1 0x20 DUP3 ADD MSTORE PUSH1 0x40 ADD MSTORE PUSH1 0x60 DUP14 ADD MSTORE PUSH1 0x80 DUP13 ADD MSTORE PUSH1 0xA0 DUP12 ADD MSTORE PUSH1 0xC0 DUP11 ADD MSTORE ISZERO ISZERO PUSH1 0xE0 DUP10 ADD MSTORE PUSH2 0x100 DUP9 ADD MSTORE PUSH2 0x120 DUP8 ADD MSTORE PUSH2 0x1E0 DUP1 PUSH2 0x140 DUP9 ADD MSTORE DUP7 ADD PUSH2 0x39F SWAP2 PUSH2 0x2473 JUMP JUMPDEST SWAP1 PUSH2 0x160 DUP7 ADD MSTORE DUP5 DUP2 SUB PUSH2 0x180 DUP7 ADD MSTORE PUSH2 0x3B8 SWAP2 PUSH2 0x2473 JUMP JUMPDEST DUP4 DUP2 SUB PUSH2 0x1A0 DUP6 ADD MSTORE PUSH2 0x3CA SWAP2 PUSH2 0x2473 JUMP JUMPDEST DUP3 DUP2 SUB PUSH2 0x1C0 DUP5 ADD MSTORE PUSH2 0x3DC SWAP2 PUSH2 0x2473 JUMP JUMPDEST SUB SWAP1 RETURN JUMPDEST POP CALLVALUE PUSH2 0x22C JUMPI PUSH1 0x20 CALLDATASIZE PUSH1 0x3 NOT ADD SLT PUSH2 0x22C JUMPI PUSH1 0x20 SWAP1 PUSH1 0x40 SWAP1 PUSH1 0x1 PUSH1 0x1 PUSH1 0xA0 SHL SUB PUSH2 0x408 PUSH2 0x2336 JUMP JUMPDEST AND DUP2 MSTORE PUSH1 0x10 DUP4 MSTORE KECCAK256 SLOAD PUSH1 0x40 MLOAD SWAP1 DUP2 MSTORE RETURN JUMPDEST POP CALLVALUE PUSH2 0x22C JUMPI DUP1 PUSH1 0x3 NOT CALLDATASIZE ADD SLT PUSH2 0x22C JUMPI PUSH2 0x432 PUSH2 0x25E5 JUMP JUMPDEST DUP1 DUP1 DUP1 DUP1 PUSH1 0x1 DUP1 PUSH1 0xA0 SHL SUB PUSH1 0x1 SLOAD AND SELFBALANCE SWAP1 DUP3 DUP3 ISZERO PUSH2 0x460 JUMPI JUMPDEST CALL ISZERO PUSH2 0x454 JUMPI DUP1 RETURN JUMPDEST PUSH1 0x40 MLOAD SWAP1 RETURNDATASIZE SWAP1 DUP3 RETURNDATACOPY RETURNDATASIZE SWAP1 REVERT JUMPDEST POP PUSH2 0x8FC PUSH2 0x44B JUMP JUMPDEST POP CALLVALUE PUSH2 0x22C JUMPI DUP1 PUSH1 0x3 NOT CALLDATASIZE ADD SLT PUSH2 0x22C JUMPI PUSH1 0x20 PUSH1 0xA SLOAD PUSH1 0x40 MLOAD SWAP1 DUP2 MSTORE RETURN JUMPDEST POP CALLVALUE PUSH2 0x22C JUMPI DUP1 PUSH1 0x3 NOT CALLDATASIZE ADD SLT PUSH2 0x22C JUMPI PUSH1 0x4 SLOAD PUSH1 0x40 MLOAD PUSH1 0x1 PUSH1 0x1 PUSH1 0xA0 SHL SUB SWAP1 SWAP2 AND DUP2 MSTORE PUSH1 0x20 SWAP1 RETURN JUMPDEST POP CALLVALUE PUSH2 0x22C JUMPI PUSH1 0x20 CALLDATASIZE PUSH1 0x3 NOT ADD SLT PUSH2 0x22C JUMPI PUSH1 0x40 PUSH1 0x20 SWAP2 PUSH1 0x4 CALLDATALOAD DUP2 MSTORE PUSH1 0xF DUP4 MSTORE KECCAK256 SLOAD PUSH1 0x40 MLOAD SWAP1 DUP2 MSTORE RETURN JUMPDEST POP CALLVALUE PUSH2 0x22C JUMPI PUSH2 0x4E9 CALLDATASIZE PUSH2 0x24D3 JUMP JUMPDEST DUP2 SWAP3 SWAP2 ISZERO ISZERO DUP1 PUSH2 0x624 JUMPI JUMPDEST ISZERO PUSH2 0x5EF JUMPI PUSH2 0x502 DUP4 PUSH2 0x294D JUMP JUMPDEST DUP3 SWAP1 DUP4 SWAP2 PUSH1 0x5 SLOAD JUMPDEST DUP1 ISZERO ISZERO DUP1 PUSH2 0x5E6 JUMPI JUMPDEST ISZERO PUSH2 0x5A5 JUMPI DUP1 DUP7 MSTORE PUSH1 0x6 PUSH1 0x20 MSTORE PUSH1 0x40 DUP7 KECCAK256 PUSH1 0xFF PUSH1 0x7 DUP3 ADD SLOAD AND SWAP1 DUP2 PUSH2 0x596 JUMPI JUMPDEST POP PUSH2 0x55C JUMPI JUMPDEST DUP1 ISZERO PUSH2 0x548 JUMPI PUSH1 0x0 NOT ADD PUSH2 0x50A JUMP JUMPDEST PUSH4 0x4E487B71 PUSH1 0xE0 SHL DUP7 MSTORE PUSH1 0x11 PUSH1 0x4 MSTORE PUSH1 0x24 DUP7 REVERT JUMPDEST SWAP3 DUP5 DUP2 LT ISZERO PUSH2 0x575 JUMPI JUMPDEST PUSH2 0x56F SWAP1 PUSH2 0x2795 JUMP JUMPDEST SWAP3 PUSH2 0x539 JUMP JUMPDEST SWAP1 PUSH2 0x58E DUP2 DUP6 PUSH2 0x588 PUSH2 0x56F SWAP5 DUP8 PUSH2 0x297F JUMP JUMPDEST MSTORE PUSH2 0x2795 JUMP JUMPDEST SWAP2 SWAP1 POP PUSH2 0x566 JUMP JUMPDEST PUSH1 0x9 SWAP2 POP ADD SLOAD TIMESTAMP GT ISZERO CODESIZE PUSH2 0x533 JUMP JUMPDEST POP DUP5 SWAP2 PUSH2 0x5B1 DUP3 PUSH2 0x294D JUMP JUMPDEST SWAP3 JUMPDEST DUP3 DUP2 LT PUSH2 0x5C8 JUMPI PUSH1 0x40 MLOAD DUP1 PUSH2 0x3DC DUP7 DUP3 PUSH2 0x2498 JUMP JUMPDEST DUP1 PUSH2 0x5D6 PUSH2 0x5E1 SWAP3 DUP5 PUSH2 0x297F JUMP JUMPDEST MLOAD PUSH2 0x588 DUP3 DUP8 PUSH2 0x297F JUMP JUMPDEST PUSH2 0x5B3 JUMP JUMPDEST POP DUP7 DUP3 LT PUSH2 0x513 JUMP JUMPDEST PUSH1 0x40 MLOAD PUSH3 0x461BCD PUSH1 0xE5 SHL DUP2 MSTORE PUSH1 0x20 PUSH1 0x4 DUP3 ADD MSTORE PUSH1 0xD PUSH1 0x24 DUP3 ADD MSTORE PUSH13 0x125B9D985B1A59081B1A5B5A5D PUSH1 0x9A SHL PUSH1 0x44 DUP3 ADD MSTORE PUSH1 0x64 SWAP1 REVERT JUMPDEST POP PUSH1 0x64 DUP4 GT ISZERO PUSH2 0x4F4 JUMP JUMPDEST POP CALLVALUE PUSH2 0x22C JUMPI PUSH1 0x20 CALLDATASIZE PUSH1 0x3 NOT ADD SLT PUSH2 0x22C JUMPI PUSH1 0x20 SWAP1 PUSH1 0x40 SWAP1 PUSH1 0x1 PUSH1 0x1 PUSH1 0xA0 SHL SUB PUSH2 0x657 PUSH2 0x2336 JUMP JUMPDEST AND DUP2 MSTORE PUSH1 0x11 DUP4 MSTORE KECCAK256 SLOAD PUSH1 0x40 MLOAD SWAP1 DUP2 MSTORE RETURN JUMPDEST POP PUSH1 0x60 CALLDATASIZE PUSH1 0x3 NOT ADD SLT PUSH2 0x22C JUMPI PUSH1 0x44 CALLDATALOAD PUSH1 0x1 PUSH1 0x1 PUSH1 0x40 SHL SUB DUP2 GT PUSH2 0xE01 JUMPI PUSH2 0x694 SWAP1 CALLDATASIZE SWAP1 PUSH1 0x4 ADD PUSH2 0x2409 JUMP JUMPDEST PUSH1 0x4 CALLDATALOAD ISZERO ISZERO DUP1 PUSH2 0xDF3 JUMPI JUMPDEST PUSH2 0x6A8 SWAP1 PUSH2 0x283C JUMP JUMPDEST PUSH1 0x4 CALLDATALOAD DUP3 MSTORE PUSH1 0x6 PUSH1 0x20 MSTORE PUSH2 0x6C5 PUSH1 0xFF PUSH1 0x7 PUSH1 0x40 DUP6 KECCAK256 ADD SLOAD AND PUSH2 0x287D JUMP JUMPDEST PUSH1 0x4 CALLDATALOAD DUP3 MSTORE PUSH1 0x6 PUSH1 0x20 MSTORE PUSH2 0x6E2 PUSH1 0x9 PUSH1 0x40 DUP5 KECCAK256 ADD SLOAD TIMESTAMP GT ISZERO PUSH2 0x28C1 JUMP JUMPDEST PUSH2 0x6EA PUSH2 0x27E6 JUMP JUMPDEST PUSH1 0x4 CALLDATALOAD DUP3 MSTORE PUSH1 0x6 PUSH1 0x20 MSTORE PUSH1 0x40 DUP3 KECCAK256 SWAP1 PUSH1 0x24 CALLDATALOAD ISZERO DUP1 ISZERO DUP1 PUSH2 0xDE3 JUMPI JUMPDEST ISZERO PUSH2 0xDAD JUMPI PUSH1 0x3 DUP4 ADD DUP1 SLOAD SWAP1 SWAP4 SWAP1 PUSH1 0x1 PUSH1 0x1 PUSH1 0xA0 SHL SUB AND CALLER DUP2 EQ PUSH2 0xD68 JUMPI PUSH2 0x733 PUSH1 0x5 DUP4 ADD SLOAD PUSH1 0x24 CALLDATALOAD PUSH2 0x276C JUMP JUMPDEST SWAP3 DUP4 CALLVALUE LT PUSH2 0xD2C JUMPI PUSH2 0x2710 PUSH2 0x74A PUSH1 0xA SLOAD DUP7 PUSH2 0x276C JUMP JUMPDEST DIV SWAP2 PUSH2 0x756 DUP4 DUP7 PUSH2 0x2903 JUMP JUMPDEST SWAP2 PUSH8 0xDE0B6B3A7640000 SWAP1 PUSH1 0x24 CALLDATALOAD DUP1 DUP4 MUL DIV DUP3 EQ OR ISZERO PUSH2 0xD18 JUMPI PUSH1 0x20 SWAP1 PUSH1 0x64 PUSH1 0x1 DUP1 PUSH1 0xA0 SHL SUB PUSH1 0x2 SLOAD AND SWAP4 DUP12 PUSH1 0x40 MLOAD SWAP6 DUP7 SWAP5 DUP6 SWAP4 PUSH4 0x23B872DD PUSH1 0xE0 SHL DUP6 MSTORE PUSH1 0x4 DUP6 ADD MSTORE CALLER PUSH1 0x24 DUP6 ADD MSTORE PUSH1 0x24 CALLDATALOAD MUL PUSH1 0x44 DUP5 ADD MSTORE GAS CALL SWAP1 DUP2 ISZERO PUSH2 0xD0D JUMPI DUP9 SWAP2 PUSH2 0xCCF JUMPI JUMPDEST POP ISZERO PUSH2 0xC92 JUMPI PUSH1 0x1 DUP4 ADD SWAP3 DUP4 SLOAD SWAP6 PUSH1 0x2 DUP3 ADD SWAP7 DUP8 SLOAD SWAP2 PUSH1 0x1 DUP1 PUSH1 0xA0 SHL SUB DUP11 SLOAD AND PUSH1 0x5 DUP6 ADD SLOAD SWAP1 PUSH1 0x40 MLOAD SWAP5 PUSH2 0x7EB DUP7 PUSH2 0x23B1 JUMP JUMPDEST PUSH1 0x4 CALLDATALOAD DUP7 MSTORE DUP5 PUSH1 0x20 DUP8 ADD MSTORE PUSH1 0x40 DUP7 ADD MSTORE PUSH1 0x60 DUP6 ADD MSTORE CALLER PUSH1 0x80 DUP6 ADD MSTORE PUSH1 0x24 CALLDATALOAD PUSH1 0xA0 DUP6 ADD MSTORE PUSH1 0xC0 DUP5 ADD MSTORE DUP8 PUSH1 0xE0 DUP5 ADD MSTORE TIMESTAMP PUSH2 0x100 DUP5 ADD MSTORE PUSH2 0x120 DUP4 ADD MSTORE DUP10 MSTORE PUSH1 0x9 PUSH1 0x20 MSTORE PUSH1 0x40 DUP10 KECCAK256 DUP1 SLOAD SWAP1 PUSH1 0x1 PUSH1 0x40 SHL DUP3 LT ISZERO PUSH2 0xC6A JUMPI SWAP1 PUSH2 0x850 SWAP2 PUSH1 0x1 DUP3 ADD DUP2 SSTORE PUSH2 0x24E9 JUMP JUMPDEST SWAP2 SWAP1 SWAP2 PUSH2 0xC7E JUMPI DUP1 MLOAD DUP3 SSTORE PUSH1 0x20 DUP2 ADD MLOAD PUSH1 0x1 DUP4 ADD SSTORE PUSH1 0x40 DUP2 ADD MLOAD PUSH1 0x2 DUP4 ADD SSTORE PUSH1 0x60 DUP2 ADD MLOAD PUSH1 0x3 DUP4 ADD DUP1 SLOAD PUSH1 0x1 PUSH1 0x1 PUSH1 0xA0 SHL SUB SWAP3 DUP4 AND PUSH1 0x1 PUSH1 0x1 PUSH1 0xA0 SHL SUB NOT SWAP2 DUP3 AND OR SWAP1 SWAP2 SSTORE PUSH1 0x80 DUP4 ADD MLOAD PUSH1 0x4 DUP6 ADD DUP1 SLOAD SWAP2 SWAP1 SWAP4 AND SWAP2 AND OR SWAP1 SSTORE PUSH1 0xA0 DUP2 ADD MLOAD PUSH1 0x5 DUP4 ADD SSTORE PUSH1 0xC0 DUP2 ADD MLOAD PUSH1 0x6 DUP4 ADD SSTORE PUSH1 0xE0 DUP2 ADD MLOAD PUSH1 0x7 DUP4 ADD SSTORE PUSH2 0x100 DUP2 ADD MLOAD PUSH1 0x8 DUP4 ADD SSTORE PUSH2 0x120 ADD MLOAD DUP1 MLOAD SWAP1 PUSH1 0x1 PUSH1 0x1 PUSH1 0x40 SHL SUB DUP3 GT PUSH2 0xC6A JUMPI SWAP1 DUP3 SWAP2 PUSH2 0x8FC PUSH1 0x9 DUP14 SWAP9 SWAP8 SWAP7 SWAP6 ADD SLOAD PUSH2 0x2505 JUMP JUMPDEST PUSH1 0x1F DUP2 GT PUSH2 0xC11 JUMPI JUMPDEST POP PUSH1 0x20 SWAP1 PUSH1 0x1F DUP4 GT PUSH1 0x1 EQ PUSH2 0xBA1 JUMPI PUSH1 0x9 SWAP3 SWAP2 DUP9 SWAP2 DUP4 PUSH2 0xB96 JUMPI JUMPDEST POP POP DUP2 PUSH1 0x1 SHL SWAP2 PUSH1 0x0 NOT SWAP1 PUSH1 0x3 SHL SHR NOT AND OR SWAP2 ADD SSTORE JUMPDEST CALLER DUP5 MSTORE PUSH1 0x8 PUSH1 0x20 MSTORE PUSH2 0x94D PUSH1 0x4 CALLDATALOAD PUSH1 0x40 DUP7 KECCAK256 PUSH2 0x27B1 JUMP JUMPDEST DUP7 SLOAD DUP5 MSTORE PUSH1 0xE PUSH1 0x20 MSTORE PUSH1 0x40 DUP5 KECCAK256 PUSH2 0x967 PUSH1 0x24 CALLDATALOAD DUP3 SLOAD PUSH2 0x27A4 JUMP JUMPDEST SWAP1 SSTORE DUP7 SLOAD DUP5 MSTORE PUSH1 0xF PUSH1 0x20 MSTORE PUSH1 0x40 DUP5 KECCAK256 PUSH2 0x981 DUP8 DUP3 SLOAD PUSH2 0x27A4 JUMP JUMPDEST SWAP1 SSTORE CALLER DUP5 MSTORE PUSH1 0x10 PUSH1 0x20 MSTORE PUSH1 0x40 DUP5 KECCAK256 PUSH2 0x99C PUSH1 0x24 CALLDATALOAD DUP3 SLOAD PUSH2 0x27A4 JUMP JUMPDEST SWAP1 SSTORE DUP8 SLOAD PUSH1 0x1 PUSH1 0x1 PUSH1 0xA0 SHL SUB AND DUP5 MSTORE PUSH1 0x11 PUSH1 0x20 MSTORE PUSH1 0x40 DUP5 KECCAK256 DUP1 SLOAD PUSH2 0x9C3 SWAP1 PUSH1 0x24 CALLDATALOAD SWAP1 PUSH2 0x27A4 JUMP JUMPDEST SWAP1 SSTORE PUSH2 0x9D3 PUSH1 0x24 CALLDATALOAD PUSH1 0xC SLOAD PUSH2 0x27A4 JUMP JUMPDEST PUSH1 0xC SSTORE PUSH2 0x9E2 DUP4 PUSH1 0xD SLOAD PUSH2 0x27A4 JUMP JUMPDEST PUSH1 0xD SSTORE PUSH1 0x4 DUP2 ADD PUSH2 0x9F6 PUSH1 0x24 CALLDATALOAD DUP3 SLOAD PUSH2 0x2903 JUMP JUMPDEST DUP1 SWAP2 SSTORE ISZERO PUSH2 0xB85 JUMPI JUMPDEST POP DUP1 PUSH2 0xAD5 JUMPI JUMPDEST POP DUP1 ISZERO SWAP1 DUP2 ISZERO PUSH2 0xAA5 JUMPI JUMPDEST POP POP POP DUP2 CALLVALUE GT PUSH2 0xA73 JUMPI JUMPDEST SLOAD SWAP2 SLOAD SWAP3 PUSH1 0x1 DUP1 PUSH1 0xA0 SHL SUB SWAP1 SLOAD AND SWAP1 PUSH1 0x40 MLOAD SWAP2 DUP3 MSTORE CALLER PUSH1 0x20 DUP4 ADD MSTORE PUSH1 0x24 CALLDATALOAD PUSH1 0x40 DUP4 ADD MSTORE PUSH1 0x60 DUP3 ADD MSTORE PUSH32 0xADBF2FBB2217816B8127CC88F7D4EDCFEFC9ABD4724F6CEEA09ABAD75396A6E8 PUSH1 0x80 PUSH1 0x4 CALLDATALOAD SWAP3 LOG4 PUSH1 0x1 DUP2 SSTORE DUP1 RETURN JUMPDEST DUP5 DUP1 DUP1 DUP1 PUSH2 0xA81 DUP7 CALLVALUE PUSH2 0x2903 JUMP JUMPDEST DUP2 DUP2 ISZERO PUSH2 0xA9C JUMPI JUMPDEST CALLER SWAP1 CALL PUSH2 0xA1C JUMPI JUMPDEST PUSH1 0x40 MLOAD RETURNDATASIZE DUP7 DUP3 RETURNDATACOPY RETURNDATASIZE SWAP1 REVERT JUMPDEST POP PUSH2 0x8FC PUSH2 0xA89 JUMP JUMPDEST DUP3 DUP1 SWAP3 SWAP2 DUP2 SWAP3 PUSH1 0x1 DUP1 PUSH1 0xA0 SHL SUB PUSH1 0xB SLOAD AND SWAP1 DUP4 SWAP1 PUSH2 0xACC JUMPI JUMPDEST CALL ISZERO PUSH2 0xA91 JUMPI DUP5 CODESIZE DUP1 PUSH2 0xA11 JUMP JUMPDEST POP PUSH2 0x8FC PUSH2 0xABE JUMP JUMPDEST PUSH1 0x4 SLOAD DUP7 SLOAD DUP6 SLOAD DUP10 SLOAD SWAP5 SWAP6 PUSH1 0x1 PUSH1 0x1 PUSH1 0xA0 SHL SUB SWAP6 DUP7 AND SWAP6 SWAP1 SWAP5 SWAP2 SWAP4 AND SWAP2 SWAP1 DUP3 EXTCODESIZE ISZERO PUSH2 0xB81 JUMPI PUSH1 0xC4 SWAP3 PUSH1 0x40 MLOAD SWAP7 DUP8 SWAP6 DUP7 SWAP5 PUSH4 0x3C6FEFCF PUSH1 0xE1 SHL DUP7 MSTORE PUSH1 0x4 DUP7 ADD MSTORE PUSH1 0x24 DUP6 ADD MSTORE PUSH1 0x24 CALLDATALOAD PUSH1 0x44 DUP6 ADD MSTORE DUP3 PUSH1 0x64 DUP6 ADD MSTORE CALLER PUSH1 0x84 DUP6 ADD MSTORE PUSH1 0xA4 DUP5 ADD MSTORE GAS CALL DUP1 ISZERO PUSH2 0xB76 JUMPI PUSH2 0xB47 JUMPI JUMPDEST SWAP1 DUP7 SWAP2 PUSH2 0xA06 JUMP JUMPDEST PUSH1 0x1 PUSH1 0x1 PUSH1 0x40 SHL SUB DUP2 SWAP8 SWAP3 SWAP8 GT PUSH2 0xB62 JUMPI PUSH1 0x40 MSTORE SWAP5 CODESIZE PUSH2 0xB3F JUMP JUMPDEST PUSH4 0x4E487B71 PUSH1 0xE0 SHL DUP3 MSTORE PUSH1 0x41 PUSH1 0x4 MSTORE PUSH1 0x24 DUP3 REVERT JUMPDEST PUSH1 0x40 MLOAD RETURNDATASIZE DUP10 DUP3 RETURNDATACOPY RETURNDATASIZE SWAP1 REVERT JUMPDEST DUP5 DUP1 REVERT JUMPDEST PUSH1 0x7 ADD DUP1 SLOAD PUSH1 0xFF NOT AND SWAP1 SSTORE CODESIZE PUSH2 0x9FF JUMP JUMPDEST ADD MLOAD SWAP1 POP CODESIZE DUP1 PUSH2 0x920 JUMP JUMPDEST SWAP1 PUSH1 0x9 DUP5 ADD DUP9 MSTORE PUSH1 0x20 DUP9 KECCAK256 SWAP2 DUP9 JUMPDEST PUSH1 0x1F NOT DUP6 AND DUP2 LT PUSH2 0xBF6 JUMPI POP SWAP2 DUP4 SWAP2 PUSH1 0x1 SWAP4 PUSH1 0x9 SWAP6 PUSH1 0x1F NOT DUP2 AND LT PUSH2 0xBDD JUMPI JUMPDEST POP POP POP DUP2 SHL ADD SWAP2 ADD SSTORE PUSH2 0x936 JUMP JUMPDEST ADD MLOAD PUSH1 0x0 NOT PUSH1 0xF8 DUP5 PUSH1 0x3 SHL AND SHR NOT AND SWAP1 SSTORE CODESIZE DUP1 DUP1 PUSH2 0xBCF JUMP JUMPDEST DUP2 DUP4 ADD MLOAD DUP5 SSTORE DUP15 SWAP10 POP PUSH1 0x1 SWAP1 SWAP4 ADD SWAP3 PUSH1 0x20 SWAP3 DUP4 ADD SWAP3 ADD PUSH2 0xBAF JUMP JUMPDEST SWAP1 SWAP2 SWAP3 SWAP4 SWAP5 SWAP6 SWAP7 POP PUSH1 0x9 DUP5 ADD DUP13 MSTORE PUSH1 0x20 DUP13 KECCAK256 PUSH1 0x1F DUP5 ADD PUSH1 0x5 SHR DUP2 ADD PUSH1 0x20 DUP6 LT PUSH2 0xC63 JUMPI JUMPDEST SWAP1 DUP14 SWAP9 SWAP8 SWAP7 SWAP6 SWAP5 SWAP4 SWAP3 SWAP2 JUMPDEST PUSH1 0x1F DUP4 ADD PUSH1 0x5 SHR DUP3 ADD DUP2 LT PUSH2 0xC56 JUMPI POP POP PUSH2 0x905 JUMP JUMPDEST SWAP9 DUP10 SSTORE DUP14 SWAP9 PUSH1 0x1 ADD PUSH2 0xC40 JUMP JUMPDEST POP DUP1 PUSH2 0xC35 JUMP JUMPDEST PUSH4 0x4E487B71 PUSH1 0xE0 SHL DUP12 MSTORE PUSH1 0x41 PUSH1 0x4 MSTORE PUSH1 0x24 DUP12 REVERT JUMPDEST PUSH4 0x4E487B71 PUSH1 0xE0 SHL DUP11 MSTORE PUSH1 0x4 DUP11 SWAP1 MSTORE PUSH1 0x24 DUP11 REVERT JUMPDEST PUSH1 0x40 MLOAD PUSH3 0x461BCD PUSH1 0xE5 SHL DUP2 MSTORE PUSH1 0x20 PUSH1 0x4 DUP3 ADD MSTORE PUSH1 0x15 PUSH1 0x24 DUP3 ADD MSTORE PUSH21 0x151BDAD95B881D1C985B9CD9995C8819985A5B1959 PUSH1 0x5A SHL PUSH1 0x44 DUP3 ADD MSTORE PUSH1 0x64 SWAP1 REVERT JUMPDEST SWAP1 POP PUSH1 0x20 DUP2 RETURNDATASIZE PUSH1 0x20 GT PUSH2 0xD05 JUMPI JUMPDEST DUP2 PUSH2 0xCEA PUSH1 0x20 SWAP4 DUP4 PUSH2 0x23CD JUMP JUMPDEST DUP2 ADD SUB SLT PUSH2 0xD01 JUMPI PUSH2 0xCFB SWAP1 PUSH2 0x26CE JUMP JUMPDEST CODESIZE PUSH2 0x7B8 JUMP JUMPDEST DUP8 DUP1 REVERT JUMPDEST RETURNDATASIZE SWAP2 POP PUSH2 0xCDD JUMP JUMPDEST PUSH1 0x40 MLOAD RETURNDATASIZE DUP11 DUP3 RETURNDATACOPY RETURNDATASIZE SWAP1 REVERT JUMPDEST PUSH4 0x4E487B71 PUSH1 0xE0 SHL DUP10 MSTORE PUSH1 0x11 PUSH1 0x4 MSTORE PUSH1 0x24 DUP10 REVERT JUMPDEST PUSH1 0x40 MLOAD PUSH3 0x461BCD PUSH1 0xE5 SHL DUP2 MSTORE PUSH1 0x20 PUSH1 0x4 DUP3 ADD MSTORE PUSH1 0x14 PUSH1 0x24 DUP3 ADD MSTORE PUSH20 0x125B9CDD59999A58DA595B9D081C185E5B595B9D PUSH1 0x62 SHL PUSH1 0x44 DUP3 ADD MSTORE PUSH1 0x64 SWAP1 REVERT JUMPDEST PUSH1 0x40 MLOAD PUSH3 0x461BCD PUSH1 0xE5 SHL DUP2 MSTORE PUSH1 0x20 PUSH1 0x4 DUP3 ADD MSTORE PUSH1 0x1B PUSH1 0x24 DUP3 ADD MSTORE PUSH32 0x43616E6E6F742062757920796F7572206F776E206C697374696E670000000000 PUSH1 0x44 DUP3 ADD MSTORE PUSH1 0x64 SWAP1 REVERT JUMPDEST PUSH1 0x40 MLOAD PUSH3 0x461BCD PUSH1 0xE5 SHL DUP2 MSTORE PUSH1 0x20 PUSH1 0x4 DUP3 ADD MSTORE PUSH1 0xE PUSH1 0x24 DUP3 ADD MSTORE PUSH14 0x125B9D985B1A5908185B5BDD5B9D PUSH1 0x92 SHL PUSH1 0x44 DUP3 ADD MSTORE PUSH1 0x64 SWAP1 REVERT JUMPDEST POP PUSH1 0x4 DUP4 ADD SLOAD PUSH1 0x24 CALLDATALOAD GT ISZERO PUSH2 0x705 JUMP JUMPDEST POP PUSH1 0x5 SLOAD PUSH1 0x4 CALLDATALOAD GT ISZERO PUSH2 0x69F JUMP JUMPDEST POP DUP1 REVERT JUMPDEST POP CALLVALUE PUSH2 0x22C JUMPI DUP1 PUSH1 0x3 NOT CALLDATASIZE ADD SLT PUSH2 0x22C JUMPI PUSH1 0x1 SLOAD PUSH1 0x40 MLOAD PUSH1 0x1 PUSH1 0x1 PUSH1 0xA0 SHL SUB SWAP1 SWAP2 AND DUP2 MSTORE PUSH1 0x20 SWAP1 RETURN JUMPDEST POP CALLVALUE PUSH2 0x22C JUMPI PUSH2 0xE3D CALLDATASIZE PUSH2 0x24D3 JUMP JUMPDEST SWAP1 DUP3 MSTORE PUSH1 0x9 PUSH1 0x20 MSTORE PUSH1 0x40 DUP3 KECCAK256 DUP1 SLOAD DUP3 LT ISZERO PUSH2 0xEE9 JUMPI PUSH2 0xE5C SWAP3 POP PUSH2 0x24E9 JUMP JUMPDEST POP DUP1 SLOAD PUSH2 0x3DC PUSH1 0x1 DUP4 ADD SLOAD SWAP3 PUSH1 0x2 DUP2 ADD SLOAD SWAP1 PUSH1 0x1 DUP1 PUSH1 0xA0 SHL SUB DUP1 PUSH1 0x3 DUP4 ADD SLOAD AND SWAP1 PUSH1 0x4 DUP4 ADD SLOAD AND PUSH1 0x5 DUP4 ADD SLOAD PUSH1 0x6 DUP5 ADD SLOAD SWAP2 PUSH1 0x7 DUP6 ADD SLOAD SWAP4 PUSH2 0xEA5 PUSH1 0x9 PUSH1 0x8 DUP9 ADD SLOAD SWAP8 ADD PUSH2 0x253F JUMP JUMPDEST SWAP7 PUSH1 0x40 MLOAD SWAP11 DUP12 SWAP11 DUP12 MSTORE PUSH1 0x20 DUP12 ADD MSTORE PUSH1 0x40 DUP11 ADD MSTORE PUSH1 0x60 DUP10 ADD MSTORE PUSH1 0x80 DUP9 ADD MSTORE PUSH1 0xA0 DUP8 ADD MSTORE PUSH1 0xC0 DUP7 ADD MSTORE PUSH1 0xE0 DUP6 ADD MSTORE PUSH2 0x100 DUP5 ADD MSTORE PUSH2 0x140 DUP1 PUSH2 0x120 DUP6 ADD MSTORE DUP4 ADD SWAP1 PUSH2 0x2473 JUMP JUMPDEST DUP3 DUP1 REVERT JUMPDEST POP CALLVALUE PUSH2 0x22C JUMPI PUSH1 0x40 PUSH32 0x15819DD2FD9F6418B142E798D08A18D0BF06EA368F4480B7B0D3F75BD966BC48 PUSH2 0xF1F CALLDATASIZE PUSH2 0x24D3 JUMP JUMPDEST DUP2 SWAP4 SWAP2 ISZERO ISZERO DUP1 PUSH2 0xFCA JUMPI JUMPDEST PUSH2 0xF33 SWAP1 PUSH2 0x283C JUMP JUMPDEST DUP4 DUP6 MSTORE PUSH1 0x6 PUSH1 0x20 MSTORE PUSH2 0xF4D PUSH1 0xFF PUSH1 0x7 DUP5 DUP9 KECCAK256 ADD SLOAD AND PUSH2 0x287D JUMP JUMPDEST DUP4 DUP6 MSTORE PUSH1 0x6 PUSH1 0x20 MSTORE PUSH2 0xF67 PUSH1 0x9 DUP4 DUP8 KECCAK256 ADD SLOAD TIMESTAMP GT ISZERO PUSH2 0x28C1 JUMP JUMPDEST DUP4 DUP6 MSTORE PUSH1 0x6 PUSH1 0x20 MSTORE PUSH2 0xF88 PUSH1 0x1 DUP1 PUSH1 0xA0 SHL SUB PUSH1 0x3 DUP5 DUP9 KECCAK256 ADD SLOAD AND CALLER EQ PUSH2 0x2910 JUMP JUMPDEST PUSH2 0xF93 DUP2 ISZERO ISZERO PUSH2 0x263D JUMP JUMPDEST DUP4 DUP6 MSTORE PUSH1 0x6 PUSH1 0x20 MSTORE DUP2 DUP6 KECCAK256 SWAP1 PUSH1 0x5 DUP3 ADD SWAP2 DUP2 DUP4 SLOAD SWAP4 SSTORE PUSH1 0x6 PUSH2 0xFB9 DUP4 PUSH1 0x4 DUP5 ADD SLOAD PUSH2 0x276C JUMP JUMPDEST SWAP2 ADD SSTORE DUP3 MLOAD SWAP2 DUP3 MSTORE PUSH1 0x20 DUP3 ADD MSTORE LOG2 DUP1 RETURN JUMPDEST POP PUSH1 0x5 SLOAD DUP5 GT ISZERO PUSH2 0xF2A JUMP JUMPDEST POP CALLVALUE PUSH2 0x22C JUMPI DUP1 PUSH1 0x3 NOT CALLDATASIZE ADD SLT PUSH2 0x22C JUMPI PUSH1 0x5 SLOAD DUP2 PUSH1 0x1 JUMPDEST DUP3 DUP2 GT ISZERO PUSH2 0x1018 JUMPI PUSH1 0x80 DUP4 DUP4 PUSH1 0xC SLOAD PUSH1 0xD SLOAD SWAP1 PUSH1 0x40 MLOAD SWAP4 DUP5 MSTORE PUSH1 0x20 DUP5 ADD MSTORE PUSH1 0x40 DUP4 ADD MSTORE PUSH1 0x60 DUP3 ADD MSTORE RETURN JUMPDEST DUP1 DUP5 MSTORE PUSH1 0x6 PUSH1 0x20 MSTORE PUSH1 0x40 DUP5 KECCAK256 PUSH1 0xFF PUSH1 0x7 DUP3 ADD SLOAD AND SWAP1 DUP2 PUSH2 0x105C JUMPI JUMPDEST POP PUSH2 0x1047 JUMPI JUMPDEST PUSH2 0x1042 SWAP1 PUSH2 0x2795 JUMP JUMPDEST PUSH2 0xFEE JUMP JUMPDEST SWAP1 PUSH2 0x1054 PUSH2 0x1042 SWAP2 PUSH2 0x2795 JUMP JUMPDEST SWAP2 SWAP1 POP PUSH2 0x1039 JUMP JUMPDEST PUSH1 0x9 SWAP2 POP ADD SLOAD TIMESTAMP GT ISZERO CODESIZE PUSH2 0x1033 JUMP JUMPDEST POP CALLVALUE PUSH2 0x22C JUMPI DUP1 PUSH1 0x3 NOT CALLDATASIZE ADD SLT PUSH2 0x22C JUMPI PUSH2 0x1084 PUSH2 0x25E5 JUMP JUMPDEST PUSH1 0x1 DUP1 SLOAD PUSH1 0x1 PUSH1 0x1 PUSH1 0xA0 SHL SUB NOT DUP2 AND SWAP1 SWAP2 SSTORE DUP2 SWAP1 PUSH1 0x1 PUSH1 0x1 PUSH1 0xA0 SHL SUB AND PUSH32 0x8BE0079C531659141344CD1FD0A4F28419497F9722A3DAAFE3B4186F6B6457E0 DUP3 DUP1 LOG3 DUP1 RETURN JUMPDEST POP CALLVALUE PUSH2 0x22C JUMPI DUP1 PUSH1 0x3 NOT CALLDATASIZE ADD SLT PUSH2 0x22C JUMPI PUSH1 0x2 SLOAD PUSH1 0x40 MLOAD PUSH1 0x1 PUSH1 0x1 PUSH1 0xA0 SHL SUB SWAP1 SWAP2 AND DUP2 MSTORE PUSH1 0x20 SWAP1 RETURN JUMPDEST POP CALLVALUE PUSH2 0x22C JUMPI PUSH1 0x20 CALLDATASIZE PUSH1 0x3 NOT ADD SLT PUSH2 0x22C JUMPI PUSH1 0x40 PUSH1 0x20 SWAP2 PUSH1 0x4 CALLDATALOAD DUP2 MSTORE PUSH1 0xE DUP4 MSTORE KECCAK256 SLOAD PUSH1 0x40 MLOAD SWAP1 DUP2 MSTORE RETURN JUMPDEST POP CALLVALUE PUSH2 0x22C JUMPI PUSH1 0x20 DUP1 PUSH1 0x3 NOT CALLDATASIZE ADD SLT PUSH2 0xE01 JUMPI SWAP1 PUSH1 0x4 CALLDATALOAD DUP2 MSTORE PUSH1 0x9 SWAP1 DUP2 DUP4 MSTORE PUSH1 0x40 DUP2 KECCAK256 SWAP1 DUP2 SLOAD PUSH2 0x114A DUP2 PUSH2 0x26EF JUMP JUMPDEST SWAP4 PUSH2 0x1158 PUSH1 0x40 MLOAD SWAP6 DUP7 PUSH2 0x23CD JUMP JUMPDEST DUP2 DUP6 MSTORE DUP6 DUP6 ADD SWAP1 DUP2 SWAP5 DUP5 MSTORE DUP7 DUP5 KECCAK256 SWAP1 DUP5 SWAP3 JUMPDEST DUP5 DUP5 LT PUSH2 0x123F JUMPI POP POP POP POP POP PUSH1 0x40 MLOAD SWAP3 DUP5 DUP5 ADD SWAP1 DUP6 DUP6 MSTORE MLOAD DUP1 SWAP2 MSTORE PUSH1 0x40 DUP5 ADD SWAP5 PUSH1 0x40 DUP3 PUSH1 0x5 SHL DUP7 ADD ADD SWAP4 SWAP3 SWAP6 JUMPDEST DUP3 DUP8 LT PUSH2 0x11A4 JUMPI DUP6 DUP6 SUB DUP7 RETURN JUMPDEST SWAP1 SWAP2 SWAP3 SWAP4 DUP3 DUP1 PUSH2 0x122F PUSH1 0x1 SWAP4 PUSH1 0x3F NOT DUP11 DUP3 SUB ADD DUP7 MSTORE DUP9 MLOAD DUP1 MLOAD DUP3 MSTORE DUP4 DUP2 ADD MLOAD DUP5 DUP4 ADD MSTORE PUSH1 0x40 DUP2 ADD MLOAD PUSH1 0x40 DUP4 ADD MSTORE DUP6 DUP1 PUSH1 0xA0 SHL SUB PUSH1 0x60 DUP2 DUP2 DUP5 ADD MLOAD AND SWAP1 DUP5 ADD MSTORE PUSH1 0x80 SWAP1 DUP2 DUP4 ADD MLOAD AND SWAP1 DUP4 ADD MSTORE PUSH1 0xA0 DUP1 DUP3 ADD MLOAD SWAP1 DUP4 ADD MSTORE PUSH1 0xC0 DUP1 DUP3 ADD MLOAD SWAP1 DUP4 ADD MSTORE PUSH1 0xE0 DUP2 ADD MLOAD PUSH1 0xE0 DUP4 ADD MSTORE PUSH2 0x100 DUP1 DUP3 ADD MLOAD SWAP1 DUP4 ADD MSTORE PUSH2 0x120 DUP1 SWAP2 ADD MLOAD SWAP2 PUSH2 0x140 DUP1 SWAP3 DUP3 ADD MSTORE ADD SWAP1 PUSH2 0x2473 JUMP JUMPDEST SWAP7 ADD SWAP3 ADD SWAP7 ADD SWAP6 SWAP3 SWAP2 SWAP1 SWAP3 PUSH2 0x1197 JUMP JUMPDEST PUSH1 0xA DUP10 PUSH1 0x1 SWAP3 PUSH1 0x40 SWAP12 SWAP11 SWAP9 SWAP12 MLOAD PUSH2 0x1255 DUP2 PUSH2 0x23B1 JUMP JUMPDEST DUP7 SLOAD DUP2 MSTORE DUP5 DUP8 ADD SLOAD DUP4 DUP3 ADD MSTORE PUSH1 0x2 DUP8 ADD SLOAD PUSH1 0x40 DUP3 ADD MSTORE DUP5 DUP1 PUSH1 0xA0 SHL SUB DUP1 PUSH1 0x3 DUP10 ADD SLOAD AND PUSH1 0x60 DUP4 ADD MSTORE PUSH1 0x4 DUP9 ADD SLOAD AND PUSH1 0x80 DUP3 ADD MSTORE PUSH1 0x5 DUP8 ADD SLOAD PUSH1 0xA0 DUP3 ADD MSTORE PUSH1 0x6 DUP8 ADD SLOAD PUSH1 0xC0 DUP3 ADD MSTORE PUSH1 0x7 DUP8 ADD SLOAD PUSH1 0xE0 DUP3 ADD MSTORE PUSH1 0x8 DUP8 ADD SLOAD PUSH2 0x100 DUP3 ADD MSTORE PUSH2 0x12BC DUP7 DUP9 ADD PUSH2 0x253F JUMP JUMPDEST PUSH2 0x120 DUP3 ADD MSTORE DUP2 MSTORE ADD SWAP4 ADD SWAP4 ADD SWAP3 SWAP2 SWAP8 SWAP5 SWAP7 SWAP8 PUSH2 0x116A JUMP JUMPDEST POP CALLVALUE PUSH2 0x22C JUMPI DUP1 PUSH1 0x3 NOT CALLDATASIZE ADD SLT PUSH2 0x22C JUMPI PUSH1 0x20 PUSH1 0xD SLOAD PUSH1 0x40 MLOAD SWAP1 DUP2 MSTORE RETURN JUMPDEST POP CALLVALUE PUSH2 0x22C JUMPI DUP1 PUSH1 0x3 NOT CALLDATASIZE ADD SLT PUSH2 0x22C JUMPI PUSH1 0x20 PUSH1 0xC SLOAD PUSH1 0x40 MLOAD SWAP1 DUP2 MSTORE RETURN JUMPDEST POP CALLVALUE PUSH2 0x22C JUMPI DUP1 PUSH1 0x3 NOT CALLDATASIZE ADD SLT PUSH2 0x22C JUMPI PUSH1 0x3 SLOAD PUSH1 0x40 MLOAD PUSH1 0x1 PUSH1 0x1 PUSH1 0xA0 SHL SUB SWAP1 SWAP2 AND DUP2 MSTORE PUSH1 0x20 SWAP1 RETURN JUMPDEST POP CALLVALUE PUSH2 0x22C JUMPI DUP1 PUSH1 0x3 NOT CALLDATASIZE ADD SLT PUSH2 0x22C JUMPI PUSH1 0xB SLOAD PUSH1 0x40 MLOAD PUSH1 0x1 PUSH1 0x1 PUSH1 0xA0 SHL SUB SWAP1 SWAP2 AND DUP2 MSTORE PUSH1 0x20 SWAP1 RETURN JUMPDEST POP CALLVALUE PUSH2 0x22C JUMPI PUSH1 0x20 DUP1 PUSH1 0x3 NOT CALLDATASIZE ADD SLT PUSH2 0xE01 JUMPI PUSH1 0x4 CALLDATALOAD PUSH1 0x5 SLOAD PUSH2 0x1384 DUP2 PUSH2 0x294D JUMP JUMPDEST SWAP2 DUP5 SWAP4 PUSH1 0x1 JUMPDEST DUP4 DUP2 GT ISZERO PUSH2 0x13C9 JUMPI POP POP POP POP PUSH2 0x139F DUP3 PUSH2 0x294D JUMP JUMPDEST SWAP3 JUMPDEST DUP3 DUP2 LT PUSH2 0x13B6 JUMPI PUSH1 0x40 MLOAD DUP1 PUSH2 0x3DC DUP7 DUP3 PUSH2 0x2498 JUMP JUMPDEST DUP1 PUSH2 0x5D6 PUSH2 0x13C4 SWAP3 DUP5 PUSH2 0x297F JUMP JUMPDEST PUSH2 0x13A1 JUMP JUMPDEST DUP1 DUP8 MSTORE PUSH1 0x6 DUP3 MSTORE PUSH1 0x40 DUP8 KECCAK256 DUP4 PUSH1 0x2 DUP3 ADD SLOAD EQ SWAP1 DUP2 PUSH2 0x1426 JUMPI JUMPDEST DUP2 PUSH2 0x1417 JUMPI JUMPDEST POP PUSH2 0x13FC JUMPI JUMPDEST PUSH2 0x13F7 SWAP1 PUSH2 0x2795 JUMP JUMPDEST PUSH2 0x138A JUMP JUMPDEST SWAP5 PUSH2 0x140F DUP2 DUP8 PUSH2 0x588 PUSH2 0x13F7 SWAP5 DUP10 PUSH2 0x297F JUMP JUMPDEST SWAP6 SWAP1 POP PUSH2 0x13EE JUMP JUMPDEST PUSH1 0x9 SWAP2 POP ADD SLOAD TIMESTAMP GT ISZERO CODESIZE PUSH2 0x13E8 JUMP JUMPDEST PUSH1 0x7 DUP2 ADD SLOAD PUSH1 0xFF AND SWAP2 POP PUSH2 0x13E2 JUMP JUMPDEST POP CALLVALUE PUSH2 0x22C JUMPI PUSH1 0x40 CALLDATASIZE PUSH1 0x3 NOT ADD SLT PUSH2 0x22C JUMPI PUSH2 0x144F PUSH2 0x2336 JUMP JUMPDEST PUSH1 0x1 PUSH1 0x1 PUSH1 0xA0 SHL SUB AND DUP2 MSTORE PUSH1 0x8 PUSH1 0x20 MSTORE PUSH1 0x40 DUP2 KECCAK256 DUP1 SLOAD PUSH1 0x24 CALLDATALOAD SWAP3 SWAP1 DUP4 LT ISZERO PUSH2 0x22C JUMPI PUSH1 0x20 PUSH2 0x147D DUP5 DUP5 PUSH2 0x2351 JUMP JUMPDEST SWAP1 SLOAD PUSH1 0x40 MLOAD SWAP2 PUSH1 0x3 SHL SHR DUP2 MSTORE RETURN JUMPDEST POP CALLVALUE PUSH2 0x22C JUMPI PUSH1 0x20 CALLDATASIZE PUSH1 0x3 NOT ADD SLT PUSH2 0x22C JUMPI PUSH1 0x4 CALLDATALOAD DUP1 ISZERO ISZERO DUP1 PUSH2 0x154A JUMPI JUMPDEST PUSH2 0x14B2 SWAP1 PUSH2 0x283C JUMP JUMPDEST DUP1 DUP3 MSTORE PUSH1 0x6 PUSH1 0x20 MSTORE PUSH2 0x14CD PUSH1 0xFF PUSH1 0x7 PUSH1 0x40 DUP6 KECCAK256 ADD SLOAD AND PUSH2 0x287D JUMP JUMPDEST DUP1 DUP3 MSTORE PUSH1 0x6 PUSH1 0x20 MSTORE PUSH2 0x14E8 PUSH1 0x9 PUSH1 0x40 DUP5 KECCAK256 ADD SLOAD TIMESTAMP GT ISZERO PUSH2 0x28C1 JUMP JUMPDEST DUP1 DUP3 MSTORE PUSH1 0x6 PUSH1 0x20 MSTORE PUSH2 0x150A PUSH1 0x1 DUP1 PUSH1 0xA0 SHL SUB PUSH1 0x3 PUSH1 0x40 DUP6 KECCAK256 ADD SLOAD AND CALLER EQ PUSH2 0x2910 JUMP JUMPDEST DUP1 DUP3 MSTORE PUSH1 0x6 PUSH1 0x20 MSTORE PUSH1 0x40 DUP3 KECCAK256 PUSH1 0x7 ADD DUP1 SLOAD PUSH1 0xFF NOT AND SWAP1 SSTORE CALLER SWAP1 PUSH32 0x8E25282255AB31897DF2B0456BB993AC7F84D376861AEFD84901D2D63A7428A2 DUP4 DUP1 LOG3 DUP1 RETURN JUMPDEST POP PUSH1 0x5 SLOAD DUP2 GT ISZERO PUSH2 0x14A9 JUMP JUMPDEST POP CALLVALUE PUSH2 0x22C JUMPI PUSH1 0x20 CALLDATASIZE PUSH1 0x3 NOT ADD SLT PUSH2 0x22C JUMPI PUSH1 0x4 CALLDATALOAD PUSH2 0x1573 PUSH2 0x25E5 JUMP JUMPDEST PUSH2 0x3E8 DUP2 GT PUSH2 0x15B6 JUMPI PUSH1 0x40 PUSH32 0xD347E206F25A89B917FC9482F1A2D294D749BAA4DC9BDE7FB495EE11FE491643 SWAP2 PUSH1 0xA SLOAD SWAP1 DUP1 PUSH1 0xA SSTORE DUP3 MLOAD SWAP2 DUP3 MSTORE PUSH1 0x20 DUP3 ADD MSTORE LOG1 DUP1 RETURN JUMPDEST PUSH1 0x40 MLOAD PUSH3 0x461BCD PUSH1 0xE5 SHL DUP2 MSTORE PUSH1 0x20 PUSH1 0x4 DUP3 ADD MSTORE PUSH1 0x15 PUSH1 0x24 DUP3 ADD MSTORE PUSH21 0x4665652063616E6E6F742065786365656420313025 PUSH1 0x58 SHL PUSH1 0x44 DUP3 ADD MSTORE PUSH1 0x64 SWAP1 REVERT JUMPDEST POP CALLVALUE PUSH2 0x22C JUMPI PUSH1 0x20 CALLDATASIZE PUSH1 0x3 NOT ADD SLT PUSH2 0x22C JUMPI PUSH1 0x40 PUSH2 0x3DC SWAP2 PUSH1 0x60 PUSH2 0x1C0 DUP4 MLOAD PUSH2 0x161B DUP2 PUSH2 0x237F JUMP JUMPDEST DUP4 DUP2 MSTORE DUP4 PUSH1 0x20 DUP3 ADD MSTORE DUP4 DUP6 DUP3 ADD MSTORE DUP4 DUP4 DUP3 ADD MSTORE DUP4 PUSH1 0x80 DUP3 ADD MSTORE DUP4 PUSH1 0xA0 DUP3 ADD MSTORE DUP4 PUSH1 0xC0 DUP3 ADD MSTORE DUP4 PUSH1 0xE0 DUP3 ADD MSTORE DUP4 PUSH2 0x100 DUP3 ADD MSTORE DUP4 PUSH2 0x120 DUP3 ADD MSTORE DUP3 PUSH2 0x140 DUP3 ADD MSTORE DUP4 PUSH2 0x160 DUP3 ADD MSTORE DUP3 PUSH2 0x180 DUP3 ADD MSTORE DUP3 PUSH2 0x1A0 DUP3 ADD MSTORE ADD MSTORE PUSH1 0x4 CALLDATALOAD DUP1 ISZERO ISZERO DUP1 PUSH2 0x184B JUMPI JUMPDEST PUSH2 0x1687 SWAP1 PUSH2 0x283C JUMP JUMPDEST DUP2 MSTORE PUSH1 0x6 PUSH1 0x20 MSTORE KECCAK256 PUSH2 0x1756 PUSH1 0xE PUSH1 0x40 MLOAD SWAP3 PUSH2 0x16A1 DUP5 PUSH2 0x237F JUMP JUMPDEST DUP1 SLOAD DUP5 MSTORE PUSH1 0x1 DUP2 ADD SLOAD PUSH1 0x20 DUP6 ADD MSTORE PUSH1 0x2 DUP2 ADD SLOAD PUSH1 0x40 DUP6 ADD MSTORE PUSH1 0x3 DUP2 ADD SLOAD PUSH1 0x1 PUSH1 0x1 PUSH1 0xA0 SHL SUB AND PUSH1 0x60 DUP6 ADD MSTORE PUSH1 0x4 DUP2 ADD SLOAD PUSH1 0x80 DUP6 ADD MSTORE PUSH1 0x5 DUP2 ADD SLOAD PUSH1 0xA0 DUP6 ADD MSTORE PUSH1 0x6 DUP2 ADD SLOAD PUSH1 0xC0 DUP6 ADD MSTORE PUSH1 0x7 DUP2 ADD SLOAD PUSH1 0xFF AND ISZERO ISZERO PUSH1 0xE0 DUP6 ADD MSTORE PUSH1 0x8 DUP2 ADD SLOAD PUSH2 0x100 DUP6 ADD MSTORE PUSH1 0x9 DUP2 ADD SLOAD PUSH2 0x120 DUP6 ADD MSTORE PUSH2 0x171B PUSH1 0xA DUP3 ADD PUSH2 0x253F JUMP JUMPDEST PUSH2 0x140 DUP6 ADD MSTORE PUSH1 0xB DUP2 ADD SLOAD PUSH2 0x160 DUP6 ADD MSTORE PUSH2 0x1738 PUSH1 0xC DUP3 ADD PUSH2 0x253F JUMP JUMPDEST PUSH2 0x180 DUP6 ADD MSTORE PUSH2 0x174A PUSH1 0xD DUP3 ADD PUSH2 0x253F JUMP JUMPDEST PUSH2 0x1A0 DUP6 ADD MSTORE ADD PUSH2 0x253F JUMP JUMPDEST PUSH2 0x1C0 DUP3 ADD MSTORE PUSH1 0x40 MLOAD SWAP2 DUP3 SWAP2 PUSH1 0x20 DUP4 MSTORE DUP1 MLOAD PUSH1 0x20 DUP5 ADD MSTORE PUSH1 0x20 DUP2 ADD MLOAD PUSH1 0x40 DUP5 ADD MSTORE PUSH1 0x40 DUP2 ADD MLOAD PUSH1 0x60 DUP5 ADD MSTORE PUSH1 0x1 DUP1 PUSH1 0xA0 SHL SUB PUSH1 0x60 DUP3 ADD MLOAD AND PUSH1 0x80 DUP5 ADD MSTORE PUSH1 0x80 DUP2 ADD MLOAD PUSH1 0xA0 DUP5 ADD MSTORE PUSH1 0xA0 DUP2 ADD MLOAD PUSH1 0xC0 DUP5 ADD MSTORE PUSH1 0xC0 DUP2 ADD MLOAD PUSH1 0xE0 DUP5 ADD MSTORE PUSH1 0xE0 DUP2 ADD MLOAD ISZERO ISZERO PUSH2 0x100 DUP5 ADD MSTORE PUSH2 0x100 DUP2 ADD MLOAD PUSH2 0x120 DUP5 ADD MSTORE PUSH2 0x120 DUP2 ADD MLOAD PUSH2 0x140 DUP5 ADD MSTORE PUSH2 0x140 DUP2 ADD MLOAD PUSH2 0x17F5 PUSH2 0x1E0 SWAP2 DUP3 PUSH2 0x160 DUP8 ADD MSTORE PUSH2 0x200 DUP7 ADD SWAP1 PUSH2 0x2473 JUMP JUMPDEST SWAP1 PUSH2 0x160 DUP4 ADD MLOAD PUSH2 0x180 DUP7 ADD MSTORE PUSH2 0x1C0 PUSH2 0x183A PUSH2 0x1826 PUSH2 0x180 DUP7 ADD MLOAD SWAP5 PUSH1 0x1F NOT SWAP6 DUP7 DUP11 DUP4 SUB ADD PUSH2 0x1A0 DUP12 ADD MSTORE PUSH2 0x2473 JUMP JUMPDEST PUSH2 0x1A0 DUP7 ADD MLOAD DUP6 DUP10 DUP4 SUB ADD DUP5 DUP11 ADD MSTORE PUSH2 0x2473 JUMP JUMPDEST SWAP4 ADD MLOAD SWAP2 DUP6 DUP5 SUB ADD SWAP1 DUP6 ADD MSTORE PUSH2 0x2473 JUMP JUMPDEST POP PUSH1 0x5 SLOAD DUP2 GT ISZERO PUSH2 0x167E JUMP JUMPDEST POP CALLVALUE PUSH2 0x22C JUMPI PUSH1 0xA0 CALLDATASIZE PUSH1 0x3 NOT ADD SLT PUSH2 0x22C JUMPI PUSH1 0x84 CALLDATALOAD PUSH1 0x1 PUSH1 0x1 PUSH1 0x40 SHL SUB DUP2 GT PUSH2 0xE01 JUMPI PUSH2 0x1888 SWAP1 CALLDATASIZE SWAP1 PUSH1 0x4 ADD PUSH2 0x2409 JUMP JUMPDEST SWAP1 PUSH2 0x1891 PUSH2 0x27E6 JUMP JUMPDEST PUSH1 0x24 CALLDATALOAD ISZERO PUSH2 0x22A9 JUMPI PUSH2 0x18A6 PUSH1 0x44 CALLDATALOAD ISZERO ISZERO PUSH2 0x263D JUMP JUMPDEST PUSH1 0x64 CALLDATALOAD ISZERO PUSH2 0x2264 JUMPI PUSH3 0x76A700 PUSH1 0x64 CALLDATALOAD GT PUSH2 0x221F JUMPI PUSH1 0x2 SLOAD PUSH1 0x40 MLOAD PUSH4 0x2D622141 PUSH1 0xE1 SHL DUP2 MSTORE PUSH1 0x4 DUP1 CALLDATALOAD SWAP1 DUP3 ADD MSTORE PUSH1 0x1 PUSH1 0x1 PUSH1 0xA0 SHL SUB SWAP1 SWAP2 AND SWAP2 DUP1 DUP3 PUSH1 0x24 DUP2 DUP7 GAS STATICCALL SWAP2 DUP3 ISZERO PUSH2 0x2212 JUMPI DUP2 SWAP1 DUP3 DUP4 SWAP5 DUP5 SWAP3 DUP6 SWAP2 PUSH2 0x2176 JUMPI JUMPDEST POP PUSH2 0x2131 JUMPI PUSH1 0x24 CALLDATALOAD GT PUSH2 0x20EC JUMPI PUSH1 0x3 SLOAD PUSH1 0x40 MLOAD PUSH4 0x1E1E7E59 PUSH1 0xE3 SHL DUP2 MSTORE PUSH1 0x4 DUP2 ADD DUP5 SWAP1 MSTORE SWAP2 SWAP1 DUP5 SWAP1 DUP4 SWAP1 PUSH1 0x24 SWAP1 DUP3 SWAP1 PUSH1 0x1 PUSH1 0x1 PUSH1 0xA0 SHL SUB AND GAS STATICCALL SWAP6 DUP7 ISZERO PUSH2 0xA91 JUMPI DUP5 SWAP3 DUP6 SWAP8 PUSH2 0x1FCF JUMPI JUMPDEST POP PUSH8 0xDE0B6B3A7640000 SWAP1 PUSH1 0x24 CALLDATALOAD DUP1 DUP4 MUL DIV DUP3 SUB PUSH2 0x548 JUMPI SWAP1 PUSH1 0x20 PUSH1 0x24 SWAP3 PUSH1 0x40 MLOAD SWAP4 DUP5 DUP1 SWAP3 PUSH4 0x70A08231 PUSH1 0xE0 SHL DUP3 MSTORE CALLER PUSH1 0x4 DUP4 ADD MSTORE GAS STATICCALL SWAP2 DUP3 ISZERO PUSH2 0x1FC4 JUMPI DUP7 SWAP3 PUSH2 0x1F8C JUMPI JUMPDEST POP PUSH1 0x24 CALLDATALOAD MUL GT PUSH2 0x1F50 JUMPI PUSH2 0x199F PUSH1 0x5 SLOAD PUSH2 0x2795 JUMP JUMPDEST SWAP5 DUP6 PUSH1 0x5 SSTORE PUSH2 0x19B2 PUSH1 0x44 CALLDATALOAD PUSH1 0x24 CALLDATALOAD PUSH2 0x276C JUMP JUMPDEST SWAP8 DUP7 DUP7 MSTORE PUSH1 0x6 PUSH1 0x20 MSTORE PUSH1 0x40 DUP7 KECCAK256 SWAP9 DUP8 DUP11 SSTORE PUSH1 0x4 CALLDATALOAD PUSH1 0x1 DUP12 ADD SSTORE DUP6 PUSH1 0x2 DUP12 ADD SSTORE PUSH1 0x3 DUP11 ADD CALLER PUSH1 0x1 PUSH1 0x1 PUSH1 0x60 SHL SUB PUSH1 0xA0 SHL DUP3 SLOAD AND OR SWAP1 SSTORE PUSH1 0x24 CALLDATALOAD PUSH1 0x4 DUP12 ADD SSTORE PUSH1 0x44 CALLDATALOAD PUSH1 0x5 DUP12 ADD SSTORE PUSH1 0x6 DUP11 ADD SSTORE PUSH1 0x7 DUP10 ADD PUSH1 0x1 PUSH1 0xFF NOT DUP3 SLOAD AND OR SWAP1 SSTORE TIMESTAMP PUSH1 0x8 DUP11 ADD SSTORE PUSH2 0x1A1D PUSH1 0x64 CALLDATALOAD TIMESTAMP PUSH2 0x27A4 JUMP JUMPDEST PUSH1 0x9 DUP11 ADD SSTORE DUP1 MLOAD SWAP1 PUSH1 0x1 PUSH1 0x1 PUSH1 0x40 SHL SUB DUP3 GT PUSH2 0x1F3C JUMPI DUP2 SWAP1 PUSH2 0x1A42 PUSH1 0xA DUP13 ADD SLOAD PUSH2 0x2505 JUMP JUMPDEST PUSH1 0x1F DUP2 GT PUSH2 0x1EEC JUMPI JUMPDEST POP PUSH1 0x20 SWAP1 PUSH1 0x1F DUP4 GT PUSH1 0x1 EQ PUSH2 0x1E7D JUMPI DUP9 SWAP3 PUSH2 0x1E72 JUMPI JUMPDEST POP POP DUP2 PUSH1 0x1 SHL SWAP2 PUSH1 0x0 NOT SWAP1 PUSH1 0x3 SHL SHR NOT AND OR PUSH1 0xA DUP10 ADD SSTORE JUMPDEST PUSH1 0xB DUP9 ADD SSTORE DUP1 MLOAD SWAP1 PUSH1 0x1 PUSH1 0x1 PUSH1 0x40 SHL SUB DUP3 GT PUSH2 0x1E5E JUMPI DUP2 SWAP1 PUSH2 0x1A9E PUSH1 0xC DUP11 ADD SLOAD PUSH2 0x2505 JUMP JUMPDEST PUSH1 0x1F DUP2 GT PUSH2 0x1E0E JUMPI JUMPDEST POP PUSH1 0x20 SWAP1 PUSH1 0x1F DUP4 GT PUSH1 0x1 EQ PUSH2 0x1D9F JUMPI DUP7 SWAP3 PUSH2 0x1D94 JUMPI JUMPDEST POP POP DUP2 PUSH1 0x1 SHL SWAP2 PUSH1 0x0 NOT SWAP1 PUSH1 0x3 SHL SHR NOT AND OR PUSH1 0xC DUP8 ADD SSTORE JUMPDEST DUP1 MLOAD SWAP1 PUSH1 0x1 PUSH1 0x1 PUSH1 0x40 SHL SUB DUP3 GT PUSH2 0x1D80 JUMPI DUP2 SWAP1 PUSH2 0x1AF5 PUSH1 0xD DUP10 ADD SLOAD PUSH2 0x2505 JUMP JUMPDEST PUSH1 0x1F DUP2 GT PUSH2 0x1D30 JUMPI JUMPDEST POP PUSH1 0x20 SWAP1 PUSH1 0x1F DUP4 GT PUSH1 0x1 EQ PUSH2 0x1CC1 JUMPI DUP6 SWAP3 PUSH2 0x1CB6 JUMPI JUMPDEST POP POP DUP2 PUSH1 0x1 SHL SWAP2 PUSH1 0x0 NOT SWAP1 PUSH1 0x3 SHL SHR NOT AND OR PUSH1 0xD DUP7 ADD SSTORE JUMPDEST DUP4 MLOAD SWAP5 PUSH1 0x1 PUSH1 0x1 PUSH1 0x40 SHL SUB DUP7 GT PUSH2 0x1CA2 JUMPI PUSH2 0x1B4A PUSH1 0xE DUP3 ADD SLOAD PUSH2 0x2505 JUMP JUMPDEST PUSH1 0x1F DUP2 GT PUSH2 0x1C5A JUMPI JUMPDEST POP PUSH1 0x20 SWAP6 DUP7 PUSH1 0x1F DUP3 GT PUSH1 0x1 EQ PUSH2 0x1BEE JUMPI SWAP1 DUP1 PUSH1 0xE SWAP3 PUSH1 0x1 SWAP8 SWAP9 DUP8 SWAP3 PUSH2 0x1BE3 JUMPI JUMPDEST POP POP PUSH1 0x0 NOT PUSH1 0x3 DUP4 SWAP1 SHL SHR NOT AND SWAP1 DUP7 SHL OR SWAP2 ADD SSTORE JUMPDEST CALLER DUP3 MSTORE PUSH1 0x7 DUP6 MSTORE PUSH2 0x1B9C DUP5 PUSH1 0x40 DUP5 KECCAK256 PUSH2 0x27B1 JUMP JUMPDEST PUSH1 0x40 MLOAD CALLER DUP2 MSTORE PUSH1 0x24 CALLDATALOAD DUP7 DUP3 ADD MSTORE PUSH1 0x44 CALLDATALOAD PUSH1 0x40 DUP3 ADD MSTORE DUP5 PUSH32 0x7F12AAB9DBE6B7BAB93408A8E76AFD973C16EB4AA5606E70C1D7E7A4C93EF92E PUSH1 0x60 PUSH1 0x4 CALLDATALOAD SWAP4 LOG4 SSTORE PUSH1 0x40 MLOAD SWAP1 DUP2 MSTORE RETURN JUMPDEST ADD MLOAD SWAP1 POP CODESIZE DUP1 PUSH2 0x1B73 JUMP JUMPDEST PUSH1 0xE DUP4 ADD DUP6 MSTORE DUP8 DUP6 KECCAK256 SWAP7 DUP6 JUMPDEST PUSH1 0x1F NOT DUP5 AND DUP2 LT PUSH2 0x1C43 JUMPI POP SWAP2 PUSH1 0x1 SWAP7 SWAP8 DUP8 SWAP3 PUSH1 0xE SWAP5 DUP4 PUSH1 0x1F NOT DUP2 AND LT PUSH2 0x1C2A JUMPI JUMPDEST POP POP POP DUP2 SHL ADD SWAP2 ADD SSTORE PUSH2 0x1B88 JUMP JUMPDEST ADD MLOAD PUSH1 0x0 NOT PUSH1 0xF8 DUP5 PUSH1 0x3 SHL AND SHR NOT AND SWAP1 SSTORE CODESIZE DUP1 DUP1 PUSH2 0x1C1C JUMP JUMPDEST SWAP2 SWAP8 DUP10 PUSH1 0x1 DUP2 SWAP3 DUP12 DUP6 ADD MLOAD DUP2 SSTORE ADD SWAP10 ADD SWAP3 ADD PUSH2 0x1BFA JUMP JUMPDEST PUSH1 0xE DUP3 ADD DUP5 MSTORE PUSH1 0x20 DUP5 KECCAK256 PUSH1 0x1F DUP9 ADD PUSH1 0x5 SHR DUP2 ADD SWAP2 PUSH1 0x20 DUP10 LT PUSH2 0x1C98 JUMPI JUMPDEST PUSH1 0x1F ADD PUSH1 0x5 SHR ADD SWAP1 JUMPDEST DUP2 DUP2 LT PUSH2 0x1C8D JUMPI POP PUSH2 0x1B53 JUMP JUMPDEST DUP5 DUP2 SSTORE PUSH1 0x1 ADD PUSH2 0x1C80 JUMP JUMPDEST SWAP1 SWAP2 POP DUP2 SWAP1 PUSH2 0x1C77 JUMP JUMPDEST PUSH4 0x4E487B71 PUSH1 0xE0 SHL DUP4 MSTORE PUSH1 0x41 PUSH1 0x4 MSTORE PUSH1 0x24 DUP4 REVERT JUMPDEST ADD MLOAD SWAP1 POP CODESIZE DUP1 PUSH2 0x1B14 JUMP JUMPDEST SWAP3 POP PUSH1 0xD DUP9 ADD DUP6 MSTORE PUSH1 0x20 DUP6 KECCAK256 SWAP1 DUP6 SWAP4 JUMPDEST PUSH1 0x1F NOT DUP5 AND DUP6 LT PUSH2 0x1D15 JUMPI PUSH1 0x1 SWAP5 POP DUP4 PUSH1 0x1F NOT DUP2 AND LT PUSH2 0x1CFC JUMPI JUMPDEST POP POP POP DUP2 SHL ADD PUSH1 0xD DUP7 ADD SSTORE PUSH2 0x1B2C JUMP JUMPDEST ADD MLOAD PUSH1 0x0 NOT PUSH1 0xF8 DUP5 PUSH1 0x3 SHL AND SHR NOT AND SWAP1 SSTORE CODESIZE DUP1 DUP1 PUSH2 0x1CEC JUMP JUMPDEST DUP2 DUP2 ADD MLOAD DUP4 SSTORE PUSH1 0x20 SWAP5 DUP6 ADD SWAP5 PUSH1 0x1 SWAP1 SWAP4 ADD SWAP3 SWAP1 SWAP2 ADD SWAP1 PUSH2 0x1CD1 JUMP JUMPDEST SWAP1 SWAP2 POP PUSH1 0xD DUP9 ADD DUP6 MSTORE PUSH1 0x20 DUP6 KECCAK256 PUSH1 0x1F DUP5 ADD PUSH1 0x5 SHR DUP2 ADD PUSH1 0x20 DUP6 LT PUSH2 0x1D79 JUMPI JUMPDEST SWAP1 DUP5 SWAP4 SWAP3 SWAP2 JUMPDEST PUSH1 0x1F DUP4 ADD PUSH1 0x5 SHR DUP3 ADD DUP2 LT PUSH2 0x1D6B JUMPI POP POP PUSH2 0x1AFE JUMP JUMPDEST DUP8 DUP2 SSTORE DUP6 SWAP5 POP PUSH1 0x1 ADD PUSH2 0x1D55 JUMP JUMPDEST POP DUP1 PUSH2 0x1D4F JUMP JUMPDEST PUSH4 0x4E487B71 PUSH1 0xE0 SHL DUP5 MSTORE PUSH1 0x41 PUSH1 0x4 MSTORE PUSH1 0x24 DUP5 REVERT JUMPDEST ADD MLOAD SWAP1 POP CODESIZE DUP1 PUSH2 0x1ABD JUMP JUMPDEST SWAP3 POP PUSH1 0xC DUP10 ADD DUP7 MSTORE PUSH1 0x20 DUP7 KECCAK256 SWAP1 DUP7 SWAP4 JUMPDEST PUSH1 0x1F NOT DUP5 AND DUP6 LT PUSH2 0x1DF3 JUMPI PUSH1 0x1 SWAP5 POP DUP4 PUSH1 0x1F NOT DUP2 AND LT PUSH2 0x1DDA JUMPI JUMPDEST POP POP POP DUP2 SHL ADD PUSH1 0xC DUP8 ADD SSTORE PUSH2 0x1AD5 JUMP JUMPDEST ADD MLOAD PUSH1 0x0 NOT PUSH1 0xF8 DUP5 PUSH1 0x3 SHL AND SHR NOT AND SWAP1 SSTORE CODESIZE DUP1 DUP1 PUSH2 0x1DCA JUMP JUMPDEST DUP2 DUP2 ADD MLOAD DUP4 SSTORE PUSH1 0x20 SWAP5 DUP6 ADD SWAP5 PUSH1 0x1 SWAP1 SWAP4 ADD SWAP3 SWAP1 SWAP2 ADD SWAP1 PUSH2 0x1DAF JUMP JUMPDEST SWAP1 SWAP2 POP PUSH1 0xC DUP10 ADD DUP7 MSTORE PUSH1 0x20 DUP7 KECCAK256 PUSH1 0x1F DUP5 ADD PUSH1 0x5 SHR DUP2 ADD PUSH1 0x20 DUP6 LT PUSH2 0x1E57 JUMPI JUMPDEST SWAP1 DUP5 SWAP4 SWAP3 SWAP2 JUMPDEST PUSH1 0x1F DUP4 ADD PUSH1 0x5 SHR DUP3 ADD DUP2 LT PUSH2 0x1E49 JUMPI POP POP PUSH2 0x1AA7 JUMP JUMPDEST DUP9 DUP2 SSTORE DUP6 SWAP5 POP PUSH1 0x1 ADD PUSH2 0x1E33 JUMP JUMPDEST POP DUP1 PUSH2 0x1E2D JUMP JUMPDEST PUSH4 0x4E487B71 PUSH1 0xE0 SHL DUP6 MSTORE PUSH1 0x41 PUSH1 0x4 MSTORE PUSH1 0x24 DUP6 REVERT JUMPDEST ADD MLOAD SWAP1 POP CODESIZE DUP1 PUSH2 0x1A61 JUMP JUMPDEST SWAP3 POP PUSH1 0xA DUP12 ADD DUP9 MSTORE PUSH1 0x20 DUP9 KECCAK256 SWAP1 DUP9 SWAP4 JUMPDEST PUSH1 0x1F NOT DUP5 AND DUP6 LT PUSH2 0x1ED1 JUMPI PUSH1 0x1 SWAP5 POP DUP4 PUSH1 0x1F NOT DUP2 AND LT PUSH2 0x1EB8 JUMPI JUMPDEST POP POP POP DUP2 SHL ADD PUSH1 0xA DUP10 ADD SSTORE PUSH2 0x1A79 JUMP JUMPDEST ADD MLOAD PUSH1 0x0 NOT PUSH1 0xF8 DUP5 PUSH1 0x3 SHL AND SHR NOT AND SWAP1 SSTORE CODESIZE DUP1 DUP1 PUSH2 0x1EA8 JUMP JUMPDEST DUP2 DUP2 ADD MLOAD DUP4 SSTORE PUSH1 0x20 SWAP5 DUP6 ADD SWAP5 PUSH1 0x1 SWAP1 SWAP4 ADD SWAP3 SWAP1 SWAP2 ADD SWAP1 PUSH2 0x1E8D JUMP JUMPDEST SWAP1 SWAP2 POP PUSH1 0xA DUP12 ADD DUP9 MSTORE PUSH1 0x20 DUP9 KECCAK256 PUSH1 0x1F DUP5 ADD PUSH1 0x5 SHR DUP2 ADD PUSH1 0x20 DUP6 LT PUSH2 0x1F35 JUMPI JUMPDEST SWAP1 DUP5 SWAP4 SWAP3 SWAP2 JUMPDEST PUSH1 0x1F DUP4 ADD PUSH1 0x5 SHR DUP3 ADD DUP2 LT PUSH2 0x1F27 JUMPI POP POP PUSH2 0x1A4B JUMP JUMPDEST DUP11 DUP2 SSTORE DUP6 SWAP5 POP PUSH1 0x1 ADD PUSH2 0x1F11 JUMP JUMPDEST POP DUP1 PUSH2 0x1F0B JUMP JUMPDEST PUSH4 0x4E487B71 PUSH1 0xE0 SHL DUP8 MSTORE PUSH1 0x41 PUSH1 0x4 MSTORE PUSH1 0x24 DUP8 REVERT JUMPDEST PUSH1 0x40 MLOAD PUSH3 0x461BCD PUSH1 0xE5 SHL DUP2 MSTORE PUSH1 0x20 PUSH1 0x4 DUP3 ADD MSTORE PUSH1 0x14 PUSH1 0x24 DUP3 ADD MSTORE PUSH20 0x496E73756666696369656E742062616C616E6365 PUSH1 0x60 SHL PUSH1 0x44 DUP3 ADD MSTORE PUSH1 0x64 SWAP1 REVERT JUMPDEST SWAP1 SWAP2 POP PUSH1 0x20 DUP2 RETURNDATASIZE PUSH1 0x20 GT PUSH2 0x1FBC JUMPI JUMPDEST DUP2 PUSH2 0x1FA8 PUSH1 0x20 SWAP4 DUP4 PUSH2 0x23CD JUMP JUMPDEST DUP2 ADD SUB SLT PUSH2 0x1FB8 JUMPI MLOAD SWAP1 CODESIZE PUSH2 0x198A JUMP JUMPDEST DUP6 DUP1 REVERT JUMPDEST RETURNDATASIZE SWAP2 POP PUSH2 0x1F9B JUMP JUMPDEST PUSH1 0x40 MLOAD RETURNDATASIZE DUP9 DUP3 RETURNDATACOPY RETURNDATASIZE SWAP1 REVERT JUMPDEST SWAP3 POP SWAP6 POP RETURNDATASIZE SWAP2 DUP3 DUP6 DUP3 RETURNDATACOPY PUSH2 0x1FE3 DUP4 DUP3 PUSH2 0x23CD JUMP JUMPDEST PUSH2 0x200 DUP2 DUP5 DUP2 ADD SUB SLT PUSH2 0xB81 JUMPI PUSH1 0x20 DUP2 ADD MLOAD PUSH1 0x1 PUSH1 0x1 PUSH1 0x40 SHL SUB DUP2 GT PUSH2 0x1FB8 JUMPI PUSH2 0x2012 SWAP1 DUP5 DUP4 ADD SWAP1 DUP4 ADD PUSH2 0x2689 JUMP JUMPDEST SWAP1 PUSH1 0x40 DUP2 ADD MLOAD PUSH1 0x1 PUSH1 0x1 PUSH1 0x40 SHL SUB DUP2 GT PUSH2 0x20E8 JUMPI PUSH2 0x2035 SWAP1 DUP6 DUP4 ADD SWAP1 DUP4 ADD PUSH2 0x2689 JUMP JUMPDEST POP PUSH1 0x80 DUP2 ADD MLOAD PUSH1 0x1 PUSH1 0x1 PUSH1 0x40 SHL SUB DUP2 GT PUSH2 0x20E8 JUMPI PUSH2 0x2058 SWAP1 DUP6 DUP4 ADD SWAP1 DUP4 ADD PUSH2 0x2689 JUMP JUMPDEST SWAP4 PUSH2 0x2065 PUSH1 0xC0 DUP4 ADD PUSH2 0x26DB JUMP JUMPDEST POP PUSH1 0xE0 DUP3 ADD MLOAD PUSH1 0x1 PUSH1 0x1 PUSH1 0x40 SHL SUB DUP2 GT PUSH2 0xD01 JUMPI PUSH2 0x2088 SWAP1 DUP3 DUP5 ADD SWAP1 DUP5 ADD PUSH2 0x2706 JUMP JUMPDEST POP PUSH2 0x100 DUP3 ADD MLOAD PUSH1 0x1 PUSH1 0x1 PUSH1 0x40 SHL SUB DUP2 GT PUSH2 0xD01 JUMPI PUSH2 0x20AC SWAP1 DUP3 DUP5 ADD SWAP1 DUP5 ADD PUSH2 0x2706 JUMP JUMPDEST POP PUSH2 0x180 DUP3 ADD MLOAD SWAP1 PUSH1 0x1 PUSH1 0x1 PUSH1 0x40 SHL SUB DUP3 GT PUSH2 0xD01 JUMPI SWAP2 PUSH2 0x20D8 PUSH2 0x1E0 SWAP3 PUSH2 0x20DF SWAP5 DUP4 ADD SWAP1 DUP4 ADD PUSH2 0x2689 JUMP JUMPDEST POP ADD PUSH2 0x26CE JUMP JUMPDEST POP SWAP2 SWAP6 CODESIZE PUSH2 0x1945 JUMP JUMPDEST DUP7 DUP1 REVERT JUMPDEST PUSH1 0x40 MLOAD PUSH3 0x461BCD PUSH1 0xE5 SHL DUP2 MSTORE PUSH1 0x20 PUSH1 0x4 DUP3 ADD MSTORE PUSH1 0x19 PUSH1 0x24 DUP3 ADD MSTORE PUSH32 0x416D6F756E7420657863656564732062617463682073697A6500000000000000 PUSH1 0x44 DUP3 ADD MSTORE PUSH1 0x64 SWAP1 REVERT JUMPDEST PUSH1 0x40 MLOAD PUSH3 0x461BCD PUSH1 0xE5 SHL DUP2 MSTORE PUSH1 0x20 PUSH1 0x4 DUP3 ADD MSTORE PUSH1 0x1B PUSH1 0x24 DUP3 ADD MSTORE PUSH32 0x43616E6E6F74206C697374207265746972656420637265646974730000000000 PUSH1 0x44 DUP3 ADD MSTORE PUSH1 0x64 SWAP1 REVERT JUMPDEST SWAP6 POP POP POP POP POP RETURNDATASIZE SWAP2 DUP3 DUP3 DUP3 RETURNDATACOPY PUSH2 0x218C DUP4 DUP3 PUSH2 0x23CD JUMP JUMPDEST PUSH2 0x100 DUP2 DUP5 DUP2 ADD SUB SLT PUSH2 0xE01 JUMPI DUP1 MLOAD SWAP1 PUSH1 0x20 DUP2 ADD MLOAD SWAP2 PUSH1 0x40 DUP3 ADD MLOAD SWAP1 PUSH1 0x60 DUP4 ADD MLOAD PUSH1 0x1 PUSH1 0x1 PUSH1 0x40 SHL SUB DUP2 GT PUSH2 0x1FB8 JUMPI PUSH2 0x21CA SWAP1 DUP8 DUP6 ADD SWAP1 DUP6 ADD PUSH2 0x2689 JUMP JUMPDEST SWAP6 PUSH1 0x80 DUP5 ADD MLOAD SWAP1 PUSH1 0x1 PUSH1 0x1 PUSH1 0x40 SHL SUB DUP3 GT PUSH2 0x20E8 JUMPI SWAP1 PUSH2 0x21EE SWAP2 DUP6 ADD SWAP1 DUP6 ADD PUSH2 0x2689 JUMP JUMPDEST POP PUSH2 0x2207 PUSH1 0xE0 PUSH2 0x2200 PUSH1 0xA0 DUP7 ADD PUSH2 0x26CE JUMP JUMPDEST SWAP5 ADD PUSH2 0x26DB JUMP JUMPDEST POP SWAP3 SWAP1 SWAP5 SWAP2 CODESIZE PUSH2 0x18FB JUMP JUMPDEST POP PUSH1 0x40 MLOAD SWAP1 RETURNDATASIZE SWAP1 DUP3 RETURNDATACOPY RETURNDATASIZE SWAP1 REVERT JUMPDEST PUSH1 0x40 MLOAD PUSH3 0x461BCD PUSH1 0xE5 SHL DUP2 MSTORE PUSH1 0x20 PUSH1 0x4 DUP3 ADD MSTORE PUSH1 0x1E PUSH1 0x24 DUP3 ADD MSTORE PUSH32 0x4475726174696F6E2063616E6E6F742065786365656420393020646179730000 PUSH1 0x44 DUP3 ADD MSTORE PUSH1 0x64 SWAP1 REVERT JUMPDEST PUSH1 0x40 MLOAD PUSH3 0x461BCD PUSH1 0xE5 SHL DUP2 MSTORE PUSH1 0x20 PUSH1 0x4 DUP3 ADD MSTORE PUSH1 0x1F PUSH1 0x24 DUP3 ADD MSTORE PUSH32 0x4475726174696F6E206D7573742062652067726561746572207468616E203000 PUSH1 0x44 DUP3 ADD MSTORE PUSH1 0x64 SWAP1 REVERT JUMPDEST PUSH1 0x40 MLOAD PUSH3 0x461BCD PUSH1 0xE5 SHL DUP2 MSTORE PUSH1 0x20 PUSH1 0x4 DUP3 ADD MSTORE PUSH1 0x1D PUSH1 0x24 DUP3 ADD MSTORE PUSH32 0x416D6F756E74206D7573742062652067726561746572207468616E2030000000 PUSH1 0x44 DUP3 ADD MSTORE PUSH1 0x64 SWAP1 REVERT JUMPDEST POP CALLVALUE PUSH2 0x22C JUMPI PUSH1 0x40 CALLDATASIZE PUSH1 0x3 NOT ADD SLT PUSH2 0x22C JUMPI PUSH2 0x2308 PUSH2 0x2336 JUMP JUMPDEST PUSH1 0x1 PUSH1 0x1 PUSH1 0xA0 SHL SUB AND DUP2 MSTORE PUSH1 0x7 PUSH1 0x20 MSTORE PUSH1 0x40 DUP2 KECCAK256 DUP1 SLOAD PUSH1 0x24 CALLDATALOAD SWAP3 SWAP1 DUP4 LT ISZERO PUSH2 0x22C JUMPI PUSH1 0x20 PUSH2 0x147D DUP5 DUP5 PUSH2 0x2351 JUMP JUMPDEST PUSH1 0x4 CALLDATALOAD SWAP1 PUSH1 0x1 PUSH1 0x1 PUSH1 0xA0 SHL SUB DUP3 AND DUP3 SUB PUSH2 0x234C JUMPI JUMP JUMPDEST PUSH1 0x0 DUP1 REVERT JUMPDEST DUP1 SLOAD DUP3 LT ISZERO PUSH2 0x2369 JUMPI PUSH1 0x0 MSTORE PUSH1 0x20 PUSH1 0x0 KECCAK256 ADD SWAP1 PUSH1 0x0 SWAP1 JUMP JUMPDEST PUSH4 0x4E487B71 PUSH1 0xE0 SHL PUSH1 0x0 MSTORE PUSH1 0x32 PUSH1 0x4 MSTORE PUSH1 0x24 PUSH1 0x0 REVERT JUMPDEST PUSH2 0x1E0 DUP2 ADD SWAP1 DUP2 LT PUSH1 0x1 PUSH1 0x1 PUSH1 0x40 SHL SUB DUP3 GT OR PUSH2 0x239B JUMPI PUSH1 0x40 MSTORE JUMP JUMPDEST PUSH4 0x4E487B71 PUSH1 0xE0 SHL PUSH1 0x0 MSTORE PUSH1 0x41 PUSH1 0x4 MSTORE PUSH1 0x24 PUSH1 0x0 REVERT JUMPDEST PUSH2 0x140 DUP2 ADD SWAP1 DUP2 LT PUSH1 0x1 PUSH1 0x1 PUSH1 0x40 SHL SUB DUP3 GT OR PUSH2 0x239B JUMPI PUSH1 0x40 MSTORE JUMP JUMPDEST SWAP1 PUSH1 0x1F DUP1 NOT SWAP2 ADD AND DUP2 ADD SWAP1 DUP2 LT PUSH1 0x1 PUSH1 0x1 PUSH1 0x40 SHL SUB DUP3 GT OR PUSH2 0x239B JUMPI PUSH1 0x40 MSTORE JUMP JUMPDEST PUSH1 0x1 PUSH1 0x1 PUSH1 0x40 SHL SUB DUP2 GT PUSH2 0x239B JUMPI PUSH1 0x1F ADD PUSH1 0x1F NOT AND PUSH1 0x20 ADD SWAP1 JUMP JUMPDEST DUP2 PUSH1 0x1F DUP3 ADD SLT ISZERO PUSH2 0x234C JUMPI DUP1 CALLDATALOAD SWAP1 PUSH2 0x2420 DUP3 PUSH2 0x23EE JUMP JUMPDEST SWAP3 PUSH2 0x242E PUSH1 0x40 MLOAD SWAP5 DUP6 PUSH2 0x23CD JUMP JUMPDEST DUP3 DUP5 MSTORE PUSH1 0x20 DUP4 DUP4 ADD ADD GT PUSH2 0x234C JUMPI DUP2 PUSH1 0x0 SWAP3 PUSH1 0x20 DUP1 SWAP4 ADD DUP4 DUP7 ADD CALLDATACOPY DUP4 ADD ADD MSTORE SWAP1 JUMP JUMPDEST PUSH1 0x0 JUMPDEST DUP4 DUP2 LT PUSH2 0x2463 JUMPI POP POP PUSH1 0x0 SWAP2 ADD MSTORE JUMP JUMPDEST DUP2 DUP2 ADD MLOAD DUP4 DUP3 ADD MSTORE PUSH1 0x20 ADD PUSH2 0x2453 JUMP JUMPDEST SWAP1 PUSH1 0x20 SWAP2 PUSH2 0x248C DUP2 MLOAD DUP1 SWAP3 DUP2 DUP6 MSTORE DUP6 DUP1 DUP7 ADD SWAP2 ADD PUSH2 0x2450 JUMP JUMPDEST PUSH1 0x1F ADD PUSH1 0x1F NOT AND ADD ADD SWAP1 JUMP JUMPDEST PUSH1 0x20 SWAP1 DUP2 PUSH1 0x40 DUP2 DUP4 ADD SWAP3 DUP3 DUP2 MSTORE DUP6 MLOAD DUP1 SWAP5 MSTORE ADD SWAP4 ADD SWAP2 PUSH1 0x0 JUMPDEST DUP3 DUP2 LT PUSH2 0x24BF JUMPI POP POP POP POP SWAP1 JUMP JUMPDEST DUP4 MLOAD DUP6 MSTORE SWAP4 DUP2 ADD SWAP4 SWAP3 DUP2 ADD SWAP3 PUSH1 0x1 ADD PUSH2 0x24B1 JUMP JUMPDEST PUSH1 0x40 SWAP1 PUSH1 0x3 NOT ADD SLT PUSH2 0x234C JUMPI PUSH1 0x4 CALLDATALOAD SWAP1 PUSH1 0x24 CALLDATALOAD SWAP1 JUMP JUMPDEST DUP1 SLOAD DUP3 LT ISZERO PUSH2 0x2369 JUMPI PUSH1 0x0 MSTORE PUSH1 0xA PUSH1 0x20 PUSH1 0x0 KECCAK256 SWAP2 MUL ADD SWAP1 PUSH1 0x0 SWAP1 JUMP JUMPDEST SWAP1 PUSH1 0x1 DUP3 DUP2 SHR SWAP3 AND DUP1 ISZERO PUSH2 0x2535 JUMPI JUMPDEST PUSH1 0x20 DUP4 LT EQ PUSH2 0x251F JUMPI JUMP JUMPDEST PUSH4 0x4E487B71 PUSH1 0xE0 SHL PUSH1 0x0 MSTORE PUSH1 0x22 PUSH1 0x4 MSTORE PUSH1 0x24 PUSH1 0x0 REVERT JUMPDEST SWAP2 PUSH1 0x7F AND SWAP2 PUSH2 0x2514 JUMP JUMPDEST SWAP1 PUSH1 0x40 MLOAD SWAP2 DUP3 PUSH1 0x0 DUP3 SLOAD SWAP3 PUSH2 0x2553 DUP5 PUSH2 0x2505 JUMP JUMPDEST SWAP1 DUP2 DUP5 MSTORE PUSH1 0x1 SWAP5 DUP6 DUP2 AND SWAP1 DUP2 PUSH1 0x0 EQ PUSH2 0x25C2 JUMPI POP PUSH1 0x1 EQ PUSH2 0x257F JUMPI JUMPDEST POP POP PUSH2 0x257D SWAP3 POP SUB DUP4 PUSH2 0x23CD JUMP JUMPDEST JUMP JUMPDEST SWAP1 SWAP4 SWAP2 POP PUSH1 0x0 MSTORE PUSH1 0x20 SWAP1 DUP2 PUSH1 0x0 KECCAK256 SWAP4 PUSH1 0x0 SWAP2 JUMPDEST DUP2 DUP4 LT PUSH2 0x25AA JUMPI POP POP PUSH2 0x257D SWAP4 POP DUP3 ADD ADD CODESIZE DUP1 PUSH2 0x256F JUMP JUMPDEST DUP6 SLOAD DUP9 DUP5 ADD DUP6 ADD MSTORE SWAP5 DUP6 ADD SWAP5 DUP8 SWAP5 POP SWAP2 DUP4 ADD SWAP2 PUSH2 0x2592 JUMP JUMPDEST SWAP2 POP POP PUSH2 0x257D SWAP5 POP PUSH1 0x20 SWAP3 POP PUSH1 0xFF NOT AND DUP3 DUP5 ADD MSTORE ISZERO ISZERO PUSH1 0x5 SHL DUP3 ADD ADD CODESIZE DUP1 PUSH2 0x256F JUMP JUMPDEST PUSH1 0x1 SLOAD PUSH1 0x1 PUSH1 0x1 PUSH1 0xA0 SHL SUB AND CALLER SUB PUSH2 0x25F9 JUMPI JUMP JUMPDEST PUSH1 0x64 PUSH1 0x40 MLOAD PUSH3 0x461BCD PUSH1 0xE5 SHL DUP2 MSTORE PUSH1 0x20 PUSH1 0x4 DUP3 ADD MSTORE PUSH1 0x20 PUSH1 0x24 DUP3 ADD MSTORE PUSH32 0x4F776E61626C653A2063616C6C6572206973206E6F7420746865206F776E6572 PUSH1 0x44 DUP3 ADD MSTORE REVERT JUMPDEST ISZERO PUSH2 0x2644 JUMPI JUMP JUMPDEST PUSH1 0x40 MLOAD PUSH3 0x461BCD PUSH1 0xE5 SHL DUP2 MSTORE PUSH1 0x20 PUSH1 0x4 DUP3 ADD MSTORE PUSH1 0x1C PUSH1 0x24 DUP3 ADD MSTORE PUSH32 0x5072696365206D7573742062652067726561746572207468616E203000000000 PUSH1 0x44 DUP3 ADD MSTORE PUSH1 0x64 SWAP1 REVERT JUMPDEST DUP2 PUSH1 0x1F DUP3 ADD SLT ISZERO PUSH2 0x234C JUMPI DUP1 MLOAD PUSH2 0x269F DUP2 PUSH2 0x23EE JUMP JUMPDEST SWAP3 PUSH2 0x26AD PUSH1 0x40 MLOAD SWAP5 DUP6 PUSH2 0x23CD JUMP JUMPDEST DUP2 DUP5 MSTORE PUSH1 0x20 DUP3 DUP5 ADD ADD GT PUSH2 0x234C JUMPI PUSH2 0x26CB SWAP2 PUSH1 0x20 DUP1 DUP6 ADD SWAP2 ADD PUSH2 0x2450 JUMP JUMPDEST SWAP1 JUMP JUMPDEST MLOAD SWAP1 DUP2 ISZERO ISZERO DUP3 SUB PUSH2 0x234C JUMPI JUMP JUMPDEST MLOAD SWAP1 PUSH1 0x1 PUSH1 0x1 PUSH1 0xA0 SHL SUB DUP3 AND DUP3 SUB PUSH2 0x234C JUMPI JUMP JUMPDEST PUSH1 0x1 PUSH1 0x1 PUSH1 0x40 SHL SUB DUP2 GT PUSH2 0x239B JUMPI PUSH1 0x5 SHL PUSH1 0x20 ADD SWAP1 JUMP JUMPDEST DUP2 PUSH1 0x1F DUP3 ADD SLT ISZERO PUSH2 0x234C JUMPI DUP1 MLOAD SWAP2 PUSH2 0x271D DUP4 PUSH2 0x26EF JUMP JUMPDEST SWAP3 PUSH2 0x272B PUSH1 0x40 MLOAD SWAP5 DUP6 PUSH2 0x23CD JUMP JUMPDEST DUP1 DUP5 MSTORE PUSH1 0x20 SWAP3 DUP4 DUP1 DUP7 ADD SWAP3 PUSH1 0x5 SHL DUP3 ADD ADD SWAP3 DUP4 GT PUSH2 0x234C JUMPI DUP4 ADD SWAP1 JUMPDEST DUP3 DUP3 LT PUSH2 0x2755 JUMPI POP POP POP POP SWAP1 JUMP JUMPDEST DUP4 DUP1 SWAP2 PUSH2 0x2761 DUP5 PUSH2 0x26DB JUMP JUMPDEST DUP2 MSTORE ADD SWAP2 ADD SWAP1 PUSH2 0x2747 JUMP JUMPDEST DUP2 DUP2 MUL SWAP3 SWAP2 DUP2 ISZERO SWAP2 DUP5 DIV EQ OR ISZERO PUSH2 0x277F JUMPI JUMP JUMPDEST PUSH4 0x4E487B71 PUSH1 0xE0 SHL PUSH1 0x0 MSTORE PUSH1 0x11 PUSH1 0x4 MSTORE PUSH1 0x24 PUSH1 0x0 REVERT JUMPDEST PUSH1 0x0 NOT DUP2 EQ PUSH2 0x277F JUMPI PUSH1 0x1 ADD SWAP1 JUMP JUMPDEST SWAP2 SWAP1 DUP3 ADD DUP1 SWAP3 GT PUSH2 0x277F JUMPI JUMP JUMPDEST DUP1 SLOAD PUSH1 0x1 PUSH1 0x40 SHL DUP2 LT ISZERO PUSH2 0x239B JUMPI PUSH2 0x27CE SWAP2 PUSH1 0x1 DUP3 ADD DUP2 SSTORE PUSH2 0x2351 JUMP JUMPDEST DUP2 SWAP3 SWAP2 SLOAD SWAP1 PUSH1 0x3 SHL SWAP2 DUP3 SHL SWAP2 PUSH1 0x0 NOT SWAP1 SHL NOT AND OR SWAP1 SSTORE JUMP JUMPDEST PUSH1 0x2 PUSH1 0x0 SLOAD EQ PUSH2 0x27F7 JUMPI PUSH1 0x2 PUSH1 0x0 SSTORE JUMP JUMPDEST PUSH1 0x40 MLOAD PUSH3 0x461BCD PUSH1 0xE5 SHL DUP2 MSTORE PUSH1 0x20 PUSH1 0x4 DUP3 ADD MSTORE PUSH1 0x1F PUSH1 0x24 DUP3 ADD MSTORE PUSH32 0x5265656E7472616E637947756172643A207265656E7472616E742063616C6C00 PUSH1 0x44 DUP3 ADD MSTORE PUSH1 0x64 SWAP1 REVERT JUMPDEST ISZERO PUSH2 0x2843 JUMPI JUMP JUMPDEST PUSH1 0x40 MLOAD PUSH3 0x461BCD PUSH1 0xE5 SHL DUP2 MSTORE PUSH1 0x20 PUSH1 0x4 DUP3 ADD MSTORE PUSH1 0x12 PUSH1 0x24 DUP3 ADD MSTORE PUSH18 0x125B9D985B1A59081B1A5CDD1A5B99C81251 PUSH1 0x72 SHL PUSH1 0x44 DUP3 ADD MSTORE PUSH1 0x64 SWAP1 REVERT JUMPDEST ISZERO PUSH2 0x2884 JUMPI JUMP JUMPDEST PUSH1 0x40 MLOAD PUSH3 0x461BCD PUSH1 0xE5 SHL DUP2 MSTORE PUSH1 0x20 PUSH1 0x4 DUP3 ADD MSTORE PUSH1 0x15 PUSH1 0x24 DUP3 ADD MSTORE PUSH21 0x4C697374696E67206973206E6F7420616374697665 PUSH1 0x58 SHL PUSH1 0x44 DUP3 ADD MSTORE PUSH1 0x64 SWAP1 REVERT JUMPDEST ISZERO PUSH2 0x28C8 JUMPI JUMP JUMPDEST PUSH1 0x40 MLOAD PUSH3 0x461BCD PUSH1 0xE5 SHL DUP2 MSTORE PUSH1 0x20 PUSH1 0x4 DUP3 ADD MSTORE PUSH1 0x13 PUSH1 0x24 DUP3 ADD MSTORE PUSH19 0x131A5CDD1A5B99C81A185CC8195E1C1A5C9959 PUSH1 0x6A SHL PUSH1 0x44 DUP3 ADD MSTORE PUSH1 0x64 SWAP1 REVERT JUMPDEST SWAP2 SWAP1 DUP3 SUB SWAP2 DUP3 GT PUSH2 0x277F JUMPI JUMP JUMPDEST ISZERO PUSH2 0x2917 JUMPI JUMP JUMPDEST PUSH1 0x40 MLOAD PUSH3 0x461BCD PUSH1 0xE5 SHL DUP2 MSTORE PUSH1 0x20 PUSH1 0x4 DUP3 ADD MSTORE PUSH1 0xE PUSH1 0x24 DUP3 ADD MSTORE PUSH14 0x2737BA103A34329039B2B63632B9 PUSH1 0x91 SHL PUSH1 0x44 DUP3 ADD MSTORE PUSH1 0x64 SWAP1 REVERT JUMPDEST SWAP1 PUSH2 0x2957 DUP3 PUSH2 0x26EF JUMP JUMPDEST PUSH2 0x2964 PUSH1 0x40 MLOAD SWAP2 DUP3 PUSH2 0x23CD JUMP JUMPDEST DUP3 DUP2 MSTORE DUP1 SWAP3 PUSH2 0x2975 PUSH1 0x1F NOT SWAP2 PUSH2 0x26EF JUMP JUMPDEST ADD SWAP1 PUSH1 0x20 CALLDATASIZE SWAP2 ADD CALLDATACOPY JUMP JUMPDEST DUP1 MLOAD DUP3 LT ISZERO PUSH2 0x2369 JUMPI PUSH1 0x20 SWAP2 PUSH1 0x5 SHL ADD ADD SWAP1 JUMP INVALID LOG2 PUSH5 0x6970667358 0x22 SLT KECCAK256 CALLER DUP10 PREVRANDAO EXTCODECOPY 0xE9 DUP15 DUP2 0x4B PREVRANDAO SWAP12 0xEB 0xAA PUSH5 0x774F9F5E2C RETURNDATASIZE NOT CREATE JUMPDEST LOG0 0xB4 SDIV DUP12 CALL 0xDE EXTCODECOPY SWAP6 0xC9 0xB2 PUSH5 0x736F6C6343 STOP ADDMOD SGT STOP CALLER "},"methodIdentifiers":{"batchSales(uint256,uint256)":"82cbd16f","buyerPurchases(address,uint256)":"34b7bfef","cancelListing(uint256)":"305a67a8","carbonCreditToken()":"66dea358","createListing(uint256,uint256,uint256,uint256,string)":"058d1b78","emergencyWithdraw()":"db2e21bc","feeRecipient()":"46904840","getActiveListings(uint256,uint256)":"c128b231","getBatchSales(uint256)":"61f07fdc","getListing(uint256)":"107a274a","getMarketplaceStats()":"812d966a","getProjectListings(uint256)":"3e95a9d0","listings(uint256)":"de74e57b","owner()":"8da5cb5b","paymentDistributor()":"cda6526d","platformFeePercentage()":"cdd78cfc","projectRegistry()":"5a33d8dc","projectTotalRevenue(uint256)":"cb52b930","projectTotalSales(uint256)":"6602219f","purchaseCredits(uint256,uint256,string)":"9e7d1d2c","renounceOwnership()":"715018a6","sellerListings(address,uint256)":"054564f0","setFeeRecipient(address)":"e74b981b","setPlatformFee(uint256)":"12e8e2c3","totalFeesCollected()":"60c6d8ae","totalVolumeTraded()":"5adc19c7","transferOwnership(address)":"f2fde38b","updatePrice(uint256,uint256)":"82367b2d","userTotalPurchases(address)":"dc6e9cbe","userTotalSales(address)":"a85811f2"}}}}}