{
  "_format": "hh-sol-artifact-1",
  "contractName": "PaymentDistributor",
  "sourceName": "contracts/PaymentDistributor.sol",
  "abi": [
    {
      "inputs": [
        {
          "internalType": "address",
          "name": "_carbonCreditToken",
          "type": "address"
        },
        {
          "internalType": "address",
          "name": "_platformTreasury",
          "type": "address"
        }
      ],
      "stateMutability": "nonpayable",
      "type": "constructor"
    },
    {
      "anonymous": false,
      "inputs": [
        {
          "indexed": true,
          "internalType": "address",
          "name": "recipient",
          "type": "address"
        },
        {
          "indexed": false,
          "internalType": "uint256",
          "name": "amount",
          "type": "uint256"
        }
      ],
      "name": "FundsWithdrawn",
      "type": "event"
    },
    {
      "anonymous": false,
      "inputs": [
        {
          "indexed": true,
          "internalType": "address",
          "name": "previousOwner",
          "type": "address"
        },
        {
          "indexed": true,
          "internalType": "address",
          "name": "newOwner",
          "type": "address"
        }
      ],
      "name": "OwnershipTransferred",
      "type": "event"
    },
    {
      "anonymous": false,
      "inputs": [
        {
          "indexed": true,
          "internalType": "uint256",
          "name": "saleId",
          "type": "uint256"
        },
        {
          "indexed": true,
          "internalType": "uint256",
          "name": "projectId",
          "type": "uint256"
        },
        {
          "indexed": false,
          "internalType": "uint256",
          "name": "totalAmount",
          "type": "uint256"
        },
        {
          "indexed": false,
          "internalType": "uint256",
          "name": "timestamp",
          "type": "uint256"
        }
      ],
      "name": "PaymentDistributed",
      "type": "event"
    },
    {
      "anonymous": false,
      "inputs": [
        {
          "indexed": true,
          "internalType": "uint256",
          "name": "projectId",
          "type": "uint256"
        },
        {
          "indexed": false,
          "internalType": "address[]",
          "name": "communityWallets",
          "type": "address[]"
        },
        {
          "indexed": false,
          "internalType": "uint256[]",
          "name": "communityPercentages",
          "type": "uint256[]"
        }
      ],
      "name": "PaymentSplitConfigured",
      "type": "event"
    },
    {
      "anonymous": false,
      "inputs": [
        {
          "indexed": true,
          "internalType": "uint256",
          "name": "saleId",
          "type": "uint256"
        },
        {
          "indexed": true,
          "internalType": "uint256",
          "name": "projectId",
          "type": "uint256"
        },
        {
          "indexed": true,
          "internalType": "uint256",
          "name": "batchId",
          "type": "uint256"
        },
        {
          "indexed": false,
          "internalType": "uint256",
          "name": "amount",
          "type": "uint256"
        },
        {
          "indexed": false,
          "internalType": "uint256",
          "name": "price",
          "type": "uint256"
        },
        {
          "indexed": false,
          "internalType": "address",
          "name": "buyer",
          "type": "address"
        },
        {
          "indexed": false,
          "internalType": "address",
          "name": "seller",
          "type": "address"
        }
      ],
      "name": "SaleRecorded",
      "type": "event"
    },
    {
      "inputs": [],
      "name": "carbonCreditToken",
      "outputs": [
        {
          "internalType": "contract CarbonCreditToken",
          "name": "",
          "type": "address"
        }
      ],
      "stateMutability": "view",
      "type": "function"
    },
    {
      "inputs": [
        {
          "internalType": "uint256",
          "name": "_projectId",
          "type": "uint256"
        },
        {
          "internalType": "address[]",
          "name": "_communityWallets",
          "type": "address[]"
        },
        {
          "internalType": "uint256[]",
          "name": "_communityPercentages",
          "type": "uint256[]"
        },
        {
          "internalType": "address[]",
          "name": "_ngoWallets",
          "type": "address[]"
        },
        {
          "internalType": "uint256[]",
          "name": "_ngoPercentages",
          "type": "uint256[]"
        },
        {
          "internalType": "address[]",
          "name": "_verifierWallets",
          "type": "address[]"
        },
        {
          "internalType": "uint256[]",
          "name": "_verifierPercentages",
          "type": "uint256[]"
        },
        {
          "internalType": "address",
          "name": "_platformWallet",
          "type": "address"
        },
        {
          "internalType": "uint256",
          "name": "_platformPercentage",
          "type": "uint256"
        }
      ],
      "name": "configurePaymentSplit",
      "outputs": [],
      "stateMutability": "nonpayable",
      "type": "function"
    },
    {
      "inputs": [],
      "name": "defaultPlatformFee",
      "outputs": [
        {
          "internalType": "uint256",
          "name": "",
          "type": "uint256"
        }
      ],
      "stateMutability": "view",
      "type": "function"
    },
    {
      "inputs": [
        {
          "internalType": "address",
          "name": "_recipient",
          "type": "address"
        },
        {
          "internalType": "uint256",
          "name": "_amount",
          "type": "uint256"
        }
      ],
      "name": "emergencyWithdraw",
      "outputs": [],
      "stateMutability": "nonpayable",
      "type": "function"
    },
    {
      "inputs": [
        {
          "internalType": "uint256",
          "name": "_projectId",
          "type": "uint256"
        }
      ],
      "name": "getPaymentSplit",
      "outputs": [
        {
          "components": [
            {
              "internalType": "address[]",
              "name": "communityWallets",
              "type": "address[]"
            },
            {
              "internalType": "uint256[]",
              "name": "communityPercentages",
              "type": "uint256[]"
            },
            {
              "internalType": "address[]",
              "name": "ngoWallets",
              "type": "address[]"
            },
            {
              "internalType": "uint256[]",
              "name": "ngoPercentages",
              "type": "uint256[]"
            },
            {
              "internalType": "address[]",
              "name": "verifierWallets",
              "type": "address[]"
            },
            {
              "internalType": "uint256[]",
              "name": "verifierPercentages",
              "type": "uint256[]"
            },
            {
              "internalType": "address",
              "name": "platformWallet",
              "type": "address"
            },
            {
              "internalType": "uint256",
              "name": "platformPercentage",
              "type": "uint256"
            }
          ],
          "internalType": "struct PaymentDistributor.PaymentSplit",
          "name": "",
          "type": "tuple"
        }
      ],
      "stateMutability": "view",
      "type": "function"
    },
    {
      "inputs": [
        {
          "internalType": "address",
          "name": "_address",
          "type": "address"
        }
      ],
      "name": "getPendingWithdrawal",
      "outputs": [
        {
          "internalType": "uint256",
          "name": "",
          "type": "uint256"
        }
      ],
      "stateMutability": "view",
      "type": "function"
    },
    {
      "inputs": [
        {
          "internalType": "uint256",
          "name": "_saleId",
          "type": "uint256"
        }
      ],
      "name": "getSale",
      "outputs": [
        {
          "components": [
            {
              "internalType": "uint256",
              "name": "projectId",
              "type": "uint256"
            },
            {
              "internalType": "uint256",
              "name": "batchId",
              "type": "uint256"
            },
            {
              "internalType": "uint256",
              "name": "amount",
              "type": "uint256"
            },
            {
              "internalType": "uint256",
              "name": "price",
              "type": "uint256"
            },
            {
              "internalType": "address",
              "name": "buyer",
              "type": "address"
            },
            {
              "internalType": "address",
              "name": "seller",
              "type": "address"
            },
            {
              "internalType": "uint256",
              "name": "timestamp",
              "type": "uint256"
            },
            {
              "internalType": "bool",
              "name": "isDistributed",
              "type": "bool"
            }
          ],
          "internalType": "struct PaymentDistributor.Sale",
          "name": "",
          "type": "tuple"
        }
      ],
      "stateMutability": "view",
      "type": "function"
    },
    {
      "inputs": [],
      "name": "getTotalSales",
      "outputs": [
        {
          "internalType": "uint256",
          "name": "",
          "type": "uint256"
        }
      ],
      "stateMutability": "view",
      "type": "function"
    },
    {
      "inputs": [],
      "name": "owner",
      "outputs": [
        {
          "internalType": "address",
          "name": "",
          "type": "address"
        }
      ],
      "stateMutability": "view",
      "type": "function"
    },
    {
      "inputs": [
        {
          "internalType": "address",
          "name": "",
          "type": "address"
        }
      ],
      "name": "pendingWithdrawals",
      "outputs": [
        {
          "internalType": "uint256",
          "name": "",
          "type": "uint256"
        }
      ],
      "stateMutability": "view",
      "type": "function"
    },
    {
      "inputs": [],
      "name": "platformTreasury",
      "outputs": [
        {
          "internalType": "address",
          "name": "",
          "type": "address"
        }
      ],
      "stateMutability": "view",
      "type": "function"
    },
    {
      "inputs": [
        {
          "internalType": "uint256",
          "name": "",
          "type": "uint256"
        }
      ],
      "name": "projectPaymentSplits",
      "outputs": [
        {
          "internalType": "address",
          "name": "platformWallet",
          "type": "address"
        },
        {
          "internalType": "uint256",
          "name": "platformPercentage",
          "type": "uint256"
        }
      ],
      "stateMutability": "view",
      "type": "function"
    },
    {
      "inputs": [
        {
          "internalType": "uint256",
          "name": "_projectId",
          "type": "uint256"
        },
        {
          "internalType": "uint256",
          "name": "_batchId",
          "type": "uint256"
        },
        {
          "internalType": "uint256",
          "name": "_amount",
          "type": "uint256"
        },
        {
          "internalType": "uint256",
          "name": "_price",
          "type": "uint256"
        },
        {
          "internalType": "address",
          "name": "_buyer",
          "type": "address"
        },
        {
          "internalType": "address",
          "name": "_seller",
          "type": "address"
        }
      ],
      "name": "recordSaleAndDistribute",
      "outputs": [],
      "stateMutability": "payable",
      "type": "function"
    },
    {
      "inputs": [],
      "name": "renounceOwnership",
      "outputs": [],
      "stateMutability": "nonpayable",
      "type": "function"
    },
    {
      "inputs": [
        {
          "internalType": "uint256",
          "name": "",
          "type": "uint256"
        }
      ],
      "name": "sales",
      "outputs": [
        {
          "internalType": "uint256",
          "name": "projectId",
          "type": "uint256"
        },
        {
          "internalType": "uint256",
          "name": "batchId",
          "type": "uint256"
        },
        {
          "internalType": "uint256",
          "name": "amount",
          "type": "uint256"
        },
        {
          "internalType": "uint256",
          "name": "price",
          "type": "uint256"
        },
        {
          "internalType": "address",
          "name": "buyer",
          "type": "address"
        },
        {
          "internalType": "address",
          "name": "seller",
          "type": "address"
        },
        {
          "internalType": "uint256",
          "name": "timestamp",
          "type": "uint256"
        },
        {
          "internalType": "bool",
          "name": "isDistributed",
          "type": "bool"
        }
      ],
      "stateMutability": "view",
      "type": "function"
    },
    {
      "inputs": [
        {
          "internalType": "address",
          "name": "newOwner",
          "type": "address"
        }
      ],
      "name": "transferOwnership",
      "outputs": [],
      "stateMutability": "nonpayable",
      "type": "function"
    },
    {
      "inputs": [
        {
          "internalType": "uint256",
          "name": "_newFee",
          "type": "uint256"
        }
      ],
      "name": "updateDefaultPlatformFee",
      "outputs": [],
      "stateMutability": "nonpayable",
      "type": "function"
    },
    {
      "inputs": [
        {
          "internalType": "address",
          "name": "_newTreasury",
          "type": "address"
        }
      ],
      "name": "updatePlatformTreasury",
      "outputs": [],
      "stateMutability": "nonpayable",
      "type": "function"
    },
    {
      "inputs": [],
      "name": "withdraw",
      "outputs": [],
      "stateMutability": "nonpayable",
      "type": "function"
    },
    {
      "stateMutability": "payable",
      "type": "receive"
    }
  ],
  "bytecode": "0x6080346200016f57601f62001a1e38819003918201601f19168301916001600160401b03831184841017620001745780849260409485528339810103126200016f576200005a602062000052836200018a565b92016200018a565b60008054336001600160a01b0319808316821784556040519590946001600160a01b03949093859391908416907f8be0079c531659141344cd1fd0a4f28419497f9722a3daafe3b4186f6b6457e09080a36001805560fa600755169384156200012d575016918215620000e857816005541617600555600654161760065560405161187e9081620001a08239f35b60405162461bcd60e51b815260206004820152601860248201527f496e76616c6964207472656173757279206164647265737300000000000000006044820152606490fd5b62461bcd60e51b815260206004820152601560248201527f496e76616c696420746f6b656e206164647265737300000000000000000000006044820152606490fd5b600080fd5b634e487b7160e01b600052604160045260246000fd5b51906001600160a01b03821682036200016f5756fe608080604052600436101561001d575b50361561001b57600080fd5b005b60e0600035811c9182631c34212c146113cc575081632156a96c146113ae5781633ccfd60b146112ee57816366dea358146112c5578163715018a61461126c57816378dfdf9e14610d8f5781637ee8b2f8146100fd5781638409147914610d4f5781638da5cb5b14610d26578163943d7cae14610c9957816395ccea6714610bce5781639f60be5c14610a32578163a9a79f4c14610428578163b5f522f71461039e578163c1e9f11514610337578163d8f6d5961461022957508063e138818c14610200578063f2fde38b1461013c5763f3f43703146100fd573861000f565b34610137576020366003190112610137576001600160a01b0361011e6113e7565b1660005260046020526020604060002054604051908152f35b600080fd5b34610137576020366003190112610137576101556113e7565b61015d61158e565b6001600160a01b039081169081156101ac57600054826001600160601b0360a01b821617600055167f8be0079c531659141344cd1fd0a4f28419497f9722a3daafe3b4186f6b6457e0600080a3005b60405162461bcd60e51b815260206004820152602660248201527f4f776e61626c653a206e6577206f776e657220697320746865207a65726f206160448201526564647265737360d01b6064820152608490fd5b34610137576000366003190112610137576006546040516001600160a01b039091168152602090f35b34610137576020366003190112610137578060006101009260405161024d8161146e565b8281528260208201528260408201528260608201528260808201528260a08201528260c0820152015260043560005260036020526040600020906040516102938161146e565b8254928382526001810154602083019081526002820154906040840191825260038301546060850190815260018060a01b03928391826004870154169160808801928352836005880154169460a089019586528960ff600760068b01549a60c08d019b8c52015416990198151589526040519a8b525160208b01525160408a015251606089015251166080870152511660a08501525160c084015251151590820152f35b346101375760203660031901126101375760043561035361158e565b6103e8811161036157600755005b60405162461bcd60e51b81526020600482015260156024820152744665652063616e6e6f74206578636565642031302560581b6044820152606490fd5b34610137576020366003190112610137576101009060043560005260036020526040600020908154916001810154906002810154600382015460018060a01b039081600485015416916005850154169260ff600760068701549601541695604051988952602089015260408801526060870152608086015260a085015260c0840152151590820152f35b3461013757610120366003190112610137576024356001600160401b038111610137576104599036906004016114c2565b6044356001600160401b03811161013757610478903690600401611530565b906064356001600160401b038111610137576104989036906004016114c2565b916084356001600160401b038111610137576104b8903690600401611530565b9060a4356001600160401b038111610137576104d89036906004016114c2565b9160c4356001600160401b038111610137576104f8903690600401611530565b9260e4356001600160a01b03811690036101375761051461158e565b61052160043515156115e6565b84518351036109ee5785518251036109a9578051845103610964576000936101043591825b85518710156105735761056761056d916105608989611636565b5190611660565b96611627565b95610546565b92939487896000955b885187101561059c5761056761059691610560898c611636565b9561057c565b92919088886000955b88518710156105c5576105676105bf91610560898c611636565b956105a5565b876127108a921161091f5760043560005260026020526040600020938651956001600160401b03871161088a57600160401b871161088a5761060c87875481895588611680565b60208801968787600052602060002060005b838110610902575050505088516001600160401b03811161088a57600160401b811161088a576001870161065782825481845583611680565b60208b0190600052602060002060005b8381106108ee57505050508051906001600160401b03821161088a57600160401b821161088a57602060028801916106a484845481865585611680565b0190600052602060002060005b8381106108d157505050508051906001600160401b03821161088a57600160401b821161088a57602060038701916106ee84845481865585611680565b0190600052602060002060005b8381106108bd57505050508051906001600160401b03821161088a57600160401b821161088a576020600486019161073884845481865585611680565b0190600052602060002060005b8381106108a05750505050600583018151916001600160401b03831161088a57600160401b831161088a5760209061078284845481865585611680565b0190600052602060002060005b838110610876575050505060e4356001600160a01b0316156108655760e4355b6006830180546001600160a01b0319166001600160a01b03909216919091179055801561085a57600790915b0155604051916040830190604084525180915260608301919060005b81811061083b5784840360208601526004357f777ede1568ff74c4b2a534863225e8886ebd35c4d98fe8601304b64601ecbe0a8680610836888b61143a565b0390a2005b82516001600160a01b03168452602093840193909201916001016107f7565b5060078054916107db565b6006546001600160a01b03166107af565b60019060208451940193818401550161078f565b634e487b7160e01b600052604160045260246000fd5b82516001600160a01b031681830155602090920191600101610745565b6001906020845194019381840155016106fb565b82516001600160a01b0316818301556020909201916001016106b1565b600190602084519401938184015501610667565b82516001600160a01b03168183015560209092019160010161061e565b60405162461bcd60e51b815260206004820152601d60248201527f546f74616c2070657263656e74616765206578636565647320313030250000006044820152606490fd5b60405162461bcd60e51b815260206004820152601f60248201527f566572696669657220617272617973206c656e677468206d69736d61746368006044820152606490fd5b60405162461bcd60e51b815260206004820152601a60248201527f4e474f20617272617973206c656e677468206d69736d617463680000000000006044820152606490fd5b606460405162461bcd60e51b815260206004820152602060248201527f436f6d6d756e69747920617272617973206c656e677468206d69736d617463686044820152fd5b34610137576020806003193601126101375760405190610a518261146e565b82606092838152838382015283604082015283808201528360808201528360a082015260c081016000905201600090526004356000526002815260406000209060405192610a9e8461146e565b610aa78361179f565b8452610ab5600184016117f9565b84830190815294610ac86002850161179f565b6040860190815295610adc600386016117f9565b86840190815290610aef6004870161179f565b60808801908152610b02600588016117f9565b9060a08901918252600160a01b60019003938460068a0154169860c08b01998a526007015496868b019788526040519b8c9b8a8d52518c6101009b8c9101526101208d01610b4f916113fd565b9551601f198d8803810160408f015296610b689161143a565b905191868d830301908d0152610b7d916113fd565b905190848b82030160808c0152610b939161143a565b905190838a82030160a08b0152610ba9916113fd565b9051918882030160c0890152610bbe9161143a565b9451169085015251908301520390f35b3461013757604036600319011261013757610be76113e7565b60243590610bf361158e565b6001600160a01b0316908115610c6057478111610c245760008080809361001b955af1610c1e611722565b50611761565b60405162461bcd60e51b8152602060048201526014602482015273496e73756666696369656e742062616c616e636560601b6044820152606490fd5b60405162461bcd60e51b8152602060048201526011602482015270125b9d985b1a59081c9958da5c1a595b9d607a1b6044820152606490fd5b3461013757602036600319011261013757610cb26113e7565b610cba61158e565b6001600160a01b03168015610ce1576001600160601b0360a01b6006541617600655600080f35b60405162461bcd60e51b815260206004820152601860248201527f496e76616c6964207472656173757279206164647265737300000000000000006044820152606490fd5b34610137576000366003190112610137576000546040516001600160a01b039091168152602090f35b34610137576020366003190112610137576004356000526002602052604080600020600760018060a01b0360068301541691015482519182526020820152f35b60c0366003190112610137576084356001600160a01b03811681036101375760a4356001600160a01b038116810361013757610dc96116b4565b610dd660043515156115e6565b60449081351561122857606435156111e4576001600160a01b038316156111a8576001600160a01b0381161561116b57606435341061113057610e1a600854611627565b92836008558360005260036020526007604060002060043581556024356001820155843560028201556064356003820155600481016001600160601b0360a01b9060018060a01b03851682825416179055600582019060018060a01b038616908254161790554260068201550160ff19815416905560405192358352606435602084015260018060a01b0316604083015260018060a01b0316606082015260243590827f5a9a664aeedd315cc56eed6bf5de3eabfc7cbbbc971652fab2cd9c3a7aed295e608060043593a4600435600052600260205260406000209060009160018101925b8154811015610f765780612710610f2b610f1c610f38948861170a565b90549060031b1c60643561166d565b0480610f3d575b50611627565b610eff565b610f47828561170a565b60018060a01b0391549060031b1c166000526004602052610f6e6040600020918254611660565b905585610f32565b5060005b6002820154811015610fea5780612710610f9d610f1c610fa9946003870161170a565b0480610fae5750611627565b610f7a565b610fbb826002860161170a565b60018060a01b0391549060031b1c166000526004602052610fe26040600020918254611660565b905584610f32565b5060005b600482015481101561102f5780612710611011610f1c61101d946005870161170a565b04806110225750611627565b610fee565b610fbb826004860161170a565b50612710611043600783015460643561166d565b0490816110ff575b50508060005260036020526007604060002001600160ff198254161790556040519060643582524260208301527f56a4d6543e939e39122e27a8de510f88aca0a981ae6d4e5bb52683dcc0d77387604060043593a360643534116110b0575b60018055005b60643534033481116110e9576000808080938160643534146110e0575b3390f16110aa576040513d6000823e3d90fd5b506108fc6110cd565b634e487b7160e01b600052601160045260246000fd5b600601546001600160a01b031660009081526004602052604090208054909161112791611660565b9055818061104b565b60405162461bcd60e51b8152602060048201526014602482015273125b9cdd59999a58da595b9d081c185e5b595b9d60621b81840152606490fd5b60405162461bcd60e51b8152602060048201526016602482015275496e76616c69642073656c6c6572206164647265737360501b81840152606490fd5b60405162461bcd60e51b8152602060048201526015602482015274496e76616c6964206275796572206164647265737360581b81840152606490fd5b60405162461bcd60e51b815260206004820152601c60248201527f5072696365206d7573742062652067726561746572207468616e20300000000081840152606490fd5b60405162461bcd60e51b815260206004820152601d60248201527f416d6f756e74206d7573742062652067726561746572207468616e203000000081840152606490fd5b346101375760003660031901126101375761128561158e565b600080546001600160a01b0319811682556001600160a01b03167f8be0079c531659141344cd1fd0a4f28419497f9722a3daafe3b4186f6b6457e08280a3005b34610137576000366003190112610137576005546040516001600160a01b039091168152602090f35b34610137576000366003190112610137576113076116b4565b33600052600460205260406000205480156113725733600052600460205260006040812055611340600080808085335af1610c1e611722565b6040519081527feaff4b37086828766ad3268786972c0cd24259d4c87a80f9d3963a3c3d999b0d60203392a260018055005b60405162461bcd60e51b81526020600482015260146024820152734e6f2066756e647320746f20776974686472617760601b6044820152606490fd5b34610137576000366003190112610137576020600854604051908152f35b34610137576000366003190112610137576020906007548152f35b600435906001600160a01b038216820361013757565b90815180825260208080930193019160005b82811061141d575050505090565b83516001600160a01b03168552938101939281019260010161140f565b90815180825260208080930193019160005b82811061145a575050505090565b83518552938101939281019260010161144c565b61010081019081106001600160401b0382111761088a57604052565b90601f801991011681019081106001600160401b0382111761088a57604052565b6001600160401b03811161088a5760051b60200190565b81601f82011215610137578035916114d9836114ab565b926114e7604051948561148a565b808452602092838086019260051b820101928311610137578301905b828210611511575050505090565b81356001600160a01b0381168103610137578152908301908301611503565b81601f8201121561013757803591611547836114ab565b92611555604051948561148a565b808452602092838086019260051b820101928311610137578301905b82821061157f575050505090565b81358152908301908301611571565b6000546001600160a01b031633036115a257565b606460405162461bcd60e51b815260206004820152602060248201527f4f776e61626c653a2063616c6c6572206973206e6f7420746865206f776e65726044820152fd5b156115ed57565b60405162461bcd60e51b8152602060048201526012602482015271125b9d985b1a59081c1c9bda9958dd08125160721b6044820152606490fd5b60001981146110e95760010190565b805182101561164a5760209160051b010190565b634e487b7160e01b600052603260045260246000fd5b919082018092116110e957565b818102929181159184041417156110e957565b909182811061168e57505050565b60009182526020822092830192015b8281106116a957505050565b81815560010161169d565b6002600154146116c5576002600155565b60405162461bcd60e51b815260206004820152601f60248201527f5265656e7472616e637947756172643a207265656e7472616e742063616c6c006044820152606490fd5b805482101561164a5760005260206000200190600090565b3d1561175c573d906001600160401b03821161088a5760405191611750601f8201601f19166020018461148a565b82523d6000602084013e565b606090565b1561176857565b60405162461bcd60e51b815260206004820152600f60248201526e151c985b9cd9995c8819985a5b1959608a1b6044820152606490fd5b9060405191828154918282526020928383019160005283600020936000905b8282106117d6575050506117d49250038361148a565b565b85546001600160a01b0316845260019586019588955093810193909101906117be565b9060405191828154918282526020928383019160005283600020936000905b82821061182e575050506117d49250038361148a565b85548452600195860195889550938101939091019061181856fea264697066735822122097239a11d9e994e16979a311445d9f1ec2d3717047de90ec6ed48603400f4fd064736f6c63430008130033",
  "linkReferences": {},
  "deployedLinkReferences": {}
}